{
	"contracts/customERC20.sol": {
		"SuperERC20": {
			"abi": [
				{
					"inputs": [],
					"stateMutability": "nonpayable",
					"type": "constructor"
				},
				{
					"anonymous": false,
					"inputs": [
						{
							"indexed": true,
							"internalType": "address",
							"name": "owner",
							"type": "address"
						},
						{
							"indexed": true,
							"internalType": "address",
							"name": "spender",
							"type": "address"
						},
						{
							"indexed": false,
							"internalType": "uint256",
							"name": "value",
							"type": "uint256"
						}
					],
					"name": "Approval",
					"type": "event"
				},
				{
					"anonymous": false,
					"inputs": [
						{
							"indexed": true,
							"internalType": "address",
							"name": "owner",
							"type": "address"
						},
						{
							"indexed": true,
							"internalType": "address",
							"name": "spender",
							"type": "address"
						},
						{
							"indexed": false,
							"internalType": "uint256",
							"name": "value",
							"type": "uint256"
						}
					],
					"name": "Aprobal",
					"type": "event"
				},
				{
					"anonymous": false,
					"inputs": [
						{
							"indexed": true,
							"internalType": "address",
							"name": "from",
							"type": "address"
						},
						{
							"indexed": true,
							"internalType": "address",
							"name": "to",
							"type": "address"
						},
						{
							"indexed": false,
							"internalType": "uint256",
							"name": "value",
							"type": "uint256"
						}
					],
					"name": "Transer",
					"type": "event"
				},
				{
					"anonymous": false,
					"inputs": [
						{
							"indexed": true,
							"internalType": "address",
							"name": "from",
							"type": "address"
						},
						{
							"indexed": true,
							"internalType": "address",
							"name": "to",
							"type": "address"
						},
						{
							"indexed": false,
							"internalType": "uint256",
							"name": "value",
							"type": "uint256"
						}
					],
					"name": "Transfer",
					"type": "event"
				},
				{
					"inputs": [
						{
							"internalType": "address",
							"name": "owner",
							"type": "address"
						},
						{
							"internalType": "address",
							"name": "spender",
							"type": "address"
						}
					],
					"name": "allowance",
					"outputs": [
						{
							"internalType": "uint256",
							"name": "",
							"type": "uint256"
						}
					],
					"stateMutability": "view",
					"type": "function"
				},
				{
					"inputs": [
						{
							"internalType": "address",
							"name": "spender",
							"type": "address"
						},
						{
							"internalType": "uint256",
							"name": "amount",
							"type": "uint256"
						}
					],
					"name": "approve",
					"outputs": [
						{
							"internalType": "bool",
							"name": "",
							"type": "bool"
						}
					],
					"stateMutability": "nonpayable",
					"type": "function"
				},
				{
					"inputs": [
						{
							"internalType": "address",
							"name": "account",
							"type": "address"
						}
					],
					"name": "balanceOf",
					"outputs": [
						{
							"internalType": "uint256",
							"name": "",
							"type": "uint256"
						}
					],
					"stateMutability": "view",
					"type": "function"
				},
				{
					"inputs": [],
					"name": "createTokens",
					"outputs": [],
					"stateMutability": "nonpayable",
					"type": "function"
				},
				{
					"inputs": [],
					"name": "decimals",
					"outputs": [
						{
							"internalType": "uint8",
							"name": "",
							"type": "uint8"
						}
					],
					"stateMutability": "view",
					"type": "function"
				},
				{
					"inputs": [
						{
							"internalType": "address",
							"name": "spender",
							"type": "address"
						},
						{
							"internalType": "uint256",
							"name": "substractedValue",
							"type": "uint256"
						}
					],
					"name": "decreaseAllowance",
					"outputs": [
						{
							"internalType": "bool",
							"name": "",
							"type": "bool"
						}
					],
					"stateMutability": "nonpayable",
					"type": "function"
				},
				{
					"inputs": [
						{
							"internalType": "address",
							"name": "spender",
							"type": "address"
						},
						{
							"internalType": "uint256",
							"name": "addedValue",
							"type": "uint256"
						}
					],
					"name": "increaseAllowance",
					"outputs": [
						{
							"internalType": "bool",
							"name": "",
							"type": "bool"
						}
					],
					"stateMutability": "nonpayable",
					"type": "function"
				},
				{
					"inputs": [],
					"name": "name",
					"outputs": [
						{
							"internalType": "string",
							"name": "",
							"type": "string"
						}
					],
					"stateMutability": "view",
					"type": "function"
				},
				{
					"inputs": [],
					"name": "symbol",
					"outputs": [
						{
							"internalType": "string",
							"name": "",
							"type": "string"
						}
					],
					"stateMutability": "view",
					"type": "function"
				},
				{
					"inputs": [],
					"name": "totalSupply",
					"outputs": [
						{
							"internalType": "uint256",
							"name": "",
							"type": "uint256"
						}
					],
					"stateMutability": "view",
					"type": "function"
				},
				{
					"inputs": [
						{
							"internalType": "address",
							"name": "to",
							"type": "address"
						},
						{
							"internalType": "uint256",
							"name": "amount",
							"type": "uint256"
						}
					],
					"name": "transfer",
					"outputs": [
						{
							"internalType": "bool",
							"name": "",
							"type": "bool"
						}
					],
					"stateMutability": "nonpayable",
					"type": "function"
				},
				{
					"inputs": [
						{
							"internalType": "address",
							"name": "from",
							"type": "address"
						},
						{
							"internalType": "address",
							"name": "to",
							"type": "address"
						},
						{
							"internalType": "uint256",
							"name": "amount",
							"type": "uint256"
						}
					],
					"name": "transferFrom",
					"outputs": [
						{
							"internalType": "bool",
							"name": "",
							"type": "bool"
						}
					],
					"stateMutability": "nonpayable",
					"type": "function"
				}
			],
			"devdoc": {
				"kind": "dev",
				"methods": {},
				"version": 1
			},
			"evm": {
				"assembly": "    /* \"contracts/customERC20.sol\":86:251  contract SuperERC20 is SuperToken{... */\n  mstore(0x40, 0x80)\n    /* \"contracts/customERC20.sol\":125:171  constructor() SuperToken(\"joan\", \"JP\"){... */\n  callvalue\n  dup1\n  iszero\n  tag_1\n  jumpi\n  0x00\n  dup1\n  revert\ntag_1:\n  pop\n    /* \"contracts/tokenERC20.sol\":1414:1514  constructor(string memory name_, string memory symbol_){... */\n  mload(0x40)\n  dup1\n  0x40\n  add\n  0x40\n  mstore\n  dup1\n  0x04\n  dup2\n  mstore\n  0x20\n  add\n  0x6a6f616e00000000000000000000000000000000000000000000000000000000\n  dup2\n  mstore\n  pop\n  mload(0x40)\n  dup1\n  0x40\n  add\n  0x40\n  mstore\n  dup1\n  0x02\n  dup2\n  mstore\n  0x20\n  add\n  0x4a50000000000000000000000000000000000000000000000000000000000000\n  dup2\n  mstore\n  pop\n    /* \"contracts/tokenERC20.sol\":1483:1488  name_ */\n  dup2\n    /* \"contracts/tokenERC20.sol\":1475:1480  _name */\n  0x03\n    /* \"contracts/tokenERC20.sol\":1475:1488  _name = name_ */\n  swap1\n  dup2\n  tag_5\n  swap2\n  swap1\n  tag_6\n  jump\t// in\ntag_5:\n  pop\n    /* \"contracts/tokenERC20.sol\":1504:1511  symbol_ */\n  dup1\n    /* \"contracts/tokenERC20.sol\":1494:1501  _symbol */\n  0x04\n    /* \"contracts/tokenERC20.sol\":1494:1511  _symbol = symbol_ */\n  swap1\n  dup2\n  tag_7\n  swap2\n  swap1\n  tag_6\n  jump\t// in\ntag_7:\n  pop\n    /* \"contracts/tokenERC20.sol\":1414:1514  constructor(string memory name_, string memory symbol_){... */\n  pop\n  pop\n    /* \"contracts/customERC20.sol\":86:251  contract SuperERC20 is SuperToken{... */\n  jump(tag_9)\n    /* \"#utility.yul\":7:106   */\ntag_10:\n    /* \"#utility.yul\":59:65   */\n  0x00\n    /* \"#utility.yul\":93:98   */\n  dup2\n    /* \"#utility.yul\":87:99   */\n  mload\n    /* \"#utility.yul\":77:99   */\n  swap1\n  pop\n    /* \"#utility.yul\":7:106   */\n  swap2\n  swap1\n  pop\n  jump\t// out\n    /* \"#utility.yul\":112:292   */\ntag_11:\n    /* \"#utility.yul\":160:237   */\n  0x4e487b7100000000000000000000000000000000000000000000000000000000\n    /* \"#utility.yul\":157:158   */\n  0x00\n    /* \"#utility.yul\":150:238   */\n  mstore\n    /* \"#utility.yul\":257:261   */\n  0x41\n    /* \"#utility.yul\":254:255   */\n  0x04\n    /* \"#utility.yul\":247:262   */\n  mstore\n    /* \"#utility.yul\":281:285   */\n  0x24\n    /* \"#utility.yul\":278:279   */\n  0x00\n    /* \"#utility.yul\":271:286   */\n  revert\n    /* \"#utility.yul\":298:478   */\ntag_12:\n    /* \"#utility.yul\":346:423   */\n  0x4e487b7100000000000000000000000000000000000000000000000000000000\n    /* \"#utility.yul\":343:344   */\n  0x00\n    /* \"#utility.yul\":336:424   */\n  mstore\n    /* \"#utility.yul\":443:447   */\n  0x22\n    /* \"#utility.yul\":440:441   */\n  0x04\n    /* \"#utility.yul\":433:448   */\n  mstore\n    /* \"#utility.yul\":467:471   */\n  0x24\n    /* \"#utility.yul\":464:465   */\n  0x00\n    /* \"#utility.yul\":457:472   */\n  revert\n    /* \"#utility.yul\":484:804   */\ntag_13:\n    /* \"#utility.yul\":528:534   */\n  0x00\n    /* \"#utility.yul\":565:566   */\n  0x02\n    /* \"#utility.yul\":559:563   */\n  dup3\n    /* \"#utility.yul\":555:567   */\n  div\n    /* \"#utility.yul\":545:567   */\n  swap1\n  pop\n    /* \"#utility.yul\":612:613   */\n  0x01\n    /* \"#utility.yul\":606:610   */\n  dup3\n    /* \"#utility.yul\":602:614   */\n  and\n    /* \"#utility.yul\":633:651   */\n  dup1\n    /* \"#utility.yul\":623:704   */\n  tag_35\n  jumpi\n    /* \"#utility.yul\":689:693   */\n  0x7f\n    /* \"#utility.yul\":681:687   */\n  dup3\n    /* \"#utility.yul\":677:694   */\n  and\n    /* \"#utility.yul\":667:694   */\n  swap2\n  pop\n    /* \"#utility.yul\":623:704   */\ntag_35:\n    /* \"#utility.yul\":751:753   */\n  0x20\n    /* \"#utility.yul\":743:749   */\n  dup3\n    /* \"#utility.yul\":740:754   */\n  lt\n    /* \"#utility.yul\":720:738   */\n  dup2\n    /* \"#utility.yul\":717:755   */\n  sub\n    /* \"#utility.yul\":714:798   */\n  tag_36\n  jumpi\n    /* \"#utility.yul\":770:788   */\n  tag_37\n  tag_12\n  jump\t// in\ntag_37:\n    /* \"#utility.yul\":714:798   */\ntag_36:\n    /* \"#utility.yul\":535:804   */\n  pop\n    /* \"#utility.yul\":484:804   */\n  swap2\n  swap1\n  pop\n  jump\t// out\n    /* \"#utility.yul\":810:951   */\ntag_14:\n    /* \"#utility.yul\":859:863   */\n  0x00\n    /* \"#utility.yul\":882:885   */\n  dup2\n    /* \"#utility.yul\":874:885   */\n  swap1\n  pop\n    /* \"#utility.yul\":905:908   */\n  dup2\n    /* \"#utility.yul\":902:903   */\n  0x00\n    /* \"#utility.yul\":895:909   */\n  mstore\n    /* \"#utility.yul\":939:943   */\n  0x20\n    /* \"#utility.yul\":936:937   */\n  0x00\n    /* \"#utility.yul\":926:944   */\n  keccak256\n    /* \"#utility.yul\":918:944   */\n  swap1\n  pop\n    /* \"#utility.yul\":810:951   */\n  swap2\n  swap1\n  pop\n  jump\t// out\n    /* \"#utility.yul\":957:1050   */\ntag_15:\n    /* \"#utility.yul\":994:1000   */\n  0x00\n    /* \"#utility.yul\":1041:1043   */\n  0x20\n    /* \"#utility.yul\":1036:1038   */\n  0x1f\n    /* \"#utility.yul\":1029:1034   */\n  dup4\n    /* \"#utility.yul\":1025:1039   */\n  add\n    /* \"#utility.yul\":1021:1044   */\n  div\n    /* \"#utility.yul\":1011:1044   */\n  swap1\n  pop\n    /* \"#utility.yul\":957:1050   */\n  swap2\n  swap1\n  pop\n  jump\t// out\n    /* \"#utility.yul\":1056:1163   */\ntag_16:\n    /* \"#utility.yul\":1100:1108   */\n  0x00\n    /* \"#utility.yul\":1150:1155   */\n  dup3\n    /* \"#utility.yul\":1144:1148   */\n  dup3\n    /* \"#utility.yul\":1140:1156   */\n  shl\n    /* \"#utility.yul\":1119:1156   */\n  swap1\n  pop\n    /* \"#utility.yul\":1056:1163   */\n  swap3\n  swap2\n  pop\n  pop\n  jump\t// out\n    /* \"#utility.yul\":1169:1562   */\ntag_17:\n    /* \"#utility.yul\":1238:1244   */\n  0x00\n    /* \"#utility.yul\":1288:1289   */\n  0x08\n    /* \"#utility.yul\":1276:1286   */\n  dup4\n    /* \"#utility.yul\":1272:1290   */\n  mul\n    /* \"#utility.yul\":1311:1408   */\n  tag_42\n    /* \"#utility.yul\":1341:1407   */\n  0xffffffffffffffffffffffffffffffffffffffffffffffffffffffffffffffff\n    /* \"#utility.yul\":1330:1339   */\n  dup3\n    /* \"#utility.yul\":1311:1408   */\n  tag_16\n  jump\t// in\ntag_42:\n    /* \"#utility.yul\":1429:1468   */\n  tag_43\n    /* \"#utility.yul\":1459:1467   */\n  dup7\n    /* \"#utility.yul\":1448:1457   */\n  dup4\n    /* \"#utility.yul\":1429:1468   */\n  tag_16\n  jump\t// in\ntag_43:\n    /* \"#utility.yul\":1417:1468   */\n  swap6\n  pop\n    /* \"#utility.yul\":1501:1505   */\n  dup1\n    /* \"#utility.yul\":1497:1506   */\n  not\n    /* \"#utility.yul\":1490:1495   */\n  dup5\n    /* \"#utility.yul\":1486:1507   */\n  and\n    /* \"#utility.yul\":1477:1507   */\n  swap4\n  pop\n    /* \"#utility.yul\":1550:1554   */\n  dup1\n    /* \"#utility.yul\":1540:1548   */\n  dup7\n    /* \"#utility.yul\":1536:1555   */\n  and\n    /* \"#utility.yul\":1529:1534   */\n  dup5\n    /* \"#utility.yul\":1526:1556   */\n  or\n    /* \"#utility.yul\":1516:1556   */\n  swap3\n  pop\n    /* \"#utility.yul\":1245:1562   */\n  pop\n  pop\n    /* \"#utility.yul\":1169:1562   */\n  swap4\n  swap3\n  pop\n  pop\n  pop\n  jump\t// out\n    /* \"#utility.yul\":1568:1645   */\ntag_18:\n    /* \"#utility.yul\":1605:1612   */\n  0x00\n    /* \"#utility.yul\":1634:1639   */\n  dup2\n    /* \"#utility.yul\":1623:1639   */\n  swap1\n  pop\n    /* \"#utility.yul\":1568:1645   */\n  swap2\n  swap1\n  pop\n  jump\t// out\n    /* \"#utility.yul\":1651:1711   */\ntag_19:\n    /* \"#utility.yul\":1679:1682   */\n  0x00\n    /* \"#utility.yul\":1700:1705   */\n  dup2\n    /* \"#utility.yul\":1693:1705   */\n  swap1\n  pop\n    /* \"#utility.yul\":1651:1711   */\n  swap2\n  swap1\n  pop\n  jump\t// out\n    /* \"#utility.yul\":1717:1859   */\ntag_20:\n    /* \"#utility.yul\":1767:1776   */\n  0x00\n    /* \"#utility.yul\":1800:1853   */\n  tag_47\n    /* \"#utility.yul\":1818:1852   */\n  tag_48\n    /* \"#utility.yul\":1827:1851   */\n  tag_49\n    /* \"#utility.yul\":1845:1850   */\n  dup5\n    /* \"#utility.yul\":1827:1851   */\n  tag_18\n  jump\t// in\ntag_49:\n    /* \"#utility.yul\":1818:1852   */\n  tag_19\n  jump\t// in\ntag_48:\n    /* \"#utility.yul\":1800:1853   */\n  tag_18\n  jump\t// in\ntag_47:\n    /* \"#utility.yul\":1787:1853   */\n  swap1\n  pop\n    /* \"#utility.yul\":1717:1859   */\n  swap2\n  swap1\n  pop\n  jump\t// out\n    /* \"#utility.yul\":1865:1940   */\ntag_21:\n    /* \"#utility.yul\":1908:1911   */\n  0x00\n    /* \"#utility.yul\":1929:1934   */\n  dup2\n    /* \"#utility.yul\":1922:1934   */\n  swap1\n  pop\n    /* \"#utility.yul\":1865:1940   */\n  swap2\n  swap1\n  pop\n  jump\t// out\n    /* \"#utility.yul\":1946:2215   */\ntag_22:\n    /* \"#utility.yul\":2056:2095   */\n  tag_52\n    /* \"#utility.yul\":2087:2094   */\n  dup4\n    /* \"#utility.yul\":2056:2095   */\n  tag_20\n  jump\t// in\ntag_52:\n    /* \"#utility.yul\":2117:2208   */\n  tag_53\n    /* \"#utility.yul\":2166:2207   */\n  tag_54\n    /* \"#utility.yul\":2190:2206   */\n  dup3\n    /* \"#utility.yul\":2166:2207   */\n  tag_21\n  jump\t// in\ntag_54:\n    /* \"#utility.yul\":2158:2164   */\n  dup5\n    /* \"#utility.yul\":2151:2155   */\n  dup5\n    /* \"#utility.yul\":2145:2156   */\n  sload\n    /* \"#utility.yul\":2117:2208   */\n  tag_17\n  jump\t// in\ntag_53:\n    /* \"#utility.yul\":2111:2115   */\n  dup3\n    /* \"#utility.yul\":2104:2209   */\n  sstore\n    /* \"#utility.yul\":2022:2215   */\n  pop\n    /* \"#utility.yul\":1946:2215   */\n  pop\n  pop\n  pop\n  jump\t// out\n    /* \"#utility.yul\":2221:2294   */\ntag_23:\n    /* \"#utility.yul\":2266:2269   */\n  0x00\n    /* \"#utility.yul\":2221:2294   */\n  swap1\n  jump\t// out\n    /* \"#utility.yul\":2300:2489   */\ntag_24:\n    /* \"#utility.yul\":2377:2409   */\n  tag_57\n  tag_23\n  jump\t// in\ntag_57:\n    /* \"#utility.yul\":2418:2483   */\n  tag_58\n    /* \"#utility.yul\":2476:2482   */\n  dup2\n    /* \"#utility.yul\":2468:2474   */\n  dup5\n    /* \"#utility.yul\":2462:2466   */\n  dup5\n    /* \"#utility.yul\":2418:2483   */\n  tag_22\n  jump\t// in\ntag_58:\n    /* \"#utility.yul\":2353:2489   */\n  pop\n    /* \"#utility.yul\":2300:2489   */\n  pop\n  pop\n  jump\t// out\n    /* \"#utility.yul\":2495:2681   */\ntag_25:\n    /* \"#utility.yul\":2555:2675   */\ntag_60:\n    /* \"#utility.yul\":2572:2575   */\n  dup2\n    /* \"#utility.yul\":2565:2570   */\n  dup2\n    /* \"#utility.yul\":2562:2576   */\n  lt\n    /* \"#utility.yul\":2555:2675   */\n  iszero\n  tag_62\n  jumpi\n    /* \"#utility.yul\":2626:2665   */\n  tag_63\n    /* \"#utility.yul\":2663:2664   */\n  0x00\n    /* \"#utility.yul\":2656:2661   */\n  dup3\n    /* \"#utility.yul\":2626:2665   */\n  tag_24\n  jump\t// in\ntag_63:\n    /* \"#utility.yul\":2599:2600   */\n  0x01\n    /* \"#utility.yul\":2592:2597   */\n  dup2\n    /* \"#utility.yul\":2588:2601   */\n  add\n    /* \"#utility.yul\":2579:2601   */\n  swap1\n  pop\n    /* \"#utility.yul\":2555:2675   */\n  jump(tag_60)\ntag_62:\n    /* \"#utility.yul\":2495:2681   */\n  pop\n  pop\n  jump\t// out\n    /* \"#utility.yul\":2687:3230   */\ntag_26:\n    /* \"#utility.yul\":2788:2790   */\n  0x1f\n    /* \"#utility.yul\":2783:2786   */\n  dup3\n    /* \"#utility.yul\":2780:2791   */\n  gt\n    /* \"#utility.yul\":2777:3223   */\n  iszero\n  tag_65\n  jumpi\n    /* \"#utility.yul\":2822:2860   */\n  tag_66\n    /* \"#utility.yul\":2854:2859   */\n  dup2\n    /* \"#utility.yul\":2822:2860   */\n  tag_14\n  jump\t// in\ntag_66:\n    /* \"#utility.yul\":2906:2935   */\n  tag_67\n    /* \"#utility.yul\":2924:2934   */\n  dup5\n    /* \"#utility.yul\":2906:2935   */\n  tag_15\n  jump\t// in\ntag_67:\n    /* \"#utility.yul\":2896:2904   */\n  dup2\n    /* \"#utility.yul\":2892:2936   */\n  add\n    /* \"#utility.yul\":3089:3091   */\n  0x20\n    /* \"#utility.yul\":3077:3087   */\n  dup6\n    /* \"#utility.yul\":3074:3092   */\n  lt\n    /* \"#utility.yul\":3071:3120   */\n  iszero\n  tag_68\n  jumpi\n    /* \"#utility.yul\":3110:3118   */\n  dup2\n    /* \"#utility.yul\":3095:3118   */\n  swap1\n  pop\n    /* \"#utility.yul\":3071:3120   */\ntag_68:\n    /* \"#utility.yul\":3133:3213   */\n  tag_69\n    /* \"#utility.yul\":3189:3211   */\n  tag_70\n    /* \"#utility.yul\":3207:3210   */\n  dup6\n    /* \"#utility.yul\":3189:3211   */\n  tag_15\n  jump\t// in\ntag_70:\n    /* \"#utility.yul\":3179:3187   */\n  dup4\n    /* \"#utility.yul\":3175:3212   */\n  add\n    /* \"#utility.yul\":3162:3173   */\n  dup3\n    /* \"#utility.yul\":3133:3213   */\n  tag_25\n  jump\t// in\ntag_69:\n    /* \"#utility.yul\":2792:3223   */\n  pop\n  pop\n    /* \"#utility.yul\":2777:3223   */\ntag_65:\n    /* \"#utility.yul\":2687:3230   */\n  pop\n  pop\n  pop\n  jump\t// out\n    /* \"#utility.yul\":3236:3353   */\ntag_27:\n    /* \"#utility.yul\":3290:3298   */\n  0x00\n    /* \"#utility.yul\":3340:3345   */\n  dup3\n    /* \"#utility.yul\":3334:3338   */\n  dup3\n    /* \"#utility.yul\":3330:3346   */\n  shr\n    /* \"#utility.yul\":3309:3346   */\n  swap1\n  pop\n    /* \"#utility.yul\":3236:3353   */\n  swap3\n  swap2\n  pop\n  pop\n  jump\t// out\n    /* \"#utility.yul\":3359:3528   */\ntag_28:\n    /* \"#utility.yul\":3403:3409   */\n  0x00\n    /* \"#utility.yul\":3436:3487   */\n  tag_73\n    /* \"#utility.yul\":3484:3485   */\n  0x00\n    /* \"#utility.yul\":3480:3486   */\n  not\n    /* \"#utility.yul\":3472:3477   */\n  dup5\n    /* \"#utility.yul\":3469:3470   */\n  0x08\n    /* \"#utility.yul\":3465:3478   */\n  mul\n    /* \"#utility.yul\":3436:3487   */\n  tag_27\n  jump\t// in\ntag_73:\n    /* \"#utility.yul\":3432:3488   */\n  not\n    /* \"#utility.yul\":3517:3521   */\n  dup1\n    /* \"#utility.yul\":3511:3515   */\n  dup4\n    /* \"#utility.yul\":3507:3522   */\n  and\n    /* \"#utility.yul\":3497:3522   */\n  swap2\n  pop\n    /* \"#utility.yul\":3410:3528   */\n  pop\n    /* \"#utility.yul\":3359:3528   */\n  swap3\n  swap2\n  pop\n  pop\n  jump\t// out\n    /* \"#utility.yul\":3533:3828   */\ntag_29:\n    /* \"#utility.yul\":3609:3613   */\n  0x00\n    /* \"#utility.yul\":3755:3784   */\n  tag_75\n    /* \"#utility.yul\":3780:3783   */\n  dup4\n    /* \"#utility.yul\":3774:3778   */\n  dup4\n    /* \"#utility.yul\":3755:3784   */\n  tag_28\n  jump\t// in\ntag_75:\n    /* \"#utility.yul\":3747:3784   */\n  swap2\n  pop\n    /* \"#utility.yul\":3817:3820   */\n  dup3\n    /* \"#utility.yul\":3814:3815   */\n  0x02\n    /* \"#utility.yul\":3810:3821   */\n  mul\n    /* \"#utility.yul\":3804:3808   */\n  dup3\n    /* \"#utility.yul\":3801:3822   */\n  or\n    /* \"#utility.yul\":3793:3822   */\n  swap1\n  pop\n    /* \"#utility.yul\":3533:3828   */\n  swap3\n  swap2\n  pop\n  pop\n  jump\t// out\n    /* \"#utility.yul\":3833:5228   */\ntag_6:\n    /* \"#utility.yul\":3950:3987   */\n  tag_77\n    /* \"#utility.yul\":3983:3986   */\n  dup3\n    /* \"#utility.yul\":3950:3987   */\n  tag_10\n  jump\t// in\ntag_77:\n    /* \"#utility.yul\":4052:4070   */\n  0xffffffffffffffff\n    /* \"#utility.yul\":4044:4050   */\n  dup2\n    /* \"#utility.yul\":4041:4071   */\n  gt\n    /* \"#utility.yul\":4038:4094   */\n  iszero\n  tag_78\n  jumpi\n    /* \"#utility.yul\":4074:4092   */\n  tag_79\n  tag_11\n  jump\t// in\ntag_79:\n    /* \"#utility.yul\":4038:4094   */\ntag_78:\n    /* \"#utility.yul\":4118:4156   */\n  tag_80\n    /* \"#utility.yul\":4150:4154   */\n  dup3\n    /* \"#utility.yul\":4144:4155   */\n  sload\n    /* \"#utility.yul\":4118:4156   */\n  tag_13\n  jump\t// in\ntag_80:\n    /* \"#utility.yul\":4203:4270   */\n  tag_81\n    /* \"#utility.yul\":4263:4269   */\n  dup3\n    /* \"#utility.yul\":4255:4261   */\n  dup3\n    /* \"#utility.yul\":4249:4253   */\n  dup6\n    /* \"#utility.yul\":4203:4270   */\n  tag_26\n  jump\t// in\ntag_81:\n    /* \"#utility.yul\":4297:4298   */\n  0x00\n    /* \"#utility.yul\":4321:4325   */\n  0x20\n    /* \"#utility.yul\":4308:4325   */\n  swap1\n  pop\n    /* \"#utility.yul\":4353:4355   */\n  0x1f\n    /* \"#utility.yul\":4345:4351   */\n  dup4\n    /* \"#utility.yul\":4342:4356   */\n  gt\n    /* \"#utility.yul\":4370:4371   */\n  0x01\n    /* \"#utility.yul\":4365:4983   */\n  dup2\n  eq\n  tag_83\n  jumpi\n    /* \"#utility.yul\":5027:5028   */\n  0x00\n    /* \"#utility.yul\":5044:5050   */\n  dup5\n    /* \"#utility.yul\":5041:5118   */\n  iszero\n  tag_84\n  jumpi\n    /* \"#utility.yul\":5093:5102   */\n  dup3\n    /* \"#utility.yul\":5088:5091   */\n  dup8\n    /* \"#utility.yul\":5084:5103   */\n  add\n    /* \"#utility.yul\":5078:5104   */\n  mload\n    /* \"#utility.yul\":5069:5104   */\n  swap1\n  pop\n    /* \"#utility.yul\":5041:5118   */\ntag_84:\n    /* \"#utility.yul\":5144:5211   */\n  tag_85\n    /* \"#utility.yul\":5204:5210   */\n  dup6\n    /* \"#utility.yul\":5197:5202   */\n  dup3\n    /* \"#utility.yul\":5144:5211   */\n  tag_29\n  jump\t// in\ntag_85:\n    /* \"#utility.yul\":5138:5142   */\n  dup7\n    /* \"#utility.yul\":5131:5212   */\n  sstore\n    /* \"#utility.yul\":5000:5222   */\n  pop\n    /* \"#utility.yul\":4335:5222   */\n  jump(tag_82)\n    /* \"#utility.yul\":4365:4983   */\ntag_83:\n    /* \"#utility.yul\":4417:4421   */\n  0x1f\n    /* \"#utility.yul\":4413:4422   */\n  not\n    /* \"#utility.yul\":4405:4411   */\n  dup5\n    /* \"#utility.yul\":4401:4423   */\n  and\n    /* \"#utility.yul\":4451:4488   */\n  tag_86\n    /* \"#utility.yul\":4483:4487   */\n  dup7\n    /* \"#utility.yul\":4451:4488   */\n  tag_14\n  jump\t// in\ntag_86:\n    /* \"#utility.yul\":4510:4511   */\n  0x00\n    /* \"#utility.yul\":4524:4732   */\ntag_87:\n    /* \"#utility.yul\":4538:4545   */\n  dup3\n    /* \"#utility.yul\":4535:4536   */\n  dup2\n    /* \"#utility.yul\":4532:4546   */\n  lt\n    /* \"#utility.yul\":4524:4732   */\n  iszero\n  tag_89\n  jumpi\n    /* \"#utility.yul\":4617:4626   */\n  dup5\n    /* \"#utility.yul\":4612:4615   */\n  dup10\n    /* \"#utility.yul\":4608:4627   */\n  add\n    /* \"#utility.yul\":4602:4628   */\n  mload\n    /* \"#utility.yul\":4594:4600   */\n  dup3\n    /* \"#utility.yul\":4587:4629   */\n  sstore\n    /* \"#utility.yul\":4668:4669   */\n  0x01\n    /* \"#utility.yul\":4660:4666   */\n  dup3\n    /* \"#utility.yul\":4656:4670   */\n  add\n    /* \"#utility.yul\":4646:4670   */\n  swap2\n  pop\n    /* \"#utility.yul\":4715:4717   */\n  0x20\n    /* \"#utility.yul\":4704:4713   */\n  dup6\n    /* \"#utility.yul\":4700:4718   */\n  add\n    /* \"#utility.yul\":4687:4718   */\n  swap5\n  pop\n    /* \"#utility.yul\":4561:4565   */\n  0x20\n    /* \"#utility.yul\":4558:4559   */\n  dup2\n    /* \"#utility.yul\":4554:4566   */\n  add\n    /* \"#utility.yul\":4549:4566   */\n  swap1\n  pop\n    /* \"#utility.yul\":4524:4732   */\n  jump(tag_87)\ntag_89:\n    /* \"#utility.yul\":4760:4766   */\n  dup7\n    /* \"#utility.yul\":4751:4758   */\n  dup4\n    /* \"#utility.yul\":4748:4767   */\n  lt\n    /* \"#utility.yul\":4745:4924   */\n  iszero\n  tag_90\n  jumpi\n    /* \"#utility.yul\":4818:4827   */\n  dup5\n    /* \"#utility.yul\":4813:4816   */\n  dup10\n    /* \"#utility.yul\":4809:4828   */\n  add\n    /* \"#utility.yul\":4803:4829   */\n  mload\n    /* \"#utility.yul\":4861:4909   */\n  tag_91\n    /* \"#utility.yul\":4903:4907   */\n  0x1f\n    /* \"#utility.yul\":4895:4901   */\n  dup10\n    /* \"#utility.yul\":4891:4908   */\n  and\n    /* \"#utility.yul\":4880:4889   */\n  dup3\n    /* \"#utility.yul\":4861:4909   */\n  tag_28\n  jump\t// in\ntag_91:\n    /* \"#utility.yul\":4853:4859   */\n  dup4\n    /* \"#utility.yul\":4846:4910   */\n  sstore\n    /* \"#utility.yul\":4768:4924   */\n  pop\n    /* \"#utility.yul\":4745:4924   */\ntag_90:\n    /* \"#utility.yul\":4970:4971   */\n  0x01\n    /* \"#utility.yul\":4966:4967   */\n  0x02\n    /* \"#utility.yul\":4958:4964   */\n  dup9\n    /* \"#utility.yul\":4954:4968   */\n  mul\n    /* \"#utility.yul\":4950:4972   */\n  add\n    /* \"#utility.yul\":4944:4948   */\n  dup9\n    /* \"#utility.yul\":4937:4973   */\n  sstore\n    /* \"#utility.yul\":4372:4983   */\n  pop\n  pop\n  pop\n    /* \"#utility.yul\":4335:5222   */\ntag_82:\n  pop\n    /* \"#utility.yul\":3925:5228   */\n  pop\n  pop\n  pop\n    /* \"#utility.yul\":3833:5228   */\n  pop\n  pop\n  jump\t// out\n    /* \"contracts/customERC20.sol\":86:251  contract SuperERC20 is SuperToken{... */\ntag_9:\n  dataSize(sub_0)\n  dup1\n  dataOffset(sub_0)\n  0x00\n  codecopy\n  0x00\n  return\nstop\n\nsub_0: assembly {\n        /* \"contracts/customERC20.sol\":86:251  contract SuperERC20 is SuperToken{... */\n      mstore(0x40, 0x80)\n      callvalue\n      dup1\n      iszero\n      tag_1\n      jumpi\n      0x00\n      dup1\n      revert\n    tag_1:\n      pop\n      jumpi(tag_2, lt(calldatasize, 0x04))\n      shr(0xe0, calldataload(0x00))\n      dup1\n      0x70a08231\n      gt\n      tag_15\n      jumpi\n      dup1\n      0x70a08231\n      eq\n      tag_9\n      jumpi\n      dup1\n      0x95d89b41\n      eq\n      tag_10\n      jumpi\n      dup1\n      0xa457c2d7\n      eq\n      tag_11\n      jumpi\n      dup1\n      0xa9059cbb\n      eq\n      tag_12\n      jumpi\n      dup1\n      0xb4427263\n      eq\n      tag_13\n      jumpi\n      dup1\n      0xdd62ed3e\n      eq\n      tag_14\n      jumpi\n      jump(tag_2)\n    tag_15:\n      dup1\n      0x06fdde03\n      eq\n      tag_3\n      jumpi\n      dup1\n      0x095ea7b3\n      eq\n      tag_4\n      jumpi\n      dup1\n      0x18160ddd\n      eq\n      tag_5\n      jumpi\n      dup1\n      0x23b872dd\n      eq\n      tag_6\n      jumpi\n      dup1\n      0x313ce567\n      eq\n      tag_7\n      jumpi\n      dup1\n      0x39509351\n      eq\n      tag_8\n      jumpi\n    tag_2:\n      0x00\n      dup1\n      revert\n        /* \"contracts/tokenERC20.sol\":1542:1623  function name() public view virtual returns (string memory) {... */\n    tag_3:\n      tag_16\n      tag_17\n      jump\t// in\n    tag_16:\n      mload(0x40)\n      tag_18\n      swap2\n      swap1\n      tag_19\n      jump\t// in\n    tag_18:\n      mload(0x40)\n      dup1\n      swap2\n      sub\n      swap1\n      return\n        /* \"contracts/tokenERC20.sol\":2530:2705  function approve(address spender, uint amount) public virtual override returns (bool){... */\n    tag_4:\n      tag_20\n      0x04\n      dup1\n      calldatasize\n      sub\n      dup2\n      add\n      swap1\n      tag_21\n      swap2\n      swap1\n      tag_22\n      jump\t// in\n    tag_21:\n      tag_23\n      jump\t// in\n    tag_20:\n      mload(0x40)\n      tag_24\n      swap2\n      swap1\n      tag_25\n      jump\t// in\n    tag_24:\n      mload(0x40)\n      dup1\n      swap2\n      sub\n      swap1\n      return\n        /* \"contracts/tokenERC20.sol\":1944:2041  function totalSupply() public view virtual override returns (uint256){... */\n    tag_5:\n      tag_26\n      tag_27\n      jump\t// in\n    tag_26:\n      mload(0x40)\n      tag_28\n      swap2\n      swap1\n      tag_29\n      jump\t// in\n    tag_28:\n      mload(0x40)\n      dup1\n      swap2\n      sub\n      swap1\n      return\n        /* \"contracts/tokenERC20.sol\":2767:3014  function transferFrom(... */\n    tag_6:\n      tag_30\n      0x04\n      dup1\n      calldatasize\n      sub\n      dup2\n      add\n      swap1\n      tag_31\n      swap2\n      swap1\n      tag_32\n      jump\t// in\n    tag_31:\n      tag_33\n      jump\t// in\n    tag_30:\n      mload(0x40)\n      tag_34\n      swap2\n      swap1\n      tag_25\n      jump\t// in\n    tag_34:\n      mload(0x40)\n      dup1\n      swap2\n      sub\n      swap1\n      return\n        /* \"contracts/tokenERC20.sol\":1739:1942  function decimals() public view virtual returns (uint8) {... */\n    tag_7:\n      tag_35\n      tag_36\n      jump\t// in\n    tag_35:\n      mload(0x40)\n      tag_37\n      swap2\n      swap1\n      tag_38\n      jump\t// in\n    tag_37:\n      mload(0x40)\n      dup1\n      swap2\n      sub\n      swap1\n      return\n        /* \"contracts/tokenERC20.sol\":3015:3270  function increaseAllowance(address spender, uint256 addedValue) public virtual returns (bool){... */\n    tag_8:\n      tag_39\n      0x04\n      dup1\n      calldatasize\n      sub\n      dup2\n      add\n      swap1\n      tag_40\n      swap2\n      swap1\n      tag_22\n      jump\t// in\n    tag_40:\n      tag_41\n      jump\t// in\n    tag_39:\n      mload(0x40)\n      tag_42\n      swap2\n      swap1\n      tag_25\n      jump\t// in\n    tag_42:\n      mload(0x40)\n      dup1\n      swap2\n      sub\n      swap1\n      return\n        /* \"contracts/tokenERC20.sol\":2043:2162  function balanceOf(address account) external view virtual override returns  (uint256){... */\n    tag_9:\n      tag_43\n      0x04\n      dup1\n      calldatasize\n      sub\n      dup2\n      add\n      swap1\n      tag_44\n      swap2\n      swap1\n      tag_45\n      jump\t// in\n    tag_44:\n      tag_46\n      jump\t// in\n    tag_43:\n      mload(0x40)\n      tag_47\n      swap2\n      swap1\n      tag_29\n      jump\t// in\n    tag_47:\n      mload(0x40)\n      dup1\n      swap2\n      sub\n      swap1\n      return\n        /* \"contracts/tokenERC20.sol\":1652:1737  function symbol() public view virtual returns (string memory) {... */\n    tag_10:\n      tag_48\n      tag_49\n      jump\t// in\n    tag_48:\n      mload(0x40)\n      tag_50\n      swap2\n      swap1\n      tag_19\n      jump\t// in\n    tag_50:\n      mload(0x40)\n      dup1\n      swap2\n      sub\n      swap1\n      return\n        /* \"contracts/tokenERC20.sol\":3274:3661  function decreaseAllowance(address spender, uint256 substractedValue) public virtual returns (bool){... */\n    tag_11:\n      tag_51\n      0x04\n      dup1\n      calldatasize\n      sub\n      dup2\n      add\n      swap1\n      tag_52\n      swap2\n      swap1\n      tag_22\n      jump\t// in\n    tag_52:\n      tag_53\n      jump\t// in\n    tag_51:\n      mload(0x40)\n      tag_54\n      swap2\n      swap1\n      tag_25\n      jump\t// in\n    tag_54:\n      mload(0x40)\n      dup1\n      swap2\n      sub\n      swap1\n      return\n        /* \"contracts/tokenERC20.sol\":2164:2334  function transfer(address to, uint256 amount) public virtual override returns (bool){... */\n    tag_12:\n      tag_55\n      0x04\n      dup1\n      calldatasize\n      sub\n      dup2\n      add\n      swap1\n      tag_56\n      swap2\n      swap1\n      tag_22\n      jump\t// in\n    tag_56:\n      tag_57\n      jump\t// in\n    tag_55:\n      mload(0x40)\n      tag_58\n      swap2\n      swap1\n      tag_25\n      jump\t// in\n    tag_58:\n      mload(0x40)\n      dup1\n      swap2\n      sub\n      swap1\n      return\n        /* \"contracts/customERC20.sol\":177:247  function createTokens() public {... */\n    tag_13:\n      tag_59\n      tag_60\n      jump\t// in\n    tag_59:\n      stop\n        /* \"contracts/tokenERC20.sol\":2337:2477  function allowance(address owner, address spender) public view virtual override returns (uint256){... */\n    tag_14:\n      tag_61\n      0x04\n      dup1\n      calldatasize\n      sub\n      dup2\n      add\n      swap1\n      tag_62\n      swap2\n      swap1\n      tag_63\n      jump\t// in\n    tag_62:\n      tag_64\n      jump\t// in\n    tag_61:\n      mload(0x40)\n      tag_65\n      swap2\n      swap1\n      tag_29\n      jump\t// in\n    tag_65:\n      mload(0x40)\n      dup1\n      swap2\n      sub\n      swap1\n      return\n        /* \"contracts/tokenERC20.sol\":1542:1623  function name() public view virtual returns (string memory) {... */\n    tag_17:\n        /* \"contracts/tokenERC20.sol\":1587:1600  string memory */\n      0x60\n        /* \"contracts/tokenERC20.sol\":1615:1620  _name */\n      0x03\n        /* \"contracts/tokenERC20.sol\":1608:1620  return _name */\n      dup1\n      sload\n      tag_67\n      swap1\n      tag_68\n      jump\t// in\n    tag_67:\n      dup1\n      0x1f\n      add\n      0x20\n      dup1\n      swap2\n      div\n      mul\n      0x20\n      add\n      mload(0x40)\n      swap1\n      dup2\n      add\n      0x40\n      mstore\n      dup1\n      swap3\n      swap2\n      swap1\n      dup2\n      dup2\n      mstore\n      0x20\n      add\n      dup3\n      dup1\n      sload\n      tag_69\n      swap1\n      tag_68\n      jump\t// in\n    tag_69:\n      dup1\n      iszero\n      tag_70\n      jumpi\n      dup1\n      0x1f\n      lt\n      tag_71\n      jumpi\n      0x0100\n      dup1\n      dup4\n      sload\n      div\n      mul\n      dup4\n      mstore\n      swap2\n      0x20\n      add\n      swap2\n      jump(tag_70)\n    tag_71:\n      dup3\n      add\n      swap2\n      swap1\n      0x00\n      mstore\n      keccak256(0x00, 0x20)\n      swap1\n    tag_72:\n      dup2\n      sload\n      dup2\n      mstore\n      swap1\n      0x01\n      add\n      swap1\n      0x20\n      add\n      dup1\n      dup4\n      gt\n      tag_72\n      jumpi\n      dup3\n      swap1\n      sub\n      0x1f\n      and\n      dup3\n      add\n      swap2\n    tag_70:\n      pop\n      pop\n      pop\n      pop\n      pop\n      swap1\n      pop\n        /* \"contracts/tokenERC20.sol\":1542:1623  function name() public view virtual returns (string memory) {... */\n      swap1\n      jump\t// out\n        /* \"contracts/tokenERC20.sol\":2530:2705  function approve(address spender, uint amount) public virtual override returns (bool){... */\n    tag_23:\n        /* \"contracts/tokenERC20.sol\":2610:2614  bool */\n      0x00\n        /* \"contracts/tokenERC20.sol\":2621:2634  address owner */\n      dup1\n        /* \"contracts/tokenERC20.sol\":2637:2647  msg.sender */\n      caller\n        /* \"contracts/tokenERC20.sol\":2621:2647  address owner = msg.sender */\n      swap1\n      pop\n        /* \"contracts/tokenERC20.sol\":2653:2685  _approve(owner, spender, amount) */\n      tag_74\n        /* \"contracts/tokenERC20.sol\":2662:2667  owner */\n      dup2\n        /* \"contracts/tokenERC20.sol\":2669:2676  spender */\n      dup6\n        /* \"contracts/tokenERC20.sol\":2678:2684  amount */\n      dup6\n        /* \"contracts/tokenERC20.sol\":2653:2661  _approve */\n      tag_75\n        /* \"contracts/tokenERC20.sol\":2653:2685  _approve(owner, spender, amount) */\n      jump\t// in\n    tag_74:\n        /* \"contracts/tokenERC20.sol\":2698:2702  true */\n      0x01\n        /* \"contracts/tokenERC20.sol\":2691:2702  return true */\n      swap2\n      pop\n      pop\n        /* \"contracts/tokenERC20.sol\":2530:2705  function approve(address spender, uint amount) public virtual override returns (bool){... */\n      swap3\n      swap2\n      pop\n      pop\n      jump\t// out\n        /* \"contracts/tokenERC20.sol\":1944:2041  function totalSupply() public view virtual override returns (uint256){... */\n    tag_27:\n        /* \"contracts/tokenERC20.sol\":2005:2012  uint256 */\n      0x00\n        /* \"contracts/tokenERC20.sol\":2026:2038  _totalSupply */\n      sload(0x02)\n        /* \"contracts/tokenERC20.sol\":2019:2038  return _totalSupply */\n      swap1\n      pop\n        /* \"contracts/tokenERC20.sol\":1944:2041  function totalSupply() public view virtual override returns (uint256){... */\n      swap1\n      jump\t// out\n        /* \"contracts/tokenERC20.sol\":2767:3014  function transferFrom(... */\n    tag_33:\n        /* \"contracts/tokenERC20.sol\":2878:2882  bool */\n      0x00\n        /* \"contracts/tokenERC20.sol\":2889:2904  address spender */\n      dup1\n        /* \"contracts/tokenERC20.sol\":2907:2917  msg.sender */\n      caller\n        /* \"contracts/tokenERC20.sol\":2889:2917  address spender = msg.sender */\n      swap1\n      pop\n        /* \"contracts/tokenERC20.sol\":2923:2961  _spendAllowance(from, spender, amount) */\n      tag_78\n        /* \"contracts/tokenERC20.sol\":2939:2943  from */\n      dup6\n        /* \"contracts/tokenERC20.sol\":2945:2952  spender */\n      dup3\n        /* \"contracts/tokenERC20.sol\":2954:2960  amount */\n      dup6\n        /* \"contracts/tokenERC20.sol\":2923:2938  _spendAllowance */\n      tag_79\n        /* \"contracts/tokenERC20.sol\":2923:2961  _spendAllowance(from, spender, amount) */\n      jump\t// in\n    tag_78:\n        /* \"contracts/tokenERC20.sol\":2967:2994  _transfer(from, to, amount) */\n      tag_80\n        /* \"contracts/tokenERC20.sol\":2977:2981  from */\n      dup6\n        /* \"contracts/tokenERC20.sol\":2983:2985  to */\n      dup6\n        /* \"contracts/tokenERC20.sol\":2987:2993  amount */\n      dup6\n        /* \"contracts/tokenERC20.sol\":2967:2976  _transfer */\n      tag_81\n        /* \"contracts/tokenERC20.sol\":2967:2994  _transfer(from, to, amount) */\n      jump\t// in\n    tag_80:\n        /* \"contracts/tokenERC20.sol\":3007:3011  true */\n      0x01\n        /* \"contracts/tokenERC20.sol\":3000:3011  return true */\n      swap2\n      pop\n      pop\n        /* \"contracts/tokenERC20.sol\":2767:3014  function transferFrom(... */\n      swap4\n      swap3\n      pop\n      pop\n      pop\n      jump\t// out\n        /* \"contracts/tokenERC20.sol\":1739:1942  function decimals() public view virtual returns (uint8) {... */\n    tag_36:\n        /* \"contracts/tokenERC20.sol\":1788:1793  uint8 */\n      0x00\n        /* \"contracts/tokenERC20.sol\":1808:1810  18 */\n      0x12\n        /* \"contracts/tokenERC20.sol\":1801:1810  return 18 */\n      swap1\n      pop\n        /* \"contracts/tokenERC20.sol\":1739:1942  function decimals() public view virtual returns (uint8) {... */\n      swap1\n      jump\t// out\n        /* \"contracts/tokenERC20.sol\":3015:3270  function increaseAllowance(address spender, uint256 addedValue) public virtual returns (bool){... */\n    tag_41:\n        /* \"contracts/tokenERC20.sol\":3103:3107  bool */\n      0x00\n        /* \"contracts/tokenERC20.sol\":3114:3127  address owner */\n      dup1\n        /* \"contracts/tokenERC20.sol\":3130:3140  msg.sender */\n      caller\n        /* \"contracts/tokenERC20.sol\":3114:3140  address owner = msg.sender */\n      swap1\n      pop\n        /* \"contracts/tokenERC20.sol\":3146:3166  uint256 newAllowance */\n      0x00\n        /* \"contracts/tokenERC20.sol\":3197:3207  addedValue */\n      dup4\n        /* \"contracts/tokenERC20.sol\":3169:3194  allowance(owner, spender) */\n      tag_84\n        /* \"contracts/tokenERC20.sol\":3179:3184  owner */\n      dup4\n        /* \"contracts/tokenERC20.sol\":3186:3193  spender */\n      dup8\n        /* \"contracts/tokenERC20.sol\":3169:3178  allowance */\n      tag_64\n        /* \"contracts/tokenERC20.sol\":3169:3194  allowance(owner, spender) */\n      jump\t// in\n    tag_84:\n        /* \"contracts/tokenERC20.sol\":3169:3207  allowance(owner, spender) + addedValue */\n      tag_85\n      swap2\n      swap1\n      tag_86\n      jump\t// in\n    tag_85:\n        /* \"contracts/tokenERC20.sol\":3146:3207  uint256 newAllowance = allowance(owner, spender) + addedValue */\n      swap1\n      pop\n        /* \"contracts/tokenERC20.sol\":3213:3250  _approve(owner, spender,newAllowance) */\n      tag_87\n        /* \"contracts/tokenERC20.sol\":3222:3227  owner */\n      dup3\n        /* \"contracts/tokenERC20.sol\":3229:3236  spender */\n      dup7\n        /* \"contracts/tokenERC20.sol\":3237:3249  newAllowance */\n      dup4\n        /* \"contracts/tokenERC20.sol\":3213:3221  _approve */\n      tag_75\n        /* \"contracts/tokenERC20.sol\":3213:3250  _approve(owner, spender,newAllowance) */\n      jump\t// in\n    tag_87:\n        /* \"contracts/tokenERC20.sol\":3263:3267  true */\n      0x01\n        /* \"contracts/tokenERC20.sol\":3256:3267  return true */\n      swap3\n      pop\n      pop\n      pop\n        /* \"contracts/tokenERC20.sol\":3015:3270  function increaseAllowance(address spender, uint256 addedValue) public virtual returns (bool){... */\n      swap3\n      swap2\n      pop\n      pop\n      jump\t// out\n        /* \"contracts/tokenERC20.sol\":2043:2162  function balanceOf(address account) external view virtual override returns  (uint256){... */\n    tag_46:\n        /* \"contracts/tokenERC20.sol\":2120:2127  uint256 */\n      0x00\n        /* \"contracts/tokenERC20.sol\":2141:2150  _balances */\n      dup1\n        /* \"contracts/tokenERC20.sol\":2141:2159  _balances[account] */\n      0x00\n        /* \"contracts/tokenERC20.sol\":2151:2158  account */\n      dup4\n        /* \"contracts/tokenERC20.sol\":2141:2159  _balances[account] */\n      0xffffffffffffffffffffffffffffffffffffffff\n      and\n      0xffffffffffffffffffffffffffffffffffffffff\n      and\n      dup2\n      mstore\n      0x20\n      add\n      swap1\n      dup2\n      mstore\n      0x20\n      add\n      0x00\n      keccak256\n      sload\n        /* \"contracts/tokenERC20.sol\":2134:2159  return _balances[account] */\n      swap1\n      pop\n        /* \"contracts/tokenERC20.sol\":2043:2162  function balanceOf(address account) external view virtual override returns  (uint256){... */\n      swap2\n      swap1\n      pop\n      jump\t// out\n        /* \"contracts/tokenERC20.sol\":1652:1737  function symbol() public view virtual returns (string memory) {... */\n    tag_49:\n        /* \"contracts/tokenERC20.sol\":1699:1712  string memory */\n      0x60\n        /* \"contracts/tokenERC20.sol\":1727:1734  _symbol */\n      0x04\n        /* \"contracts/tokenERC20.sol\":1720:1734  return _symbol */\n      dup1\n      sload\n      tag_90\n      swap1\n      tag_68\n      jump\t// in\n    tag_90:\n      dup1\n      0x1f\n      add\n      0x20\n      dup1\n      swap2\n      div\n      mul\n      0x20\n      add\n      mload(0x40)\n      swap1\n      dup2\n      add\n      0x40\n      mstore\n      dup1\n      swap3\n      swap2\n      swap1\n      dup2\n      dup2\n      mstore\n      0x20\n      add\n      dup3\n      dup1\n      sload\n      tag_91\n      swap1\n      tag_68\n      jump\t// in\n    tag_91:\n      dup1\n      iszero\n      tag_92\n      jumpi\n      dup1\n      0x1f\n      lt\n      tag_93\n      jumpi\n      0x0100\n      dup1\n      dup4\n      sload\n      div\n      mul\n      dup4\n      mstore\n      swap2\n      0x20\n      add\n      swap2\n      jump(tag_92)\n    tag_93:\n      dup3\n      add\n      swap2\n      swap1\n      0x00\n      mstore\n      keccak256(0x00, 0x20)\n      swap1\n    tag_94:\n      dup2\n      sload\n      dup2\n      mstore\n      swap1\n      0x01\n      add\n      swap1\n      0x20\n      add\n      dup1\n      dup4\n      gt\n      tag_94\n      jumpi\n      dup3\n      swap1\n      sub\n      0x1f\n      and\n      dup3\n      add\n      swap2\n    tag_92:\n      pop\n      pop\n      pop\n      pop\n      pop\n      swap1\n      pop\n        /* \"contracts/tokenERC20.sol\":1652:1737  function symbol() public view virtual returns (string memory) {... */\n      swap1\n      jump\t// out\n        /* \"contracts/tokenERC20.sol\":3274:3661  function decreaseAllowance(address spender, uint256 substractedValue) public virtual returns (bool){... */\n    tag_53:\n        /* \"contracts/tokenERC20.sol\":3368:3372  bool */\n      0x00\n        /* \"contracts/tokenERC20.sol\":3379:3392  address owner */\n      dup1\n        /* \"contracts/tokenERC20.sol\":3395:3405  msg.sender */\n      caller\n        /* \"contracts/tokenERC20.sol\":3379:3405  address owner = msg.sender */\n      swap1\n      pop\n        /* \"contracts/tokenERC20.sol\":3411:3435  uint256 currentAllowance */\n      0x00\n        /* \"contracts/tokenERC20.sol\":3438:3463  allowance(owner, spender) */\n      tag_96\n        /* \"contracts/tokenERC20.sol\":3448:3453  owner */\n      dup3\n        /* \"contracts/tokenERC20.sol\":3455:3462  spender */\n      dup7\n        /* \"contracts/tokenERC20.sol\":3438:3447  allowance */\n      tag_64\n        /* \"contracts/tokenERC20.sol\":3438:3463  allowance(owner, spender) */\n      jump\t// in\n    tag_96:\n        /* \"contracts/tokenERC20.sol\":3411:3463  uint256 currentAllowance = allowance(owner, spender) */\n      swap1\n      pop\n        /* \"contracts/tokenERC20.sol\":3497:3513  substractedValue */\n      dup4\n        /* \"contracts/tokenERC20.sol\":3477:3493  currentAllowance */\n      dup2\n        /* \"contracts/tokenERC20.sol\":3477:3513  currentAllowance >= substractedValue */\n      lt\n      iszero\n        /* \"contracts/tokenERC20.sol\":3469:3548  require(currentAllowance >= substractedValue, \"not enouth tokens to substract\") */\n      tag_97\n      jumpi\n      mload(0x40)\n      0x08c379a000000000000000000000000000000000000000000000000000000000\n      dup2\n      mstore\n      0x04\n      add\n      tag_98\n      swap1\n      tag_99\n      jump\t// in\n    tag_98:\n      mload(0x40)\n      dup1\n      swap2\n      sub\n      swap1\n      revert\n    tag_97:\n        /* \"contracts/tokenERC20.sol\":3574:3635  _approve(owner, spender, currentAllowance - substractedValue) */\n      tag_100\n        /* \"contracts/tokenERC20.sol\":3583:3588  owner */\n      dup3\n        /* \"contracts/tokenERC20.sol\":3590:3597  spender */\n      dup7\n        /* \"contracts/tokenERC20.sol\":3618:3634  substractedValue */\n      dup7\n        /* \"contracts/tokenERC20.sol\":3599:3615  currentAllowance */\n      dup5\n        /* \"contracts/tokenERC20.sol\":3599:3634  currentAllowance - substractedValue */\n      sub\n        /* \"contracts/tokenERC20.sol\":3574:3582  _approve */\n      tag_75\n        /* \"contracts/tokenERC20.sol\":3574:3635  _approve(owner, spender, currentAllowance - substractedValue) */\n      jump\t// in\n    tag_100:\n        /* \"contracts/tokenERC20.sol\":3654:3658  true */\n      0x01\n        /* \"contracts/tokenERC20.sol\":3647:3658  return true */\n      swap3\n      pop\n      pop\n      pop\n        /* \"contracts/tokenERC20.sol\":3274:3661  function decreaseAllowance(address spender, uint256 substractedValue) public virtual returns (bool){... */\n      swap3\n      swap2\n      pop\n      pop\n      jump\t// out\n        /* \"contracts/tokenERC20.sol\":2164:2334  function transfer(address to, uint256 amount) public virtual override returns (bool){... */\n    tag_57:\n        /* \"contracts/tokenERC20.sol\":2243:2247  bool */\n      0x00\n        /* \"contracts/tokenERC20.sol\":2254:2267  address owner */\n      dup1\n        /* \"contracts/tokenERC20.sol\":2270:2280  msg.sender */\n      caller\n        /* \"contracts/tokenERC20.sol\":2254:2280  address owner = msg.sender */\n      swap1\n      pop\n        /* \"contracts/tokenERC20.sol\":2286:2314  _transfer(owner, to, amount) */\n      tag_102\n        /* \"contracts/tokenERC20.sol\":2296:2301  owner */\n      dup2\n        /* \"contracts/tokenERC20.sol\":2303:2305  to */\n      dup6\n        /* \"contracts/tokenERC20.sol\":2307:2313  amount */\n      dup6\n        /* \"contracts/tokenERC20.sol\":2286:2295  _transfer */\n      tag_81\n        /* \"contracts/tokenERC20.sol\":2286:2314  _transfer(owner, to, amount) */\n      jump\t// in\n    tag_102:\n        /* \"contracts/tokenERC20.sol\":2327:2331  true */\n      0x01\n        /* \"contracts/tokenERC20.sol\":2320:2331  return true */\n      swap2\n      pop\n      pop\n        /* \"contracts/tokenERC20.sol\":2164:2334  function transfer(address to, uint256 amount) public virtual override returns (bool){... */\n      swap3\n      swap2\n      pop\n      pop\n      jump\t// out\n        /* \"contracts/customERC20.sol\":177:247  function createTokens() public {... */\n    tag_60:\n        /* \"contracts/customERC20.sol\":218:240  mint(msg.sender, 1000) */\n      tag_104\n        /* \"contracts/customERC20.sol\":223:233  msg.sender */\n      caller\n        /* \"contracts/customERC20.sol\":235:239  1000 */\n      0x03e8\n        /* \"contracts/customERC20.sol\":218:222  mint */\n      tag_105\n        /* \"contracts/customERC20.sol\":218:240  mint(msg.sender, 1000) */\n      jump\t// in\n    tag_104:\n        /* \"contracts/customERC20.sol\":177:247  function createTokens() public {... */\n      jump\t// out\n        /* \"contracts/tokenERC20.sol\":2337:2477  function allowance(address owner, address spender) public view virtual override returns (uint256){... */\n    tag_64:\n        /* \"contracts/tokenERC20.sol\":2426:2433  uint256 */\n      0x00\n        /* \"contracts/tokenERC20.sol\":2447:2458  _allowances */\n      0x01\n        /* \"contracts/tokenERC20.sol\":2447:2465  _allowances[owner] */\n      0x00\n        /* \"contracts/tokenERC20.sol\":2459:2464  owner */\n      dup5\n        /* \"contracts/tokenERC20.sol\":2447:2465  _allowances[owner] */\n      0xffffffffffffffffffffffffffffffffffffffff\n      and\n      0xffffffffffffffffffffffffffffffffffffffff\n      and\n      dup2\n      mstore\n      0x20\n      add\n      swap1\n      dup2\n      mstore\n      0x20\n      add\n      0x00\n      keccak256\n        /* \"contracts/tokenERC20.sol\":2447:2474  _allowances[owner][spender] */\n      0x00\n        /* \"contracts/tokenERC20.sol\":2466:2473  spender */\n      dup4\n        /* \"contracts/tokenERC20.sol\":2447:2474  _allowances[owner][spender] */\n      0xffffffffffffffffffffffffffffffffffffffff\n      and\n      0xffffffffffffffffffffffffffffffffffffffff\n      and\n      dup2\n      mstore\n      0x20\n      add\n      swap1\n      dup2\n      mstore\n      0x20\n      add\n      0x00\n      keccak256\n      sload\n        /* \"contracts/tokenERC20.sol\":2440:2474  return _allowances[owner][spender] */\n      swap1\n      pop\n        /* \"contracts/tokenERC20.sol\":2337:2477  function allowance(address owner, address spender) public view virtual override returns (uint256){... */\n      swap3\n      swap2\n      pop\n      pop\n      jump\t// out\n        /* \"contracts/tokenERC20.sol\":6005:6241  function _approve (... */\n    tag_75:\n        /* \"contracts/tokenERC20.sol\":6110:6152  _avoidZeroAddrecesInAprove(owner, spender) */\n      tag_108\n        /* \"contracts/tokenERC20.sol\":6137:6142  owner */\n      dup4\n        /* \"contracts/tokenERC20.sol\":6144:6151  spender */\n      dup4\n        /* \"contracts/tokenERC20.sol\":6110:6136  _avoidZeroAddrecesInAprove */\n      tag_109\n        /* \"contracts/tokenERC20.sol\":6110:6152  _avoidZeroAddrecesInAprove(owner, spender) */\n      jump\t// in\n    tag_108:\n        /* \"contracts/tokenERC20.sol\":6189:6195  amount */\n      dup1\n        /* \"contracts/tokenERC20.sol\":6158:6169  _allowances */\n      0x01\n        /* \"contracts/tokenERC20.sol\":6158:6176  _allowances[owner] */\n      0x00\n        /* \"contracts/tokenERC20.sol\":6170:6175  owner */\n      dup6\n        /* \"contracts/tokenERC20.sol\":6158:6176  _allowances[owner] */\n      0xffffffffffffffffffffffffffffffffffffffff\n      and\n      0xffffffffffffffffffffffffffffffffffffffff\n      and\n      dup2\n      mstore\n      0x20\n      add\n      swap1\n      dup2\n      mstore\n      0x20\n      add\n      0x00\n      keccak256\n        /* \"contracts/tokenERC20.sol\":6158:6185  _allowances[owner][spender] */\n      0x00\n        /* \"contracts/tokenERC20.sol\":6177:6184  spender */\n      dup5\n        /* \"contracts/tokenERC20.sol\":6158:6185  _allowances[owner][spender] */\n      0xffffffffffffffffffffffffffffffffffffffff\n      and\n      0xffffffffffffffffffffffffffffffffffffffff\n      and\n      dup2\n      mstore\n      0x20\n      add\n      swap1\n      dup2\n      mstore\n      0x20\n      add\n      0x00\n      keccak256\n      0x00\n        /* \"contracts/tokenERC20.sol\":6158:6195  _allowances[owner][spender] += amount */\n      dup3\n      dup3\n      sload\n      tag_110\n      swap2\n      swap1\n      tag_86\n      jump\t// in\n    tag_110:\n      swap3\n      pop\n      pop\n      dup2\n      swap1\n      sstore\n      pop\n        /* \"contracts/tokenERC20.sol\":6222:6229  spender */\n      dup2\n        /* \"contracts/tokenERC20.sol\":6206:6238  Approval(owner, spender, amount) */\n      0xffffffffffffffffffffffffffffffffffffffff\n      and\n        /* \"contracts/tokenERC20.sol\":6215:6220  owner */\n      dup4\n        /* \"contracts/tokenERC20.sol\":6206:6238  Approval(owner, spender, amount) */\n      0xffffffffffffffffffffffffffffffffffffffff\n      and\n      0x8c5be1e5ebec7d5bd14f71427d1e84f3dd0314c0f7b2291e5b200ac8c7c3b925\n        /* \"contracts/tokenERC20.sol\":6231:6237  amount */\n      dup4\n        /* \"contracts/tokenERC20.sol\":6206:6238  Approval(owner, spender, amount) */\n      mload(0x40)\n      tag_111\n      swap2\n      swap1\n      tag_29\n      jump\t// in\n    tag_111:\n      mload(0x40)\n      dup1\n      swap2\n      sub\n      swap1\n      log3\n        /* \"contracts/tokenERC20.sol\":6005:6241  function _approve (... */\n      pop\n      pop\n      pop\n      jump\t// out\n        /* \"contracts/tokenERC20.sol\":6456:6797  function _spendAllowance(address owner, address spender,uint amount) internal virtual{... */\n    tag_79:\n        /* \"contracts/tokenERC20.sol\":6547:6568  uint currentAllownace */\n      0x00\n        /* \"contracts/tokenERC20.sol\":6572:6597  allowance(owner, spender) */\n      tag_113\n        /* \"contracts/tokenERC20.sol\":6582:6587  owner */\n      dup5\n        /* \"contracts/tokenERC20.sol\":6589:6596  spender */\n      dup5\n        /* \"contracts/tokenERC20.sol\":6572:6581  allowance */\n      tag_64\n        /* \"contracts/tokenERC20.sol\":6572:6597  allowance(owner, spender) */\n      jump\t// in\n    tag_113:\n        /* \"contracts/tokenERC20.sol\":6547:6597  uint currentAllownace =  allowance(owner, spender) */\n      swap1\n      pop\n        /* \"contracts/tokenERC20.sol\":6627:6644  type(uint256).max */\n      0xffffffffffffffffffffffffffffffffffffffffffffffffffffffffffffffff\n        /* \"contracts/tokenERC20.sol\":6607:6623  currentAllownace */\n      dup2\n        /* \"contracts/tokenERC20.sol\":6607:6644  currentAllownace == type(uint256).max */\n      sub\n        /* \"contracts/tokenERC20.sol\":6603:6668  if (currentAllownace == type(uint256).max){... */\n      tag_114\n      jumpi\n        /* \"contracts/tokenERC20.sol\":6655:6662  return; */\n      pop\n      jump(tag_112)\n        /* \"contracts/tokenERC20.sol\":6603:6668  if (currentAllownace == type(uint256).max){... */\n    tag_114:\n        /* \"contracts/tokenERC20.sol\":6678:6729  _checkHaveEnoughtAllownce(currentAllownace, amount) */\n      tag_115\n        /* \"contracts/tokenERC20.sol\":6704:6720  currentAllownace */\n      dup2\n        /* \"contracts/tokenERC20.sol\":6722:6728  amount */\n      dup4\n        /* \"contracts/tokenERC20.sol\":6678:6703  _checkHaveEnoughtAllownce */\n      tag_116\n        /* \"contracts/tokenERC20.sol\":6678:6729  _checkHaveEnoughtAllownce(currentAllownace, amount) */\n      jump\t// in\n    tag_115:\n        /* \"contracts/tokenERC20.sol\":6755:6787  _approve(owner, spender, amount) */\n      tag_117\n        /* \"contracts/tokenERC20.sol\":6764:6769  owner */\n      dup5\n        /* \"contracts/tokenERC20.sol\":6771:6778  spender */\n      dup5\n        /* \"contracts/tokenERC20.sol\":6780:6786  amount */\n      dup5\n        /* \"contracts/tokenERC20.sol\":6755:6763  _approve */\n      tag_75\n        /* \"contracts/tokenERC20.sol\":6755:6787  _approve(owner, spender, amount) */\n      jump\t// in\n    tag_117:\n        /* \"contracts/tokenERC20.sol\":6541:6797  {... */\n      pop\n        /* \"contracts/tokenERC20.sol\":6456:6797  function _spendAllowance(address owner, address spender,uint amount) internal virtual{... */\n    tag_112:\n      pop\n      pop\n      pop\n      jump\t// out\n        /* \"contracts/tokenERC20.sol\":3663:3962  function _transfer(... */\n    tag_81:\n        /* \"contracts/tokenERC20.sol\":3759:3787  _avoidCeroAddreces(from, to) */\n      tag_119\n        /* \"contracts/tokenERC20.sol\":3778:3782  from */\n      dup4\n        /* \"contracts/tokenERC20.sol\":3784:3786  to */\n      dup4\n        /* \"contracts/tokenERC20.sol\":3759:3777  _avoidCeroAddreces */\n      tag_120\n        /* \"contracts/tokenERC20.sol\":3759:3787  _avoidCeroAddreces(from, to) */\n      jump\t// in\n    tag_119:\n        /* \"contracts/tokenERC20.sol\":3793:3831  _beforeTokenTransfer(from, to, amount) */\n      tag_121\n        /* \"contracts/tokenERC20.sol\":3814:3818  from */\n      dup4\n        /* \"contracts/tokenERC20.sol\":3820:3822  to */\n      dup4\n        /* \"contracts/tokenERC20.sol\":3824:3830  amount */\n      dup4\n        /* \"contracts/tokenERC20.sol\":3793:3813  _beforeTokenTransfer */\n      tag_122\n        /* \"contracts/tokenERC20.sol\":3793:3831  _beforeTokenTransfer(from, to, amount) */\n      jump\t// in\n    tag_121:\n        /* \"contracts/tokenERC20.sol\":3837:3874  _transferTheBalance(from, to, amount) */\n      tag_123\n        /* \"contracts/tokenERC20.sol\":3857:3861  from */\n      dup4\n        /* \"contracts/tokenERC20.sol\":3863:3865  to */\n      dup4\n        /* \"contracts/tokenERC20.sol\":3867:3873  amount */\n      dup4\n        /* \"contracts/tokenERC20.sol\":3837:3856  _transferTheBalance */\n      tag_124\n        /* \"contracts/tokenERC20.sol\":3837:3874  _transferTheBalance(from, to, amount) */\n      jump\t// in\n    tag_123:\n        /* \"contracts/tokenERC20.sol\":3900:3902  to */\n      dup2\n        /* \"contracts/tokenERC20.sol\":3885:3911  Transfer(from, to, amount) */\n      0xffffffffffffffffffffffffffffffffffffffff\n      and\n        /* \"contracts/tokenERC20.sol\":3894:3898  from */\n      dup4\n        /* \"contracts/tokenERC20.sol\":3885:3911  Transfer(from, to, amount) */\n      0xffffffffffffffffffffffffffffffffffffffff\n      and\n      0xddf252ad1be2c89b69c2b068fc378daa952ba7f163c4a11628f55a4df523b3ef\n        /* \"contracts/tokenERC20.sol\":3904:3910  amount */\n      dup4\n        /* \"contracts/tokenERC20.sol\":3885:3911  Transfer(from, to, amount) */\n      mload(0x40)\n      tag_125\n      swap2\n      swap1\n      tag_29\n      jump\t// in\n    tag_125:\n      mload(0x40)\n      dup1\n      swap2\n      sub\n      swap1\n      log3\n        /* \"contracts/tokenERC20.sol\":3917:3958  _afterTokenTransference(from, to, amount) */\n      tag_126\n        /* \"contracts/tokenERC20.sol\":3941:3945  from */\n      dup4\n        /* \"contracts/tokenERC20.sol\":3947:3949  to */\n      dup4\n        /* \"contracts/tokenERC20.sol\":3951:3957  amount */\n      dup4\n        /* \"contracts/tokenERC20.sol\":3917:3940  _afterTokenTransference */\n      tag_127\n        /* \"contracts/tokenERC20.sol\":3917:3958  _afterTokenTransference(from, to, amount) */\n      jump\t// in\n    tag_126:\n        /* \"contracts/tokenERC20.sol\":3663:3962  function _transfer(... */\n      pop\n      pop\n      pop\n      jump\t// out\n        /* \"contracts/tokenERC20.sol\":4819:5185  function mint(address account, uint amount) internal virtual {... */\n    tag_105:\n        /* \"contracts/tokenERC20.sol\":4886:4947  _avoidZeroAddress(account, \"ERC20: mind to the zero address\") */\n      tag_129\n        /* \"contracts/tokenERC20.sol\":4904:4911  account */\n      dup3\n        /* \"contracts/tokenERC20.sol\":4886:4947  _avoidZeroAddress(account, \"ERC20: mind to the zero address\") */\n      mload(0x40)\n      dup1\n      0x40\n      add\n      0x40\n      mstore\n      dup1\n      0x1f\n      dup2\n      mstore\n      0x20\n      add\n      0x45524332303a206d696e6420746f20746865207a65726f206164647265737300\n      dup2\n      mstore\n      pop\n        /* \"contracts/tokenERC20.sol\":4886:4903  _avoidZeroAddress */\n      tag_130\n        /* \"contracts/tokenERC20.sol\":4886:4947  _avoidZeroAddress(account, \"ERC20: mind to the zero address\") */\n      jump\t// in\n    tag_129:\n        /* \"contracts/tokenERC20.sol\":4953:5002  _beforeTokenTransfer(address(0), account, amount) */\n      tag_131\n        /* \"contracts/tokenERC20.sol\":4982:4983  0 */\n      0x00\n        /* \"contracts/tokenERC20.sol\":4986:4993  account */\n      dup4\n        /* \"contracts/tokenERC20.sol\":4995:5001  amount */\n      dup4\n        /* \"contracts/tokenERC20.sol\":4953:4973  _beforeTokenTransfer */\n      tag_122\n        /* \"contracts/tokenERC20.sol\":4953:5002  _beforeTokenTransfer(address(0), account, amount) */\n      jump\t// in\n    tag_131:\n        /* \"contracts/tokenERC20.sol\":5008:5033  _addToTotalSupply(amount) */\n      tag_132\n        /* \"contracts/tokenERC20.sol\":5026:5032  amount */\n      dup2\n        /* \"contracts/tokenERC20.sol\":5008:5025  _addToTotalSupply */\n      tag_133\n        /* \"contracts/tokenERC20.sol\":5008:5033  _addToTotalSupply(amount) */\n      jump\t// in\n    tag_132:\n        /* \"contracts/tokenERC20.sol\":5039:5076  _addToAccountBalance(account, amount) */\n      tag_134\n        /* \"contracts/tokenERC20.sol\":5060:5067  account */\n      dup3\n        /* \"contracts/tokenERC20.sol\":5069:5075  amount */\n      dup3\n        /* \"contracts/tokenERC20.sol\":5039:5059  _addToAccountBalance */\n      tag_135\n        /* \"contracts/tokenERC20.sol\":5039:5076  _addToAccountBalance(account, amount) */\n      jump\t// in\n    tag_134:\n        /* \"contracts/tokenERC20.sol\":5107:5114  account */\n      dup2\n        /* \"contracts/tokenERC20.sol\":5087:5123  Transer(address(0), account, amount) */\n      0xffffffffffffffffffffffffffffffffffffffff\n      and\n        /* \"contracts/tokenERC20.sol\":5103:5104  0 */\n      0x00\n        /* \"contracts/tokenERC20.sol\":5087:5123  Transer(address(0), account, amount) */\n      0xffffffffffffffffffffffffffffffffffffffff\n      and\n      0x0faf621085d5ef8c720449a3fe423b295b91a1bf2aeb6c72c0dfa3278ac5c996\n        /* \"contracts/tokenERC20.sol\":5116:5122  amount */\n      dup4\n        /* \"contracts/tokenERC20.sol\":5087:5123  Transer(address(0), account, amount) */\n      mload(0x40)\n      tag_136\n      swap2\n      swap1\n      tag_29\n      jump\t// in\n    tag_136:\n      mload(0x40)\n      dup1\n      swap2\n      sub\n      swap1\n      log3\n        /* \"contracts/tokenERC20.sol\":5129:5181  _afterTokenTransference(address(0), account, amount) */\n      tag_137\n        /* \"contracts/tokenERC20.sol\":5161:5162  0 */\n      0x00\n        /* \"contracts/tokenERC20.sol\":5165:5172  account */\n      dup4\n        /* \"contracts/tokenERC20.sol\":5174:5180  amount */\n      dup4\n        /* \"contracts/tokenERC20.sol\":5129:5152  _afterTokenTransference */\n      tag_127\n        /* \"contracts/tokenERC20.sol\":5129:5181  _afterTokenTransference(address(0), account, amount) */\n      jump\t// in\n    tag_137:\n        /* \"contracts/tokenERC20.sol\":4819:5185  function mint(address account, uint amount) internal virtual {... */\n      pop\n      pop\n      jump\t// out\n        /* \"contracts/tokenERC20.sol\":6243:6454  function _avoidZeroAddrecesInAprove(address to, address from) private pure {... */\n    tag_109:\n        /* \"contracts/tokenERC20.sol\":6324:6387  _avoidZeroAddress(from,  \"ERC20: aprove from the zero address\") */\n      tag_139\n        /* \"contracts/tokenERC20.sol\":6342:6346  from */\n      dup2\n        /* \"contracts/tokenERC20.sol\":6324:6387  _avoidZeroAddress(from,  \"ERC20: aprove from the zero address\") */\n      mload(0x40)\n      dup1\n      0x60\n      add\n      0x40\n      mstore\n      dup1\n      0x23\n      dup2\n      mstore\n      0x20\n      add\n      data_108f04b26f6bf0bf1a06485a9335a8507b79709b24b0fc547e1f35f2f0e373cd\n      0x23\n      swap2\n      codecopy\n        /* \"contracts/tokenERC20.sol\":6324:6341  _avoidZeroAddress */\n      tag_130\n        /* \"contracts/tokenERC20.sol\":6324:6387  _avoidZeroAddress(from,  \"ERC20: aprove from the zero address\") */\n      jump\t// in\n    tag_139:\n        /* \"contracts/tokenERC20.sol\":6393:6451  _avoidZeroAddress(to, \"ERC20: aprove to the zero address\") */\n      tag_140\n        /* \"contracts/tokenERC20.sol\":6411:6413  to */\n      dup3\n        /* \"contracts/tokenERC20.sol\":6393:6451  _avoidZeroAddress(to, \"ERC20: aprove to the zero address\") */\n      mload(0x40)\n      dup1\n      0x60\n      add\n      0x40\n      mstore\n      dup1\n      0x21\n      dup2\n      mstore\n      0x20\n      add\n      data_2deecfd32a21ba726bffc5537e99a488e47dffe90e037137bdf7f4c598a979b4\n      0x21\n      swap2\n      codecopy\n        /* \"contracts/tokenERC20.sol\":6393:6410  _avoidZeroAddress */\n      tag_130\n        /* \"contracts/tokenERC20.sol\":6393:6451  _avoidZeroAddress(to, \"ERC20: aprove to the zero address\") */\n      jump\t// in\n    tag_140:\n        /* \"contracts/tokenERC20.sol\":6243:6454  function _avoidZeroAddrecesInAprove(address to, address from) private pure {... */\n      pop\n      pop\n      jump\t// out\n        /* \"contracts/tokenERC20.sol\":6799:6971  function _checkHaveEnoughtAllownce(uint currentAllownace, uint amount) private pure{... */\n    tag_116:\n        /* \"contracts/tokenERC20.sol\":6925:6931  amount */\n      dup1\n        /* \"contracts/tokenERC20.sol\":6905:6921  currentAllownace */\n      dup3\n        /* \"contracts/tokenERC20.sol\":6905:6931  currentAllownace >= amount */\n      lt\n      iszero\n        /* \"contracts/tokenERC20.sol\":6897:6964  require(currentAllownace >= amount, \"ERC20: insuffienct allowance\") */\n      tag_142\n      jumpi\n      mload(0x40)\n      0x08c379a000000000000000000000000000000000000000000000000000000000\n      dup2\n      mstore\n      0x04\n      add\n      tag_143\n      swap1\n      tag_144\n      jump\t// in\n    tag_143:\n      mload(0x40)\n      dup1\n      swap2\n      sub\n      swap1\n      revert\n    tag_142:\n        /* \"contracts/tokenERC20.sol\":6799:6971  function _checkHaveEnoughtAllownce(uint currentAllownace, uint amount) private pure{... */\n      pop\n      pop\n      jump\t// out\n        /* \"contracts/tokenERC20.sol\":4037:4244  function _avoidCeroAddreces(address to, address from) pure private {... */\n    tag_120:\n        /* \"contracts/tokenERC20.sol\":4110:4175  _avoidZeroAddress(from,  \"ERC20: transfer from the zero address\") */\n      tag_146\n        /* \"contracts/tokenERC20.sol\":4128:4132  from */\n      dup2\n        /* \"contracts/tokenERC20.sol\":4110:4175  _avoidZeroAddress(from,  \"ERC20: transfer from the zero address\") */\n      mload(0x40)\n      dup1\n      0x60\n      add\n      0x40\n      mstore\n      dup1\n      0x25\n      dup2\n      mstore\n      0x20\n      add\n      data_baecc556b46f4ed0f2b4cb599d60785ac8563dd2dc0a5bf12edea1c39e5e1fea\n      0x25\n      swap2\n      codecopy\n        /* \"contracts/tokenERC20.sol\":4110:4127  _avoidZeroAddress */\n      tag_130\n        /* \"contracts/tokenERC20.sol\":4110:4175  _avoidZeroAddress(from,  \"ERC20: transfer from the zero address\") */\n      jump\t// in\n    tag_146:\n        /* \"contracts/tokenERC20.sol\":4181:4241  _avoidZeroAddress(to, \"ERC20: transfer to the zero address\") */\n      tag_147\n        /* \"contracts/tokenERC20.sol\":4199:4201  to */\n      dup3\n        /* \"contracts/tokenERC20.sol\":4181:4241  _avoidZeroAddress(to, \"ERC20: transfer to the zero address\") */\n      mload(0x40)\n      dup1\n      0x60\n      add\n      0x40\n      mstore\n      dup1\n      0x23\n      dup2\n      mstore\n      0x20\n      add\n      data_0557e210f7a69a685100a7e4e3d0a7024c546085cee28910fd17d0b081d9516f\n      0x23\n      swap2\n      codecopy\n        /* \"contracts/tokenERC20.sol\":4181:4198  _avoidZeroAddress */\n      tag_130\n        /* \"contracts/tokenERC20.sol\":4181:4241  _avoidZeroAddress(to, \"ERC20: transfer to the zero address\") */\n      jump\t// in\n    tag_147:\n        /* \"contracts/tokenERC20.sol\":4037:4244  function _avoidCeroAddreces(address to, address from) pure private {... */\n      pop\n      pop\n      jump\t// out\n        /* \"contracts/tokenERC20.sol\":6974:7080  function _beforeTokenTransfer(... */\n    tag_122:\n      pop\n      pop\n      pop\n      jump\t// out\n        /* \"contracts/tokenERC20.sol\":4594:4816  function _transferTheBalance(address from, address to, uint256 amount) private {... */\n    tag_124:\n        /* \"contracts/tokenERC20.sol\":4679:4726  _checkThatSenderHaveEnougthFounds(from, amount) */\n      tag_150\n        /* \"contracts/tokenERC20.sol\":4713:4717  from */\n      dup4\n        /* \"contracts/tokenERC20.sol\":4719:4725  amount */\n      dup3\n        /* \"contracts/tokenERC20.sol\":4679:4712  _checkThatSenderHaveEnougthFounds */\n      tag_151\n        /* \"contracts/tokenERC20.sol\":4679:4726  _checkThatSenderHaveEnougthFounds(from, amount) */\n      jump\t// in\n    tag_150:\n        /* \"contracts/tokenERC20.sol\":4767:4773  amount */\n      dup1\n        /* \"contracts/tokenERC20.sol\":4748:4757  _balances */\n      0x00\n        /* \"contracts/tokenERC20.sol\":4748:4763  _balances[from] */\n      dup1\n        /* \"contracts/tokenERC20.sol\":4758:4762  from */\n      dup6\n        /* \"contracts/tokenERC20.sol\":4748:4763  _balances[from] */\n      0xffffffffffffffffffffffffffffffffffffffff\n      and\n      0xffffffffffffffffffffffffffffffffffffffff\n      and\n      dup2\n      mstore\n      0x20\n      add\n      swap1\n      dup2\n      mstore\n      0x20\n      add\n      0x00\n      keccak256\n      0x00\n        /* \"contracts/tokenERC20.sol\":4748:4773  _balances[from] -= amount */\n      dup3\n      dup3\n      sload\n      sub\n      swap3\n      pop\n      pop\n      dup2\n      swap1\n      sstore\n      pop\n        /* \"contracts/tokenERC20.sol\":4807:4813  amount */\n      dup1\n        /* \"contracts/tokenERC20.sol\":4790:4799  _balances */\n      0x00\n        /* \"contracts/tokenERC20.sol\":4790:4803  _balances[to] */\n      dup1\n        /* \"contracts/tokenERC20.sol\":4800:4802  to */\n      dup5\n        /* \"contracts/tokenERC20.sol\":4790:4803  _balances[to] */\n      0xffffffffffffffffffffffffffffffffffffffff\n      and\n      0xffffffffffffffffffffffffffffffffffffffff\n      and\n      dup2\n      mstore\n      0x20\n      add\n      swap1\n      dup2\n      mstore\n      0x20\n      add\n      0x00\n      keccak256\n      0x00\n        /* \"contracts/tokenERC20.sol\":4790:4813  _balances[to] += amount */\n      dup3\n      dup3\n      sload\n      tag_152\n      swap2\n      swap1\n      tag_86\n      jump\t// in\n    tag_152:\n      swap3\n      pop\n      pop\n      dup2\n      swap1\n      sstore\n      pop\n        /* \"contracts/tokenERC20.sol\":4594:4816  function _transferTheBalance(address from, address to, uint256 amount) private {... */\n      pop\n      pop\n      pop\n      jump\t// out\n        /* \"contracts/tokenERC20.sol\":7082:7191  function _afterTokenTransference(... */\n    tag_127:\n      pop\n      pop\n      pop\n      jump\t// out\n        /* \"contracts/tokenERC20.sol\":4247:4379  function _avoidZeroAddress(address addr, string memory errorMessage) pure private {... */\n    tag_130:\n        /* \"contracts/tokenERC20.sol\":4359:4360  0 */\n      0x00\n        /* \"contracts/tokenERC20.sol\":4343:4361  addr != address(0) */\n      0xffffffffffffffffffffffffffffffffffffffff\n      and\n        /* \"contracts/tokenERC20.sol\":4343:4347  addr */\n      dup3\n        /* \"contracts/tokenERC20.sol\":4343:4361  addr != address(0) */\n      0xffffffffffffffffffffffffffffffffffffffff\n      and\n      eq\n      iszero\n        /* \"contracts/tokenERC20.sol\":4363:4375  errorMessage */\n      dup2\n        /* \"contracts/tokenERC20.sol\":4335:4376  require(addr != address(0), errorMessage) */\n      swap1\n      tag_155\n      jumpi\n      mload(0x40)\n      0x08c379a000000000000000000000000000000000000000000000000000000000\n      dup2\n      mstore\n      0x04\n      add\n      tag_156\n      swap2\n      swap1\n      tag_19\n      jump\t// in\n    tag_156:\n      mload(0x40)\n      dup1\n      swap2\n      sub\n      swap1\n      revert\n    tag_155:\n      pop\n        /* \"contracts/tokenERC20.sol\":4247:4379  function _avoidZeroAddress(address addr, string memory errorMessage) pure private {... */\n      pop\n      pop\n      jump\t// out\n        /* \"contracts/tokenERC20.sol\":5636:5719  function _addToTotalSupply(uint quantity) private {... */\n    tag_133:\n        /* \"contracts/tokenERC20.sol\":5708:5716  quantity */\n      dup1\n        /* \"contracts/tokenERC20.sol\":5692:5704  _totalSupply */\n      0x02\n      0x00\n        /* \"contracts/tokenERC20.sol\":5692:5716  _totalSupply += quantity */\n      dup3\n      dup3\n      sload\n      tag_158\n      swap2\n      swap1\n      tag_86\n      jump\t// in\n    tag_158:\n      swap3\n      pop\n      pop\n      dup2\n      swap1\n      sstore\n      pop\n        /* \"contracts/tokenERC20.sol\":5636:5719  function _addToTotalSupply(uint quantity) private {... */\n      pop\n      jump\t// out\n        /* \"contracts/tokenERC20.sol\":5813:5922  function _addToAccountBalance(address account, uint quantity) private {... */\n    tag_135:\n        /* \"contracts/tokenERC20.sol\":5911:5919  quantity */\n      dup1\n        /* \"contracts/tokenERC20.sol\":5889:5898  _balances */\n      0x00\n        /* \"contracts/tokenERC20.sol\":5889:5907  _balances[account] */\n      dup1\n        /* \"contracts/tokenERC20.sol\":5899:5906  account */\n      dup5\n        /* \"contracts/tokenERC20.sol\":5889:5907  _balances[account] */\n      0xffffffffffffffffffffffffffffffffffffffff\n      and\n      0xffffffffffffffffffffffffffffffffffffffff\n      and\n      dup2\n      mstore\n      0x20\n      add\n      swap1\n      dup2\n      mstore\n      0x20\n      add\n      0x00\n      keccak256\n      0x00\n        /* \"contracts/tokenERC20.sol\":5889:5919  _balances[account] += quantity */\n      dup3\n      dup3\n      sload\n      tag_160\n      swap2\n      swap1\n      tag_86\n      jump\t// in\n    tag_160:\n      swap3\n      pop\n      pop\n      dup2\n      swap1\n      sstore\n      pop\n        /* \"contracts/tokenERC20.sol\":5813:5922  function _addToAccountBalance(address account, uint quantity) private {... */\n      pop\n      pop\n      jump\t// out\n        /* \"contracts/tokenERC20.sol\":4382:4590  function _checkThatSenderHaveEnougthFounds(address from, uint amount) view private {... */\n    tag_151:\n        /* \"contracts/tokenERC20.sol\":4471:4490  uint256 fromBalance */\n      0x00\n        /* \"contracts/tokenERC20.sol\":4493:4502  _balances */\n      dup1\n        /* \"contracts/tokenERC20.sol\":4493:4508  _balances[from] */\n      0x00\n        /* \"contracts/tokenERC20.sol\":4503:4507  from */\n      dup5\n        /* \"contracts/tokenERC20.sol\":4493:4508  _balances[from] */\n      0xffffffffffffffffffffffffffffffffffffffff\n      and\n      0xffffffffffffffffffffffffffffffffffffffff\n      and\n      dup2\n      mstore\n      0x20\n      add\n      swap1\n      dup2\n      mstore\n      0x20\n      add\n      0x00\n      keccak256\n      sload\n        /* \"contracts/tokenERC20.sol\":4471:4508  uint256 fromBalance = _balances[from] */\n      swap1\n      pop\n        /* \"contracts/tokenERC20.sol\":4537:4543  amount */\n      dup2\n        /* \"contracts/tokenERC20.sol\":4522:4533  fromBalance */\n      dup2\n        /* \"contracts/tokenERC20.sol\":4522:4543  fromBalance >= amount */\n      lt\n      iszero\n        /* \"contracts/tokenERC20.sol\":4514:4587  require(fromBalance >= amount, \"ERC20 : Transfer amount exceeds balance\") */\n      tag_162\n      jumpi\n      mload(0x40)\n      0x08c379a000000000000000000000000000000000000000000000000000000000\n      dup2\n      mstore\n      0x04\n      add\n      tag_163\n      swap1\n      tag_164\n      jump\t// in\n    tag_163:\n      mload(0x40)\n      dup1\n      swap2\n      sub\n      swap1\n      revert\n    tag_162:\n        /* \"contracts/tokenERC20.sol\":4465:4590  {... */\n      pop\n        /* \"contracts/tokenERC20.sol\":4382:4590  function _checkThatSenderHaveEnougthFounds(address from, uint amount) view private {... */\n      pop\n      pop\n      jump\t// out\n        /* \"#utility.yul\":7:106   */\n    tag_165:\n        /* \"#utility.yul\":59:65   */\n      0x00\n        /* \"#utility.yul\":93:98   */\n      dup2\n        /* \"#utility.yul\":87:99   */\n      mload\n        /* \"#utility.yul\":77:99   */\n      swap1\n      pop\n        /* \"#utility.yul\":7:106   */\n      swap2\n      swap1\n      pop\n      jump\t// out\n        /* \"#utility.yul\":112:281   */\n    tag_166:\n        /* \"#utility.yul\":196:207   */\n      0x00\n        /* \"#utility.yul\":230:236   */\n      dup3\n        /* \"#utility.yul\":225:228   */\n      dup3\n        /* \"#utility.yul\":218:237   */\n      mstore\n        /* \"#utility.yul\":270:274   */\n      0x20\n        /* \"#utility.yul\":265:268   */\n      dup3\n        /* \"#utility.yul\":261:275   */\n      add\n        /* \"#utility.yul\":246:275   */\n      swap1\n      pop\n        /* \"#utility.yul\":112:281   */\n      swap3\n      swap2\n      pop\n      pop\n      jump\t// out\n        /* \"#utility.yul\":287:426   */\n    tag_167:\n        /* \"#utility.yul\":376:382   */\n      dup3\n        /* \"#utility.yul\":371:374   */\n      dup2\n        /* \"#utility.yul\":366:369   */\n      dup4\n        /* \"#utility.yul\":360:383   */\n      mcopy\n        /* \"#utility.yul\":417:418   */\n      0x00\n        /* \"#utility.yul\":408:414   */\n      dup4\n        /* \"#utility.yul\":403:406   */\n      dup4\n        /* \"#utility.yul\":399:415   */\n      add\n        /* \"#utility.yul\":392:419   */\n      mstore\n        /* \"#utility.yul\":287:426   */\n      pop\n      pop\n      pop\n      jump\t// out\n        /* \"#utility.yul\":432:534   */\n    tag_168:\n        /* \"#utility.yul\":473:479   */\n      0x00\n        /* \"#utility.yul\":524:526   */\n      0x1f\n        /* \"#utility.yul\":520:527   */\n      not\n        /* \"#utility.yul\":515:517   */\n      0x1f\n        /* \"#utility.yul\":508:513   */\n      dup4\n        /* \"#utility.yul\":504:518   */\n      add\n        /* \"#utility.yul\":500:528   */\n      and\n        /* \"#utility.yul\":490:528   */\n      swap1\n      pop\n        /* \"#utility.yul\":432:534   */\n      swap2\n      swap1\n      pop\n      jump\t// out\n        /* \"#utility.yul\":540:917   */\n    tag_169:\n        /* \"#utility.yul\":628:631   */\n      0x00\n        /* \"#utility.yul\":656:695   */\n      tag_199\n        /* \"#utility.yul\":689:694   */\n      dup3\n        /* \"#utility.yul\":656:695   */\n      tag_165\n      jump\t// in\n    tag_199:\n        /* \"#utility.yul\":711:782   */\n      tag_200\n        /* \"#utility.yul\":775:781   */\n      dup2\n        /* \"#utility.yul\":770:773   */\n      dup6\n        /* \"#utility.yul\":711:782   */\n      tag_166\n      jump\t// in\n    tag_200:\n        /* \"#utility.yul\":704:782   */\n      swap4\n      pop\n        /* \"#utility.yul\":791:856   */\n      tag_201\n        /* \"#utility.yul\":849:855   */\n      dup2\n        /* \"#utility.yul\":844:847   */\n      dup6\n        /* \"#utility.yul\":837:841   */\n      0x20\n        /* \"#utility.yul\":830:835   */\n      dup7\n        /* \"#utility.yul\":826:842   */\n      add\n        /* \"#utility.yul\":791:856   */\n      tag_167\n      jump\t// in\n    tag_201:\n        /* \"#utility.yul\":881:910   */\n      tag_202\n        /* \"#utility.yul\":903:909   */\n      dup2\n        /* \"#utility.yul\":881:910   */\n      tag_168\n      jump\t// in\n    tag_202:\n        /* \"#utility.yul\":876:879   */\n      dup5\n        /* \"#utility.yul\":872:911   */\n      add\n        /* \"#utility.yul\":865:911   */\n      swap2\n      pop\n        /* \"#utility.yul\":632:917   */\n      pop\n        /* \"#utility.yul\":540:917   */\n      swap3\n      swap2\n      pop\n      pop\n      jump\t// out\n        /* \"#utility.yul\":923:1236   */\n    tag_19:\n        /* \"#utility.yul\":1036:1040   */\n      0x00\n        /* \"#utility.yul\":1074:1076   */\n      0x20\n        /* \"#utility.yul\":1063:1072   */\n      dup3\n        /* \"#utility.yul\":1059:1077   */\n      add\n        /* \"#utility.yul\":1051:1077   */\n      swap1\n      pop\n        /* \"#utility.yul\":1123:1132   */\n      dup2\n        /* \"#utility.yul\":1117:1121   */\n      dup2\n        /* \"#utility.yul\":1113:1133   */\n      sub\n        /* \"#utility.yul\":1109:1110   */\n      0x00\n        /* \"#utility.yul\":1098:1107   */\n      dup4\n        /* \"#utility.yul\":1094:1111   */\n      add\n        /* \"#utility.yul\":1087:1134   */\n      mstore\n        /* \"#utility.yul\":1151:1229   */\n      tag_204\n        /* \"#utility.yul\":1224:1228   */\n      dup2\n        /* \"#utility.yul\":1215:1221   */\n      dup5\n        /* \"#utility.yul\":1151:1229   */\n      tag_169\n      jump\t// in\n    tag_204:\n        /* \"#utility.yul\":1143:1229   */\n      swap1\n      pop\n        /* \"#utility.yul\":923:1236   */\n      swap3\n      swap2\n      pop\n      pop\n      jump\t// out\n        /* \"#utility.yul\":1323:1440   */\n    tag_171:\n        /* \"#utility.yul\":1432:1433   */\n      0x00\n        /* \"#utility.yul\":1429:1430   */\n      dup1\n        /* \"#utility.yul\":1422:1434   */\n      revert\n        /* \"#utility.yul\":1569:1695   */\n    tag_173:\n        /* \"#utility.yul\":1606:1613   */\n      0x00\n        /* \"#utility.yul\":1646:1688   */\n      0xffffffffffffffffffffffffffffffffffffffff\n        /* \"#utility.yul\":1639:1644   */\n      dup3\n        /* \"#utility.yul\":1635:1689   */\n      and\n        /* \"#utility.yul\":1624:1689   */\n      swap1\n      pop\n        /* \"#utility.yul\":1569:1695   */\n      swap2\n      swap1\n      pop\n      jump\t// out\n        /* \"#utility.yul\":1701:1797   */\n    tag_174:\n        /* \"#utility.yul\":1738:1745   */\n      0x00\n        /* \"#utility.yul\":1767:1791   */\n      tag_210\n        /* \"#utility.yul\":1785:1790   */\n      dup3\n        /* \"#utility.yul\":1767:1791   */\n      tag_173\n      jump\t// in\n    tag_210:\n        /* \"#utility.yul\":1756:1791   */\n      swap1\n      pop\n        /* \"#utility.yul\":1701:1797   */\n      swap2\n      swap1\n      pop\n      jump\t// out\n        /* \"#utility.yul\":1803:1925   */\n    tag_175:\n        /* \"#utility.yul\":1876:1900   */\n      tag_212\n        /* \"#utility.yul\":1894:1899   */\n      dup2\n        /* \"#utility.yul\":1876:1900   */\n      tag_174\n      jump\t// in\n    tag_212:\n        /* \"#utility.yul\":1869:1874   */\n      dup2\n        /* \"#utility.yul\":1866:1901   */\n      eq\n        /* \"#utility.yul\":1856:1919   */\n      tag_213\n      jumpi\n        /* \"#utility.yul\":1915:1916   */\n      0x00\n        /* \"#utility.yul\":1912:1913   */\n      dup1\n        /* \"#utility.yul\":1905:1917   */\n      revert\n        /* \"#utility.yul\":1856:1919   */\n    tag_213:\n        /* \"#utility.yul\":1803:1925   */\n      pop\n      jump\t// out\n        /* \"#utility.yul\":1931:2070   */\n    tag_176:\n        /* \"#utility.yul\":1977:1982   */\n      0x00\n        /* \"#utility.yul\":2015:2021   */\n      dup2\n        /* \"#utility.yul\":2002:2022   */\n      calldataload\n        /* \"#utility.yul\":1993:2022   */\n      swap1\n      pop\n        /* \"#utility.yul\":2031:2064   */\n      tag_215\n        /* \"#utility.yul\":2058:2063   */\n      dup2\n        /* \"#utility.yul\":2031:2064   */\n      tag_175\n      jump\t// in\n    tag_215:\n        /* \"#utility.yul\":1931:2070   */\n      swap3\n      swap2\n      pop\n      pop\n      jump\t// out\n        /* \"#utility.yul\":2076:2153   */\n    tag_177:\n        /* \"#utility.yul\":2113:2120   */\n      0x00\n        /* \"#utility.yul\":2142:2147   */\n      dup2\n        /* \"#utility.yul\":2131:2147   */\n      swap1\n      pop\n        /* \"#utility.yul\":2076:2153   */\n      swap2\n      swap1\n      pop\n      jump\t// out\n        /* \"#utility.yul\":2159:2281   */\n    tag_178:\n        /* \"#utility.yul\":2232:2256   */\n      tag_218\n        /* \"#utility.yul\":2250:2255   */\n      dup2\n        /* \"#utility.yul\":2232:2256   */\n      tag_177\n      jump\t// in\n    tag_218:\n        /* \"#utility.yul\":2225:2230   */\n      dup2\n        /* \"#utility.yul\":2222:2257   */\n      eq\n        /* \"#utility.yul\":2212:2275   */\n      tag_219\n      jumpi\n        /* \"#utility.yul\":2271:2272   */\n      0x00\n        /* \"#utility.yul\":2268:2269   */\n      dup1\n        /* \"#utility.yul\":2261:2273   */\n      revert\n        /* \"#utility.yul\":2212:2275   */\n    tag_219:\n        /* \"#utility.yul\":2159:2281   */\n      pop\n      jump\t// out\n        /* \"#utility.yul\":2287:2426   */\n    tag_179:\n        /* \"#utility.yul\":2333:2338   */\n      0x00\n        /* \"#utility.yul\":2371:2377   */\n      dup2\n        /* \"#utility.yul\":2358:2378   */\n      calldataload\n        /* \"#utility.yul\":2349:2378   */\n      swap1\n      pop\n        /* \"#utility.yul\":2387:2420   */\n      tag_221\n        /* \"#utility.yul\":2414:2419   */\n      dup2\n        /* \"#utility.yul\":2387:2420   */\n      tag_178\n      jump\t// in\n    tag_221:\n        /* \"#utility.yul\":2287:2426   */\n      swap3\n      swap2\n      pop\n      pop\n      jump\t// out\n        /* \"#utility.yul\":2432:2906   */\n    tag_22:\n        /* \"#utility.yul\":2500:2506   */\n      0x00\n        /* \"#utility.yul\":2508:2514   */\n      dup1\n        /* \"#utility.yul\":2557:2559   */\n      0x40\n        /* \"#utility.yul\":2545:2554   */\n      dup4\n        /* \"#utility.yul\":2536:2543   */\n      dup6\n        /* \"#utility.yul\":2532:2555   */\n      sub\n        /* \"#utility.yul\":2528:2560   */\n      slt\n        /* \"#utility.yul\":2525:2644   */\n      iszero\n      tag_223\n      jumpi\n        /* \"#utility.yul\":2563:2642   */\n      tag_224\n      tag_171\n      jump\t// in\n    tag_224:\n        /* \"#utility.yul\":2525:2644   */\n    tag_223:\n        /* \"#utility.yul\":2683:2684   */\n      0x00\n        /* \"#utility.yul\":2708:2761   */\n      tag_225\n        /* \"#utility.yul\":2753:2760   */\n      dup6\n        /* \"#utility.yul\":2744:2750   */\n      dup3\n        /* \"#utility.yul\":2733:2742   */\n      dup7\n        /* \"#utility.yul\":2729:2751   */\n      add\n        /* \"#utility.yul\":2708:2761   */\n      tag_176\n      jump\t// in\n    tag_225:\n        /* \"#utility.yul\":2698:2761   */\n      swap3\n      pop\n        /* \"#utility.yul\":2654:2771   */\n      pop\n        /* \"#utility.yul\":2810:2812   */\n      0x20\n        /* \"#utility.yul\":2836:2889   */\n      tag_226\n        /* \"#utility.yul\":2881:2888   */\n      dup6\n        /* \"#utility.yul\":2872:2878   */\n      dup3\n        /* \"#utility.yul\":2861:2870   */\n      dup7\n        /* \"#utility.yul\":2857:2879   */\n      add\n        /* \"#utility.yul\":2836:2889   */\n      tag_179\n      jump\t// in\n    tag_226:\n        /* \"#utility.yul\":2826:2889   */\n      swap2\n      pop\n        /* \"#utility.yul\":2781:2899   */\n      pop\n        /* \"#utility.yul\":2432:2906   */\n      swap3\n      pop\n      swap3\n      swap1\n      pop\n      jump\t// out\n        /* \"#utility.yul\":2912:3002   */\n    tag_180:\n        /* \"#utility.yul\":2946:2953   */\n      0x00\n        /* \"#utility.yul\":2989:2994   */\n      dup2\n        /* \"#utility.yul\":2982:2995   */\n      iszero\n        /* \"#utility.yul\":2975:2996   */\n      iszero\n        /* \"#utility.yul\":2964:2996   */\n      swap1\n      pop\n        /* \"#utility.yul\":2912:3002   */\n      swap2\n      swap1\n      pop\n      jump\t// out\n        /* \"#utility.yul\":3008:3117   */\n    tag_181:\n        /* \"#utility.yul\":3089:3110   */\n      tag_229\n        /* \"#utility.yul\":3104:3109   */\n      dup2\n        /* \"#utility.yul\":3089:3110   */\n      tag_180\n      jump\t// in\n    tag_229:\n        /* \"#utility.yul\":3084:3087   */\n      dup3\n        /* \"#utility.yul\":3077:3111   */\n      mstore\n        /* \"#utility.yul\":3008:3117   */\n      pop\n      pop\n      jump\t// out\n        /* \"#utility.yul\":3123:3333   */\n    tag_25:\n        /* \"#utility.yul\":3210:3214   */\n      0x00\n        /* \"#utility.yul\":3248:3250   */\n      0x20\n        /* \"#utility.yul\":3237:3246   */\n      dup3\n        /* \"#utility.yul\":3233:3251   */\n      add\n        /* \"#utility.yul\":3225:3251   */\n      swap1\n      pop\n        /* \"#utility.yul\":3261:3326   */\n      tag_231\n        /* \"#utility.yul\":3323:3324   */\n      0x00\n        /* \"#utility.yul\":3312:3321   */\n      dup4\n        /* \"#utility.yul\":3308:3325   */\n      add\n        /* \"#utility.yul\":3299:3305   */\n      dup5\n        /* \"#utility.yul\":3261:3326   */\n      tag_181\n      jump\t// in\n    tag_231:\n        /* \"#utility.yul\":3123:3333   */\n      swap3\n      swap2\n      pop\n      pop\n      jump\t// out\n        /* \"#utility.yul\":3339:3457   */\n    tag_182:\n        /* \"#utility.yul\":3426:3450   */\n      tag_233\n        /* \"#utility.yul\":3444:3449   */\n      dup2\n        /* \"#utility.yul\":3426:3450   */\n      tag_177\n      jump\t// in\n    tag_233:\n        /* \"#utility.yul\":3421:3424   */\n      dup3\n        /* \"#utility.yul\":3414:3451   */\n      mstore\n        /* \"#utility.yul\":3339:3457   */\n      pop\n      pop\n      jump\t// out\n        /* \"#utility.yul\":3463:3685   */\n    tag_29:\n        /* \"#utility.yul\":3556:3560   */\n      0x00\n        /* \"#utility.yul\":3594:3596   */\n      0x20\n        /* \"#utility.yul\":3583:3592   */\n      dup3\n        /* \"#utility.yul\":3579:3597   */\n      add\n        /* \"#utility.yul\":3571:3597   */\n      swap1\n      pop\n        /* \"#utility.yul\":3607:3678   */\n      tag_235\n        /* \"#utility.yul\":3675:3676   */\n      0x00\n        /* \"#utility.yul\":3664:3673   */\n      dup4\n        /* \"#utility.yul\":3660:3677   */\n      add\n        /* \"#utility.yul\":3651:3657   */\n      dup5\n        /* \"#utility.yul\":3607:3678   */\n      tag_182\n      jump\t// in\n    tag_235:\n        /* \"#utility.yul\":3463:3685   */\n      swap3\n      swap2\n      pop\n      pop\n      jump\t// out\n        /* \"#utility.yul\":3691:4310   */\n    tag_32:\n        /* \"#utility.yul\":3768:3774   */\n      0x00\n        /* \"#utility.yul\":3776:3782   */\n      dup1\n        /* \"#utility.yul\":3784:3790   */\n      0x00\n        /* \"#utility.yul\":3833:3835   */\n      0x60\n        /* \"#utility.yul\":3821:3830   */\n      dup5\n        /* \"#utility.yul\":3812:3819   */\n      dup7\n        /* \"#utility.yul\":3808:3831   */\n      sub\n        /* \"#utility.yul\":3804:3836   */\n      slt\n        /* \"#utility.yul\":3801:3920   */\n      iszero\n      tag_237\n      jumpi\n        /* \"#utility.yul\":3839:3918   */\n      tag_238\n      tag_171\n      jump\t// in\n    tag_238:\n        /* \"#utility.yul\":3801:3920   */\n    tag_237:\n        /* \"#utility.yul\":3959:3960   */\n      0x00\n        /* \"#utility.yul\":3984:4037   */\n      tag_239\n        /* \"#utility.yul\":4029:4036   */\n      dup7\n        /* \"#utility.yul\":4020:4026   */\n      dup3\n        /* \"#utility.yul\":4009:4018   */\n      dup8\n        /* \"#utility.yul\":4005:4027   */\n      add\n        /* \"#utility.yul\":3984:4037   */\n      tag_176\n      jump\t// in\n    tag_239:\n        /* \"#utility.yul\":3974:4037   */\n      swap4\n      pop\n        /* \"#utility.yul\":3930:4047   */\n      pop\n        /* \"#utility.yul\":4086:4088   */\n      0x20\n        /* \"#utility.yul\":4112:4165   */\n      tag_240\n        /* \"#utility.yul\":4157:4164   */\n      dup7\n        /* \"#utility.yul\":4148:4154   */\n      dup3\n        /* \"#utility.yul\":4137:4146   */\n      dup8\n        /* \"#utility.yul\":4133:4155   */\n      add\n        /* \"#utility.yul\":4112:4165   */\n      tag_176\n      jump\t// in\n    tag_240:\n        /* \"#utility.yul\":4102:4165   */\n      swap3\n      pop\n        /* \"#utility.yul\":4057:4175   */\n      pop\n        /* \"#utility.yul\":4214:4216   */\n      0x40\n        /* \"#utility.yul\":4240:4293   */\n      tag_241\n        /* \"#utility.yul\":4285:4292   */\n      dup7\n        /* \"#utility.yul\":4276:4282   */\n      dup3\n        /* \"#utility.yul\":4265:4274   */\n      dup8\n        /* \"#utility.yul\":4261:4283   */\n      add\n        /* \"#utility.yul\":4240:4293   */\n      tag_179\n      jump\t// in\n    tag_241:\n        /* \"#utility.yul\":4230:4293   */\n      swap2\n      pop\n        /* \"#utility.yul\":4185:4303   */\n      pop\n        /* \"#utility.yul\":3691:4310   */\n      swap3\n      pop\n      swap3\n      pop\n      swap3\n      jump\t// out\n        /* \"#utility.yul\":4316:4402   */\n    tag_183:\n        /* \"#utility.yul\":4351:4358   */\n      0x00\n        /* \"#utility.yul\":4391:4395   */\n      0xff\n        /* \"#utility.yul\":4384:4389   */\n      dup3\n        /* \"#utility.yul\":4380:4396   */\n      and\n        /* \"#utility.yul\":4369:4396   */\n      swap1\n      pop\n        /* \"#utility.yul\":4316:4402   */\n      swap2\n      swap1\n      pop\n      jump\t// out\n        /* \"#utility.yul\":4408:4520   */\n    tag_184:\n        /* \"#utility.yul\":4491:4513   */\n      tag_244\n        /* \"#utility.yul\":4507:4512   */\n      dup2\n        /* \"#utility.yul\":4491:4513   */\n      tag_183\n      jump\t// in\n    tag_244:\n        /* \"#utility.yul\":4486:4489   */\n      dup3\n        /* \"#utility.yul\":4479:4514   */\n      mstore\n        /* \"#utility.yul\":4408:4520   */\n      pop\n      pop\n      jump\t// out\n        /* \"#utility.yul\":4526:4740   */\n    tag_38:\n        /* \"#utility.yul\":4615:4619   */\n      0x00\n        /* \"#utility.yul\":4653:4655   */\n      0x20\n        /* \"#utility.yul\":4642:4651   */\n      dup3\n        /* \"#utility.yul\":4638:4656   */\n      add\n        /* \"#utility.yul\":4630:4656   */\n      swap1\n      pop\n        /* \"#utility.yul\":4666:4733   */\n      tag_246\n        /* \"#utility.yul\":4730:4731   */\n      0x00\n        /* \"#utility.yul\":4719:4728   */\n      dup4\n        /* \"#utility.yul\":4715:4732   */\n      add\n        /* \"#utility.yul\":4706:4712   */\n      dup5\n        /* \"#utility.yul\":4666:4733   */\n      tag_184\n      jump\t// in\n    tag_246:\n        /* \"#utility.yul\":4526:4740   */\n      swap3\n      swap2\n      pop\n      pop\n      jump\t// out\n        /* \"#utility.yul\":4746:5075   */\n    tag_45:\n        /* \"#utility.yul\":4805:4811   */\n      0x00\n        /* \"#utility.yul\":4854:4856   */\n      0x20\n        /* \"#utility.yul\":4842:4851   */\n      dup3\n        /* \"#utility.yul\":4833:4840   */\n      dup5\n        /* \"#utility.yul\":4829:4852   */\n      sub\n        /* \"#utility.yul\":4825:4857   */\n      slt\n        /* \"#utility.yul\":4822:4941   */\n      iszero\n      tag_248\n      jumpi\n        /* \"#utility.yul\":4860:4939   */\n      tag_249\n      tag_171\n      jump\t// in\n    tag_249:\n        /* \"#utility.yul\":4822:4941   */\n    tag_248:\n        /* \"#utility.yul\":4980:4981   */\n      0x00\n        /* \"#utility.yul\":5005:5058   */\n      tag_250\n        /* \"#utility.yul\":5050:5057   */\n      dup5\n        /* \"#utility.yul\":5041:5047   */\n      dup3\n        /* \"#utility.yul\":5030:5039   */\n      dup6\n        /* \"#utility.yul\":5026:5048   */\n      add\n        /* \"#utility.yul\":5005:5058   */\n      tag_176\n      jump\t// in\n    tag_250:\n        /* \"#utility.yul\":4995:5058   */\n      swap2\n      pop\n        /* \"#utility.yul\":4951:5068   */\n      pop\n        /* \"#utility.yul\":4746:5075   */\n      swap3\n      swap2\n      pop\n      pop\n      jump\t// out\n        /* \"#utility.yul\":5081:5555   */\n    tag_63:\n        /* \"#utility.yul\":5149:5155   */\n      0x00\n        /* \"#utility.yul\":5157:5163   */\n      dup1\n        /* \"#utility.yul\":5206:5208   */\n      0x40\n        /* \"#utility.yul\":5194:5203   */\n      dup4\n        /* \"#utility.yul\":5185:5192   */\n      dup6\n        /* \"#utility.yul\":5181:5204   */\n      sub\n        /* \"#utility.yul\":5177:5209   */\n      slt\n        /* \"#utility.yul\":5174:5293   */\n      iszero\n      tag_252\n      jumpi\n        /* \"#utility.yul\":5212:5291   */\n      tag_253\n      tag_171\n      jump\t// in\n    tag_253:\n        /* \"#utility.yul\":5174:5293   */\n    tag_252:\n        /* \"#utility.yul\":5332:5333   */\n      0x00\n        /* \"#utility.yul\":5357:5410   */\n      tag_254\n        /* \"#utility.yul\":5402:5409   */\n      dup6\n        /* \"#utility.yul\":5393:5399   */\n      dup3\n        /* \"#utility.yul\":5382:5391   */\n      dup7\n        /* \"#utility.yul\":5378:5400   */\n      add\n        /* \"#utility.yul\":5357:5410   */\n      tag_176\n      jump\t// in\n    tag_254:\n        /* \"#utility.yul\":5347:5410   */\n      swap3\n      pop\n        /* \"#utility.yul\":5303:5420   */\n      pop\n        /* \"#utility.yul\":5459:5461   */\n      0x20\n        /* \"#utility.yul\":5485:5538   */\n      tag_255\n        /* \"#utility.yul\":5530:5537   */\n      dup6\n        /* \"#utility.yul\":5521:5527   */\n      dup3\n        /* \"#utility.yul\":5510:5519   */\n      dup7\n        /* \"#utility.yul\":5506:5528   */\n      add\n        /* \"#utility.yul\":5485:5538   */\n      tag_176\n      jump\t// in\n    tag_255:\n        /* \"#utility.yul\":5475:5538   */\n      swap2\n      pop\n        /* \"#utility.yul\":5430:5548   */\n      pop\n        /* \"#utility.yul\":5081:5555   */\n      swap3\n      pop\n      swap3\n      swap1\n      pop\n      jump\t// out\n        /* \"#utility.yul\":5561:5741   */\n    tag_185:\n        /* \"#utility.yul\":5609:5686   */\n      0x4e487b7100000000000000000000000000000000000000000000000000000000\n        /* \"#utility.yul\":5606:5607   */\n      0x00\n        /* \"#utility.yul\":5599:5687   */\n      mstore\n        /* \"#utility.yul\":5706:5710   */\n      0x22\n        /* \"#utility.yul\":5703:5704   */\n      0x04\n        /* \"#utility.yul\":5696:5711   */\n      mstore\n        /* \"#utility.yul\":5730:5734   */\n      0x24\n        /* \"#utility.yul\":5727:5728   */\n      0x00\n        /* \"#utility.yul\":5720:5735   */\n      revert\n        /* \"#utility.yul\":5747:6067   */\n    tag_68:\n        /* \"#utility.yul\":5791:5797   */\n      0x00\n        /* \"#utility.yul\":5828:5829   */\n      0x02\n        /* \"#utility.yul\":5822:5826   */\n      dup3\n        /* \"#utility.yul\":5818:5830   */\n      div\n        /* \"#utility.yul\":5808:5830   */\n      swap1\n      pop\n        /* \"#utility.yul\":5875:5876   */\n      0x01\n        /* \"#utility.yul\":5869:5873   */\n      dup3\n        /* \"#utility.yul\":5865:5877   */\n      and\n        /* \"#utility.yul\":5896:5914   */\n      dup1\n        /* \"#utility.yul\":5886:5967   */\n      tag_258\n      jumpi\n        /* \"#utility.yul\":5952:5956   */\n      0x7f\n        /* \"#utility.yul\":5944:5950   */\n      dup3\n        /* \"#utility.yul\":5940:5957   */\n      and\n        /* \"#utility.yul\":5930:5957   */\n      swap2\n      pop\n        /* \"#utility.yul\":5886:5967   */\n    tag_258:\n        /* \"#utility.yul\":6014:6016   */\n      0x20\n        /* \"#utility.yul\":6006:6012   */\n      dup3\n        /* \"#utility.yul\":6003:6017   */\n      lt\n        /* \"#utility.yul\":5983:6001   */\n      dup2\n        /* \"#utility.yul\":5980:6018   */\n      sub\n        /* \"#utility.yul\":5977:6061   */\n      tag_259\n      jumpi\n        /* \"#utility.yul\":6033:6051   */\n      tag_260\n      tag_185\n      jump\t// in\n    tag_260:\n        /* \"#utility.yul\":5977:6061   */\n    tag_259:\n        /* \"#utility.yul\":5798:6067   */\n      pop\n        /* \"#utility.yul\":5747:6067   */\n      swap2\n      swap1\n      pop\n      jump\t// out\n        /* \"#utility.yul\":6073:6253   */\n    tag_186:\n        /* \"#utility.yul\":6121:6198   */\n      0x4e487b7100000000000000000000000000000000000000000000000000000000\n        /* \"#utility.yul\":6118:6119   */\n      0x00\n        /* \"#utility.yul\":6111:6199   */\n      mstore\n        /* \"#utility.yul\":6218:6222   */\n      0x11\n        /* \"#utility.yul\":6215:6216   */\n      0x04\n        /* \"#utility.yul\":6208:6223   */\n      mstore\n        /* \"#utility.yul\":6242:6246   */\n      0x24\n        /* \"#utility.yul\":6239:6240   */\n      0x00\n        /* \"#utility.yul\":6232:6247   */\n      revert\n        /* \"#utility.yul\":6259:6450   */\n    tag_86:\n        /* \"#utility.yul\":6299:6302   */\n      0x00\n        /* \"#utility.yul\":6318:6338   */\n      tag_263\n        /* \"#utility.yul\":6336:6337   */\n      dup3\n        /* \"#utility.yul\":6318:6338   */\n      tag_177\n      jump\t// in\n    tag_263:\n        /* \"#utility.yul\":6313:6338   */\n      swap2\n      pop\n        /* \"#utility.yul\":6352:6372   */\n      tag_264\n        /* \"#utility.yul\":6370:6371   */\n      dup4\n        /* \"#utility.yul\":6352:6372   */\n      tag_177\n      jump\t// in\n    tag_264:\n        /* \"#utility.yul\":6347:6372   */\n      swap3\n      pop\n        /* \"#utility.yul\":6395:6396   */\n      dup3\n        /* \"#utility.yul\":6392:6393   */\n      dup3\n        /* \"#utility.yul\":6388:6397   */\n      add\n        /* \"#utility.yul\":6381:6397   */\n      swap1\n      pop\n        /* \"#utility.yul\":6416:6419   */\n      dup1\n        /* \"#utility.yul\":6413:6414   */\n      dup3\n        /* \"#utility.yul\":6410:6420   */\n      gt\n        /* \"#utility.yul\":6407:6443   */\n      iszero\n      tag_265\n      jumpi\n        /* \"#utility.yul\":6423:6441   */\n      tag_266\n      tag_186\n      jump\t// in\n    tag_266:\n        /* \"#utility.yul\":6407:6443   */\n    tag_265:\n        /* \"#utility.yul\":6259:6450   */\n      swap3\n      swap2\n      pop\n      pop\n      jump\t// out\n        /* \"#utility.yul\":6456:6636   */\n    tag_187:\n        /* \"#utility.yul\":6596:6628   */\n      0x6e6f7420656e6f75746820746f6b656e7320746f207375627374726163740000\n        /* \"#utility.yul\":6592:6593   */\n      0x00\n        /* \"#utility.yul\":6584:6590   */\n      dup3\n        /* \"#utility.yul\":6580:6594   */\n      add\n        /* \"#utility.yul\":6573:6629   */\n      mstore\n        /* \"#utility.yul\":6456:6636   */\n      pop\n      jump\t// out\n        /* \"#utility.yul\":6642:7008   */\n    tag_188:\n        /* \"#utility.yul\":6784:6787   */\n      0x00\n        /* \"#utility.yul\":6805:6872   */\n      tag_269\n        /* \"#utility.yul\":6869:6871   */\n      0x1e\n        /* \"#utility.yul\":6864:6867   */\n      dup4\n        /* \"#utility.yul\":6805:6872   */\n      tag_166\n      jump\t// in\n    tag_269:\n        /* \"#utility.yul\":6798:6872   */\n      swap2\n      pop\n        /* \"#utility.yul\":6881:6974   */\n      tag_270\n        /* \"#utility.yul\":6970:6973   */\n      dup3\n        /* \"#utility.yul\":6881:6974   */\n      tag_187\n      jump\t// in\n    tag_270:\n        /* \"#utility.yul\":6999:7001   */\n      0x20\n        /* \"#utility.yul\":6994:6997   */\n      dup3\n        /* \"#utility.yul\":6990:7002   */\n      add\n        /* \"#utility.yul\":6983:7002   */\n      swap1\n      pop\n        /* \"#utility.yul\":6642:7008   */\n      swap2\n      swap1\n      pop\n      jump\t// out\n        /* \"#utility.yul\":7014:7433   */\n    tag_99:\n        /* \"#utility.yul\":7180:7184   */\n      0x00\n        /* \"#utility.yul\":7218:7220   */\n      0x20\n        /* \"#utility.yul\":7207:7216   */\n      dup3\n        /* \"#utility.yul\":7203:7221   */\n      add\n        /* \"#utility.yul\":7195:7221   */\n      swap1\n      pop\n        /* \"#utility.yul\":7267:7276   */\n      dup2\n        /* \"#utility.yul\":7261:7265   */\n      dup2\n        /* \"#utility.yul\":7257:7277   */\n      sub\n        /* \"#utility.yul\":7253:7254   */\n      0x00\n        /* \"#utility.yul\":7242:7251   */\n      dup4\n        /* \"#utility.yul\":7238:7255   */\n      add\n        /* \"#utility.yul\":7231:7278   */\n      mstore\n        /* \"#utility.yul\":7295:7426   */\n      tag_272\n        /* \"#utility.yul\":7421:7425   */\n      dup2\n        /* \"#utility.yul\":7295:7426   */\n      tag_188\n      jump\t// in\n    tag_272:\n        /* \"#utility.yul\":7287:7426   */\n      swap1\n      pop\n        /* \"#utility.yul\":7014:7433   */\n      swap2\n      swap1\n      pop\n      jump\t// out\n        /* \"#utility.yul\":7439:7617   */\n    tag_189:\n        /* \"#utility.yul\":7579:7609   */\n      0x45524332303a20696e7375666669656e637420616c6c6f77616e636500000000\n        /* \"#utility.yul\":7575:7576   */\n      0x00\n        /* \"#utility.yul\":7567:7573   */\n      dup3\n        /* \"#utility.yul\":7563:7577   */\n      add\n        /* \"#utility.yul\":7556:7610   */\n      mstore\n        /* \"#utility.yul\":7439:7617   */\n      pop\n      jump\t// out\n        /* \"#utility.yul\":7623:7989   */\n    tag_190:\n        /* \"#utility.yul\":7765:7768   */\n      0x00\n        /* \"#utility.yul\":7786:7853   */\n      tag_275\n        /* \"#utility.yul\":7850:7852   */\n      0x1c\n        /* \"#utility.yul\":7845:7848   */\n      dup4\n        /* \"#utility.yul\":7786:7853   */\n      tag_166\n      jump\t// in\n    tag_275:\n        /* \"#utility.yul\":7779:7853   */\n      swap2\n      pop\n        /* \"#utility.yul\":7862:7955   */\n      tag_276\n        /* \"#utility.yul\":7951:7954   */\n      dup3\n        /* \"#utility.yul\":7862:7955   */\n      tag_189\n      jump\t// in\n    tag_276:\n        /* \"#utility.yul\":7980:7982   */\n      0x20\n        /* \"#utility.yul\":7975:7978   */\n      dup3\n        /* \"#utility.yul\":7971:7983   */\n      add\n        /* \"#utility.yul\":7964:7983   */\n      swap1\n      pop\n        /* \"#utility.yul\":7623:7989   */\n      swap2\n      swap1\n      pop\n      jump\t// out\n        /* \"#utility.yul\":7995:8414   */\n    tag_144:\n        /* \"#utility.yul\":8161:8165   */\n      0x00\n        /* \"#utility.yul\":8199:8201   */\n      0x20\n        /* \"#utility.yul\":8188:8197   */\n      dup3\n        /* \"#utility.yul\":8184:8202   */\n      add\n        /* \"#utility.yul\":8176:8202   */\n      swap1\n      pop\n        /* \"#utility.yul\":8248:8257   */\n      dup2\n        /* \"#utility.yul\":8242:8246   */\n      dup2\n        /* \"#utility.yul\":8238:8258   */\n      sub\n        /* \"#utility.yul\":8234:8235   */\n      0x00\n        /* \"#utility.yul\":8223:8232   */\n      dup4\n        /* \"#utility.yul\":8219:8236   */\n      add\n        /* \"#utility.yul\":8212:8259   */\n      mstore\n        /* \"#utility.yul\":8276:8407   */\n      tag_278\n        /* \"#utility.yul\":8402:8406   */\n      dup2\n        /* \"#utility.yul\":8276:8407   */\n      tag_190\n      jump\t// in\n    tag_278:\n        /* \"#utility.yul\":8268:8407   */\n      swap1\n      pop\n        /* \"#utility.yul\":7995:8414   */\n      swap2\n      swap1\n      pop\n      jump\t// out\n        /* \"#utility.yul\":8420:8646   */\n    tag_191:\n        /* \"#utility.yul\":8560:8594   */\n      0x4552433230203a205472616e7366657220616d6f756e74206578636565647320\n        /* \"#utility.yul\":8556:8557   */\n      0x00\n        /* \"#utility.yul\":8548:8554   */\n      dup3\n        /* \"#utility.yul\":8544:8558   */\n      add\n        /* \"#utility.yul\":8537:8595   */\n      mstore\n        /* \"#utility.yul\":8629:8638   */\n      0x62616c616e636500000000000000000000000000000000000000000000000000\n        /* \"#utility.yul\":8624:8626   */\n      0x20\n        /* \"#utility.yul\":8616:8622   */\n      dup3\n        /* \"#utility.yul\":8612:8627   */\n      add\n        /* \"#utility.yul\":8605:8639   */\n      mstore\n        /* \"#utility.yul\":8420:8646   */\n      pop\n      jump\t// out\n        /* \"#utility.yul\":8652:9018   */\n    tag_192:\n        /* \"#utility.yul\":8794:8797   */\n      0x00\n        /* \"#utility.yul\":8815:8882   */\n      tag_281\n        /* \"#utility.yul\":8879:8881   */\n      0x27\n        /* \"#utility.yul\":8874:8877   */\n      dup4\n        /* \"#utility.yul\":8815:8882   */\n      tag_166\n      jump\t// in\n    tag_281:\n        /* \"#utility.yul\":8808:8882   */\n      swap2\n      pop\n        /* \"#utility.yul\":8891:8984   */\n      tag_282\n        /* \"#utility.yul\":8980:8983   */\n      dup3\n        /* \"#utility.yul\":8891:8984   */\n      tag_191\n      jump\t// in\n    tag_282:\n        /* \"#utility.yul\":9009:9011   */\n      0x40\n        /* \"#utility.yul\":9004:9007   */\n      dup3\n        /* \"#utility.yul\":9000:9012   */\n      add\n        /* \"#utility.yul\":8993:9012   */\n      swap1\n      pop\n        /* \"#utility.yul\":8652:9018   */\n      swap2\n      swap1\n      pop\n      jump\t// out\n        /* \"#utility.yul\":9024:9443   */\n    tag_164:\n        /* \"#utility.yul\":9190:9194   */\n      0x00\n        /* \"#utility.yul\":9228:9230   */\n      0x20\n        /* \"#utility.yul\":9217:9226   */\n      dup3\n        /* \"#utility.yul\":9213:9231   */\n      add\n        /* \"#utility.yul\":9205:9231   */\n      swap1\n      pop\n        /* \"#utility.yul\":9277:9286   */\n      dup2\n        /* \"#utility.yul\":9271:9275   */\n      dup2\n        /* \"#utility.yul\":9267:9287   */\n      sub\n        /* \"#utility.yul\":9263:9264   */\n      0x00\n        /* \"#utility.yul\":9252:9261   */\n      dup4\n        /* \"#utility.yul\":9248:9265   */\n      add\n        /* \"#utility.yul\":9241:9288   */\n      mstore\n        /* \"#utility.yul\":9305:9436   */\n      tag_284\n        /* \"#utility.yul\":9431:9435   */\n      dup2\n        /* \"#utility.yul\":9305:9436   */\n      tag_192\n      jump\t// in\n    tag_284:\n        /* \"#utility.yul\":9297:9436   */\n      swap1\n      pop\n        /* \"#utility.yul\":9024:9443   */\n      swap2\n      swap1\n      pop\n      jump\t// out\n    stop\n    data_0557e210f7a69a685100a7e4e3d0a7024c546085cee28910fd17d0b081d9516f 45524332303a207472616e7366657220746f20746865207a65726f2061646472657373\n    data_108f04b26f6bf0bf1a06485a9335a8507b79709b24b0fc547e1f35f2f0e373cd 45524332303a206170726f76652066726f6d20746865207a65726f2061646472657373\n    data_2deecfd32a21ba726bffc5537e99a488e47dffe90e037137bdf7f4c598a979b4 45524332303a206170726f766520746f20746865207a65726f2061646472657373\n    data_baecc556b46f4ed0f2b4cb599d60785ac8563dd2dc0a5bf12edea1c39e5e1fea 45524332303a207472616e736665722066726f6d20746865207a65726f2061646472657373\n\n    auxdata: 0xa26469706673582212208d6d8b930befc993ccb33ad2257e17ddd765ba1fb8f39afeedcd59415c85d49f64736f6c634300081a0033\n}\n",
				"bytecode": {
					"linkReferences": {},
					"object": "608060405234801561000f575f80fd5b506040518060400160405280600481526020017f6a6f616e000000000000000000000000000000000000000000000000000000008152506040518060400160405280600281526020017f4a50000000000000000000000000000000000000000000000000000000000000815250816003908161008b91906102dd565b50806004908161009b91906102dd565b5050506103ac565b5f81519050919050565b7f4e487b71000000000000000000000000000000000000000000000000000000005f52604160045260245ffd5b7f4e487b71000000000000000000000000000000000000000000000000000000005f52602260045260245ffd5b5f600282049050600182168061011e57607f821691505b602082108103610131576101306100da565b5b50919050565b5f819050815f5260205f209050919050565b5f6020601f8301049050919050565b5f82821b905092915050565b5f600883026101937fffffffffffffffffffffffffffffffffffffffffffffffffffffffffffffffff82610158565b61019d8683610158565b95508019841693508086168417925050509392505050565b5f819050919050565b5f819050919050565b5f6101e16101dc6101d7846101b5565b6101be565b6101b5565b9050919050565b5f819050919050565b6101fa836101c7565b61020e610206826101e8565b848454610164565b825550505050565b5f90565b610222610216565b61022d8184846101f1565b505050565b5b81811015610250576102455f8261021a565b600181019050610233565b5050565b601f8211156102955761026681610137565b61026f84610149565b8101602085101561027e578190505b61029261028a85610149565b830182610232565b50505b505050565b5f82821c905092915050565b5f6102b55f198460080261029a565b1980831691505092915050565b5f6102cd83836102a6565b9150826002028217905092915050565b6102e6826100a3565b67ffffffffffffffff8111156102ff576102fe6100ad565b5b6103098254610107565b610314828285610254565b5f60209050601f831160018114610345575f8415610333578287015190505b61033d85826102c2565b8655506103a4565b601f19841661035386610137565b5f5b8281101561037a57848901518255600182019150602085019450602081019050610355565b868310156103975784890151610393601f8916826102a6565b8355505b6001600288020188555050505b505050505050565b6110ca806103b95f395ff3fe608060405234801561000f575f80fd5b50600436106100b2575f3560e01c806370a082311161006f57806370a08231146101a057806395d89b41146101d0578063a457c2d7146101ee578063a9059cbb1461021e578063b44272631461024e578063dd62ed3e14610258576100b2565b806306fdde03146100b6578063095ea7b3146100d457806318160ddd1461010457806323b872dd14610122578063313ce567146101525780633950935114610170575b5f80fd5b6100be610288565b6040516100cb9190610bb6565b60405180910390f35b6100ee60048036038101906100e99190610c67565b610318565b6040516100fb9190610cbf565b60405180910390f35b61010c610333565b6040516101199190610ce7565b60405180910390f35b61013c60048036038101906101379190610d00565b61033c565b6040516101499190610cbf565b60405180910390f35b61015a610363565b6040516101679190610d6b565b60405180910390f35b61018a60048036038101906101859190610c67565b61036b565b6040516101979190610cbf565b60405180910390f35b6101ba60048036038101906101b59190610d84565b61039f565b6040516101c79190610ce7565b60405180910390f35b6101d86103e4565b6040516101e59190610bb6565b60405180910390f35b61020860048036038101906102039190610c67565b610474565b6040516102159190610cbf565b60405180910390f35b61023860048036038101906102339190610c67565b6104e2565b6040516102459190610cbf565b60405180910390f35b6102566104fd565b005b610272600480360381019061026d9190610daf565b61050b565b60405161027f9190610ce7565b60405180910390f35b60606003805461029790610e1a565b80601f01602080910402602001604051908101604052809291908181526020018280546102c390610e1a565b801561030e5780601f106102e55761010080835404028352916020019161030e565b820191905f5260205f20905b8154815290600101906020018083116102f157829003601f168201915b5050505050905090565b5f8033905061032881858561058d565b600191505092915050565b5f600254905090565b5f8033905061034c85828561068f565b6103578585856106e5565b60019150509392505050565b5f6012905090565b5f803390505f8361037c838761050b565b6103869190610e77565b905061039382868361058d565b60019250505092915050565b5f805f8373ffffffffffffffffffffffffffffffffffffffff1673ffffffffffffffffffffffffffffffffffffffff1681526020019081526020015f20549050919050565b6060600480546103f390610e1a565b80601f016020809104026020016040519081016040528092919081815260200182805461041f90610e1a565b801561046a5780601f106104415761010080835404028352916020019161046a565b820191905f5260205f20905b81548152906001019060200180831161044d57829003601f168201915b5050505050905090565b5f803390505f610484828661050b565b9050838110156104c9576040517f08c379a00000000000000000000000000000000000000000000000000000000081526004016104c090610ef4565b60405180910390fd5b6104d6828686840361058d565b60019250505092915050565b5f803390506104f28185856106e5565b600191505092915050565b610509336103e861077a565b565b5f60015f8473ffffffffffffffffffffffffffffffffffffffff1673ffffffffffffffffffffffffffffffffffffffff1681526020019081526020015f205f8373ffffffffffffffffffffffffffffffffffffffff1673ffffffffffffffffffffffffffffffffffffffff1681526020019081526020015f2054905092915050565b610597838361084b565b8060015f8573ffffffffffffffffffffffffffffffffffffffff1673ffffffffffffffffffffffffffffffffffffffff1681526020019081526020015f205f8473ffffffffffffffffffffffffffffffffffffffff1673ffffffffffffffffffffffffffffffffffffffff1681526020019081526020015f205f82825461061e9190610e77565b925050819055508173ffffffffffffffffffffffffffffffffffffffff168373ffffffffffffffffffffffffffffffffffffffff167f8c5be1e5ebec7d5bd14f71427d1e84f3dd0314c0f7b2291e5b200ac8c7c3b925836040516106829190610ce7565b60405180910390a3505050565b5f61069a848461050b565b90507fffffffffffffffffffffffffffffffffffffffffffffffffffffffffffffffff81036106c957506106e0565b6106d38183610893565b6106de84848461058d565b505b505050565b6106ef83836108da565b6106fa838383610922565b610705838383610927565b8173ffffffffffffffffffffffffffffffffffffffff168373ffffffffffffffffffffffffffffffffffffffff167fddf252ad1be2c89b69c2b068fc378daa952ba7f163c4a11628f55a4df523b3ef836040516107629190610ce7565b60405180910390a36107758383836109d1565b505050565b6107b9826040518060400160405280601f81526020017f45524332303a206d696e6420746f20746865207a65726f2061646472657373008152506109d6565b6107c45f8383610922565b6107cd81610a4d565b6107d78282610a68565b8173ffffffffffffffffffffffffffffffffffffffff165f73ffffffffffffffffffffffffffffffffffffffff167f0faf621085d5ef8c720449a3fe423b295b91a1bf2aeb6c72c0dfa3278ac5c996836040516108349190610ce7565b60405180910390a36108475f83836109d1565b5050565b61086d8160405180606001604052806023815260200161102c602391396109d6565b61088f8260405180606001604052806021815260200161104f602191396109d6565b5050565b808210156108d6576040517f08c379a00000000000000000000000000000000000000000000000000000000081526004016108cd90610f5c565b60405180910390fd5b5050565b6108fc81604051806060016040528060258152602001611070602591396109d6565b61091e82604051806060016040528060238152602001611009602391396109d6565b5050565b505050565b6109318382610abe565b805f808573ffffffffffffffffffffffffffffffffffffffff1673ffffffffffffffffffffffffffffffffffffffff1681526020019081526020015f205f8282540392505081905550805f808473ffffffffffffffffffffffffffffffffffffffff1673ffffffffffffffffffffffffffffffffffffffff1681526020019081526020015f205f8282546109c59190610e77565b92505081905550505050565b505050565b5f73ffffffffffffffffffffffffffffffffffffffff168273ffffffffffffffffffffffffffffffffffffffff1614158190610a48576040517f08c379a0000000000000000000000000000000000000000000000000000000008152600401610a3f9190610bb6565b60405180910390fd5b505050565b8060025f828254610a5e9190610e77565b9250508190555050565b805f808473ffffffffffffffffffffffffffffffffffffffff1673ffffffffffffffffffffffffffffffffffffffff1681526020019081526020015f205f828254610ab39190610e77565b925050819055505050565b5f805f8473ffffffffffffffffffffffffffffffffffffffff1673ffffffffffffffffffffffffffffffffffffffff1681526020019081526020015f2054905081811015610b41576040517f08c379a0000000000000000000000000000000000000000000000000000000008152600401610b3890610fea565b60405180910390fd5b505050565b5f81519050919050565b5f82825260208201905092915050565b8281835e5f83830152505050565b5f601f19601f8301169050919050565b5f610b8882610b46565b610b928185610b50565b9350610ba2818560208601610b60565b610bab81610b6e565b840191505092915050565b5f6020820190508181035f830152610bce8184610b7e565b905092915050565b5f80fd5b5f73ffffffffffffffffffffffffffffffffffffffff82169050919050565b5f610c0382610bda565b9050919050565b610c1381610bf9565b8114610c1d575f80fd5b50565b5f81359050610c2e81610c0a565b92915050565b5f819050919050565b610c4681610c34565b8114610c50575f80fd5b50565b5f81359050610c6181610c3d565b92915050565b5f8060408385031215610c7d57610c7c610bd6565b5b5f610c8a85828601610c20565b9250506020610c9b85828601610c53565b9150509250929050565b5f8115159050919050565b610cb981610ca5565b82525050565b5f602082019050610cd25f830184610cb0565b92915050565b610ce181610c34565b82525050565b5f602082019050610cfa5f830184610cd8565b92915050565b5f805f60608486031215610d1757610d16610bd6565b5b5f610d2486828701610c20565b9350506020610d3586828701610c20565b9250506040610d4686828701610c53565b9150509250925092565b5f60ff82169050919050565b610d6581610d50565b82525050565b5f602082019050610d7e5f830184610d5c565b92915050565b5f60208284031215610d9957610d98610bd6565b5b5f610da684828501610c20565b91505092915050565b5f8060408385031215610dc557610dc4610bd6565b5b5f610dd285828601610c20565b9250506020610de385828601610c20565b9150509250929050565b7f4e487b71000000000000000000000000000000000000000000000000000000005f52602260045260245ffd5b5f6002820490506001821680610e3157607f821691505b602082108103610e4457610e43610ded565b5b50919050565b7f4e487b71000000000000000000000000000000000000000000000000000000005f52601160045260245ffd5b5f610e8182610c34565b9150610e8c83610c34565b9250828201905080821115610ea457610ea3610e4a565b5b92915050565b7f6e6f7420656e6f75746820746f6b656e7320746f2073756273747261637400005f82015250565b5f610ede601e83610b50565b9150610ee982610eaa565b602082019050919050565b5f6020820190508181035f830152610f0b81610ed2565b9050919050565b7f45524332303a20696e7375666669656e637420616c6c6f77616e6365000000005f82015250565b5f610f46601c83610b50565b9150610f5182610f12565b602082019050919050565b5f6020820190508181035f830152610f7381610f3a565b9050919050565b7f4552433230203a205472616e7366657220616d6f756e742065786365656473205f8201527f62616c616e636500000000000000000000000000000000000000000000000000602082015250565b5f610fd4602783610b50565b9150610fdf82610f7a565b604082019050919050565b5f6020820190508181035f83015261100181610fc8565b905091905056fe45524332303a207472616e7366657220746f20746865207a65726f206164647265737345524332303a206170726f76652066726f6d20746865207a65726f206164647265737345524332303a206170726f766520746f20746865207a65726f206164647265737345524332303a207472616e736665722066726f6d20746865207a65726f2061646472657373a26469706673582212208d6d8b930befc993ccb33ad2257e17ddd765ba1fb8f39afeedcd59415c85d49f64736f6c634300081a0033",
					"opcodes": "PUSH1 0x80 PUSH1 0x40 MSTORE CALLVALUE DUP1 ISZERO PUSH2 0xF JUMPI PUSH0 DUP1 REVERT JUMPDEST POP PUSH1 0x40 MLOAD DUP1 PUSH1 0x40 ADD PUSH1 0x40 MSTORE DUP1 PUSH1 0x4 DUP2 MSTORE PUSH1 0x20 ADD PUSH32 0x6A6F616E00000000000000000000000000000000000000000000000000000000 DUP2 MSTORE POP PUSH1 0x40 MLOAD DUP1 PUSH1 0x40 ADD PUSH1 0x40 MSTORE DUP1 PUSH1 0x2 DUP2 MSTORE PUSH1 0x20 ADD PUSH32 0x4A50000000000000000000000000000000000000000000000000000000000000 DUP2 MSTORE POP DUP2 PUSH1 0x3 SWAP1 DUP2 PUSH2 0x8B SWAP2 SWAP1 PUSH2 0x2DD JUMP JUMPDEST POP DUP1 PUSH1 0x4 SWAP1 DUP2 PUSH2 0x9B SWAP2 SWAP1 PUSH2 0x2DD JUMP JUMPDEST POP POP POP PUSH2 0x3AC JUMP JUMPDEST PUSH0 DUP2 MLOAD SWAP1 POP SWAP2 SWAP1 POP JUMP JUMPDEST PUSH32 0x4E487B7100000000000000000000000000000000000000000000000000000000 PUSH0 MSTORE PUSH1 0x41 PUSH1 0x4 MSTORE PUSH1 0x24 PUSH0 REVERT JUMPDEST PUSH32 0x4E487B7100000000000000000000000000000000000000000000000000000000 PUSH0 MSTORE PUSH1 0x22 PUSH1 0x4 MSTORE PUSH1 0x24 PUSH0 REVERT JUMPDEST PUSH0 PUSH1 0x2 DUP3 DIV SWAP1 POP PUSH1 0x1 DUP3 AND DUP1 PUSH2 0x11E JUMPI PUSH1 0x7F DUP3 AND SWAP2 POP JUMPDEST PUSH1 0x20 DUP3 LT DUP2 SUB PUSH2 0x131 JUMPI PUSH2 0x130 PUSH2 0xDA JUMP JUMPDEST JUMPDEST POP SWAP2 SWAP1 POP JUMP JUMPDEST PUSH0 DUP2 SWAP1 POP DUP2 PUSH0 MSTORE PUSH1 0x20 PUSH0 KECCAK256 SWAP1 POP SWAP2 SWAP1 POP JUMP JUMPDEST PUSH0 PUSH1 0x20 PUSH1 0x1F DUP4 ADD DIV SWAP1 POP SWAP2 SWAP1 POP JUMP JUMPDEST PUSH0 DUP3 DUP3 SHL SWAP1 POP SWAP3 SWAP2 POP POP JUMP JUMPDEST PUSH0 PUSH1 0x8 DUP4 MUL PUSH2 0x193 PUSH32 0xFFFFFFFFFFFFFFFFFFFFFFFFFFFFFFFFFFFFFFFFFFFFFFFFFFFFFFFFFFFFFFFF DUP3 PUSH2 0x158 JUMP JUMPDEST PUSH2 0x19D DUP7 DUP4 PUSH2 0x158 JUMP JUMPDEST SWAP6 POP DUP1 NOT DUP5 AND SWAP4 POP DUP1 DUP7 AND DUP5 OR SWAP3 POP POP POP SWAP4 SWAP3 POP POP POP JUMP JUMPDEST PUSH0 DUP2 SWAP1 POP SWAP2 SWAP1 POP JUMP JUMPDEST PUSH0 DUP2 SWAP1 POP SWAP2 SWAP1 POP JUMP JUMPDEST PUSH0 PUSH2 0x1E1 PUSH2 0x1DC PUSH2 0x1D7 DUP5 PUSH2 0x1B5 JUMP JUMPDEST PUSH2 0x1BE JUMP JUMPDEST PUSH2 0x1B5 JUMP JUMPDEST SWAP1 POP SWAP2 SWAP1 POP JUMP JUMPDEST PUSH0 DUP2 SWAP1 POP SWAP2 SWAP1 POP JUMP JUMPDEST PUSH2 0x1FA DUP4 PUSH2 0x1C7 JUMP JUMPDEST PUSH2 0x20E PUSH2 0x206 DUP3 PUSH2 0x1E8 JUMP JUMPDEST DUP5 DUP5 SLOAD PUSH2 0x164 JUMP JUMPDEST DUP3 SSTORE POP POP POP POP JUMP JUMPDEST PUSH0 SWAP1 JUMP JUMPDEST PUSH2 0x222 PUSH2 0x216 JUMP JUMPDEST PUSH2 0x22D DUP2 DUP5 DUP5 PUSH2 0x1F1 JUMP JUMPDEST POP POP POP JUMP JUMPDEST JUMPDEST DUP2 DUP2 LT ISZERO PUSH2 0x250 JUMPI PUSH2 0x245 PUSH0 DUP3 PUSH2 0x21A JUMP JUMPDEST PUSH1 0x1 DUP2 ADD SWAP1 POP PUSH2 0x233 JUMP JUMPDEST POP POP JUMP JUMPDEST PUSH1 0x1F DUP3 GT ISZERO PUSH2 0x295 JUMPI PUSH2 0x266 DUP2 PUSH2 0x137 JUMP JUMPDEST PUSH2 0x26F DUP5 PUSH2 0x149 JUMP JUMPDEST DUP2 ADD PUSH1 0x20 DUP6 LT ISZERO PUSH2 0x27E JUMPI DUP2 SWAP1 POP JUMPDEST PUSH2 0x292 PUSH2 0x28A DUP6 PUSH2 0x149 JUMP JUMPDEST DUP4 ADD DUP3 PUSH2 0x232 JUMP JUMPDEST POP POP JUMPDEST POP POP POP JUMP JUMPDEST PUSH0 DUP3 DUP3 SHR SWAP1 POP SWAP3 SWAP2 POP POP JUMP JUMPDEST PUSH0 PUSH2 0x2B5 PUSH0 NOT DUP5 PUSH1 0x8 MUL PUSH2 0x29A JUMP JUMPDEST NOT DUP1 DUP4 AND SWAP2 POP POP SWAP3 SWAP2 POP POP JUMP JUMPDEST PUSH0 PUSH2 0x2CD DUP4 DUP4 PUSH2 0x2A6 JUMP JUMPDEST SWAP2 POP DUP3 PUSH1 0x2 MUL DUP3 OR SWAP1 POP SWAP3 SWAP2 POP POP JUMP JUMPDEST PUSH2 0x2E6 DUP3 PUSH2 0xA3 JUMP JUMPDEST PUSH8 0xFFFFFFFFFFFFFFFF DUP2 GT ISZERO PUSH2 0x2FF JUMPI PUSH2 0x2FE PUSH2 0xAD JUMP JUMPDEST JUMPDEST PUSH2 0x309 DUP3 SLOAD PUSH2 0x107 JUMP JUMPDEST PUSH2 0x314 DUP3 DUP3 DUP6 PUSH2 0x254 JUMP JUMPDEST PUSH0 PUSH1 0x20 SWAP1 POP PUSH1 0x1F DUP4 GT PUSH1 0x1 DUP2 EQ PUSH2 0x345 JUMPI PUSH0 DUP5 ISZERO PUSH2 0x333 JUMPI DUP3 DUP8 ADD MLOAD SWAP1 POP JUMPDEST PUSH2 0x33D DUP6 DUP3 PUSH2 0x2C2 JUMP JUMPDEST DUP7 SSTORE POP PUSH2 0x3A4 JUMP JUMPDEST PUSH1 0x1F NOT DUP5 AND PUSH2 0x353 DUP7 PUSH2 0x137 JUMP JUMPDEST PUSH0 JUMPDEST DUP3 DUP2 LT ISZERO PUSH2 0x37A JUMPI DUP5 DUP10 ADD MLOAD DUP3 SSTORE PUSH1 0x1 DUP3 ADD SWAP2 POP PUSH1 0x20 DUP6 ADD SWAP5 POP PUSH1 0x20 DUP2 ADD SWAP1 POP PUSH2 0x355 JUMP JUMPDEST DUP7 DUP4 LT ISZERO PUSH2 0x397 JUMPI DUP5 DUP10 ADD MLOAD PUSH2 0x393 PUSH1 0x1F DUP10 AND DUP3 PUSH2 0x2A6 JUMP JUMPDEST DUP4 SSTORE POP JUMPDEST PUSH1 0x1 PUSH1 0x2 DUP9 MUL ADD DUP9 SSTORE POP POP POP JUMPDEST POP POP POP POP POP POP JUMP JUMPDEST PUSH2 0x10CA DUP1 PUSH2 0x3B9 PUSH0 CODECOPY PUSH0 RETURN INVALID PUSH1 0x80 PUSH1 0x40 MSTORE CALLVALUE DUP1 ISZERO PUSH2 0xF JUMPI PUSH0 DUP1 REVERT JUMPDEST POP PUSH1 0x4 CALLDATASIZE LT PUSH2 0xB2 JUMPI PUSH0 CALLDATALOAD PUSH1 0xE0 SHR DUP1 PUSH4 0x70A08231 GT PUSH2 0x6F JUMPI DUP1 PUSH4 0x70A08231 EQ PUSH2 0x1A0 JUMPI DUP1 PUSH4 0x95D89B41 EQ PUSH2 0x1D0 JUMPI DUP1 PUSH4 0xA457C2D7 EQ PUSH2 0x1EE JUMPI DUP1 PUSH4 0xA9059CBB EQ PUSH2 0x21E JUMPI DUP1 PUSH4 0xB4427263 EQ PUSH2 0x24E JUMPI DUP1 PUSH4 0xDD62ED3E EQ PUSH2 0x258 JUMPI PUSH2 0xB2 JUMP JUMPDEST DUP1 PUSH4 0x6FDDE03 EQ PUSH2 0xB6 JUMPI DUP1 PUSH4 0x95EA7B3 EQ PUSH2 0xD4 JUMPI DUP1 PUSH4 0x18160DDD EQ PUSH2 0x104 JUMPI DUP1 PUSH4 0x23B872DD EQ PUSH2 0x122 JUMPI DUP1 PUSH4 0x313CE567 EQ PUSH2 0x152 JUMPI DUP1 PUSH4 0x39509351 EQ PUSH2 0x170 JUMPI JUMPDEST PUSH0 DUP1 REVERT JUMPDEST PUSH2 0xBE PUSH2 0x288 JUMP JUMPDEST PUSH1 0x40 MLOAD PUSH2 0xCB SWAP2 SWAP1 PUSH2 0xBB6 JUMP JUMPDEST PUSH1 0x40 MLOAD DUP1 SWAP2 SUB SWAP1 RETURN JUMPDEST PUSH2 0xEE PUSH1 0x4 DUP1 CALLDATASIZE SUB DUP2 ADD SWAP1 PUSH2 0xE9 SWAP2 SWAP1 PUSH2 0xC67 JUMP JUMPDEST PUSH2 0x318 JUMP JUMPDEST PUSH1 0x40 MLOAD PUSH2 0xFB SWAP2 SWAP1 PUSH2 0xCBF JUMP JUMPDEST PUSH1 0x40 MLOAD DUP1 SWAP2 SUB SWAP1 RETURN JUMPDEST PUSH2 0x10C PUSH2 0x333 JUMP JUMPDEST PUSH1 0x40 MLOAD PUSH2 0x119 SWAP2 SWAP1 PUSH2 0xCE7 JUMP JUMPDEST PUSH1 0x40 MLOAD DUP1 SWAP2 SUB SWAP1 RETURN JUMPDEST PUSH2 0x13C PUSH1 0x4 DUP1 CALLDATASIZE SUB DUP2 ADD SWAP1 PUSH2 0x137 SWAP2 SWAP1 PUSH2 0xD00 JUMP JUMPDEST PUSH2 0x33C JUMP JUMPDEST PUSH1 0x40 MLOAD PUSH2 0x149 SWAP2 SWAP1 PUSH2 0xCBF JUMP JUMPDEST PUSH1 0x40 MLOAD DUP1 SWAP2 SUB SWAP1 RETURN JUMPDEST PUSH2 0x15A PUSH2 0x363 JUMP JUMPDEST PUSH1 0x40 MLOAD PUSH2 0x167 SWAP2 SWAP1 PUSH2 0xD6B JUMP JUMPDEST PUSH1 0x40 MLOAD DUP1 SWAP2 SUB SWAP1 RETURN JUMPDEST PUSH2 0x18A PUSH1 0x4 DUP1 CALLDATASIZE SUB DUP2 ADD SWAP1 PUSH2 0x185 SWAP2 SWAP1 PUSH2 0xC67 JUMP JUMPDEST PUSH2 0x36B JUMP JUMPDEST PUSH1 0x40 MLOAD PUSH2 0x197 SWAP2 SWAP1 PUSH2 0xCBF JUMP JUMPDEST PUSH1 0x40 MLOAD DUP1 SWAP2 SUB SWAP1 RETURN JUMPDEST PUSH2 0x1BA PUSH1 0x4 DUP1 CALLDATASIZE SUB DUP2 ADD SWAP1 PUSH2 0x1B5 SWAP2 SWAP1 PUSH2 0xD84 JUMP JUMPDEST PUSH2 0x39F JUMP JUMPDEST PUSH1 0x40 MLOAD PUSH2 0x1C7 SWAP2 SWAP1 PUSH2 0xCE7 JUMP JUMPDEST PUSH1 0x40 MLOAD DUP1 SWAP2 SUB SWAP1 RETURN JUMPDEST PUSH2 0x1D8 PUSH2 0x3E4 JUMP JUMPDEST PUSH1 0x40 MLOAD PUSH2 0x1E5 SWAP2 SWAP1 PUSH2 0xBB6 JUMP JUMPDEST PUSH1 0x40 MLOAD DUP1 SWAP2 SUB SWAP1 RETURN JUMPDEST PUSH2 0x208 PUSH1 0x4 DUP1 CALLDATASIZE SUB DUP2 ADD SWAP1 PUSH2 0x203 SWAP2 SWAP1 PUSH2 0xC67 JUMP JUMPDEST PUSH2 0x474 JUMP JUMPDEST PUSH1 0x40 MLOAD PUSH2 0x215 SWAP2 SWAP1 PUSH2 0xCBF JUMP JUMPDEST PUSH1 0x40 MLOAD DUP1 SWAP2 SUB SWAP1 RETURN JUMPDEST PUSH2 0x238 PUSH1 0x4 DUP1 CALLDATASIZE SUB DUP2 ADD SWAP1 PUSH2 0x233 SWAP2 SWAP1 PUSH2 0xC67 JUMP JUMPDEST PUSH2 0x4E2 JUMP JUMPDEST PUSH1 0x40 MLOAD PUSH2 0x245 SWAP2 SWAP1 PUSH2 0xCBF JUMP JUMPDEST PUSH1 0x40 MLOAD DUP1 SWAP2 SUB SWAP1 RETURN JUMPDEST PUSH2 0x256 PUSH2 0x4FD JUMP JUMPDEST STOP JUMPDEST PUSH2 0x272 PUSH1 0x4 DUP1 CALLDATASIZE SUB DUP2 ADD SWAP1 PUSH2 0x26D SWAP2 SWAP1 PUSH2 0xDAF JUMP JUMPDEST PUSH2 0x50B JUMP JUMPDEST PUSH1 0x40 MLOAD PUSH2 0x27F SWAP2 SWAP1 PUSH2 0xCE7 JUMP JUMPDEST PUSH1 0x40 MLOAD DUP1 SWAP2 SUB SWAP1 RETURN JUMPDEST PUSH1 0x60 PUSH1 0x3 DUP1 SLOAD PUSH2 0x297 SWAP1 PUSH2 0xE1A JUMP JUMPDEST DUP1 PUSH1 0x1F ADD PUSH1 0x20 DUP1 SWAP2 DIV MUL PUSH1 0x20 ADD PUSH1 0x40 MLOAD SWAP1 DUP2 ADD PUSH1 0x40 MSTORE DUP1 SWAP3 SWAP2 SWAP1 DUP2 DUP2 MSTORE PUSH1 0x20 ADD DUP3 DUP1 SLOAD PUSH2 0x2C3 SWAP1 PUSH2 0xE1A JUMP JUMPDEST DUP1 ISZERO PUSH2 0x30E JUMPI DUP1 PUSH1 0x1F LT PUSH2 0x2E5 JUMPI PUSH2 0x100 DUP1 DUP4 SLOAD DIV MUL DUP4 MSTORE SWAP2 PUSH1 0x20 ADD SWAP2 PUSH2 0x30E JUMP JUMPDEST DUP3 ADD SWAP2 SWAP1 PUSH0 MSTORE PUSH1 0x20 PUSH0 KECCAK256 SWAP1 JUMPDEST DUP2 SLOAD DUP2 MSTORE SWAP1 PUSH1 0x1 ADD SWAP1 PUSH1 0x20 ADD DUP1 DUP4 GT PUSH2 0x2F1 JUMPI DUP3 SWAP1 SUB PUSH1 0x1F AND DUP3 ADD SWAP2 JUMPDEST POP POP POP POP POP SWAP1 POP SWAP1 JUMP JUMPDEST PUSH0 DUP1 CALLER SWAP1 POP PUSH2 0x328 DUP2 DUP6 DUP6 PUSH2 0x58D JUMP JUMPDEST PUSH1 0x1 SWAP2 POP POP SWAP3 SWAP2 POP POP JUMP JUMPDEST PUSH0 PUSH1 0x2 SLOAD SWAP1 POP SWAP1 JUMP JUMPDEST PUSH0 DUP1 CALLER SWAP1 POP PUSH2 0x34C DUP6 DUP3 DUP6 PUSH2 0x68F JUMP JUMPDEST PUSH2 0x357 DUP6 DUP6 DUP6 PUSH2 0x6E5 JUMP JUMPDEST PUSH1 0x1 SWAP2 POP POP SWAP4 SWAP3 POP POP POP JUMP JUMPDEST PUSH0 PUSH1 0x12 SWAP1 POP SWAP1 JUMP JUMPDEST PUSH0 DUP1 CALLER SWAP1 POP PUSH0 DUP4 PUSH2 0x37C DUP4 DUP8 PUSH2 0x50B JUMP JUMPDEST PUSH2 0x386 SWAP2 SWAP1 PUSH2 0xE77 JUMP JUMPDEST SWAP1 POP PUSH2 0x393 DUP3 DUP7 DUP4 PUSH2 0x58D JUMP JUMPDEST PUSH1 0x1 SWAP3 POP POP POP SWAP3 SWAP2 POP POP JUMP JUMPDEST PUSH0 DUP1 PUSH0 DUP4 PUSH20 0xFFFFFFFFFFFFFFFFFFFFFFFFFFFFFFFFFFFFFFFF AND PUSH20 0xFFFFFFFFFFFFFFFFFFFFFFFFFFFFFFFFFFFFFFFF AND DUP2 MSTORE PUSH1 0x20 ADD SWAP1 DUP2 MSTORE PUSH1 0x20 ADD PUSH0 KECCAK256 SLOAD SWAP1 POP SWAP2 SWAP1 POP JUMP JUMPDEST PUSH1 0x60 PUSH1 0x4 DUP1 SLOAD PUSH2 0x3F3 SWAP1 PUSH2 0xE1A JUMP JUMPDEST DUP1 PUSH1 0x1F ADD PUSH1 0x20 DUP1 SWAP2 DIV MUL PUSH1 0x20 ADD PUSH1 0x40 MLOAD SWAP1 DUP2 ADD PUSH1 0x40 MSTORE DUP1 SWAP3 SWAP2 SWAP1 DUP2 DUP2 MSTORE PUSH1 0x20 ADD DUP3 DUP1 SLOAD PUSH2 0x41F SWAP1 PUSH2 0xE1A JUMP JUMPDEST DUP1 ISZERO PUSH2 0x46A JUMPI DUP1 PUSH1 0x1F LT PUSH2 0x441 JUMPI PUSH2 0x100 DUP1 DUP4 SLOAD DIV MUL DUP4 MSTORE SWAP2 PUSH1 0x20 ADD SWAP2 PUSH2 0x46A JUMP JUMPDEST DUP3 ADD SWAP2 SWAP1 PUSH0 MSTORE PUSH1 0x20 PUSH0 KECCAK256 SWAP1 JUMPDEST DUP2 SLOAD DUP2 MSTORE SWAP1 PUSH1 0x1 ADD SWAP1 PUSH1 0x20 ADD DUP1 DUP4 GT PUSH2 0x44D JUMPI DUP3 SWAP1 SUB PUSH1 0x1F AND DUP3 ADD SWAP2 JUMPDEST POP POP POP POP POP SWAP1 POP SWAP1 JUMP JUMPDEST PUSH0 DUP1 CALLER SWAP1 POP PUSH0 PUSH2 0x484 DUP3 DUP7 PUSH2 0x50B JUMP JUMPDEST SWAP1 POP DUP4 DUP2 LT ISZERO PUSH2 0x4C9 JUMPI PUSH1 0x40 MLOAD PUSH32 0x8C379A000000000000000000000000000000000000000000000000000000000 DUP2 MSTORE PUSH1 0x4 ADD PUSH2 0x4C0 SWAP1 PUSH2 0xEF4 JUMP JUMPDEST PUSH1 0x40 MLOAD DUP1 SWAP2 SUB SWAP1 REVERT JUMPDEST PUSH2 0x4D6 DUP3 DUP7 DUP7 DUP5 SUB PUSH2 0x58D JUMP JUMPDEST PUSH1 0x1 SWAP3 POP POP POP SWAP3 SWAP2 POP POP JUMP JUMPDEST PUSH0 DUP1 CALLER SWAP1 POP PUSH2 0x4F2 DUP2 DUP6 DUP6 PUSH2 0x6E5 JUMP JUMPDEST PUSH1 0x1 SWAP2 POP POP SWAP3 SWAP2 POP POP JUMP JUMPDEST PUSH2 0x509 CALLER PUSH2 0x3E8 PUSH2 0x77A JUMP JUMPDEST JUMP JUMPDEST PUSH0 PUSH1 0x1 PUSH0 DUP5 PUSH20 0xFFFFFFFFFFFFFFFFFFFFFFFFFFFFFFFFFFFFFFFF AND PUSH20 0xFFFFFFFFFFFFFFFFFFFFFFFFFFFFFFFFFFFFFFFF AND DUP2 MSTORE PUSH1 0x20 ADD SWAP1 DUP2 MSTORE PUSH1 0x20 ADD PUSH0 KECCAK256 PUSH0 DUP4 PUSH20 0xFFFFFFFFFFFFFFFFFFFFFFFFFFFFFFFFFFFFFFFF AND PUSH20 0xFFFFFFFFFFFFFFFFFFFFFFFFFFFFFFFFFFFFFFFF AND DUP2 MSTORE PUSH1 0x20 ADD SWAP1 DUP2 MSTORE PUSH1 0x20 ADD PUSH0 KECCAK256 SLOAD SWAP1 POP SWAP3 SWAP2 POP POP JUMP JUMPDEST PUSH2 0x597 DUP4 DUP4 PUSH2 0x84B JUMP JUMPDEST DUP1 PUSH1 0x1 PUSH0 DUP6 PUSH20 0xFFFFFFFFFFFFFFFFFFFFFFFFFFFFFFFFFFFFFFFF AND PUSH20 0xFFFFFFFFFFFFFFFFFFFFFFFFFFFFFFFFFFFFFFFF AND DUP2 MSTORE PUSH1 0x20 ADD SWAP1 DUP2 MSTORE PUSH1 0x20 ADD PUSH0 KECCAK256 PUSH0 DUP5 PUSH20 0xFFFFFFFFFFFFFFFFFFFFFFFFFFFFFFFFFFFFFFFF AND PUSH20 0xFFFFFFFFFFFFFFFFFFFFFFFFFFFFFFFFFFFFFFFF AND DUP2 MSTORE PUSH1 0x20 ADD SWAP1 DUP2 MSTORE PUSH1 0x20 ADD PUSH0 KECCAK256 PUSH0 DUP3 DUP3 SLOAD PUSH2 0x61E SWAP2 SWAP1 PUSH2 0xE77 JUMP JUMPDEST SWAP3 POP POP DUP2 SWAP1 SSTORE POP DUP2 PUSH20 0xFFFFFFFFFFFFFFFFFFFFFFFFFFFFFFFFFFFFFFFF AND DUP4 PUSH20 0xFFFFFFFFFFFFFFFFFFFFFFFFFFFFFFFFFFFFFFFF AND PUSH32 0x8C5BE1E5EBEC7D5BD14F71427D1E84F3DD0314C0F7B2291E5B200AC8C7C3B925 DUP4 PUSH1 0x40 MLOAD PUSH2 0x682 SWAP2 SWAP1 PUSH2 0xCE7 JUMP JUMPDEST PUSH1 0x40 MLOAD DUP1 SWAP2 SUB SWAP1 LOG3 POP POP POP JUMP JUMPDEST PUSH0 PUSH2 0x69A DUP5 DUP5 PUSH2 0x50B JUMP JUMPDEST SWAP1 POP PUSH32 0xFFFFFFFFFFFFFFFFFFFFFFFFFFFFFFFFFFFFFFFFFFFFFFFFFFFFFFFFFFFFFFFF DUP2 SUB PUSH2 0x6C9 JUMPI POP PUSH2 0x6E0 JUMP JUMPDEST PUSH2 0x6D3 DUP2 DUP4 PUSH2 0x893 JUMP JUMPDEST PUSH2 0x6DE DUP5 DUP5 DUP5 PUSH2 0x58D JUMP JUMPDEST POP JUMPDEST POP POP POP JUMP JUMPDEST PUSH2 0x6EF DUP4 DUP4 PUSH2 0x8DA JUMP JUMPDEST PUSH2 0x6FA DUP4 DUP4 DUP4 PUSH2 0x922 JUMP JUMPDEST PUSH2 0x705 DUP4 DUP4 DUP4 PUSH2 0x927 JUMP JUMPDEST DUP2 PUSH20 0xFFFFFFFFFFFFFFFFFFFFFFFFFFFFFFFFFFFFFFFF AND DUP4 PUSH20 0xFFFFFFFFFFFFFFFFFFFFFFFFFFFFFFFFFFFFFFFF AND PUSH32 0xDDF252AD1BE2C89B69C2B068FC378DAA952BA7F163C4A11628F55A4DF523B3EF DUP4 PUSH1 0x40 MLOAD PUSH2 0x762 SWAP2 SWAP1 PUSH2 0xCE7 JUMP JUMPDEST PUSH1 0x40 MLOAD DUP1 SWAP2 SUB SWAP1 LOG3 PUSH2 0x775 DUP4 DUP4 DUP4 PUSH2 0x9D1 JUMP JUMPDEST POP POP POP JUMP JUMPDEST PUSH2 0x7B9 DUP3 PUSH1 0x40 MLOAD DUP1 PUSH1 0x40 ADD PUSH1 0x40 MSTORE DUP1 PUSH1 0x1F DUP2 MSTORE PUSH1 0x20 ADD PUSH32 0x45524332303A206D696E6420746F20746865207A65726F206164647265737300 DUP2 MSTORE POP PUSH2 0x9D6 JUMP JUMPDEST PUSH2 0x7C4 PUSH0 DUP4 DUP4 PUSH2 0x922 JUMP JUMPDEST PUSH2 0x7CD DUP2 PUSH2 0xA4D JUMP JUMPDEST PUSH2 0x7D7 DUP3 DUP3 PUSH2 0xA68 JUMP JUMPDEST DUP2 PUSH20 0xFFFFFFFFFFFFFFFFFFFFFFFFFFFFFFFFFFFFFFFF AND PUSH0 PUSH20 0xFFFFFFFFFFFFFFFFFFFFFFFFFFFFFFFFFFFFFFFF AND PUSH32 0xFAF621085D5EF8C720449A3FE423B295B91A1BF2AEB6C72C0DFA3278AC5C996 DUP4 PUSH1 0x40 MLOAD PUSH2 0x834 SWAP2 SWAP1 PUSH2 0xCE7 JUMP JUMPDEST PUSH1 0x40 MLOAD DUP1 SWAP2 SUB SWAP1 LOG3 PUSH2 0x847 PUSH0 DUP4 DUP4 PUSH2 0x9D1 JUMP JUMPDEST POP POP JUMP JUMPDEST PUSH2 0x86D DUP2 PUSH1 0x40 MLOAD DUP1 PUSH1 0x60 ADD PUSH1 0x40 MSTORE DUP1 PUSH1 0x23 DUP2 MSTORE PUSH1 0x20 ADD PUSH2 0x102C PUSH1 0x23 SWAP2 CODECOPY PUSH2 0x9D6 JUMP JUMPDEST PUSH2 0x88F DUP3 PUSH1 0x40 MLOAD DUP1 PUSH1 0x60 ADD PUSH1 0x40 MSTORE DUP1 PUSH1 0x21 DUP2 MSTORE PUSH1 0x20 ADD PUSH2 0x104F PUSH1 0x21 SWAP2 CODECOPY PUSH2 0x9D6 JUMP JUMPDEST POP POP JUMP JUMPDEST DUP1 DUP3 LT ISZERO PUSH2 0x8D6 JUMPI PUSH1 0x40 MLOAD PUSH32 0x8C379A000000000000000000000000000000000000000000000000000000000 DUP2 MSTORE PUSH1 0x4 ADD PUSH2 0x8CD SWAP1 PUSH2 0xF5C JUMP JUMPDEST PUSH1 0x40 MLOAD DUP1 SWAP2 SUB SWAP1 REVERT JUMPDEST POP POP JUMP JUMPDEST PUSH2 0x8FC DUP2 PUSH1 0x40 MLOAD DUP1 PUSH1 0x60 ADD PUSH1 0x40 MSTORE DUP1 PUSH1 0x25 DUP2 MSTORE PUSH1 0x20 ADD PUSH2 0x1070 PUSH1 0x25 SWAP2 CODECOPY PUSH2 0x9D6 JUMP JUMPDEST PUSH2 0x91E DUP3 PUSH1 0x40 MLOAD DUP1 PUSH1 0x60 ADD PUSH1 0x40 MSTORE DUP1 PUSH1 0x23 DUP2 MSTORE PUSH1 0x20 ADD PUSH2 0x1009 PUSH1 0x23 SWAP2 CODECOPY PUSH2 0x9D6 JUMP JUMPDEST POP POP JUMP JUMPDEST POP POP POP JUMP JUMPDEST PUSH2 0x931 DUP4 DUP3 PUSH2 0xABE JUMP JUMPDEST DUP1 PUSH0 DUP1 DUP6 PUSH20 0xFFFFFFFFFFFFFFFFFFFFFFFFFFFFFFFFFFFFFFFF AND PUSH20 0xFFFFFFFFFFFFFFFFFFFFFFFFFFFFFFFFFFFFFFFF AND DUP2 MSTORE PUSH1 0x20 ADD SWAP1 DUP2 MSTORE PUSH1 0x20 ADD PUSH0 KECCAK256 PUSH0 DUP3 DUP3 SLOAD SUB SWAP3 POP POP DUP2 SWAP1 SSTORE POP DUP1 PUSH0 DUP1 DUP5 PUSH20 0xFFFFFFFFFFFFFFFFFFFFFFFFFFFFFFFFFFFFFFFF AND PUSH20 0xFFFFFFFFFFFFFFFFFFFFFFFFFFFFFFFFFFFFFFFF AND DUP2 MSTORE PUSH1 0x20 ADD SWAP1 DUP2 MSTORE PUSH1 0x20 ADD PUSH0 KECCAK256 PUSH0 DUP3 DUP3 SLOAD PUSH2 0x9C5 SWAP2 SWAP1 PUSH2 0xE77 JUMP JUMPDEST SWAP3 POP POP DUP2 SWAP1 SSTORE POP POP POP POP JUMP JUMPDEST POP POP POP JUMP JUMPDEST PUSH0 PUSH20 0xFFFFFFFFFFFFFFFFFFFFFFFFFFFFFFFFFFFFFFFF AND DUP3 PUSH20 0xFFFFFFFFFFFFFFFFFFFFFFFFFFFFFFFFFFFFFFFF AND EQ ISZERO DUP2 SWAP1 PUSH2 0xA48 JUMPI PUSH1 0x40 MLOAD PUSH32 0x8C379A000000000000000000000000000000000000000000000000000000000 DUP2 MSTORE PUSH1 0x4 ADD PUSH2 0xA3F SWAP2 SWAP1 PUSH2 0xBB6 JUMP JUMPDEST PUSH1 0x40 MLOAD DUP1 SWAP2 SUB SWAP1 REVERT JUMPDEST POP POP POP JUMP JUMPDEST DUP1 PUSH1 0x2 PUSH0 DUP3 DUP3 SLOAD PUSH2 0xA5E SWAP2 SWAP1 PUSH2 0xE77 JUMP JUMPDEST SWAP3 POP POP DUP2 SWAP1 SSTORE POP POP JUMP JUMPDEST DUP1 PUSH0 DUP1 DUP5 PUSH20 0xFFFFFFFFFFFFFFFFFFFFFFFFFFFFFFFFFFFFFFFF AND PUSH20 0xFFFFFFFFFFFFFFFFFFFFFFFFFFFFFFFFFFFFFFFF AND DUP2 MSTORE PUSH1 0x20 ADD SWAP1 DUP2 MSTORE PUSH1 0x20 ADD PUSH0 KECCAK256 PUSH0 DUP3 DUP3 SLOAD PUSH2 0xAB3 SWAP2 SWAP1 PUSH2 0xE77 JUMP JUMPDEST SWAP3 POP POP DUP2 SWAP1 SSTORE POP POP POP JUMP JUMPDEST PUSH0 DUP1 PUSH0 DUP5 PUSH20 0xFFFFFFFFFFFFFFFFFFFFFFFFFFFFFFFFFFFFFFFF AND PUSH20 0xFFFFFFFFFFFFFFFFFFFFFFFFFFFFFFFFFFFFFFFF AND DUP2 MSTORE PUSH1 0x20 ADD SWAP1 DUP2 MSTORE PUSH1 0x20 ADD PUSH0 KECCAK256 SLOAD SWAP1 POP DUP2 DUP2 LT ISZERO PUSH2 0xB41 JUMPI PUSH1 0x40 MLOAD PUSH32 0x8C379A000000000000000000000000000000000000000000000000000000000 DUP2 MSTORE PUSH1 0x4 ADD PUSH2 0xB38 SWAP1 PUSH2 0xFEA JUMP JUMPDEST PUSH1 0x40 MLOAD DUP1 SWAP2 SUB SWAP1 REVERT JUMPDEST POP POP POP JUMP JUMPDEST PUSH0 DUP2 MLOAD SWAP1 POP SWAP2 SWAP1 POP JUMP JUMPDEST PUSH0 DUP3 DUP3 MSTORE PUSH1 0x20 DUP3 ADD SWAP1 POP SWAP3 SWAP2 POP POP JUMP JUMPDEST DUP3 DUP2 DUP4 MCOPY PUSH0 DUP4 DUP4 ADD MSTORE POP POP POP JUMP JUMPDEST PUSH0 PUSH1 0x1F NOT PUSH1 0x1F DUP4 ADD AND SWAP1 POP SWAP2 SWAP1 POP JUMP JUMPDEST PUSH0 PUSH2 0xB88 DUP3 PUSH2 0xB46 JUMP JUMPDEST PUSH2 0xB92 DUP2 DUP6 PUSH2 0xB50 JUMP JUMPDEST SWAP4 POP PUSH2 0xBA2 DUP2 DUP6 PUSH1 0x20 DUP7 ADD PUSH2 0xB60 JUMP JUMPDEST PUSH2 0xBAB DUP2 PUSH2 0xB6E JUMP JUMPDEST DUP5 ADD SWAP2 POP POP SWAP3 SWAP2 POP POP JUMP JUMPDEST PUSH0 PUSH1 0x20 DUP3 ADD SWAP1 POP DUP2 DUP2 SUB PUSH0 DUP4 ADD MSTORE PUSH2 0xBCE DUP2 DUP5 PUSH2 0xB7E JUMP JUMPDEST SWAP1 POP SWAP3 SWAP2 POP POP JUMP JUMPDEST PUSH0 DUP1 REVERT JUMPDEST PUSH0 PUSH20 0xFFFFFFFFFFFFFFFFFFFFFFFFFFFFFFFFFFFFFFFF DUP3 AND SWAP1 POP SWAP2 SWAP1 POP JUMP JUMPDEST PUSH0 PUSH2 0xC03 DUP3 PUSH2 0xBDA JUMP JUMPDEST SWAP1 POP SWAP2 SWAP1 POP JUMP JUMPDEST PUSH2 0xC13 DUP2 PUSH2 0xBF9 JUMP JUMPDEST DUP2 EQ PUSH2 0xC1D JUMPI PUSH0 DUP1 REVERT JUMPDEST POP JUMP JUMPDEST PUSH0 DUP2 CALLDATALOAD SWAP1 POP PUSH2 0xC2E DUP2 PUSH2 0xC0A JUMP JUMPDEST SWAP3 SWAP2 POP POP JUMP JUMPDEST PUSH0 DUP2 SWAP1 POP SWAP2 SWAP1 POP JUMP JUMPDEST PUSH2 0xC46 DUP2 PUSH2 0xC34 JUMP JUMPDEST DUP2 EQ PUSH2 0xC50 JUMPI PUSH0 DUP1 REVERT JUMPDEST POP JUMP JUMPDEST PUSH0 DUP2 CALLDATALOAD SWAP1 POP PUSH2 0xC61 DUP2 PUSH2 0xC3D JUMP JUMPDEST SWAP3 SWAP2 POP POP JUMP JUMPDEST PUSH0 DUP1 PUSH1 0x40 DUP4 DUP6 SUB SLT ISZERO PUSH2 0xC7D JUMPI PUSH2 0xC7C PUSH2 0xBD6 JUMP JUMPDEST JUMPDEST PUSH0 PUSH2 0xC8A DUP6 DUP3 DUP7 ADD PUSH2 0xC20 JUMP JUMPDEST SWAP3 POP POP PUSH1 0x20 PUSH2 0xC9B DUP6 DUP3 DUP7 ADD PUSH2 0xC53 JUMP JUMPDEST SWAP2 POP POP SWAP3 POP SWAP3 SWAP1 POP JUMP JUMPDEST PUSH0 DUP2 ISZERO ISZERO SWAP1 POP SWAP2 SWAP1 POP JUMP JUMPDEST PUSH2 0xCB9 DUP2 PUSH2 0xCA5 JUMP JUMPDEST DUP3 MSTORE POP POP JUMP JUMPDEST PUSH0 PUSH1 0x20 DUP3 ADD SWAP1 POP PUSH2 0xCD2 PUSH0 DUP4 ADD DUP5 PUSH2 0xCB0 JUMP JUMPDEST SWAP3 SWAP2 POP POP JUMP JUMPDEST PUSH2 0xCE1 DUP2 PUSH2 0xC34 JUMP JUMPDEST DUP3 MSTORE POP POP JUMP JUMPDEST PUSH0 PUSH1 0x20 DUP3 ADD SWAP1 POP PUSH2 0xCFA PUSH0 DUP4 ADD DUP5 PUSH2 0xCD8 JUMP JUMPDEST SWAP3 SWAP2 POP POP JUMP JUMPDEST PUSH0 DUP1 PUSH0 PUSH1 0x60 DUP5 DUP7 SUB SLT ISZERO PUSH2 0xD17 JUMPI PUSH2 0xD16 PUSH2 0xBD6 JUMP JUMPDEST JUMPDEST PUSH0 PUSH2 0xD24 DUP7 DUP3 DUP8 ADD PUSH2 0xC20 JUMP JUMPDEST SWAP4 POP POP PUSH1 0x20 PUSH2 0xD35 DUP7 DUP3 DUP8 ADD PUSH2 0xC20 JUMP JUMPDEST SWAP3 POP POP PUSH1 0x40 PUSH2 0xD46 DUP7 DUP3 DUP8 ADD PUSH2 0xC53 JUMP JUMPDEST SWAP2 POP POP SWAP3 POP SWAP3 POP SWAP3 JUMP JUMPDEST PUSH0 PUSH1 0xFF DUP3 AND SWAP1 POP SWAP2 SWAP1 POP JUMP JUMPDEST PUSH2 0xD65 DUP2 PUSH2 0xD50 JUMP JUMPDEST DUP3 MSTORE POP POP JUMP JUMPDEST PUSH0 PUSH1 0x20 DUP3 ADD SWAP1 POP PUSH2 0xD7E PUSH0 DUP4 ADD DUP5 PUSH2 0xD5C JUMP JUMPDEST SWAP3 SWAP2 POP POP JUMP JUMPDEST PUSH0 PUSH1 0x20 DUP3 DUP5 SUB SLT ISZERO PUSH2 0xD99 JUMPI PUSH2 0xD98 PUSH2 0xBD6 JUMP JUMPDEST JUMPDEST PUSH0 PUSH2 0xDA6 DUP5 DUP3 DUP6 ADD PUSH2 0xC20 JUMP JUMPDEST SWAP2 POP POP SWAP3 SWAP2 POP POP JUMP JUMPDEST PUSH0 DUP1 PUSH1 0x40 DUP4 DUP6 SUB SLT ISZERO PUSH2 0xDC5 JUMPI PUSH2 0xDC4 PUSH2 0xBD6 JUMP JUMPDEST JUMPDEST PUSH0 PUSH2 0xDD2 DUP6 DUP3 DUP7 ADD PUSH2 0xC20 JUMP JUMPDEST SWAP3 POP POP PUSH1 0x20 PUSH2 0xDE3 DUP6 DUP3 DUP7 ADD PUSH2 0xC20 JUMP JUMPDEST SWAP2 POP POP SWAP3 POP SWAP3 SWAP1 POP JUMP JUMPDEST PUSH32 0x4E487B7100000000000000000000000000000000000000000000000000000000 PUSH0 MSTORE PUSH1 0x22 PUSH1 0x4 MSTORE PUSH1 0x24 PUSH0 REVERT JUMPDEST PUSH0 PUSH1 0x2 DUP3 DIV SWAP1 POP PUSH1 0x1 DUP3 AND DUP1 PUSH2 0xE31 JUMPI PUSH1 0x7F DUP3 AND SWAP2 POP JUMPDEST PUSH1 0x20 DUP3 LT DUP2 SUB PUSH2 0xE44 JUMPI PUSH2 0xE43 PUSH2 0xDED JUMP JUMPDEST JUMPDEST POP SWAP2 SWAP1 POP JUMP JUMPDEST PUSH32 0x4E487B7100000000000000000000000000000000000000000000000000000000 PUSH0 MSTORE PUSH1 0x11 PUSH1 0x4 MSTORE PUSH1 0x24 PUSH0 REVERT JUMPDEST PUSH0 PUSH2 0xE81 DUP3 PUSH2 0xC34 JUMP JUMPDEST SWAP2 POP PUSH2 0xE8C DUP4 PUSH2 0xC34 JUMP JUMPDEST SWAP3 POP DUP3 DUP3 ADD SWAP1 POP DUP1 DUP3 GT ISZERO PUSH2 0xEA4 JUMPI PUSH2 0xEA3 PUSH2 0xE4A JUMP JUMPDEST JUMPDEST SWAP3 SWAP2 POP POP JUMP JUMPDEST PUSH32 0x6E6F7420656E6F75746820746F6B656E7320746F207375627374726163740000 PUSH0 DUP3 ADD MSTORE POP JUMP JUMPDEST PUSH0 PUSH2 0xEDE PUSH1 0x1E DUP4 PUSH2 0xB50 JUMP JUMPDEST SWAP2 POP PUSH2 0xEE9 DUP3 PUSH2 0xEAA JUMP JUMPDEST PUSH1 0x20 DUP3 ADD SWAP1 POP SWAP2 SWAP1 POP JUMP JUMPDEST PUSH0 PUSH1 0x20 DUP3 ADD SWAP1 POP DUP2 DUP2 SUB PUSH0 DUP4 ADD MSTORE PUSH2 0xF0B DUP2 PUSH2 0xED2 JUMP JUMPDEST SWAP1 POP SWAP2 SWAP1 POP JUMP JUMPDEST PUSH32 0x45524332303A20696E7375666669656E637420616C6C6F77616E636500000000 PUSH0 DUP3 ADD MSTORE POP JUMP JUMPDEST PUSH0 PUSH2 0xF46 PUSH1 0x1C DUP4 PUSH2 0xB50 JUMP JUMPDEST SWAP2 POP PUSH2 0xF51 DUP3 PUSH2 0xF12 JUMP JUMPDEST PUSH1 0x20 DUP3 ADD SWAP1 POP SWAP2 SWAP1 POP JUMP JUMPDEST PUSH0 PUSH1 0x20 DUP3 ADD SWAP1 POP DUP2 DUP2 SUB PUSH0 DUP4 ADD MSTORE PUSH2 0xF73 DUP2 PUSH2 0xF3A JUMP JUMPDEST SWAP1 POP SWAP2 SWAP1 POP JUMP JUMPDEST PUSH32 0x4552433230203A205472616E7366657220616D6F756E74206578636565647320 PUSH0 DUP3 ADD MSTORE PUSH32 0x62616C616E636500000000000000000000000000000000000000000000000000 PUSH1 0x20 DUP3 ADD MSTORE POP JUMP JUMPDEST PUSH0 PUSH2 0xFD4 PUSH1 0x27 DUP4 PUSH2 0xB50 JUMP JUMPDEST SWAP2 POP PUSH2 0xFDF DUP3 PUSH2 0xF7A JUMP JUMPDEST PUSH1 0x40 DUP3 ADD SWAP1 POP SWAP2 SWAP1 POP JUMP JUMPDEST PUSH0 PUSH1 0x20 DUP3 ADD SWAP1 POP DUP2 DUP2 SUB PUSH0 DUP4 ADD MSTORE PUSH2 0x1001 DUP2 PUSH2 0xFC8 JUMP JUMPDEST SWAP1 POP SWAP2 SWAP1 POP JUMP INVALID GASLIMIT MSTORE NUMBER ORIGIN ADDRESS GASPRICE KECCAK256 PUSH21 0x72616E7366657220746F20746865207A65726F2061 PUSH5 0x6472657373 GASLIMIT MSTORE NUMBER ORIGIN ADDRESS GASPRICE KECCAK256 PUSH2 0x7072 PUSH16 0x76652066726F6D20746865207A65726F KECCAK256 PUSH2 0x6464 PUSH19 0x65737345524332303A206170726F766520746F KECCAK256 PUSH21 0x6865207A65726F206164647265737345524332303A KECCAK256 PUSH21 0x72616E736665722066726F6D20746865207A65726F KECCAK256 PUSH2 0x6464 PUSH19 0x657373A26469706673582212208D6D8B930BEF 0xC9 SWAP4 0xCC 0xB3 GASPRICE 0xD2 0x25 PUSH31 0x17DDD765BA1FB8F39AFEEDCD59415C85D49F64736F6C634300081A00330000 "
				},
				"gasEstimates": {
					"creation": {
						"codeDepositCost": "859600",
						"executionCost": "infinite",
						"totalCost": "infinite"
					},
					"external": {
						"allowance(address,address)": "infinite",
						"approve(address,uint256)": "infinite",
						"balanceOf(address)": "2829",
						"createTokens()": "infinite",
						"decimals()": "427",
						"decreaseAllowance(address,uint256)": "infinite",
						"increaseAllowance(address,uint256)": "infinite",
						"name()": "infinite",
						"symbol()": "infinite",
						"totalSupply()": "2477",
						"transfer(address,uint256)": "infinite",
						"transferFrom(address,address,uint256)": "infinite"
					}
				},
				"methodIdentifiers": {
					"allowance(address,address)": "dd62ed3e",
					"approve(address,uint256)": "095ea7b3",
					"balanceOf(address)": "70a08231",
					"createTokens()": "b4427263",
					"decimals()": "313ce567",
					"decreaseAllowance(address,uint256)": "a457c2d7",
					"increaseAllowance(address,uint256)": "39509351",
					"name()": "06fdde03",
					"symbol()": "95d89b41",
					"totalSupply()": "18160ddd",
					"transfer(address,uint256)": "a9059cbb",
					"transferFrom(address,address,uint256)": "23b872dd"
				}
			},
			"storageLayout": {
				"storage": [
					{
						"astId": 98,
						"contract": "contracts/customERC20.sol:SuperERC20",
						"label": "_balances",
						"offset": 0,
						"slot": "0",
						"type": "t_mapping(t_address,t_uint256)"
					},
					{
						"astId": 104,
						"contract": "contracts/customERC20.sol:SuperERC20",
						"label": "_allowances",
						"offset": 0,
						"slot": "1",
						"type": "t_mapping(t_address,t_mapping(t_address,t_uint256))"
					},
					{
						"astId": 106,
						"contract": "contracts/customERC20.sol:SuperERC20",
						"label": "_totalSupply",
						"offset": 0,
						"slot": "2",
						"type": "t_uint256"
					},
					{
						"astId": 108,
						"contract": "contracts/customERC20.sol:SuperERC20",
						"label": "_name",
						"offset": 0,
						"slot": "3",
						"type": "t_string_storage"
					},
					{
						"astId": 110,
						"contract": "contracts/customERC20.sol:SuperERC20",
						"label": "_symbol",
						"offset": 0,
						"slot": "4",
						"type": "t_string_storage"
					}
				],
				"types": {
					"t_address": {
						"encoding": "inplace",
						"label": "address",
						"numberOfBytes": "20"
					},
					"t_mapping(t_address,t_mapping(t_address,t_uint256))": {
						"encoding": "mapping",
						"key": "t_address",
						"label": "mapping(address => mapping(address => uint256))",
						"numberOfBytes": "32",
						"value": "t_mapping(t_address,t_uint256)"
					},
					"t_mapping(t_address,t_uint256)": {
						"encoding": "mapping",
						"key": "t_address",
						"label": "mapping(address => uint256)",
						"numberOfBytes": "32",
						"value": "t_uint256"
					},
					"t_string_storage": {
						"encoding": "bytes",
						"label": "string",
						"numberOfBytes": "32"
					},
					"t_uint256": {
						"encoding": "inplace",
						"label": "uint256",
						"numberOfBytes": "32"
					}
				}
			},
			"userdoc": {
				"kind": "user",
				"methods": {},
				"version": 1
			}
		}
	}
}