{
	"contracts/fondosDelContrato.sol": {
		"functions": {
			"abi": [
				{
					"inputs": [],
					"stateMutability": "payable",
					"type": "constructor"
				},
				{
					"anonymous": false,
					"inputs": [
						{
							"indexed": false,
							"internalType": "string",
							"name": "_name",
							"type": "string"
						},
						{
							"indexed": false,
							"internalType": "address",
							"name": "_sender",
							"type": "address"
						},
						{
							"indexed": false,
							"internalType": "uint256",
							"name": "_amount",
							"type": "uint256"
						},
						{
							"indexed": false,
							"internalType": "bytes",
							"name": "_data",
							"type": "bytes"
						}
					],
					"name": "log",
					"type": "event"
				},
				{
					"stateMutability": "payable",
					"type": "fallback"
				},
				{
					"inputs": [
						{
							"internalType": "uint256",
							"name": "x",
							"type": "uint256"
						},
						{
							"internalType": "uint256",
							"name": "y",
							"type": "uint256"
						},
						{
							"internalType": "uint256",
							"name": "k",
							"type": "uint256"
						}
					],
					"name": "_addMod",
					"outputs": [
						{
							"internalType": "uint256",
							"name": "",
							"type": "uint256"
						},
						{
							"internalType": "uint256",
							"name": "",
							"type": "uint256"
						}
					],
					"stateMutability": "pure",
					"type": "function"
				},
				{
					"stateMutability": "payable",
					"type": "receive"
				}
			],
			"devdoc": {
				"kind": "dev",
				"methods": {},
				"version": 1
			},
			"evm": {
				"assembly": "    /* \"contracts/fondosDelContrato.sol\":58:528  contract functions {... */\n  mstore(0x40, 0x80)\n  dataSize(sub_0)\n  dup1\n  dataOffset(sub_0)\n  0x00\n  codecopy\n  0x00\n  return\nstop\n\nsub_0: assembly {\n        /* \"contracts/fondosDelContrato.sol\":58:528  contract functions {... */\n      mstore(0x40, 0x80)\n      jumpi(tag_1, lt(calldatasize, 0x04))\n      shr(0xe0, calldataload(0x00))\n      dup1\n      0x62e9ef92\n      eq\n      tag_3\n      jumpi\n      jump(tag_2)\n    tag_1:\n      jumpi(tag_2, calldatasize)\n        /* \"contracts/fondosDelContrato.sol\":306:347  log(\"receive\", msg.sender, msg.value, \"\") */\n      0xbb7455e1330c1ad664613f3d998bd858bae53893f04a4eb34718b211dd87c59e\n        /* \"contracts/fondosDelContrato.sol\":321:331  msg.sender */\n      caller\n        /* \"contracts/fondosDelContrato.sol\":333:342  msg.value */\n      callvalue\n        /* \"contracts/fondosDelContrato.sol\":306:347  log(\"receive\", msg.sender, msg.value, \"\") */\n      mload(0x40)\n      tag_6\n      swap3\n      swap2\n      swap1\n      tag_7\n      jump\t// in\n    tag_6:\n      mload(0x40)\n      dup1\n      swap2\n      sub\n      swap1\n      log1\n        /* \"contracts/fondosDelContrato.sol\":58:528  contract functions {... */\n      stop\n    tag_2:\n        /* \"contracts/fondosDelContrato.sol\":201:249  log(\"fallback\", msg.sender, msg.value, msg.data) */\n      0xbb7455e1330c1ad664613f3d998bd858bae53893f04a4eb34718b211dd87c59e\n        /* \"contracts/fondosDelContrato.sol\":217:227  msg.sender */\n      caller\n        /* \"contracts/fondosDelContrato.sol\":229:238  msg.value */\n      callvalue\n        /* \"contracts/fondosDelContrato.sol\":240:248  msg.data */\n      0x00\n      calldatasize\n        /* \"contracts/fondosDelContrato.sol\":201:249  log(\"fallback\", msg.sender, msg.value, msg.data) */\n      mload(0x40)\n      tag_10\n      swap5\n      swap4\n      swap3\n      swap2\n      swap1\n      tag_11\n      jump\t// in\n    tag_10:\n      mload(0x40)\n      dup1\n      swap2\n      sub\n      swap1\n      log1\n        /* \"contracts/fondosDelContrato.sol\":58:528  contract functions {... */\n      stop\n        /* \"contracts/fondosDelContrato.sol\":397:523  function _addMod(uint x, uint y, uint k ) public pure returns (uint, uint) {... */\n    tag_3:\n      callvalue\n      dup1\n      iszero\n      tag_12\n      jumpi\n      0x00\n      dup1\n      revert\n    tag_12:\n      pop\n      tag_13\n      0x04\n      dup1\n      calldatasize\n      sub\n      dup2\n      add\n      swap1\n      tag_14\n      swap2\n      swap1\n      tag_15\n      jump\t// in\n    tag_14:\n      tag_16\n      jump\t// in\n    tag_13:\n      mload(0x40)\n      tag_17\n      swap3\n      swap2\n      swap1\n      tag_18\n      jump\t// in\n    tag_17:\n      mload(0x40)\n      dup1\n      swap2\n      sub\n      swap1\n      return\n    tag_16:\n        /* \"contracts/fondosDelContrato.sol\":460:464  uint */\n      0x00\n        /* \"contracts/fondosDelContrato.sol\":466:470  uint */\n      dup1\n        /* \"contracts/fondosDelContrato.sol\":503:504  k */\n      dup3\n        /* \"contracts/fondosDelContrato.sol\":490:505  addmod(x, y, k) */\n      dup1\n      tag_20\n      jumpi\n      tag_21\n      tag_22\n      jump\t// in\n    tag_21:\n    tag_20:\n        /* \"contracts/fondosDelContrato.sol\":500:501  y */\n      dup5\n        /* \"contracts/fondosDelContrato.sol\":497:498  x */\n      dup7\n        /* \"contracts/fondosDelContrato.sol\":490:505  addmod(x, y, k) */\n      addmod\n        /* \"contracts/fondosDelContrato.sol\":513:514  k */\n      dup4\n        /* \"contracts/fondosDelContrato.sol\":510:511  y */\n      dup6\n        /* \"contracts/fondosDelContrato.sol\":508:509  x */\n      dup8\n        /* \"contracts/fondosDelContrato.sol\":508:511  x+y */\n      tag_23\n      swap2\n      swap1\n      tag_24\n      jump\t// in\n    tag_23:\n        /* \"contracts/fondosDelContrato.sol\":507:514  (x+y)%k */\n      tag_25\n      swap2\n      swap1\n      tag_26\n      jump\t// in\n    tag_25:\n        /* \"contracts/fondosDelContrato.sol\":482:516  return (addmod(x, y, k), (x+y)%k ) */\n      swap2\n      pop\n      swap2\n      pop\n        /* \"contracts/fondosDelContrato.sol\":397:523  function _addMod(uint x, uint y, uint k ) public pure returns (uint, uint) {... */\n      swap4\n      pop\n      swap4\n      swap2\n      pop\n      pop\n      jump\t// out\n        /* \"#utility.yul\":7:176   */\n    tag_27:\n        /* \"#utility.yul\":91:102   */\n      0x00\n        /* \"#utility.yul\":125:131   */\n      dup3\n        /* \"#utility.yul\":120:123   */\n      dup3\n        /* \"#utility.yul\":113:132   */\n      mstore\n        /* \"#utility.yul\":165:169   */\n      0x20\n        /* \"#utility.yul\":160:163   */\n      dup3\n        /* \"#utility.yul\":156:170   */\n      add\n        /* \"#utility.yul\":141:170   */\n      swap1\n      pop\n        /* \"#utility.yul\":7:176   */\n      swap3\n      swap2\n      pop\n      pop\n      jump\t// out\n        /* \"#utility.yul\":182:339   */\n    tag_28:\n        /* \"#utility.yul\":322:331   */\n      0x7265636569766500000000000000000000000000000000000000000000000000\n        /* \"#utility.yul\":318:319   */\n      0x00\n        /* \"#utility.yul\":310:316   */\n      dup3\n        /* \"#utility.yul\":306:320   */\n      add\n        /* \"#utility.yul\":299:332   */\n      mstore\n        /* \"#utility.yul\":182:339   */\n      pop\n      jump\t// out\n        /* \"#utility.yul\":345:710   */\n    tag_29:\n        /* \"#utility.yul\":487:490   */\n      0x00\n        /* \"#utility.yul\":508:574   */\n      tag_53\n        /* \"#utility.yul\":572:573   */\n      0x07\n        /* \"#utility.yul\":567:570   */\n      dup4\n        /* \"#utility.yul\":508:574   */\n      tag_27\n      jump\t// in\n    tag_53:\n        /* \"#utility.yul\":501:574   */\n      swap2\n      pop\n        /* \"#utility.yul\":583:676   */\n      tag_54\n        /* \"#utility.yul\":672:675   */\n      dup3\n        /* \"#utility.yul\":583:676   */\n      tag_28\n      jump\t// in\n    tag_54:\n        /* \"#utility.yul\":701:703   */\n      0x20\n        /* \"#utility.yul\":696:699   */\n      dup3\n        /* \"#utility.yul\":692:704   */\n      add\n        /* \"#utility.yul\":685:704   */\n      swap1\n      pop\n        /* \"#utility.yul\":345:710   */\n      swap2\n      swap1\n      pop\n      jump\t// out\n        /* \"#utility.yul\":716:842   */\n    tag_30:\n        /* \"#utility.yul\":753:760   */\n      0x00\n        /* \"#utility.yul\":793:835   */\n      0xffffffffffffffffffffffffffffffffffffffff\n        /* \"#utility.yul\":786:791   */\n      dup3\n        /* \"#utility.yul\":782:836   */\n      and\n        /* \"#utility.yul\":771:836   */\n      swap1\n      pop\n        /* \"#utility.yul\":716:842   */\n      swap2\n      swap1\n      pop\n      jump\t// out\n        /* \"#utility.yul\":848:944   */\n    tag_31:\n        /* \"#utility.yul\":885:892   */\n      0x00\n        /* \"#utility.yul\":914:938   */\n      tag_57\n        /* \"#utility.yul\":932:937   */\n      dup3\n        /* \"#utility.yul\":914:938   */\n      tag_30\n      jump\t// in\n    tag_57:\n        /* \"#utility.yul\":903:938   */\n      swap1\n      pop\n        /* \"#utility.yul\":848:944   */\n      swap2\n      swap1\n      pop\n      jump\t// out\n        /* \"#utility.yul\":950:1068   */\n    tag_32:\n        /* \"#utility.yul\":1037:1061   */\n      tag_59\n        /* \"#utility.yul\":1055:1060   */\n      dup2\n        /* \"#utility.yul\":1037:1061   */\n      tag_31\n      jump\t// in\n    tag_59:\n        /* \"#utility.yul\":1032:1035   */\n      dup3\n        /* \"#utility.yul\":1025:1062   */\n      mstore\n        /* \"#utility.yul\":950:1068   */\n      pop\n      pop\n      jump\t// out\n        /* \"#utility.yul\":1074:1151   */\n    tag_33:\n        /* \"#utility.yul\":1111:1118   */\n      0x00\n        /* \"#utility.yul\":1140:1145   */\n      dup2\n        /* \"#utility.yul\":1129:1145   */\n      swap1\n      pop\n        /* \"#utility.yul\":1074:1151   */\n      swap2\n      swap1\n      pop\n      jump\t// out\n        /* \"#utility.yul\":1157:1275   */\n    tag_34:\n        /* \"#utility.yul\":1244:1268   */\n      tag_62\n        /* \"#utility.yul\":1262:1267   */\n      dup2\n        /* \"#utility.yul\":1244:1268   */\n      tag_33\n      jump\t// in\n    tag_62:\n        /* \"#utility.yul\":1239:1242   */\n      dup3\n        /* \"#utility.yul\":1232:1269   */\n      mstore\n        /* \"#utility.yul\":1157:1275   */\n      pop\n      pop\n      jump\t// out\n        /* \"#utility.yul\":1281:1449   */\n    tag_35:\n        /* \"#utility.yul\":1364:1375   */\n      0x00\n        /* \"#utility.yul\":1398:1404   */\n      dup3\n        /* \"#utility.yul\":1393:1396   */\n      dup3\n        /* \"#utility.yul\":1386:1405   */\n      mstore\n        /* \"#utility.yul\":1438:1442   */\n      0x20\n        /* \"#utility.yul\":1433:1436   */\n      dup3\n        /* \"#utility.yul\":1429:1443   */\n      add\n        /* \"#utility.yul\":1414:1443   */\n      swap1\n      pop\n        /* \"#utility.yul\":1281:1449   */\n      swap3\n      swap2\n      pop\n      pop\n      jump\t// out\n        /* \"#utility.yul\":1455:1569   */\n    tag_36:\n      pop\n      jump\t// out\n        /* \"#utility.yul\":1575:1937   */\n    tag_37:\n        /* \"#utility.yul\":1716:1719   */\n      0x00\n        /* \"#utility.yul\":1737:1802   */\n      tag_66\n        /* \"#utility.yul\":1800:1801   */\n      0x00\n        /* \"#utility.yul\":1795:1798   */\n      dup4\n        /* \"#utility.yul\":1737:1802   */\n      tag_35\n      jump\t// in\n    tag_66:\n        /* \"#utility.yul\":1730:1802   */\n      swap2\n      pop\n        /* \"#utility.yul\":1811:1904   */\n      tag_67\n        /* \"#utility.yul\":1900:1903   */\n      dup3\n        /* \"#utility.yul\":1811:1904   */\n      tag_36\n      jump\t// in\n    tag_67:\n        /* \"#utility.yul\":1929:1930   */\n      0x00\n        /* \"#utility.yul\":1924:1927   */\n      dup3\n        /* \"#utility.yul\":1920:1931   */\n      add\n        /* \"#utility.yul\":1913:1931   */\n      swap1\n      pop\n        /* \"#utility.yul\":1575:1937   */\n      swap2\n      swap1\n      pop\n      jump\t// out\n        /* \"#utility.yul\":1943:2888   */\n    tag_7:\n        /* \"#utility.yul\":2265:2269   */\n      0x00\n        /* \"#utility.yul\":2303:2306   */\n      0x80\n        /* \"#utility.yul\":2292:2301   */\n      dup3\n        /* \"#utility.yul\":2288:2307   */\n      add\n        /* \"#utility.yul\":2280:2307   */\n      swap1\n      pop\n        /* \"#utility.yul\":2353:2362   */\n      dup2\n        /* \"#utility.yul\":2347:2351   */\n      dup2\n        /* \"#utility.yul\":2343:2363   */\n      sub\n        /* \"#utility.yul\":2339:2340   */\n      0x00\n        /* \"#utility.yul\":2328:2337   */\n      dup4\n        /* \"#utility.yul\":2324:2341   */\n      add\n        /* \"#utility.yul\":2317:2364   */\n      mstore\n        /* \"#utility.yul\":2381:2512   */\n      tag_69\n        /* \"#utility.yul\":2507:2511   */\n      dup2\n        /* \"#utility.yul\":2381:2512   */\n      tag_29\n      jump\t// in\n    tag_69:\n        /* \"#utility.yul\":2373:2512   */\n      swap1\n      pop\n        /* \"#utility.yul\":2522:2594   */\n      tag_70\n        /* \"#utility.yul\":2590:2592   */\n      0x20\n        /* \"#utility.yul\":2579:2588   */\n      dup4\n        /* \"#utility.yul\":2575:2593   */\n      add\n        /* \"#utility.yul\":2566:2572   */\n      dup6\n        /* \"#utility.yul\":2522:2594   */\n      tag_32\n      jump\t// in\n    tag_70:\n        /* \"#utility.yul\":2604:2676   */\n      tag_71\n        /* \"#utility.yul\":2672:2674   */\n      0x40\n        /* \"#utility.yul\":2661:2670   */\n      dup4\n        /* \"#utility.yul\":2657:2675   */\n      add\n        /* \"#utility.yul\":2648:2654   */\n      dup5\n        /* \"#utility.yul\":2604:2676   */\n      tag_34\n      jump\t// in\n    tag_71:\n        /* \"#utility.yul\":2723:2732   */\n      dup2\n        /* \"#utility.yul\":2717:2721   */\n      dup2\n        /* \"#utility.yul\":2713:2733   */\n      sub\n        /* \"#utility.yul\":2708:2710   */\n      0x60\n        /* \"#utility.yul\":2697:2706   */\n      dup4\n        /* \"#utility.yul\":2693:2711   */\n      add\n        /* \"#utility.yul\":2686:2734   */\n      mstore\n        /* \"#utility.yul\":2751:2881   */\n      tag_72\n        /* \"#utility.yul\":2876:2880   */\n      dup2\n        /* \"#utility.yul\":2751:2881   */\n      tag_37\n      jump\t// in\n    tag_72:\n        /* \"#utility.yul\":2743:2881   */\n      swap1\n      pop\n        /* \"#utility.yul\":1943:2888   */\n      swap4\n      swap3\n      pop\n      pop\n      pop\n      jump\t// out\n        /* \"#utility.yul\":2894:3052   */\n    tag_38:\n        /* \"#utility.yul\":3034:3044   */\n      0x66616c6c6261636b000000000000000000000000000000000000000000000000\n        /* \"#utility.yul\":3030:3031   */\n      0x00\n        /* \"#utility.yul\":3022:3028   */\n      dup3\n        /* \"#utility.yul\":3018:3032   */\n      add\n        /* \"#utility.yul\":3011:3045   */\n      mstore\n        /* \"#utility.yul\":2894:3052   */\n      pop\n      jump\t// out\n        /* \"#utility.yul\":3058:3423   */\n    tag_39:\n        /* \"#utility.yul\":3200:3203   */\n      0x00\n        /* \"#utility.yul\":3221:3287   */\n      tag_75\n        /* \"#utility.yul\":3285:3286   */\n      0x08\n        /* \"#utility.yul\":3280:3283   */\n      dup4\n        /* \"#utility.yul\":3221:3287   */\n      tag_27\n      jump\t// in\n    tag_75:\n        /* \"#utility.yul\":3214:3287   */\n      swap2\n      pop\n        /* \"#utility.yul\":3296:3389   */\n      tag_76\n        /* \"#utility.yul\":3385:3388   */\n      dup3\n        /* \"#utility.yul\":3296:3389   */\n      tag_38\n      jump\t// in\n    tag_76:\n        /* \"#utility.yul\":3414:3416   */\n      0x20\n        /* \"#utility.yul\":3409:3412   */\n      dup3\n        /* \"#utility.yul\":3405:3417   */\n      add\n        /* \"#utility.yul\":3398:3417   */\n      swap1\n      pop\n        /* \"#utility.yul\":3058:3423   */\n      swap2\n      swap1\n      pop\n      jump\t// out\n        /* \"#utility.yul\":3429:3577   */\n    tag_40:\n        /* \"#utility.yul\":3527:3533   */\n      dup3\n        /* \"#utility.yul\":3522:3525   */\n      dup2\n        /* \"#utility.yul\":3517:3520   */\n      dup4\n        /* \"#utility.yul\":3504:3534   */\n      calldatacopy\n        /* \"#utility.yul\":3568:3569   */\n      0x00\n        /* \"#utility.yul\":3559:3565   */\n      dup4\n        /* \"#utility.yul\":3554:3557   */\n      dup4\n        /* \"#utility.yul\":3550:3566   */\n      add\n        /* \"#utility.yul\":3543:3570   */\n      mstore\n        /* \"#utility.yul\":3429:3577   */\n      pop\n      pop\n      pop\n      jump\t// out\n        /* \"#utility.yul\":3583:3685   */\n    tag_41:\n        /* \"#utility.yul\":3624:3630   */\n      0x00\n        /* \"#utility.yul\":3675:3677   */\n      0x1f\n        /* \"#utility.yul\":3671:3678   */\n      not\n        /* \"#utility.yul\":3666:3668   */\n      0x1f\n        /* \"#utility.yul\":3659:3664   */\n      dup4\n        /* \"#utility.yul\":3655:3669   */\n      add\n        /* \"#utility.yul\":3651:3679   */\n      and\n        /* \"#utility.yul\":3641:3679   */\n      swap1\n      pop\n        /* \"#utility.yul\":3583:3685   */\n      swap2\n      swap1\n      pop\n      jump\t// out\n        /* \"#utility.yul\":3713:4027   */\n    tag_42:\n        /* \"#utility.yul\":3809:3812   */\n      0x00\n        /* \"#utility.yul\":3830:3900   */\n      tag_80\n        /* \"#utility.yul\":3893:3899   */\n      dup4\n        /* \"#utility.yul\":3888:3891   */\n      dup6\n        /* \"#utility.yul\":3830:3900   */\n      tag_35\n      jump\t// in\n    tag_80:\n        /* \"#utility.yul\":3823:3900   */\n      swap4\n      pop\n        /* \"#utility.yul\":3910:3966   */\n      tag_81\n        /* \"#utility.yul\":3959:3965   */\n      dup4\n        /* \"#utility.yul\":3954:3957   */\n      dup6\n        /* \"#utility.yul\":3947:3952   */\n      dup5\n        /* \"#utility.yul\":3910:3966   */\n      tag_40\n      jump\t// in\n    tag_81:\n        /* \"#utility.yul\":3991:4020   */\n      tag_82\n        /* \"#utility.yul\":4013:4019   */\n      dup4\n        /* \"#utility.yul\":3991:4020   */\n      tag_41\n      jump\t// in\n    tag_82:\n        /* \"#utility.yul\":3986:3989   */\n      dup5\n        /* \"#utility.yul\":3982:4021   */\n      add\n        /* \"#utility.yul\":3975:4021   */\n      swap1\n      pop\n        /* \"#utility.yul\":3713:4027   */\n      swap4\n      swap3\n      pop\n      pop\n      pop\n      jump\t// out\n        /* \"#utility.yul\":4033:4890   */\n    tag_11:\n        /* \"#utility.yul\":4311:4315   */\n      0x00\n        /* \"#utility.yul\":4349:4352   */\n      0x80\n        /* \"#utility.yul\":4338:4347   */\n      dup3\n        /* \"#utility.yul\":4334:4353   */\n      add\n        /* \"#utility.yul\":4326:4353   */\n      swap1\n      pop\n        /* \"#utility.yul\":4399:4408   */\n      dup2\n        /* \"#utility.yul\":4393:4397   */\n      dup2\n        /* \"#utility.yul\":4389:4409   */\n      sub\n        /* \"#utility.yul\":4385:4386   */\n      0x00\n        /* \"#utility.yul\":4374:4383   */\n      dup4\n        /* \"#utility.yul\":4370:4387   */\n      add\n        /* \"#utility.yul\":4363:4410   */\n      mstore\n        /* \"#utility.yul\":4427:4558   */\n      tag_84\n        /* \"#utility.yul\":4553:4557   */\n      dup2\n        /* \"#utility.yul\":4427:4558   */\n      tag_39\n      jump\t// in\n    tag_84:\n        /* \"#utility.yul\":4419:4558   */\n      swap1\n      pop\n        /* \"#utility.yul\":4568:4640   */\n      tag_85\n        /* \"#utility.yul\":4636:4638   */\n      0x20\n        /* \"#utility.yul\":4625:4634   */\n      dup4\n        /* \"#utility.yul\":4621:4639   */\n      add\n        /* \"#utility.yul\":4612:4618   */\n      dup8\n        /* \"#utility.yul\":4568:4640   */\n      tag_32\n      jump\t// in\n    tag_85:\n        /* \"#utility.yul\":4650:4722   */\n      tag_86\n        /* \"#utility.yul\":4718:4720   */\n      0x40\n        /* \"#utility.yul\":4707:4716   */\n      dup4\n        /* \"#utility.yul\":4703:4721   */\n      add\n        /* \"#utility.yul\":4694:4700   */\n      dup7\n        /* \"#utility.yul\":4650:4722   */\n      tag_34\n      jump\t// in\n    tag_86:\n        /* \"#utility.yul\":4769:4778   */\n      dup2\n        /* \"#utility.yul\":4763:4767   */\n      dup2\n        /* \"#utility.yul\":4759:4779   */\n      sub\n        /* \"#utility.yul\":4754:4756   */\n      0x60\n        /* \"#utility.yul\":4743:4752   */\n      dup4\n        /* \"#utility.yul\":4739:4757   */\n      add\n        /* \"#utility.yul\":4732:4780   */\n      mstore\n        /* \"#utility.yul\":4797:4883   */\n      tag_87\n        /* \"#utility.yul\":4878:4882   */\n      dup2\n        /* \"#utility.yul\":4869:4875   */\n      dup5\n        /* \"#utility.yul\":4861:4867   */\n      dup7\n        /* \"#utility.yul\":4797:4883   */\n      tag_42\n      jump\t// in\n    tag_87:\n        /* \"#utility.yul\":4789:4883   */\n      swap1\n      pop\n        /* \"#utility.yul\":4033:4890   */\n      swap6\n      swap5\n      pop\n      pop\n      pop\n      pop\n      pop\n      jump\t// out\n        /* \"#utility.yul\":4977:5094   */\n    tag_44:\n        /* \"#utility.yul\":5086:5087   */\n      0x00\n        /* \"#utility.yul\":5083:5084   */\n      dup1\n        /* \"#utility.yul\":5076:5088   */\n      revert\n        /* \"#utility.yul\":5223:5345   */\n    tag_46:\n        /* \"#utility.yul\":5296:5320   */\n      tag_92\n        /* \"#utility.yul\":5314:5319   */\n      dup2\n        /* \"#utility.yul\":5296:5320   */\n      tag_33\n      jump\t// in\n    tag_92:\n        /* \"#utility.yul\":5289:5294   */\n      dup2\n        /* \"#utility.yul\":5286:5321   */\n      eq\n        /* \"#utility.yul\":5276:5339   */\n      tag_93\n      jumpi\n        /* \"#utility.yul\":5335:5336   */\n      0x00\n        /* \"#utility.yul\":5332:5333   */\n      dup1\n        /* \"#utility.yul\":5325:5337   */\n      revert\n        /* \"#utility.yul\":5276:5339   */\n    tag_93:\n        /* \"#utility.yul\":5223:5345   */\n      pop\n      jump\t// out\n        /* \"#utility.yul\":5351:5490   */\n    tag_47:\n        /* \"#utility.yul\":5397:5402   */\n      0x00\n        /* \"#utility.yul\":5435:5441   */\n      dup2\n        /* \"#utility.yul\":5422:5442   */\n      calldataload\n        /* \"#utility.yul\":5413:5442   */\n      swap1\n      pop\n        /* \"#utility.yul\":5451:5484   */\n      tag_95\n        /* \"#utility.yul\":5478:5483   */\n      dup2\n        /* \"#utility.yul\":5451:5484   */\n      tag_46\n      jump\t// in\n    tag_95:\n        /* \"#utility.yul\":5351:5490   */\n      swap3\n      swap2\n      pop\n      pop\n      jump\t// out\n        /* \"#utility.yul\":5496:6115   */\n    tag_15:\n        /* \"#utility.yul\":5573:5579   */\n      0x00\n        /* \"#utility.yul\":5581:5587   */\n      dup1\n        /* \"#utility.yul\":5589:5595   */\n      0x00\n        /* \"#utility.yul\":5638:5640   */\n      0x60\n        /* \"#utility.yul\":5626:5635   */\n      dup5\n        /* \"#utility.yul\":5617:5624   */\n      dup7\n        /* \"#utility.yul\":5613:5636   */\n      sub\n        /* \"#utility.yul\":5609:5641   */\n      slt\n        /* \"#utility.yul\":5606:5725   */\n      iszero\n      tag_97\n      jumpi\n        /* \"#utility.yul\":5644:5723   */\n      tag_98\n      tag_44\n      jump\t// in\n    tag_98:\n        /* \"#utility.yul\":5606:5725   */\n    tag_97:\n        /* \"#utility.yul\":5764:5765   */\n      0x00\n        /* \"#utility.yul\":5789:5842   */\n      tag_99\n        /* \"#utility.yul\":5834:5841   */\n      dup7\n        /* \"#utility.yul\":5825:5831   */\n      dup3\n        /* \"#utility.yul\":5814:5823   */\n      dup8\n        /* \"#utility.yul\":5810:5832   */\n      add\n        /* \"#utility.yul\":5789:5842   */\n      tag_47\n      jump\t// in\n    tag_99:\n        /* \"#utility.yul\":5779:5842   */\n      swap4\n      pop\n        /* \"#utility.yul\":5735:5852   */\n      pop\n        /* \"#utility.yul\":5891:5893   */\n      0x20\n        /* \"#utility.yul\":5917:5970   */\n      tag_100\n        /* \"#utility.yul\":5962:5969   */\n      dup7\n        /* \"#utility.yul\":5953:5959   */\n      dup3\n        /* \"#utility.yul\":5942:5951   */\n      dup8\n        /* \"#utility.yul\":5938:5960   */\n      add\n        /* \"#utility.yul\":5917:5970   */\n      tag_47\n      jump\t// in\n    tag_100:\n        /* \"#utility.yul\":5907:5970   */\n      swap3\n      pop\n        /* \"#utility.yul\":5862:5980   */\n      pop\n        /* \"#utility.yul\":6019:6021   */\n      0x40\n        /* \"#utility.yul\":6045:6098   */\n      tag_101\n        /* \"#utility.yul\":6090:6097   */\n      dup7\n        /* \"#utility.yul\":6081:6087   */\n      dup3\n        /* \"#utility.yul\":6070:6079   */\n      dup8\n        /* \"#utility.yul\":6066:6088   */\n      add\n        /* \"#utility.yul\":6045:6098   */\n      tag_47\n      jump\t// in\n    tag_101:\n        /* \"#utility.yul\":6035:6098   */\n      swap2\n      pop\n        /* \"#utility.yul\":5990:6108   */\n      pop\n        /* \"#utility.yul\":5496:6115   */\n      swap3\n      pop\n      swap3\n      pop\n      swap3\n      jump\t// out\n        /* \"#utility.yul\":6121:6453   */\n    tag_18:\n        /* \"#utility.yul\":6242:6246   */\n      0x00\n        /* \"#utility.yul\":6280:6282   */\n      0x40\n        /* \"#utility.yul\":6269:6278   */\n      dup3\n        /* \"#utility.yul\":6265:6283   */\n      add\n        /* \"#utility.yul\":6257:6283   */\n      swap1\n      pop\n        /* \"#utility.yul\":6293:6364   */\n      tag_103\n        /* \"#utility.yul\":6361:6362   */\n      0x00\n        /* \"#utility.yul\":6350:6359   */\n      dup4\n        /* \"#utility.yul\":6346:6363   */\n      add\n        /* \"#utility.yul\":6337:6343   */\n      dup6\n        /* \"#utility.yul\":6293:6364   */\n      tag_34\n      jump\t// in\n    tag_103:\n        /* \"#utility.yul\":6374:6446   */\n      tag_104\n        /* \"#utility.yul\":6442:6444   */\n      0x20\n        /* \"#utility.yul\":6431:6440   */\n      dup4\n        /* \"#utility.yul\":6427:6445   */\n      add\n        /* \"#utility.yul\":6418:6424   */\n      dup5\n        /* \"#utility.yul\":6374:6446   */\n      tag_34\n      jump\t// in\n    tag_104:\n        /* \"#utility.yul\":6121:6453   */\n      swap4\n      swap3\n      pop\n      pop\n      pop\n      jump\t// out\n        /* \"#utility.yul\":6459:6639   */\n    tag_22:\n        /* \"#utility.yul\":6507:6584   */\n      0x4e487b7100000000000000000000000000000000000000000000000000000000\n        /* \"#utility.yul\":6504:6505   */\n      0x00\n        /* \"#utility.yul\":6497:6585   */\n      mstore\n        /* \"#utility.yul\":6604:6608   */\n      0x12\n        /* \"#utility.yul\":6601:6602   */\n      0x04\n        /* \"#utility.yul\":6594:6609   */\n      mstore\n        /* \"#utility.yul\":6628:6632   */\n      0x24\n        /* \"#utility.yul\":6625:6626   */\n      0x00\n        /* \"#utility.yul\":6618:6633   */\n      revert\n        /* \"#utility.yul\":6645:6825   */\n    tag_48:\n        /* \"#utility.yul\":6693:6770   */\n      0x4e487b7100000000000000000000000000000000000000000000000000000000\n        /* \"#utility.yul\":6690:6691   */\n      0x00\n        /* \"#utility.yul\":6683:6771   */\n      mstore\n        /* \"#utility.yul\":6790:6794   */\n      0x11\n        /* \"#utility.yul\":6787:6788   */\n      0x04\n        /* \"#utility.yul\":6780:6795   */\n      mstore\n        /* \"#utility.yul\":6814:6818   */\n      0x24\n        /* \"#utility.yul\":6811:6812   */\n      0x00\n        /* \"#utility.yul\":6804:6819   */\n      revert\n        /* \"#utility.yul\":6831:7022   */\n    tag_24:\n        /* \"#utility.yul\":6871:6874   */\n      0x00\n        /* \"#utility.yul\":6890:6910   */\n      tag_108\n        /* \"#utility.yul\":6908:6909   */\n      dup3\n        /* \"#utility.yul\":6890:6910   */\n      tag_33\n      jump\t// in\n    tag_108:\n        /* \"#utility.yul\":6885:6910   */\n      swap2\n      pop\n        /* \"#utility.yul\":6924:6944   */\n      tag_109\n        /* \"#utility.yul\":6942:6943   */\n      dup4\n        /* \"#utility.yul\":6924:6944   */\n      tag_33\n      jump\t// in\n    tag_109:\n        /* \"#utility.yul\":6919:6944   */\n      swap3\n      pop\n        /* \"#utility.yul\":6967:6968   */\n      dup3\n        /* \"#utility.yul\":6964:6965   */\n      dup3\n        /* \"#utility.yul\":6960:6969   */\n      add\n        /* \"#utility.yul\":6953:6969   */\n      swap1\n      pop\n        /* \"#utility.yul\":6988:6991   */\n      dup1\n        /* \"#utility.yul\":6985:6986   */\n      dup3\n        /* \"#utility.yul\":6982:6992   */\n      gt\n        /* \"#utility.yul\":6979:7015   */\n      iszero\n      tag_110\n      jumpi\n        /* \"#utility.yul\":6995:7013   */\n      tag_111\n      tag_48\n      jump\t// in\n    tag_111:\n        /* \"#utility.yul\":6979:7015   */\n    tag_110:\n        /* \"#utility.yul\":6831:7022   */\n      swap3\n      swap2\n      pop\n      pop\n      jump\t// out\n        /* \"#utility.yul\":7028:7204   */\n    tag_26:\n        /* \"#utility.yul\":7060:7061   */\n      0x00\n        /* \"#utility.yul\":7077:7097   */\n      tag_113\n        /* \"#utility.yul\":7095:7096   */\n      dup3\n        /* \"#utility.yul\":7077:7097   */\n      tag_33\n      jump\t// in\n    tag_113:\n        /* \"#utility.yul\":7072:7097   */\n      swap2\n      pop\n        /* \"#utility.yul\":7111:7131   */\n      tag_114\n        /* \"#utility.yul\":7129:7130   */\n      dup4\n        /* \"#utility.yul\":7111:7131   */\n      tag_33\n      jump\t// in\n    tag_114:\n        /* \"#utility.yul\":7106:7131   */\n      swap3\n      pop\n        /* \"#utility.yul\":7150:7151   */\n      dup3\n        /* \"#utility.yul\":7140:7175   */\n      tag_115\n      jumpi\n        /* \"#utility.yul\":7155:7173   */\n      tag_116\n      tag_22\n      jump\t// in\n    tag_116:\n        /* \"#utility.yul\":7140:7175   */\n    tag_115:\n        /* \"#utility.yul\":7196:7197   */\n      dup3\n        /* \"#utility.yul\":7193:7194   */\n      dup3\n        /* \"#utility.yul\":7189:7198   */\n      mod\n        /* \"#utility.yul\":7184:7198   */\n      swap1\n      pop\n        /* \"#utility.yul\":7028:7204   */\n      swap3\n      swap2\n      pop\n      pop\n      jump\t// out\n\n    auxdata: 0xa26469706673582212203dc56649d93567e06c6883233d9d9f5c65af2796e64632e123fdd51033ee9a6f64736f6c634300081a0033\n}\n",
				"bytecode": {
					"linkReferences": {},
					"object": "60806040526104c2806100115f395ff3fe608060405260043610610021575f3560e01c806362e9ef92146100a057610061565b36610061577fbb7455e1330c1ad664613f3d998bd858bae53893f04a4eb34718b211dd87c59e33346040516100579291906101f8565b60405180910390a1005b7fbb7455e1330c1ad664613f3d998bd858bae53893f04a4eb34718b211dd87c59e33345f3660405161009694939291906102d9565b60405180910390a1005b3480156100ab575f80fd5b506100c660048036038101906100c19190610358565b6100dd565b6040516100d49291906103a8565b60405180910390f35b5f8082806100ee576100ed6103cf565b5b8486088385876100fe9190610429565b610108919061045c565b91509150935093915050565b5f82825260208201905092915050565b7f72656365697665000000000000000000000000000000000000000000000000005f82015250565b5f610158600783610114565b915061016382610124565b602082019050919050565b5f73ffffffffffffffffffffffffffffffffffffffff82169050919050565b5f6101978261016e565b9050919050565b6101a78161018d565b82525050565b5f819050919050565b6101bf816101ad565b82525050565b5f82825260208201905092915050565b50565b5f6101e35f836101c5565b91506101ee826101d5565b5f82019050919050565b5f6080820190508181035f83015261020f8161014c565b905061021e602083018561019e565b61022b60408301846101b6565b818103606083015261023c816101d8565b90509392505050565b7f66616c6c6261636b0000000000000000000000000000000000000000000000005f82015250565b5f610279600883610114565b915061028482610245565b602082019050919050565b828183375f83830152505050565b5f601f19601f8301169050919050565b5f6102b883856101c5565b93506102c583858461028f565b6102ce8361029d565b840190509392505050565b5f6080820190508181035f8301526102f08161026d565b90506102ff602083018761019e565b61030c60408301866101b6565b818103606083015261031f8184866102ad565b905095945050505050565b5f80fd5b610337816101ad565b8114610341575f80fd5b50565b5f813590506103528161032e565b92915050565b5f805f6060848603121561036f5761036e61032a565b5b5f61037c86828701610344565b935050602061038d86828701610344565b925050604061039e86828701610344565b9150509250925092565b5f6040820190506103bb5f8301856101b6565b6103c860208301846101b6565b9392505050565b7f4e487b71000000000000000000000000000000000000000000000000000000005f52601260045260245ffd5b7f4e487b71000000000000000000000000000000000000000000000000000000005f52601160045260245ffd5b5f610433826101ad565b915061043e836101ad565b9250828201905080821115610456576104556103fc565b5b92915050565b5f610466826101ad565b9150610471836101ad565b925082610481576104806103cf565b5b82820690509291505056fea26469706673582212203dc56649d93567e06c6883233d9d9f5c65af2796e64632e123fdd51033ee9a6f64736f6c634300081a0033",
					"opcodes": "PUSH1 0x80 PUSH1 0x40 MSTORE PUSH2 0x4C2 DUP1 PUSH2 0x11 PUSH0 CODECOPY PUSH0 RETURN INVALID PUSH1 0x80 PUSH1 0x40 MSTORE PUSH1 0x4 CALLDATASIZE LT PUSH2 0x21 JUMPI PUSH0 CALLDATALOAD PUSH1 0xE0 SHR DUP1 PUSH4 0x62E9EF92 EQ PUSH2 0xA0 JUMPI PUSH2 0x61 JUMP JUMPDEST CALLDATASIZE PUSH2 0x61 JUMPI PUSH32 0xBB7455E1330C1AD664613F3D998BD858BAE53893F04A4EB34718B211DD87C59E CALLER CALLVALUE PUSH1 0x40 MLOAD PUSH2 0x57 SWAP3 SWAP2 SWAP1 PUSH2 0x1F8 JUMP JUMPDEST PUSH1 0x40 MLOAD DUP1 SWAP2 SUB SWAP1 LOG1 STOP JUMPDEST PUSH32 0xBB7455E1330C1AD664613F3D998BD858BAE53893F04A4EB34718B211DD87C59E CALLER CALLVALUE PUSH0 CALLDATASIZE PUSH1 0x40 MLOAD PUSH2 0x96 SWAP5 SWAP4 SWAP3 SWAP2 SWAP1 PUSH2 0x2D9 JUMP JUMPDEST PUSH1 0x40 MLOAD DUP1 SWAP2 SUB SWAP1 LOG1 STOP JUMPDEST CALLVALUE DUP1 ISZERO PUSH2 0xAB JUMPI PUSH0 DUP1 REVERT JUMPDEST POP PUSH2 0xC6 PUSH1 0x4 DUP1 CALLDATASIZE SUB DUP2 ADD SWAP1 PUSH2 0xC1 SWAP2 SWAP1 PUSH2 0x358 JUMP JUMPDEST PUSH2 0xDD JUMP JUMPDEST PUSH1 0x40 MLOAD PUSH2 0xD4 SWAP3 SWAP2 SWAP1 PUSH2 0x3A8 JUMP JUMPDEST PUSH1 0x40 MLOAD DUP1 SWAP2 SUB SWAP1 RETURN JUMPDEST PUSH0 DUP1 DUP3 DUP1 PUSH2 0xEE JUMPI PUSH2 0xED PUSH2 0x3CF JUMP JUMPDEST JUMPDEST DUP5 DUP7 ADDMOD DUP4 DUP6 DUP8 PUSH2 0xFE SWAP2 SWAP1 PUSH2 0x429 JUMP JUMPDEST PUSH2 0x108 SWAP2 SWAP1 PUSH2 0x45C JUMP JUMPDEST SWAP2 POP SWAP2 POP SWAP4 POP SWAP4 SWAP2 POP POP JUMP JUMPDEST PUSH0 DUP3 DUP3 MSTORE PUSH1 0x20 DUP3 ADD SWAP1 POP SWAP3 SWAP2 POP POP JUMP JUMPDEST PUSH32 0x7265636569766500000000000000000000000000000000000000000000000000 PUSH0 DUP3 ADD MSTORE POP JUMP JUMPDEST PUSH0 PUSH2 0x158 PUSH1 0x7 DUP4 PUSH2 0x114 JUMP JUMPDEST SWAP2 POP PUSH2 0x163 DUP3 PUSH2 0x124 JUMP JUMPDEST PUSH1 0x20 DUP3 ADD SWAP1 POP SWAP2 SWAP1 POP JUMP JUMPDEST PUSH0 PUSH20 0xFFFFFFFFFFFFFFFFFFFFFFFFFFFFFFFFFFFFFFFF DUP3 AND SWAP1 POP SWAP2 SWAP1 POP JUMP JUMPDEST PUSH0 PUSH2 0x197 DUP3 PUSH2 0x16E JUMP JUMPDEST SWAP1 POP SWAP2 SWAP1 POP JUMP JUMPDEST PUSH2 0x1A7 DUP2 PUSH2 0x18D JUMP JUMPDEST DUP3 MSTORE POP POP JUMP JUMPDEST PUSH0 DUP2 SWAP1 POP SWAP2 SWAP1 POP JUMP JUMPDEST PUSH2 0x1BF DUP2 PUSH2 0x1AD JUMP JUMPDEST DUP3 MSTORE POP POP JUMP JUMPDEST PUSH0 DUP3 DUP3 MSTORE PUSH1 0x20 DUP3 ADD SWAP1 POP SWAP3 SWAP2 POP POP JUMP JUMPDEST POP JUMP JUMPDEST PUSH0 PUSH2 0x1E3 PUSH0 DUP4 PUSH2 0x1C5 JUMP JUMPDEST SWAP2 POP PUSH2 0x1EE DUP3 PUSH2 0x1D5 JUMP JUMPDEST PUSH0 DUP3 ADD SWAP1 POP SWAP2 SWAP1 POP JUMP JUMPDEST PUSH0 PUSH1 0x80 DUP3 ADD SWAP1 POP DUP2 DUP2 SUB PUSH0 DUP4 ADD MSTORE PUSH2 0x20F DUP2 PUSH2 0x14C JUMP JUMPDEST SWAP1 POP PUSH2 0x21E PUSH1 0x20 DUP4 ADD DUP6 PUSH2 0x19E JUMP JUMPDEST PUSH2 0x22B PUSH1 0x40 DUP4 ADD DUP5 PUSH2 0x1B6 JUMP JUMPDEST DUP2 DUP2 SUB PUSH1 0x60 DUP4 ADD MSTORE PUSH2 0x23C DUP2 PUSH2 0x1D8 JUMP JUMPDEST SWAP1 POP SWAP4 SWAP3 POP POP POP JUMP JUMPDEST PUSH32 0x66616C6C6261636B000000000000000000000000000000000000000000000000 PUSH0 DUP3 ADD MSTORE POP JUMP JUMPDEST PUSH0 PUSH2 0x279 PUSH1 0x8 DUP4 PUSH2 0x114 JUMP JUMPDEST SWAP2 POP PUSH2 0x284 DUP3 PUSH2 0x245 JUMP JUMPDEST PUSH1 0x20 DUP3 ADD SWAP1 POP SWAP2 SWAP1 POP JUMP JUMPDEST DUP3 DUP2 DUP4 CALLDATACOPY PUSH0 DUP4 DUP4 ADD MSTORE POP POP POP JUMP JUMPDEST PUSH0 PUSH1 0x1F NOT PUSH1 0x1F DUP4 ADD AND SWAP1 POP SWAP2 SWAP1 POP JUMP JUMPDEST PUSH0 PUSH2 0x2B8 DUP4 DUP6 PUSH2 0x1C5 JUMP JUMPDEST SWAP4 POP PUSH2 0x2C5 DUP4 DUP6 DUP5 PUSH2 0x28F JUMP JUMPDEST PUSH2 0x2CE DUP4 PUSH2 0x29D JUMP JUMPDEST DUP5 ADD SWAP1 POP SWAP4 SWAP3 POP POP POP JUMP JUMPDEST PUSH0 PUSH1 0x80 DUP3 ADD SWAP1 POP DUP2 DUP2 SUB PUSH0 DUP4 ADD MSTORE PUSH2 0x2F0 DUP2 PUSH2 0x26D JUMP JUMPDEST SWAP1 POP PUSH2 0x2FF PUSH1 0x20 DUP4 ADD DUP8 PUSH2 0x19E JUMP JUMPDEST PUSH2 0x30C PUSH1 0x40 DUP4 ADD DUP7 PUSH2 0x1B6 JUMP JUMPDEST DUP2 DUP2 SUB PUSH1 0x60 DUP4 ADD MSTORE PUSH2 0x31F DUP2 DUP5 DUP7 PUSH2 0x2AD JUMP JUMPDEST SWAP1 POP SWAP6 SWAP5 POP POP POP POP POP JUMP JUMPDEST PUSH0 DUP1 REVERT JUMPDEST PUSH2 0x337 DUP2 PUSH2 0x1AD JUMP JUMPDEST DUP2 EQ PUSH2 0x341 JUMPI PUSH0 DUP1 REVERT JUMPDEST POP JUMP JUMPDEST PUSH0 DUP2 CALLDATALOAD SWAP1 POP PUSH2 0x352 DUP2 PUSH2 0x32E JUMP JUMPDEST SWAP3 SWAP2 POP POP JUMP JUMPDEST PUSH0 DUP1 PUSH0 PUSH1 0x60 DUP5 DUP7 SUB SLT ISZERO PUSH2 0x36F JUMPI PUSH2 0x36E PUSH2 0x32A JUMP JUMPDEST JUMPDEST PUSH0 PUSH2 0x37C DUP7 DUP3 DUP8 ADD PUSH2 0x344 JUMP JUMPDEST SWAP4 POP POP PUSH1 0x20 PUSH2 0x38D DUP7 DUP3 DUP8 ADD PUSH2 0x344 JUMP JUMPDEST SWAP3 POP POP PUSH1 0x40 PUSH2 0x39E DUP7 DUP3 DUP8 ADD PUSH2 0x344 JUMP JUMPDEST SWAP2 POP POP SWAP3 POP SWAP3 POP SWAP3 JUMP JUMPDEST PUSH0 PUSH1 0x40 DUP3 ADD SWAP1 POP PUSH2 0x3BB PUSH0 DUP4 ADD DUP6 PUSH2 0x1B6 JUMP JUMPDEST PUSH2 0x3C8 PUSH1 0x20 DUP4 ADD DUP5 PUSH2 0x1B6 JUMP JUMPDEST SWAP4 SWAP3 POP POP POP JUMP JUMPDEST PUSH32 0x4E487B7100000000000000000000000000000000000000000000000000000000 PUSH0 MSTORE PUSH1 0x12 PUSH1 0x4 MSTORE PUSH1 0x24 PUSH0 REVERT JUMPDEST PUSH32 0x4E487B7100000000000000000000000000000000000000000000000000000000 PUSH0 MSTORE PUSH1 0x11 PUSH1 0x4 MSTORE PUSH1 0x24 PUSH0 REVERT JUMPDEST PUSH0 PUSH2 0x433 DUP3 PUSH2 0x1AD JUMP JUMPDEST SWAP2 POP PUSH2 0x43E DUP4 PUSH2 0x1AD JUMP JUMPDEST SWAP3 POP DUP3 DUP3 ADD SWAP1 POP DUP1 DUP3 GT ISZERO PUSH2 0x456 JUMPI PUSH2 0x455 PUSH2 0x3FC JUMP JUMPDEST JUMPDEST SWAP3 SWAP2 POP POP JUMP JUMPDEST PUSH0 PUSH2 0x466 DUP3 PUSH2 0x1AD JUMP JUMPDEST SWAP2 POP PUSH2 0x471 DUP4 PUSH2 0x1AD JUMP JUMPDEST SWAP3 POP DUP3 PUSH2 0x481 JUMPI PUSH2 0x480 PUSH2 0x3CF JUMP JUMPDEST JUMPDEST DUP3 DUP3 MOD SWAP1 POP SWAP3 SWAP2 POP POP JUMP INVALID LOG2 PUSH5 0x6970667358 0x22 SLT KECCAK256 RETURNDATASIZE 0xC5 PUSH7 0x49D93567E06C68 DUP4 0x23 RETURNDATASIZE SWAP14 SWAP16 TLOAD PUSH6 0xAF2796E64632 0xE1 0x23 REVERT 0xD5 LT CALLER 0xEE SWAP11 PUSH16 0x64736F6C634300081A00330000000000 "
				},
				"gasEstimates": {
					"creation": {
						"codeDepositCost": "243600",
						"executionCost": "261",
						"totalCost": "243861"
					},
					"external": {
						"": "infinite",
						"_addMod(uint256,uint256,uint256)": "infinite"
					}
				},
				"methodIdentifiers": {
					"_addMod(uint256,uint256,uint256)": "62e9ef92"
				}
			},
			"storageLayout": {
				"storage": [],
				"types": null
			},
			"userdoc": {
				"kind": "user",
				"methods": {},
				"version": 1
			}
		}
	}
}