{
	"contracts/estructuras_datos.sol": {
		"dataStructures": {
			"abi": [
				{
					"inputs": [
						{
							"internalType": "uint256",
							"name": "_id",
							"type": "uint256"
						},
						{
							"internalType": "string",
							"name": "_name",
							"type": "string"
						},
						{
							"internalType": "string",
							"name": "_email",
							"type": "string"
						}
					],
					"name": "addClient",
					"outputs": [],
					"stateMutability": "nonpayable",
					"type": "function"
				},
				{
					"inputs": [
						{
							"internalType": "address",
							"name": "",
							"type": "address"
						}
					],
					"name": "address_dataStructures",
					"outputs": [
						{
							"internalType": "uint256",
							"name": "id",
							"type": "uint256"
						},
						{
							"internalType": "string",
							"name": "name",
							"type": "string"
						},
						{
							"internalType": "string",
							"name": "email",
							"type": "string"
						}
					],
					"stateMutability": "view",
					"type": "function"
				},
				{
					"inputs": [
						{
							"internalType": "address",
							"name": "",
							"type": "address"
						}
					],
					"name": "address_uint",
					"outputs": [
						{
							"internalType": "uint256",
							"name": "",
							"type": "uint256"
						}
					],
					"stateMutability": "view",
					"type": "function"
				},
				{
					"inputs": [
						{
							"internalType": "uint256",
							"name": "_id",
							"type": "uint256"
						},
						{
							"internalType": "string",
							"name": "_memory_name",
							"type": "string"
						},
						{
							"internalType": "string",
							"name": "_email",
							"type": "string"
						}
					],
					"name": "arrayModifications",
					"outputs": [],
					"stateMutability": "nonpayable",
					"type": "function"
				},
				{
					"inputs": [
						{
							"internalType": "uint256",
							"name": "",
							"type": "uint256"
						}
					],
					"name": "dynamic_list_Custumer",
					"outputs": [
						{
							"internalType": "uint256",
							"name": "id",
							"type": "uint256"
						},
						{
							"internalType": "string",
							"name": "name",
							"type": "string"
						},
						{
							"internalType": "string",
							"name": "email",
							"type": "string"
						}
					],
					"stateMutability": "view",
					"type": "function"
				},
				{
					"inputs": [
						{
							"internalType": "uint256",
							"name": "",
							"type": "uint256"
						}
					],
					"name": "fixed_list_uints",
					"outputs": [
						{
							"internalType": "uint256",
							"name": "",
							"type": "uint256"
						}
					],
					"stateMutability": "view",
					"type": "function"
				},
				{
					"inputs": [
						{
							"internalType": "string",
							"name": "_name",
							"type": "string"
						},
						{
							"internalType": "uint256",
							"name": "_number",
							"type": "uint256"
						}
					],
					"name": "insertInMappings",
					"outputs": [],
					"stateMutability": "nonpayable",
					"type": "function"
				},
				{
					"inputs": [
						{
							"internalType": "string",
							"name": "",
							"type": "string"
						},
						{
							"internalType": "uint256",
							"name": "",
							"type": "uint256"
						}
					],
					"name": "string_listUnits",
					"outputs": [
						{
							"internalType": "uint256",
							"name": "",
							"type": "uint256"
						}
					],
					"stateMutability": "view",
					"type": "function"
				}
			],
			"devdoc": {
				"kind": "dev",
				"methods": {},
				"version": 1
			},
			"evm": {
				"assembly": "    /* \"contracts/estructuras_datos.sol\":58:1458  contract dataStructures {... */\n  mstore(0x40, 0x80)\n    /* \"contracts/estructuras_datos.sol\":198:235  Custumer(1, \"Joan\", \"joan@gmail.com\") */\n  mload(0x40)\n  dup1\n  0x60\n  add\n  0x40\n  mstore\n  dup1\n    /* \"contracts/estructuras_datos.sol\":207:208  1 */\n  0x01\n    /* \"contracts/estructuras_datos.sol\":198:235  Custumer(1, \"Joan\", \"joan@gmail.com\") */\n  dup2\n  mstore\n  0x20\n  add\n  mload(0x40)\n  dup1\n  0x40\n  add\n  0x40\n  mstore\n  dup1\n  0x04\n  dup2\n  mstore\n  0x20\n  add\n  0x4a6f616e00000000000000000000000000000000000000000000000000000000\n  dup2\n  mstore\n  pop\n  dup2\n  mstore\n  0x20\n  add\n  mload(0x40)\n  dup1\n  0x40\n  add\n  0x40\n  mstore\n  dup1\n  0x0e\n  dup2\n  mstore\n  0x20\n  add\n  0x6a6f616e40676d61696c2e636f6d000000000000000000000000000000000000\n  dup2\n  mstore\n  pop\n  dup2\n  mstore\n  pop\n    /* \"contracts/estructuras_datos.sol\":177:235  Custumer custumer1 = Custumer(1, \"Joan\", \"joan@gmail.com\") */\n  0x00\n  dup1\n  dup3\n  add\n  mload\n  dup2\n  0x00\n  add\n  sstore\n  0x20\n  dup3\n  add\n  mload\n  dup2\n  0x01\n  add\n  swap1\n  dup2\n  tag_1\n  swap2\n  swap1\n  tag_2\n  jump\t// in\ntag_1:\n  pop\n  0x40\n  dup3\n  add\n  mload\n  dup2\n  0x02\n  add\n  swap1\n  dup2\n  tag_3\n  swap2\n  swap1\n  tag_2\n  jump\t// in\ntag_3:\n  pop\n  pop\n  pop\n    /* \"contracts/estructuras_datos.sol\":382:435  uint256 [5] public fixed_list_uints = [1, 3, 4, 5, 6] */\n  mload(0x40)\n  dup1\n  0xa0\n  add\n  0x40\n  mstore\n  dup1\n    /* \"contracts/estructuras_datos.sol\":421:422  1 */\n  0x01\n    /* \"contracts/estructuras_datos.sol\":382:435  uint256 [5] public fixed_list_uints = [1, 3, 4, 5, 6] */\n  0xff\n  and\n  dup2\n  mstore\n  0x20\n  add\n    /* \"contracts/estructuras_datos.sol\":424:425  3 */\n  0x03\n    /* \"contracts/estructuras_datos.sol\":382:435  uint256 [5] public fixed_list_uints = [1, 3, 4, 5, 6] */\n  0xff\n  and\n  dup2\n  mstore\n  0x20\n  add\n    /* \"contracts/estructuras_datos.sol\":427:428  4 */\n  0x04\n    /* \"contracts/estructuras_datos.sol\":382:435  uint256 [5] public fixed_list_uints = [1, 3, 4, 5, 6] */\n  0xff\n  and\n  dup2\n  mstore\n  0x20\n  add\n    /* \"contracts/estructuras_datos.sol\":430:431  5 */\n  0x05\n    /* \"contracts/estructuras_datos.sol\":382:435  uint256 [5] public fixed_list_uints = [1, 3, 4, 5, 6] */\n  0xff\n  and\n  dup2\n  mstore\n  0x20\n  add\n    /* \"contracts/estructuras_datos.sol\":433:434  6 */\n  0x06\n    /* \"contracts/estructuras_datos.sol\":382:435  uint256 [5] public fixed_list_uints = [1, 3, 4, 5, 6] */\n  0xff\n  and\n  dup2\n  mstore\n  pop\n  0x03\n  swap1\n  0x05\n  tag_4\n  swap3\n  swap2\n  swap1\n  tag_5\n  jump\t// in\ntag_4:\n  pop\n    /* \"contracts/estructuras_datos.sol\":58:1458  contract dataStructures {... */\n  callvalue\n  dup1\n  iszero\n  tag_6\n  jumpi\n  0x00\n  dup1\n  revert\ntag_6:\n  pop\n  jump(tag_7)\ntag_5:\n  dup3\n  0x05\n  dup2\n  add\n  swap3\n  dup3\n  iszero\n  tag_8\n  jumpi\n  swap2\n  0x20\n  mul\n  dup3\n  add\ntag_9:\n  dup3\n  dup2\n  gt\n  iszero\n  tag_10\n  jumpi\n  dup3\n  mload\n  dup3\n  swap1\n  0xff\n  and\n  swap1\n  sstore\n  swap2\n  0x20\n  add\n  swap2\n  swap1\n  0x01\n  add\n  swap1\n  jump(tag_9)\ntag_10:\ntag_8:\n  pop\n  swap1\n  pop\n  tag_11\n  swap2\n  swap1\n  tag_12\n  jump\t// in\ntag_11:\n  pop\n  swap1\n  jump\t// out\ntag_12:\ntag_13:\n  dup1\n  dup3\n  gt\n  iszero\n  tag_14\n  jumpi\n  0x00\n  dup2\n  0x00\n  swap1\n  sstore\n  pop\n  0x01\n  add\n  jump(tag_13)\ntag_14:\n  pop\n  swap1\n  jump\t// out\n    /* \"#utility.yul\":7:106   */\ntag_15:\n    /* \"#utility.yul\":59:65   */\n  0x00\n    /* \"#utility.yul\":93:98   */\n  dup2\n    /* \"#utility.yul\":87:99   */\n  mload\n    /* \"#utility.yul\":77:99   */\n  swap1\n  pop\n    /* \"#utility.yul\":7:106   */\n  swap2\n  swap1\n  pop\n  jump\t// out\n    /* \"#utility.yul\":112:292   */\ntag_16:\n    /* \"#utility.yul\":160:237   */\n  0x4e487b7100000000000000000000000000000000000000000000000000000000\n    /* \"#utility.yul\":157:158   */\n  0x00\n    /* \"#utility.yul\":150:238   */\n  mstore\n    /* \"#utility.yul\":257:261   */\n  0x41\n    /* \"#utility.yul\":254:255   */\n  0x04\n    /* \"#utility.yul\":247:262   */\n  mstore\n    /* \"#utility.yul\":281:285   */\n  0x24\n    /* \"#utility.yul\":278:279   */\n  0x00\n    /* \"#utility.yul\":271:286   */\n  revert\n    /* \"#utility.yul\":298:478   */\ntag_17:\n    /* \"#utility.yul\":346:423   */\n  0x4e487b7100000000000000000000000000000000000000000000000000000000\n    /* \"#utility.yul\":343:344   */\n  0x00\n    /* \"#utility.yul\":336:424   */\n  mstore\n    /* \"#utility.yul\":443:447   */\n  0x22\n    /* \"#utility.yul\":440:441   */\n  0x04\n    /* \"#utility.yul\":433:448   */\n  mstore\n    /* \"#utility.yul\":467:471   */\n  0x24\n    /* \"#utility.yul\":464:465   */\n  0x00\n    /* \"#utility.yul\":457:472   */\n  revert\n    /* \"#utility.yul\":484:804   */\ntag_18:\n    /* \"#utility.yul\":528:534   */\n  0x00\n    /* \"#utility.yul\":565:566   */\n  0x02\n    /* \"#utility.yul\":559:563   */\n  dup3\n    /* \"#utility.yul\":555:567   */\n  div\n    /* \"#utility.yul\":545:567   */\n  swap1\n  pop\n    /* \"#utility.yul\":612:613   */\n  0x01\n    /* \"#utility.yul\":606:610   */\n  dup3\n    /* \"#utility.yul\":602:614   */\n  and\n    /* \"#utility.yul\":633:651   */\n  dup1\n    /* \"#utility.yul\":623:704   */\n  tag_40\n  jumpi\n    /* \"#utility.yul\":689:693   */\n  0x7f\n    /* \"#utility.yul\":681:687   */\n  dup3\n    /* \"#utility.yul\":677:694   */\n  and\n    /* \"#utility.yul\":667:694   */\n  swap2\n  pop\n    /* \"#utility.yul\":623:704   */\ntag_40:\n    /* \"#utility.yul\":751:753   */\n  0x20\n    /* \"#utility.yul\":743:749   */\n  dup3\n    /* \"#utility.yul\":740:754   */\n  lt\n    /* \"#utility.yul\":720:738   */\n  dup2\n    /* \"#utility.yul\":717:755   */\n  sub\n    /* \"#utility.yul\":714:798   */\n  tag_41\n  jumpi\n    /* \"#utility.yul\":770:788   */\n  tag_42\n  tag_17\n  jump\t// in\ntag_42:\n    /* \"#utility.yul\":714:798   */\ntag_41:\n    /* \"#utility.yul\":535:804   */\n  pop\n    /* \"#utility.yul\":484:804   */\n  swap2\n  swap1\n  pop\n  jump\t// out\n    /* \"#utility.yul\":810:951   */\ntag_19:\n    /* \"#utility.yul\":859:863   */\n  0x00\n    /* \"#utility.yul\":882:885   */\n  dup2\n    /* \"#utility.yul\":874:885   */\n  swap1\n  pop\n    /* \"#utility.yul\":905:908   */\n  dup2\n    /* \"#utility.yul\":902:903   */\n  0x00\n    /* \"#utility.yul\":895:909   */\n  mstore\n    /* \"#utility.yul\":939:943   */\n  0x20\n    /* \"#utility.yul\":936:937   */\n  0x00\n    /* \"#utility.yul\":926:944   */\n  keccak256\n    /* \"#utility.yul\":918:944   */\n  swap1\n  pop\n    /* \"#utility.yul\":810:951   */\n  swap2\n  swap1\n  pop\n  jump\t// out\n    /* \"#utility.yul\":957:1050   */\ntag_20:\n    /* \"#utility.yul\":994:1000   */\n  0x00\n    /* \"#utility.yul\":1041:1043   */\n  0x20\n    /* \"#utility.yul\":1036:1038   */\n  0x1f\n    /* \"#utility.yul\":1029:1034   */\n  dup4\n    /* \"#utility.yul\":1025:1039   */\n  add\n    /* \"#utility.yul\":1021:1044   */\n  div\n    /* \"#utility.yul\":1011:1044   */\n  swap1\n  pop\n    /* \"#utility.yul\":957:1050   */\n  swap2\n  swap1\n  pop\n  jump\t// out\n    /* \"#utility.yul\":1056:1163   */\ntag_21:\n    /* \"#utility.yul\":1100:1108   */\n  0x00\n    /* \"#utility.yul\":1150:1155   */\n  dup3\n    /* \"#utility.yul\":1144:1148   */\n  dup3\n    /* \"#utility.yul\":1140:1156   */\n  shl\n    /* \"#utility.yul\":1119:1156   */\n  swap1\n  pop\n    /* \"#utility.yul\":1056:1163   */\n  swap3\n  swap2\n  pop\n  pop\n  jump\t// out\n    /* \"#utility.yul\":1169:1562   */\ntag_22:\n    /* \"#utility.yul\":1238:1244   */\n  0x00\n    /* \"#utility.yul\":1288:1289   */\n  0x08\n    /* \"#utility.yul\":1276:1286   */\n  dup4\n    /* \"#utility.yul\":1272:1290   */\n  mul\n    /* \"#utility.yul\":1311:1408   */\n  tag_47\n    /* \"#utility.yul\":1341:1407   */\n  0xffffffffffffffffffffffffffffffffffffffffffffffffffffffffffffffff\n    /* \"#utility.yul\":1330:1339   */\n  dup3\n    /* \"#utility.yul\":1311:1408   */\n  tag_21\n  jump\t// in\ntag_47:\n    /* \"#utility.yul\":1429:1468   */\n  tag_48\n    /* \"#utility.yul\":1459:1467   */\n  dup7\n    /* \"#utility.yul\":1448:1457   */\n  dup4\n    /* \"#utility.yul\":1429:1468   */\n  tag_21\n  jump\t// in\ntag_48:\n    /* \"#utility.yul\":1417:1468   */\n  swap6\n  pop\n    /* \"#utility.yul\":1501:1505   */\n  dup1\n    /* \"#utility.yul\":1497:1506   */\n  not\n    /* \"#utility.yul\":1490:1495   */\n  dup5\n    /* \"#utility.yul\":1486:1507   */\n  and\n    /* \"#utility.yul\":1477:1507   */\n  swap4\n  pop\n    /* \"#utility.yul\":1550:1554   */\n  dup1\n    /* \"#utility.yul\":1540:1548   */\n  dup7\n    /* \"#utility.yul\":1536:1555   */\n  and\n    /* \"#utility.yul\":1529:1534   */\n  dup5\n    /* \"#utility.yul\":1526:1556   */\n  or\n    /* \"#utility.yul\":1516:1556   */\n  swap3\n  pop\n    /* \"#utility.yul\":1245:1562   */\n  pop\n  pop\n    /* \"#utility.yul\":1169:1562   */\n  swap4\n  swap3\n  pop\n  pop\n  pop\n  jump\t// out\n    /* \"#utility.yul\":1568:1645   */\ntag_23:\n    /* \"#utility.yul\":1605:1612   */\n  0x00\n    /* \"#utility.yul\":1634:1639   */\n  dup2\n    /* \"#utility.yul\":1623:1639   */\n  swap1\n  pop\n    /* \"#utility.yul\":1568:1645   */\n  swap2\n  swap1\n  pop\n  jump\t// out\n    /* \"#utility.yul\":1651:1711   */\ntag_24:\n    /* \"#utility.yul\":1679:1682   */\n  0x00\n    /* \"#utility.yul\":1700:1705   */\n  dup2\n    /* \"#utility.yul\":1693:1705   */\n  swap1\n  pop\n    /* \"#utility.yul\":1651:1711   */\n  swap2\n  swap1\n  pop\n  jump\t// out\n    /* \"#utility.yul\":1717:1859   */\ntag_25:\n    /* \"#utility.yul\":1767:1776   */\n  0x00\n    /* \"#utility.yul\":1800:1853   */\n  tag_52\n    /* \"#utility.yul\":1818:1852   */\n  tag_53\n    /* \"#utility.yul\":1827:1851   */\n  tag_54\n    /* \"#utility.yul\":1845:1850   */\n  dup5\n    /* \"#utility.yul\":1827:1851   */\n  tag_23\n  jump\t// in\ntag_54:\n    /* \"#utility.yul\":1818:1852   */\n  tag_24\n  jump\t// in\ntag_53:\n    /* \"#utility.yul\":1800:1853   */\n  tag_23\n  jump\t// in\ntag_52:\n    /* \"#utility.yul\":1787:1853   */\n  swap1\n  pop\n    /* \"#utility.yul\":1717:1859   */\n  swap2\n  swap1\n  pop\n  jump\t// out\n    /* \"#utility.yul\":1865:1940   */\ntag_26:\n    /* \"#utility.yul\":1908:1911   */\n  0x00\n    /* \"#utility.yul\":1929:1934   */\n  dup2\n    /* \"#utility.yul\":1922:1934   */\n  swap1\n  pop\n    /* \"#utility.yul\":1865:1940   */\n  swap2\n  swap1\n  pop\n  jump\t// out\n    /* \"#utility.yul\":1946:2215   */\ntag_27:\n    /* \"#utility.yul\":2056:2095   */\n  tag_57\n    /* \"#utility.yul\":2087:2094   */\n  dup4\n    /* \"#utility.yul\":2056:2095   */\n  tag_25\n  jump\t// in\ntag_57:\n    /* \"#utility.yul\":2117:2208   */\n  tag_58\n    /* \"#utility.yul\":2166:2207   */\n  tag_59\n    /* \"#utility.yul\":2190:2206   */\n  dup3\n    /* \"#utility.yul\":2166:2207   */\n  tag_26\n  jump\t// in\ntag_59:\n    /* \"#utility.yul\":2158:2164   */\n  dup5\n    /* \"#utility.yul\":2151:2155   */\n  dup5\n    /* \"#utility.yul\":2145:2156   */\n  sload\n    /* \"#utility.yul\":2117:2208   */\n  tag_22\n  jump\t// in\ntag_58:\n    /* \"#utility.yul\":2111:2115   */\n  dup3\n    /* \"#utility.yul\":2104:2209   */\n  sstore\n    /* \"#utility.yul\":2022:2215   */\n  pop\n    /* \"#utility.yul\":1946:2215   */\n  pop\n  pop\n  pop\n  jump\t// out\n    /* \"#utility.yul\":2221:2294   */\ntag_28:\n    /* \"#utility.yul\":2266:2269   */\n  0x00\n    /* \"#utility.yul\":2221:2294   */\n  swap1\n  jump\t// out\n    /* \"#utility.yul\":2300:2489   */\ntag_29:\n    /* \"#utility.yul\":2377:2409   */\n  tag_62\n  tag_28\n  jump\t// in\ntag_62:\n    /* \"#utility.yul\":2418:2483   */\n  tag_63\n    /* \"#utility.yul\":2476:2482   */\n  dup2\n    /* \"#utility.yul\":2468:2474   */\n  dup5\n    /* \"#utility.yul\":2462:2466   */\n  dup5\n    /* \"#utility.yul\":2418:2483   */\n  tag_27\n  jump\t// in\ntag_63:\n    /* \"#utility.yul\":2353:2489   */\n  pop\n    /* \"#utility.yul\":2300:2489   */\n  pop\n  pop\n  jump\t// out\n    /* \"#utility.yul\":2495:2681   */\ntag_30:\n    /* \"#utility.yul\":2555:2675   */\ntag_65:\n    /* \"#utility.yul\":2572:2575   */\n  dup2\n    /* \"#utility.yul\":2565:2570   */\n  dup2\n    /* \"#utility.yul\":2562:2576   */\n  lt\n    /* \"#utility.yul\":2555:2675   */\n  iszero\n  tag_67\n  jumpi\n    /* \"#utility.yul\":2626:2665   */\n  tag_68\n    /* \"#utility.yul\":2663:2664   */\n  0x00\n    /* \"#utility.yul\":2656:2661   */\n  dup3\n    /* \"#utility.yul\":2626:2665   */\n  tag_29\n  jump\t// in\ntag_68:\n    /* \"#utility.yul\":2599:2600   */\n  0x01\n    /* \"#utility.yul\":2592:2597   */\n  dup2\n    /* \"#utility.yul\":2588:2601   */\n  add\n    /* \"#utility.yul\":2579:2601   */\n  swap1\n  pop\n    /* \"#utility.yul\":2555:2675   */\n  jump(tag_65)\ntag_67:\n    /* \"#utility.yul\":2495:2681   */\n  pop\n  pop\n  jump\t// out\n    /* \"#utility.yul\":2687:3230   */\ntag_31:\n    /* \"#utility.yul\":2788:2790   */\n  0x1f\n    /* \"#utility.yul\":2783:2786   */\n  dup3\n    /* \"#utility.yul\":2780:2791   */\n  gt\n    /* \"#utility.yul\":2777:3223   */\n  iszero\n  tag_70\n  jumpi\n    /* \"#utility.yul\":2822:2860   */\n  tag_71\n    /* \"#utility.yul\":2854:2859   */\n  dup2\n    /* \"#utility.yul\":2822:2860   */\n  tag_19\n  jump\t// in\ntag_71:\n    /* \"#utility.yul\":2906:2935   */\n  tag_72\n    /* \"#utility.yul\":2924:2934   */\n  dup5\n    /* \"#utility.yul\":2906:2935   */\n  tag_20\n  jump\t// in\ntag_72:\n    /* \"#utility.yul\":2896:2904   */\n  dup2\n    /* \"#utility.yul\":2892:2936   */\n  add\n    /* \"#utility.yul\":3089:3091   */\n  0x20\n    /* \"#utility.yul\":3077:3087   */\n  dup6\n    /* \"#utility.yul\":3074:3092   */\n  lt\n    /* \"#utility.yul\":3071:3120   */\n  iszero\n  tag_73\n  jumpi\n    /* \"#utility.yul\":3110:3118   */\n  dup2\n    /* \"#utility.yul\":3095:3118   */\n  swap1\n  pop\n    /* \"#utility.yul\":3071:3120   */\ntag_73:\n    /* \"#utility.yul\":3133:3213   */\n  tag_74\n    /* \"#utility.yul\":3189:3211   */\n  tag_75\n    /* \"#utility.yul\":3207:3210   */\n  dup6\n    /* \"#utility.yul\":3189:3211   */\n  tag_20\n  jump\t// in\ntag_75:\n    /* \"#utility.yul\":3179:3187   */\n  dup4\n    /* \"#utility.yul\":3175:3212   */\n  add\n    /* \"#utility.yul\":3162:3173   */\n  dup3\n    /* \"#utility.yul\":3133:3213   */\n  tag_30\n  jump\t// in\ntag_74:\n    /* \"#utility.yul\":2792:3223   */\n  pop\n  pop\n    /* \"#utility.yul\":2777:3223   */\ntag_70:\n    /* \"#utility.yul\":2687:3230   */\n  pop\n  pop\n  pop\n  jump\t// out\n    /* \"#utility.yul\":3236:3353   */\ntag_32:\n    /* \"#utility.yul\":3290:3298   */\n  0x00\n    /* \"#utility.yul\":3340:3345   */\n  dup3\n    /* \"#utility.yul\":3334:3338   */\n  dup3\n    /* \"#utility.yul\":3330:3346   */\n  shr\n    /* \"#utility.yul\":3309:3346   */\n  swap1\n  pop\n    /* \"#utility.yul\":3236:3353   */\n  swap3\n  swap2\n  pop\n  pop\n  jump\t// out\n    /* \"#utility.yul\":3359:3528   */\ntag_33:\n    /* \"#utility.yul\":3403:3409   */\n  0x00\n    /* \"#utility.yul\":3436:3487   */\n  tag_78\n    /* \"#utility.yul\":3484:3485   */\n  0x00\n    /* \"#utility.yul\":3480:3486   */\n  not\n    /* \"#utility.yul\":3472:3477   */\n  dup5\n    /* \"#utility.yul\":3469:3470   */\n  0x08\n    /* \"#utility.yul\":3465:3478   */\n  mul\n    /* \"#utility.yul\":3436:3487   */\n  tag_32\n  jump\t// in\ntag_78:\n    /* \"#utility.yul\":3432:3488   */\n  not\n    /* \"#utility.yul\":3517:3521   */\n  dup1\n    /* \"#utility.yul\":3511:3515   */\n  dup4\n    /* \"#utility.yul\":3507:3522   */\n  and\n    /* \"#utility.yul\":3497:3522   */\n  swap2\n  pop\n    /* \"#utility.yul\":3410:3528   */\n  pop\n    /* \"#utility.yul\":3359:3528   */\n  swap3\n  swap2\n  pop\n  pop\n  jump\t// out\n    /* \"#utility.yul\":3533:3828   */\ntag_34:\n    /* \"#utility.yul\":3609:3613   */\n  0x00\n    /* \"#utility.yul\":3755:3784   */\n  tag_80\n    /* \"#utility.yul\":3780:3783   */\n  dup4\n    /* \"#utility.yul\":3774:3778   */\n  dup4\n    /* \"#utility.yul\":3755:3784   */\n  tag_33\n  jump\t// in\ntag_80:\n    /* \"#utility.yul\":3747:3784   */\n  swap2\n  pop\n    /* \"#utility.yul\":3817:3820   */\n  dup3\n    /* \"#utility.yul\":3814:3815   */\n  0x02\n    /* \"#utility.yul\":3810:3821   */\n  mul\n    /* \"#utility.yul\":3804:3808   */\n  dup3\n    /* \"#utility.yul\":3801:3822   */\n  or\n    /* \"#utility.yul\":3793:3822   */\n  swap1\n  pop\n    /* \"#utility.yul\":3533:3828   */\n  swap3\n  swap2\n  pop\n  pop\n  jump\t// out\n    /* \"#utility.yul\":3833:5228   */\ntag_2:\n    /* \"#utility.yul\":3950:3987   */\n  tag_82\n    /* \"#utility.yul\":3983:3986   */\n  dup3\n    /* \"#utility.yul\":3950:3987   */\n  tag_15\n  jump\t// in\ntag_82:\n    /* \"#utility.yul\":4052:4070   */\n  0xffffffffffffffff\n    /* \"#utility.yul\":4044:4050   */\n  dup2\n    /* \"#utility.yul\":4041:4071   */\n  gt\n    /* \"#utility.yul\":4038:4094   */\n  iszero\n  tag_83\n  jumpi\n    /* \"#utility.yul\":4074:4092   */\n  tag_84\n  tag_16\n  jump\t// in\ntag_84:\n    /* \"#utility.yul\":4038:4094   */\ntag_83:\n    /* \"#utility.yul\":4118:4156   */\n  tag_85\n    /* \"#utility.yul\":4150:4154   */\n  dup3\n    /* \"#utility.yul\":4144:4155   */\n  sload\n    /* \"#utility.yul\":4118:4156   */\n  tag_18\n  jump\t// in\ntag_85:\n    /* \"#utility.yul\":4203:4270   */\n  tag_86\n    /* \"#utility.yul\":4263:4269   */\n  dup3\n    /* \"#utility.yul\":4255:4261   */\n  dup3\n    /* \"#utility.yul\":4249:4253   */\n  dup6\n    /* \"#utility.yul\":4203:4270   */\n  tag_31\n  jump\t// in\ntag_86:\n    /* \"#utility.yul\":4297:4298   */\n  0x00\n    /* \"#utility.yul\":4321:4325   */\n  0x20\n    /* \"#utility.yul\":4308:4325   */\n  swap1\n  pop\n    /* \"#utility.yul\":4353:4355   */\n  0x1f\n    /* \"#utility.yul\":4345:4351   */\n  dup4\n    /* \"#utility.yul\":4342:4356   */\n  gt\n    /* \"#utility.yul\":4370:4371   */\n  0x01\n    /* \"#utility.yul\":4365:4983   */\n  dup2\n  eq\n  tag_88\n  jumpi\n    /* \"#utility.yul\":5027:5028   */\n  0x00\n    /* \"#utility.yul\":5044:5050   */\n  dup5\n    /* \"#utility.yul\":5041:5118   */\n  iszero\n  tag_89\n  jumpi\n    /* \"#utility.yul\":5093:5102   */\n  dup3\n    /* \"#utility.yul\":5088:5091   */\n  dup8\n    /* \"#utility.yul\":5084:5103   */\n  add\n    /* \"#utility.yul\":5078:5104   */\n  mload\n    /* \"#utility.yul\":5069:5104   */\n  swap1\n  pop\n    /* \"#utility.yul\":5041:5118   */\ntag_89:\n    /* \"#utility.yul\":5144:5211   */\n  tag_90\n    /* \"#utility.yul\":5204:5210   */\n  dup6\n    /* \"#utility.yul\":5197:5202   */\n  dup3\n    /* \"#utility.yul\":5144:5211   */\n  tag_34\n  jump\t// in\ntag_90:\n    /* \"#utility.yul\":5138:5142   */\n  dup7\n    /* \"#utility.yul\":5131:5212   */\n  sstore\n    /* \"#utility.yul\":5000:5222   */\n  pop\n    /* \"#utility.yul\":4335:5222   */\n  jump(tag_87)\n    /* \"#utility.yul\":4365:4983   */\ntag_88:\n    /* \"#utility.yul\":4417:4421   */\n  0x1f\n    /* \"#utility.yul\":4413:4422   */\n  not\n    /* \"#utility.yul\":4405:4411   */\n  dup5\n    /* \"#utility.yul\":4401:4423   */\n  and\n    /* \"#utility.yul\":4451:4488   */\n  tag_91\n    /* \"#utility.yul\":4483:4487   */\n  dup7\n    /* \"#utility.yul\":4451:4488   */\n  tag_19\n  jump\t// in\ntag_91:\n    /* \"#utility.yul\":4510:4511   */\n  0x00\n    /* \"#utility.yul\":4524:4732   */\ntag_92:\n    /* \"#utility.yul\":4538:4545   */\n  dup3\n    /* \"#utility.yul\":4535:4536   */\n  dup2\n    /* \"#utility.yul\":4532:4546   */\n  lt\n    /* \"#utility.yul\":4524:4732   */\n  iszero\n  tag_94\n  jumpi\n    /* \"#utility.yul\":4617:4626   */\n  dup5\n    /* \"#utility.yul\":4612:4615   */\n  dup10\n    /* \"#utility.yul\":4608:4627   */\n  add\n    /* \"#utility.yul\":4602:4628   */\n  mload\n    /* \"#utility.yul\":4594:4600   */\n  dup3\n    /* \"#utility.yul\":4587:4629   */\n  sstore\n    /* \"#utility.yul\":4668:4669   */\n  0x01\n    /* \"#utility.yul\":4660:4666   */\n  dup3\n    /* \"#utility.yul\":4656:4670   */\n  add\n    /* \"#utility.yul\":4646:4670   */\n  swap2\n  pop\n    /* \"#utility.yul\":4715:4717   */\n  0x20\n    /* \"#utility.yul\":4704:4713   */\n  dup6\n    /* \"#utility.yul\":4700:4718   */\n  add\n    /* \"#utility.yul\":4687:4718   */\n  swap5\n  pop\n    /* \"#utility.yul\":4561:4565   */\n  0x20\n    /* \"#utility.yul\":4558:4559   */\n  dup2\n    /* \"#utility.yul\":4554:4566   */\n  add\n    /* \"#utility.yul\":4549:4566   */\n  swap1\n  pop\n    /* \"#utility.yul\":4524:4732   */\n  jump(tag_92)\ntag_94:\n    /* \"#utility.yul\":4760:4766   */\n  dup7\n    /* \"#utility.yul\":4751:4758   */\n  dup4\n    /* \"#utility.yul\":4748:4767   */\n  lt\n    /* \"#utility.yul\":4745:4924   */\n  iszero\n  tag_95\n  jumpi\n    /* \"#utility.yul\":4818:4827   */\n  dup5\n    /* \"#utility.yul\":4813:4816   */\n  dup10\n    /* \"#utility.yul\":4809:4828   */\n  add\n    /* \"#utility.yul\":4803:4829   */\n  mload\n    /* \"#utility.yul\":4861:4909   */\n  tag_96\n    /* \"#utility.yul\":4903:4907   */\n  0x1f\n    /* \"#utility.yul\":4895:4901   */\n  dup10\n    /* \"#utility.yul\":4891:4908   */\n  and\n    /* \"#utility.yul\":4880:4889   */\n  dup3\n    /* \"#utility.yul\":4861:4909   */\n  tag_33\n  jump\t// in\ntag_96:\n    /* \"#utility.yul\":4853:4859   */\n  dup4\n    /* \"#utility.yul\":4846:4910   */\n  sstore\n    /* \"#utility.yul\":4768:4924   */\n  pop\n    /* \"#utility.yul\":4745:4924   */\ntag_95:\n    /* \"#utility.yul\":4970:4971   */\n  0x01\n    /* \"#utility.yul\":4966:4967   */\n  0x02\n    /* \"#utility.yul\":4958:4964   */\n  dup9\n    /* \"#utility.yul\":4954:4968   */\n  mul\n    /* \"#utility.yul\":4950:4972   */\n  add\n    /* \"#utility.yul\":4944:4948   */\n  dup9\n    /* \"#utility.yul\":4937:4973   */\n  sstore\n    /* \"#utility.yul\":4372:4983   */\n  pop\n  pop\n  pop\n    /* \"#utility.yul\":4335:5222   */\ntag_87:\n  pop\n    /* \"#utility.yul\":3925:5228   */\n  pop\n  pop\n  pop\n    /* \"#utility.yul\":3833:5228   */\n  pop\n  pop\n  jump\t// out\n    /* \"contracts/estructuras_datos.sol\":58:1458  contract dataStructures {... */\ntag_7:\n  dataSize(sub_0)\n  dup1\n  dataOffset(sub_0)\n  0x00\n  codecopy\n  0x00\n  return\nstop\n\nsub_0: assembly {\n        /* \"contracts/estructuras_datos.sol\":58:1458  contract dataStructures {... */\n      mstore(0x40, 0x80)\n      callvalue\n      dup1\n      iszero\n      tag_1\n      jumpi\n      0x00\n      dup1\n      revert\n    tag_1:\n      pop\n      jumpi(tag_2, lt(calldatasize, 0x04))\n      shr(0xe0, calldataload(0x00))\n      dup1\n      0xa440d9c2\n      gt\n      tag_11\n      jumpi\n      dup1\n      0xa440d9c2\n      eq\n      tag_7\n      jumpi\n      dup1\n      0xa5dcab5e\n      eq\n      tag_8\n      jumpi\n      dup1\n      0xec084203\n      eq\n      tag_9\n      jumpi\n      dup1\n      0xfecb2c16\n      eq\n      tag_10\n      jumpi\n      jump(tag_2)\n    tag_11:\n      dup1\n      0x20716f88\n      eq\n      tag_3\n      jumpi\n      dup1\n      0x3a3a4ff1\n      eq\n      tag_4\n      jumpi\n      dup1\n      0x7a088a2e\n      eq\n      tag_5\n      jumpi\n      dup1\n      0x8b3a12bb\n      eq\n      tag_6\n      jumpi\n    tag_2:\n      0x00\n      dup1\n      revert\n        /* \"contracts/estructuras_datos.sol\":702:755  mapping(string => uint256 []) public string_listUnits */\n    tag_3:\n      tag_12\n      0x04\n      dup1\n      calldatasize\n      sub\n      dup2\n      add\n      swap1\n      tag_13\n      swap2\n      swap1\n      tag_14\n      jump\t// in\n    tag_13:\n      tag_15\n      jump\t// in\n    tag_12:\n      mload(0x40)\n      tag_16\n      swap2\n      swap1\n      tag_17\n      jump\t// in\n    tag_16:\n      mload(0x40)\n      dup1\n      swap2\n      sub\n      swap1\n      return\n        /* \"contracts/estructuras_datos.sol\":585:625  Custumer [] public dynamic_list_Custumer */\n    tag_4:\n      tag_18\n      0x04\n      dup1\n      calldatasize\n      sub\n      dup2\n      add\n      swap1\n      tag_19\n      swap2\n      swap1\n      tag_20\n      jump\t// in\n    tag_19:\n      tag_21\n      jump\t// in\n    tag_18:\n      mload(0x40)\n      tag_22\n      swap4\n      swap3\n      swap2\n      swap1\n      tag_23\n      jump\t// in\n    tag_22:\n      mload(0x40)\n      dup1\n      swap2\n      sub\n      swap1\n      return\n        /* \"contracts/estructuras_datos.sol\":649:696  mapping(address => uint256) public address_uint */\n    tag_5:\n      tag_24\n      0x04\n      dup1\n      calldatasize\n      sub\n      dup2\n      add\n      swap1\n      tag_25\n      swap2\n      swap1\n      tag_26\n      jump\t// in\n    tag_25:\n      tag_27\n      jump\t// in\n    tag_24:\n      mload(0x40)\n      tag_28\n      swap2\n      swap1\n      tag_17\n      jump\t// in\n    tag_28:\n      mload(0x40)\n      dup1\n      swap2\n      sub\n      swap1\n      return\n        /* \"contracts/estructuras_datos.sol\":831:953  function insertInMappings(string memory _name, uint _number) public {... */\n    tag_6:\n      tag_29\n      0x04\n      dup1\n      calldatasize\n      sub\n      dup2\n      add\n      swap1\n      tag_30\n      swap2\n      swap1\n      tag_14\n      jump\t// in\n    tag_30:\n      tag_31\n      jump\t// in\n    tag_29:\n      stop\n        /* \"contracts/estructuras_datos.sol\":1138:1452  function arrayModifications (uint256 _id, string memory _memory_name, string memory _email ) public {... */\n    tag_7:\n      tag_32\n      0x04\n      dup1\n      calldatasize\n      sub\n      dup2\n      add\n      swap1\n      tag_33\n      swap2\n      swap1\n      tag_34\n      jump\t// in\n    tag_33:\n      tag_35\n      jump\t// in\n    tag_32:\n      stop\n        /* \"contracts/estructuras_datos.sol\":967:1128  function addClient(uint _id, string memory _name, string memory _email) public {... */\n    tag_8:\n      tag_36\n      0x04\n      dup1\n      calldatasize\n      sub\n      dup2\n      add\n      swap1\n      tag_37\n      swap2\n      swap1\n      tag_34\n      jump\t// in\n    tag_37:\n      tag_38\n      jump\t// in\n    tag_36:\n      stop\n        /* \"contracts/estructuras_datos.sol\":761:819  mapping(address => Custumer) public address_dataStructures */\n    tag_9:\n      tag_39\n      0x04\n      dup1\n      calldatasize\n      sub\n      dup2\n      add\n      swap1\n      tag_40\n      swap2\n      swap1\n      tag_26\n      jump\t// in\n    tag_40:\n      tag_41\n      jump\t// in\n    tag_39:\n      mload(0x40)\n      tag_42\n      swap4\n      swap3\n      swap2\n      swap1\n      tag_23\n      jump\t// in\n    tag_42:\n      mload(0x40)\n      dup1\n      swap2\n      sub\n      swap1\n      return\n        /* \"contracts/estructuras_datos.sol\":382:435  uint256 [5] public fixed_list_uints = [1, 3, 4, 5, 6] */\n    tag_10:\n      tag_43\n      0x04\n      dup1\n      calldatasize\n      sub\n      dup2\n      add\n      swap1\n      tag_44\n      swap2\n      swap1\n      tag_20\n      jump\t// in\n    tag_44:\n      tag_45\n      jump\t// in\n    tag_43:\n      mload(0x40)\n      tag_46\n      swap2\n      swap1\n      tag_17\n      jump\t// in\n    tag_46:\n      mload(0x40)\n      dup1\n      swap2\n      sub\n      swap1\n      return\n        /* \"contracts/estructuras_datos.sol\":702:755  mapping(string => uint256 []) public string_listUnits */\n    tag_15:\n      0x0b\n      dup3\n      dup1\n      mload\n      0x20\n      dup2\n      add\n      dup3\n      add\n      dup1\n      mload\n      dup5\n      dup3\n      mstore\n      0x20\n      dup4\n      add\n      0x20\n      dup6\n      add\n      keccak256\n      dup2\n      dup4\n      mstore\n      dup1\n      swap6\n      pop\n      pop\n      pop\n      pop\n      pop\n      pop\n      dup2\n      dup2\n      sload\n      dup2\n      lt\n      tag_47\n      jumpi\n      0x00\n      dup1\n      revert\n    tag_47:\n      swap1\n      0x00\n      mstore\n      keccak256(0x00, 0x20)\n      add\n      0x00\n      swap2\n      pop\n      swap2\n      pop\n      pop\n      sload\n      dup2\n      jump\t// out\n        /* \"contracts/estructuras_datos.sol\":585:625  Custumer [] public dynamic_list_Custumer */\n    tag_21:\n      0x09\n      dup2\n      dup2\n      sload\n      dup2\n      lt\n      tag_49\n      jumpi\n      0x00\n      dup1\n      revert\n    tag_49:\n      swap1\n      0x00\n      mstore\n      keccak256(0x00, 0x20)\n      swap1\n      0x03\n      mul\n      add\n      0x00\n      swap2\n      pop\n      swap1\n      pop\n      dup1\n      0x00\n      add\n      sload\n      swap1\n      dup1\n      0x01\n      add\n      dup1\n      sload\n      tag_51\n      swap1\n      tag_52\n      jump\t// in\n    tag_51:\n      dup1\n      0x1f\n      add\n      0x20\n      dup1\n      swap2\n      div\n      mul\n      0x20\n      add\n      mload(0x40)\n      swap1\n      dup2\n      add\n      0x40\n      mstore\n      dup1\n      swap3\n      swap2\n      swap1\n      dup2\n      dup2\n      mstore\n      0x20\n      add\n      dup3\n      dup1\n      sload\n      tag_53\n      swap1\n      tag_52\n      jump\t// in\n    tag_53:\n      dup1\n      iszero\n      tag_54\n      jumpi\n      dup1\n      0x1f\n      lt\n      tag_55\n      jumpi\n      0x0100\n      dup1\n      dup4\n      sload\n      div\n      mul\n      dup4\n      mstore\n      swap2\n      0x20\n      add\n      swap2\n      jump(tag_54)\n    tag_55:\n      dup3\n      add\n      swap2\n      swap1\n      0x00\n      mstore\n      keccak256(0x00, 0x20)\n      swap1\n    tag_56:\n      dup2\n      sload\n      dup2\n      mstore\n      swap1\n      0x01\n      add\n      swap1\n      0x20\n      add\n      dup1\n      dup4\n      gt\n      tag_56\n      jumpi\n      dup3\n      swap1\n      sub\n      0x1f\n      and\n      dup3\n      add\n      swap2\n    tag_54:\n      pop\n      pop\n      pop\n      pop\n      pop\n      swap1\n      dup1\n      0x02\n      add\n      dup1\n      sload\n      tag_57\n      swap1\n      tag_52\n      jump\t// in\n    tag_57:\n      dup1\n      0x1f\n      add\n      0x20\n      dup1\n      swap2\n      div\n      mul\n      0x20\n      add\n      mload(0x40)\n      swap1\n      dup2\n      add\n      0x40\n      mstore\n      dup1\n      swap3\n      swap2\n      swap1\n      dup2\n      dup2\n      mstore\n      0x20\n      add\n      dup3\n      dup1\n      sload\n      tag_58\n      swap1\n      tag_52\n      jump\t// in\n    tag_58:\n      dup1\n      iszero\n      tag_59\n      jumpi\n      dup1\n      0x1f\n      lt\n      tag_60\n      jumpi\n      0x0100\n      dup1\n      dup4\n      sload\n      div\n      mul\n      dup4\n      mstore\n      swap2\n      0x20\n      add\n      swap2\n      jump(tag_59)\n    tag_60:\n      dup3\n      add\n      swap2\n      swap1\n      0x00\n      mstore\n      keccak256(0x00, 0x20)\n      swap1\n    tag_61:\n      dup2\n      sload\n      dup2\n      mstore\n      swap1\n      0x01\n      add\n      swap1\n      0x20\n      add\n      dup1\n      dup4\n      gt\n      tag_61\n      jumpi\n      dup3\n      swap1\n      sub\n      0x1f\n      and\n      dup3\n      add\n      swap2\n    tag_59:\n      pop\n      pop\n      pop\n      pop\n      pop\n      swap1\n      pop\n      dup4\n      jump\t// out\n        /* \"contracts/estructuras_datos.sol\":649:696  mapping(address => uint256) public address_uint */\n    tag_27:\n      mstore(0x20, 0x0a)\n      dup1\n      0x00\n      mstore\n      keccak256(0x00, 0x40)\n      0x00\n      swap2\n      pop\n      swap1\n      pop\n      sload\n      dup2\n      jump\t// out\n        /* \"contracts/estructuras_datos.sol\":831:953  function insertInMappings(string memory _name, uint _number) public {... */\n    tag_31:\n        /* \"contracts/estructuras_datos.sol\":909:925  string_listUnits */\n      0x0b\n        /* \"contracts/estructuras_datos.sol\":926:931  _name */\n      dup3\n        /* \"contracts/estructuras_datos.sol\":909:932  string_listUnits[_name] */\n      mload(0x40)\n      tag_63\n      swap2\n      swap1\n      tag_64\n      jump\t// in\n    tag_63:\n      swap1\n      dup2\n      mstore\n      0x20\n      add\n      mload(0x40)\n      dup1\n      swap2\n      sub\n      swap1\n      keccak256\n        /* \"contracts/estructuras_datos.sol\":938:945  _number */\n      dup2\n        /* \"contracts/estructuras_datos.sol\":909:946  string_listUnits[_name].push(_number) */\n      swap1\n      dup1\n      0x01\n      dup2\n      sload\n      add\n      dup1\n      dup3\n      sstore\n      dup1\n      swap2\n      pop\n      pop\n      0x01\n      swap1\n      sub\n      swap1\n      0x00\n      mstore\n      keccak256(0x00, 0x20)\n      add\n      0x00\n      swap1\n      swap2\n      swap1\n      swap2\n      swap1\n      swap2\n      pop\n      sstore\n        /* \"contracts/estructuras_datos.sol\":831:953  function insertInMappings(string memory _name, uint _number) public {... */\n      pop\n      pop\n      jump\t// out\n        /* \"contracts/estructuras_datos.sol\":1138:1452  function arrayModifications (uint256 _id, string memory _memory_name, string memory _email ) public {... */\n    tag_35:\n        /* \"contracts/estructuras_datos.sol\":1325:1355  Custumer memory randomCustomer */\n      0x00\n        /* \"contracts/estructuras_datos.sol\":1358:1393  Custumer(_id, _memory_name, _email) */\n      mload(0x40)\n      dup1\n      0x60\n      add\n      0x40\n      mstore\n      dup1\n        /* \"contracts/estructuras_datos.sol\":1367:1370  _id */\n      dup6\n        /* \"contracts/estructuras_datos.sol\":1358:1393  Custumer(_id, _memory_name, _email) */\n      dup2\n      mstore\n      0x20\n      add\n        /* \"contracts/estructuras_datos.sol\":1372:1384  _memory_name */\n      dup5\n        /* \"contracts/estructuras_datos.sol\":1358:1393  Custumer(_id, _memory_name, _email) */\n      dup2\n      mstore\n      0x20\n      add\n        /* \"contracts/estructuras_datos.sol\":1386:1392  _email */\n      dup4\n        /* \"contracts/estructuras_datos.sol\":1358:1393  Custumer(_id, _memory_name, _email) */\n      dup2\n      mstore\n      pop\n        /* \"contracts/estructuras_datos.sol\":1325:1393  Custumer memory randomCustomer = Custumer(_id, _memory_name, _email) */\n      swap1\n      pop\n        /* \"contracts/estructuras_datos.sol\":1403:1424  dynamic_list_Custumer */\n      0x09\n        /* \"contracts/estructuras_datos.sol\":1430:1444  randomCustomer */\n      dup2\n        /* \"contracts/estructuras_datos.sol\":1403:1445  dynamic_list_Custumer.push(randomCustomer) */\n      swap1\n      dup1\n      0x01\n      dup2\n      sload\n      add\n      dup1\n      dup3\n      sstore\n      dup1\n      swap2\n      pop\n      pop\n      0x01\n      swap1\n      sub\n      swap1\n      0x00\n      mstore\n      keccak256(0x00, 0x20)\n      swap1\n      0x03\n      mul\n      add\n      0x00\n      swap1\n      swap2\n      swap1\n      swap2\n      swap1\n      swap2\n      pop\n      0x00\n      dup3\n      add\n      mload\n      dup2\n      0x00\n      add\n      sstore\n      0x20\n      dup3\n      add\n      mload\n      dup2\n      0x01\n      add\n      swap1\n      dup2\n      tag_68\n      swap2\n      swap1\n      tag_69\n      jump\t// in\n    tag_68:\n      pop\n      0x40\n      dup3\n      add\n      mload\n      dup2\n      0x02\n      add\n      swap1\n      dup2\n      tag_70\n      swap2\n      swap1\n      tag_69\n      jump\t// in\n    tag_70:\n      pop\n      pop\n      pop\n        /* \"contracts/estructuras_datos.sol\":1238:1452  {... */\n      pop\n        /* \"contracts/estructuras_datos.sol\":1138:1452  function arrayModifications (uint256 _id, string memory _memory_name, string memory _email ) public {... */\n      pop\n      pop\n      pop\n      jump\t// out\n        /* \"contracts/estructuras_datos.sol\":967:1128  function addClient(uint _id, string memory _name, string memory _email) public {... */\n    tag_38:\n        /* \"contracts/estructuras_datos.sol\":1093:1121  Custumer(_id, _name, _email) */\n      mload(0x40)\n      dup1\n      0x60\n      add\n      0x40\n      mstore\n      dup1\n        /* \"contracts/estructuras_datos.sol\":1102:1105  _id */\n      dup5\n        /* \"contracts/estructuras_datos.sol\":1093:1121  Custumer(_id, _name, _email) */\n      dup2\n      mstore\n      0x20\n      add\n        /* \"contracts/estructuras_datos.sol\":1107:1112  _name */\n      dup4\n        /* \"contracts/estructuras_datos.sol\":1093:1121  Custumer(_id, _name, _email) */\n      dup2\n      mstore\n      0x20\n      add\n        /* \"contracts/estructuras_datos.sol\":1114:1120  _email */\n      dup3\n        /* \"contracts/estructuras_datos.sol\":1093:1121  Custumer(_id, _name, _email) */\n      dup2\n      mstore\n      pop\n        /* \"contracts/estructuras_datos.sol\":1056:1078  address_dataStructures */\n      0x0c\n        /* \"contracts/estructuras_datos.sol\":1056:1090  address_dataStructures[msg.sender] */\n      0x00\n        /* \"contracts/estructuras_datos.sol\":1079:1089  msg.sender */\n      caller\n        /* \"contracts/estructuras_datos.sol\":1056:1090  address_dataStructures[msg.sender] */\n      0xffffffffffffffffffffffffffffffffffffffff\n      and\n      0xffffffffffffffffffffffffffffffffffffffff\n      and\n      dup2\n      mstore\n      0x20\n      add\n      swap1\n      dup2\n      mstore\n      0x20\n      add\n      0x00\n      keccak256\n        /* \"contracts/estructuras_datos.sol\":1056:1121  address_dataStructures[msg.sender] = Custumer(_id, _name, _email) */\n      0x00\n      dup3\n      add\n      mload\n      dup2\n      0x00\n      add\n      sstore\n      0x20\n      dup3\n      add\n      mload\n      dup2\n      0x01\n      add\n      swap1\n      dup2\n      tag_72\n      swap2\n      swap1\n      tag_69\n      jump\t// in\n    tag_72:\n      pop\n      0x40\n      dup3\n      add\n      mload\n      dup2\n      0x02\n      add\n      swap1\n      dup2\n      tag_73\n      swap2\n      swap1\n      tag_69\n      jump\t// in\n    tag_73:\n      pop\n      swap1\n      pop\n      pop\n        /* \"contracts/estructuras_datos.sol\":967:1128  function addClient(uint _id, string memory _name, string memory _email) public {... */\n      pop\n      pop\n      pop\n      jump\t// out\n        /* \"contracts/estructuras_datos.sol\":761:819  mapping(address => Custumer) public address_dataStructures */\n    tag_41:\n      mstore(0x20, 0x0c)\n      dup1\n      0x00\n      mstore\n      keccak256(0x00, 0x40)\n      0x00\n      swap2\n      pop\n      swap1\n      pop\n      dup1\n      0x00\n      add\n      sload\n      swap1\n      dup1\n      0x01\n      add\n      dup1\n      sload\n      tag_74\n      swap1\n      tag_52\n      jump\t// in\n    tag_74:\n      dup1\n      0x1f\n      add\n      0x20\n      dup1\n      swap2\n      div\n      mul\n      0x20\n      add\n      mload(0x40)\n      swap1\n      dup2\n      add\n      0x40\n      mstore\n      dup1\n      swap3\n      swap2\n      swap1\n      dup2\n      dup2\n      mstore\n      0x20\n      add\n      dup3\n      dup1\n      sload\n      tag_75\n      swap1\n      tag_52\n      jump\t// in\n    tag_75:\n      dup1\n      iszero\n      tag_76\n      jumpi\n      dup1\n      0x1f\n      lt\n      tag_77\n      jumpi\n      0x0100\n      dup1\n      dup4\n      sload\n      div\n      mul\n      dup4\n      mstore\n      swap2\n      0x20\n      add\n      swap2\n      jump(tag_76)\n    tag_77:\n      dup3\n      add\n      swap2\n      swap1\n      0x00\n      mstore\n      keccak256(0x00, 0x20)\n      swap1\n    tag_78:\n      dup2\n      sload\n      dup2\n      mstore\n      swap1\n      0x01\n      add\n      swap1\n      0x20\n      add\n      dup1\n      dup4\n      gt\n      tag_78\n      jumpi\n      dup3\n      swap1\n      sub\n      0x1f\n      and\n      dup3\n      add\n      swap2\n    tag_76:\n      pop\n      pop\n      pop\n      pop\n      pop\n      swap1\n      dup1\n      0x02\n      add\n      dup1\n      sload\n      tag_79\n      swap1\n      tag_52\n      jump\t// in\n    tag_79:\n      dup1\n      0x1f\n      add\n      0x20\n      dup1\n      swap2\n      div\n      mul\n      0x20\n      add\n      mload(0x40)\n      swap1\n      dup2\n      add\n      0x40\n      mstore\n      dup1\n      swap3\n      swap2\n      swap1\n      dup2\n      dup2\n      mstore\n      0x20\n      add\n      dup3\n      dup1\n      sload\n      tag_80\n      swap1\n      tag_52\n      jump\t// in\n    tag_80:\n      dup1\n      iszero\n      tag_81\n      jumpi\n      dup1\n      0x1f\n      lt\n      tag_82\n      jumpi\n      0x0100\n      dup1\n      dup4\n      sload\n      div\n      mul\n      dup4\n      mstore\n      swap2\n      0x20\n      add\n      swap2\n      jump(tag_81)\n    tag_82:\n      dup3\n      add\n      swap2\n      swap1\n      0x00\n      mstore\n      keccak256(0x00, 0x20)\n      swap1\n    tag_83:\n      dup2\n      sload\n      dup2\n      mstore\n      swap1\n      0x01\n      add\n      swap1\n      0x20\n      add\n      dup1\n      dup4\n      gt\n      tag_83\n      jumpi\n      dup3\n      swap1\n      sub\n      0x1f\n      and\n      dup3\n      add\n      swap2\n    tag_81:\n      pop\n      pop\n      pop\n      pop\n      pop\n      swap1\n      pop\n      dup4\n      jump\t// out\n        /* \"contracts/estructuras_datos.sol\":382:435  uint256 [5] public fixed_list_uints = [1, 3, 4, 5, 6] */\n    tag_45:\n      0x03\n      dup2\n      0x05\n      dup2\n      lt\n      tag_84\n      jumpi\n      0x00\n      dup1\n      revert\n    tag_84:\n      add\n      0x00\n      swap2\n      pop\n      swap1\n      pop\n      sload\n      dup2\n      jump\t// out\n        /* \"#utility.yul\":7:82   */\n    tag_86:\n        /* \"#utility.yul\":40:46   */\n      0x00\n        /* \"#utility.yul\":73:75   */\n      0x40\n        /* \"#utility.yul\":67:76   */\n      mload\n        /* \"#utility.yul\":57:76   */\n      swap1\n      pop\n        /* \"#utility.yul\":7:82   */\n      swap1\n      jump\t// out\n        /* \"#utility.yul\":88:205   */\n    tag_87:\n        /* \"#utility.yul\":197:198   */\n      0x00\n        /* \"#utility.yul\":194:195   */\n      dup1\n        /* \"#utility.yul\":187:199   */\n      revert\n        /* \"#utility.yul\":211:328   */\n    tag_88:\n        /* \"#utility.yul\":320:321   */\n      0x00\n        /* \"#utility.yul\":317:318   */\n      dup1\n        /* \"#utility.yul\":310:322   */\n      revert\n        /* \"#utility.yul\":334:451   */\n    tag_89:\n        /* \"#utility.yul\":443:444   */\n      0x00\n        /* \"#utility.yul\":440:441   */\n      dup1\n        /* \"#utility.yul\":433:445   */\n      revert\n        /* \"#utility.yul\":457:574   */\n    tag_90:\n        /* \"#utility.yul\":566:567   */\n      0x00\n        /* \"#utility.yul\":563:564   */\n      dup1\n        /* \"#utility.yul\":556:568   */\n      revert\n        /* \"#utility.yul\":580:682   */\n    tag_91:\n        /* \"#utility.yul\":621:627   */\n      0x00\n        /* \"#utility.yul\":672:674   */\n      0x1f\n        /* \"#utility.yul\":668:675   */\n      not\n        /* \"#utility.yul\":663:665   */\n      0x1f\n        /* \"#utility.yul\":656:661   */\n      dup4\n        /* \"#utility.yul\":652:666   */\n      add\n        /* \"#utility.yul\":648:676   */\n      and\n        /* \"#utility.yul\":638:676   */\n      swap1\n      pop\n        /* \"#utility.yul\":580:682   */\n      swap2\n      swap1\n      pop\n      jump\t// out\n        /* \"#utility.yul\":688:868   */\n    tag_92:\n        /* \"#utility.yul\":736:813   */\n      0x4e487b7100000000000000000000000000000000000000000000000000000000\n        /* \"#utility.yul\":733:734   */\n      0x00\n        /* \"#utility.yul\":726:814   */\n      mstore\n        /* \"#utility.yul\":833:837   */\n      0x41\n        /* \"#utility.yul\":830:831   */\n      0x04\n        /* \"#utility.yul\":823:838   */\n      mstore\n        /* \"#utility.yul\":857:861   */\n      0x24\n        /* \"#utility.yul\":854:855   */\n      0x00\n        /* \"#utility.yul\":847:862   */\n      revert\n        /* \"#utility.yul\":874:1155   */\n    tag_93:\n        /* \"#utility.yul\":957:984   */\n      tag_138\n        /* \"#utility.yul\":979:983   */\n      dup3\n        /* \"#utility.yul\":957:984   */\n      tag_91\n      jump\t// in\n    tag_138:\n        /* \"#utility.yul\":949:955   */\n      dup2\n        /* \"#utility.yul\":945:985   */\n      add\n        /* \"#utility.yul\":1087:1093   */\n      dup2\n        /* \"#utility.yul\":1075:1085   */\n      dup2\n        /* \"#utility.yul\":1072:1094   */\n      lt\n        /* \"#utility.yul\":1051:1069   */\n      0xffffffffffffffff\n        /* \"#utility.yul\":1039:1049   */\n      dup3\n        /* \"#utility.yul\":1036:1070   */\n      gt\n        /* \"#utility.yul\":1033:1095   */\n      or\n        /* \"#utility.yul\":1030:1118   */\n      iszero\n      tag_139\n      jumpi\n        /* \"#utility.yul\":1098:1116   */\n      tag_140\n      tag_92\n      jump\t// in\n    tag_140:\n        /* \"#utility.yul\":1030:1118   */\n    tag_139:\n        /* \"#utility.yul\":1138:1148   */\n      dup1\n        /* \"#utility.yul\":1134:1136   */\n      0x40\n        /* \"#utility.yul\":1127:1149   */\n      mstore\n        /* \"#utility.yul\":917:1155   */\n      pop\n        /* \"#utility.yul\":874:1155   */\n      pop\n      pop\n      jump\t// out\n        /* \"#utility.yul\":1161:1290   */\n    tag_94:\n        /* \"#utility.yul\":1195:1201   */\n      0x00\n        /* \"#utility.yul\":1222:1242   */\n      tag_142\n      tag_86\n      jump\t// in\n    tag_142:\n        /* \"#utility.yul\":1212:1242   */\n      swap1\n      pop\n        /* \"#utility.yul\":1251:1284   */\n      tag_143\n        /* \"#utility.yul\":1279:1283   */\n      dup3\n        /* \"#utility.yul\":1271:1277   */\n      dup3\n        /* \"#utility.yul\":1251:1284   */\n      tag_93\n      jump\t// in\n    tag_143:\n        /* \"#utility.yul\":1161:1290   */\n      swap2\n      swap1\n      pop\n      jump\t// out\n        /* \"#utility.yul\":1296:1604   */\n    tag_95:\n        /* \"#utility.yul\":1358:1362   */\n      0x00\n        /* \"#utility.yul\":1448:1466   */\n      0xffffffffffffffff\n        /* \"#utility.yul\":1440:1446   */\n      dup3\n        /* \"#utility.yul\":1437:1467   */\n      gt\n        /* \"#utility.yul\":1434:1490   */\n      iszero\n      tag_145\n      jumpi\n        /* \"#utility.yul\":1470:1488   */\n      tag_146\n      tag_92\n      jump\t// in\n    tag_146:\n        /* \"#utility.yul\":1434:1490   */\n    tag_145:\n        /* \"#utility.yul\":1508:1537   */\n      tag_147\n        /* \"#utility.yul\":1530:1536   */\n      dup3\n        /* \"#utility.yul\":1508:1537   */\n      tag_91\n      jump\t// in\n    tag_147:\n        /* \"#utility.yul\":1500:1537   */\n      swap1\n      pop\n        /* \"#utility.yul\":1592:1596   */\n      0x20\n        /* \"#utility.yul\":1586:1590   */\n      dup2\n        /* \"#utility.yul\":1582:1597   */\n      add\n        /* \"#utility.yul\":1574:1597   */\n      swap1\n      pop\n        /* \"#utility.yul\":1296:1604   */\n      swap2\n      swap1\n      pop\n      jump\t// out\n        /* \"#utility.yul\":1610:1758   */\n    tag_96:\n        /* \"#utility.yul\":1708:1714   */\n      dup3\n        /* \"#utility.yul\":1703:1706   */\n      dup2\n        /* \"#utility.yul\":1698:1701   */\n      dup4\n        /* \"#utility.yul\":1685:1715   */\n      calldatacopy\n        /* \"#utility.yul\":1749:1750   */\n      0x00\n        /* \"#utility.yul\":1740:1746   */\n      dup4\n        /* \"#utility.yul\":1735:1738   */\n      dup4\n        /* \"#utility.yul\":1731:1747   */\n      add\n        /* \"#utility.yul\":1724:1751   */\n      mstore\n        /* \"#utility.yul\":1610:1758   */\n      pop\n      pop\n      pop\n      jump\t// out\n        /* \"#utility.yul\":1764:2189   */\n    tag_97:\n        /* \"#utility.yul\":1842:1847   */\n      0x00\n        /* \"#utility.yul\":1867:1933   */\n      tag_150\n        /* \"#utility.yul\":1883:1932   */\n      tag_151\n        /* \"#utility.yul\":1925:1931   */\n      dup5\n        /* \"#utility.yul\":1883:1932   */\n      tag_95\n      jump\t// in\n    tag_151:\n        /* \"#utility.yul\":1867:1933   */\n      tag_94\n      jump\t// in\n    tag_150:\n        /* \"#utility.yul\":1858:1933   */\n      swap1\n      pop\n        /* \"#utility.yul\":1956:1962   */\n      dup3\n        /* \"#utility.yul\":1949:1954   */\n      dup2\n        /* \"#utility.yul\":1942:1963   */\n      mstore\n        /* \"#utility.yul\":1994:1998   */\n      0x20\n        /* \"#utility.yul\":1987:1992   */\n      dup2\n        /* \"#utility.yul\":1983:1999   */\n      add\n        /* \"#utility.yul\":2032:2035   */\n      dup5\n        /* \"#utility.yul\":2023:2029   */\n      dup5\n        /* \"#utility.yul\":2018:2021   */\n      dup5\n        /* \"#utility.yul\":2014:2030   */\n      add\n        /* \"#utility.yul\":2011:2036   */\n      gt\n        /* \"#utility.yul\":2008:2120   */\n      iszero\n      tag_152\n      jumpi\n        /* \"#utility.yul\":2039:2118   */\n      tag_153\n      tag_90\n      jump\t// in\n    tag_153:\n        /* \"#utility.yul\":2008:2120   */\n    tag_152:\n        /* \"#utility.yul\":2129:2183   */\n      tag_154\n        /* \"#utility.yul\":2176:2182   */\n      dup5\n        /* \"#utility.yul\":2171:2174   */\n      dup3\n        /* \"#utility.yul\":2166:2169   */\n      dup6\n        /* \"#utility.yul\":2129:2183   */\n      tag_96\n      jump\t// in\n    tag_154:\n        /* \"#utility.yul\":1848:2189   */\n      pop\n        /* \"#utility.yul\":1764:2189   */\n      swap4\n      swap3\n      pop\n      pop\n      pop\n      jump\t// out\n        /* \"#utility.yul\":2209:2549   */\n    tag_98:\n        /* \"#utility.yul\":2265:2270   */\n      0x00\n        /* \"#utility.yul\":2314:2317   */\n      dup3\n        /* \"#utility.yul\":2307:2311   */\n      0x1f\n        /* \"#utility.yul\":2299:2305   */\n      dup4\n        /* \"#utility.yul\":2295:2312   */\n      add\n        /* \"#utility.yul\":2291:2318   */\n      slt\n        /* \"#utility.yul\":2281:2403   */\n      tag_156\n      jumpi\n        /* \"#utility.yul\":2322:2401   */\n      tag_157\n      tag_89\n      jump\t// in\n    tag_157:\n        /* \"#utility.yul\":2281:2403   */\n    tag_156:\n        /* \"#utility.yul\":2439:2445   */\n      dup2\n        /* \"#utility.yul\":2426:2446   */\n      calldataload\n        /* \"#utility.yul\":2464:2543   */\n      tag_158\n        /* \"#utility.yul\":2539:2542   */\n      dup5\n        /* \"#utility.yul\":2531:2537   */\n      dup3\n        /* \"#utility.yul\":2524:2528   */\n      0x20\n        /* \"#utility.yul\":2516:2522   */\n      dup7\n        /* \"#utility.yul\":2512:2529   */\n      add\n        /* \"#utility.yul\":2464:2543   */\n      tag_97\n      jump\t// in\n    tag_158:\n        /* \"#utility.yul\":2455:2543   */\n      swap2\n      pop\n        /* \"#utility.yul\":2271:2549   */\n      pop\n        /* \"#utility.yul\":2209:2549   */\n      swap3\n      swap2\n      pop\n      pop\n      jump\t// out\n        /* \"#utility.yul\":2555:2632   */\n    tag_99:\n        /* \"#utility.yul\":2592:2599   */\n      0x00\n        /* \"#utility.yul\":2621:2626   */\n      dup2\n        /* \"#utility.yul\":2610:2626   */\n      swap1\n      pop\n        /* \"#utility.yul\":2555:2632   */\n      swap2\n      swap1\n      pop\n      jump\t// out\n        /* \"#utility.yul\":2638:2760   */\n    tag_100:\n        /* \"#utility.yul\":2711:2735   */\n      tag_161\n        /* \"#utility.yul\":2729:2734   */\n      dup2\n        /* \"#utility.yul\":2711:2735   */\n      tag_99\n      jump\t// in\n    tag_161:\n        /* \"#utility.yul\":2704:2709   */\n      dup2\n        /* \"#utility.yul\":2701:2736   */\n      eq\n        /* \"#utility.yul\":2691:2754   */\n      tag_162\n      jumpi\n        /* \"#utility.yul\":2750:2751   */\n      0x00\n        /* \"#utility.yul\":2747:2748   */\n      dup1\n        /* \"#utility.yul\":2740:2752   */\n      revert\n        /* \"#utility.yul\":2691:2754   */\n    tag_162:\n        /* \"#utility.yul\":2638:2760   */\n      pop\n      jump\t// out\n        /* \"#utility.yul\":2766:2905   */\n    tag_101:\n        /* \"#utility.yul\":2812:2817   */\n      0x00\n        /* \"#utility.yul\":2850:2856   */\n      dup2\n        /* \"#utility.yul\":2837:2857   */\n      calldataload\n        /* \"#utility.yul\":2828:2857   */\n      swap1\n      pop\n        /* \"#utility.yul\":2866:2899   */\n      tag_164\n        /* \"#utility.yul\":2893:2898   */\n      dup2\n        /* \"#utility.yul\":2866:2899   */\n      tag_100\n      jump\t// in\n    tag_164:\n        /* \"#utility.yul\":2766:2905   */\n      swap3\n      swap2\n      pop\n      pop\n      jump\t// out\n        /* \"#utility.yul\":2911:3565   */\n    tag_14:\n        /* \"#utility.yul\":2989:2995   */\n      0x00\n        /* \"#utility.yul\":2997:3003   */\n      dup1\n        /* \"#utility.yul\":3046:3048   */\n      0x40\n        /* \"#utility.yul\":3034:3043   */\n      dup4\n        /* \"#utility.yul\":3025:3032   */\n      dup6\n        /* \"#utility.yul\":3021:3044   */\n      sub\n        /* \"#utility.yul\":3017:3049   */\n      slt\n        /* \"#utility.yul\":3014:3133   */\n      iszero\n      tag_166\n      jumpi\n        /* \"#utility.yul\":3052:3131   */\n      tag_167\n      tag_87\n      jump\t// in\n    tag_167:\n        /* \"#utility.yul\":3014:3133   */\n    tag_166:\n        /* \"#utility.yul\":3200:3201   */\n      0x00\n        /* \"#utility.yul\":3189:3198   */\n      dup4\n        /* \"#utility.yul\":3185:3202   */\n      add\n        /* \"#utility.yul\":3172:3203   */\n      calldataload\n        /* \"#utility.yul\":3230:3248   */\n      0xffffffffffffffff\n        /* \"#utility.yul\":3222:3228   */\n      dup2\n        /* \"#utility.yul\":3219:3249   */\n      gt\n        /* \"#utility.yul\":3216:3333   */\n      iszero\n      tag_168\n      jumpi\n        /* \"#utility.yul\":3252:3331   */\n      tag_169\n      tag_88\n      jump\t// in\n    tag_169:\n        /* \"#utility.yul\":3216:3333   */\n    tag_168:\n        /* \"#utility.yul\":3357:3420   */\n      tag_170\n        /* \"#utility.yul\":3412:3419   */\n      dup6\n        /* \"#utility.yul\":3403:3409   */\n      dup3\n        /* \"#utility.yul\":3392:3401   */\n      dup7\n        /* \"#utility.yul\":3388:3410   */\n      add\n        /* \"#utility.yul\":3357:3420   */\n      tag_98\n      jump\t// in\n    tag_170:\n        /* \"#utility.yul\":3347:3420   */\n      swap3\n      pop\n        /* \"#utility.yul\":3143:3430   */\n      pop\n        /* \"#utility.yul\":3469:3471   */\n      0x20\n        /* \"#utility.yul\":3495:3548   */\n      tag_171\n        /* \"#utility.yul\":3540:3547   */\n      dup6\n        /* \"#utility.yul\":3531:3537   */\n      dup3\n        /* \"#utility.yul\":3520:3529   */\n      dup7\n        /* \"#utility.yul\":3516:3538   */\n      add\n        /* \"#utility.yul\":3495:3548   */\n      tag_101\n      jump\t// in\n    tag_171:\n        /* \"#utility.yul\":3485:3548   */\n      swap2\n      pop\n        /* \"#utility.yul\":3440:3558   */\n      pop\n        /* \"#utility.yul\":2911:3565   */\n      swap3\n      pop\n      swap3\n      swap1\n      pop\n      jump\t// out\n        /* \"#utility.yul\":3571:3689   */\n    tag_102:\n        /* \"#utility.yul\":3658:3682   */\n      tag_173\n        /* \"#utility.yul\":3676:3681   */\n      dup2\n        /* \"#utility.yul\":3658:3682   */\n      tag_99\n      jump\t// in\n    tag_173:\n        /* \"#utility.yul\":3653:3656   */\n      dup3\n        /* \"#utility.yul\":3646:3683   */\n      mstore\n        /* \"#utility.yul\":3571:3689   */\n      pop\n      pop\n      jump\t// out\n        /* \"#utility.yul\":3695:3917   */\n    tag_17:\n        /* \"#utility.yul\":3788:3792   */\n      0x00\n        /* \"#utility.yul\":3826:3828   */\n      0x20\n        /* \"#utility.yul\":3815:3824   */\n      dup3\n        /* \"#utility.yul\":3811:3829   */\n      add\n        /* \"#utility.yul\":3803:3829   */\n      swap1\n      pop\n        /* \"#utility.yul\":3839:3910   */\n      tag_175\n        /* \"#utility.yul\":3907:3908   */\n      0x00\n        /* \"#utility.yul\":3896:3905   */\n      dup4\n        /* \"#utility.yul\":3892:3909   */\n      add\n        /* \"#utility.yul\":3883:3889   */\n      dup5\n        /* \"#utility.yul\":3839:3910   */\n      tag_102\n      jump\t// in\n    tag_175:\n        /* \"#utility.yul\":3695:3917   */\n      swap3\n      swap2\n      pop\n      pop\n      jump\t// out\n        /* \"#utility.yul\":3923:4252   */\n    tag_20:\n        /* \"#utility.yul\":3982:3988   */\n      0x00\n        /* \"#utility.yul\":4031:4033   */\n      0x20\n        /* \"#utility.yul\":4019:4028   */\n      dup3\n        /* \"#utility.yul\":4010:4017   */\n      dup5\n        /* \"#utility.yul\":4006:4029   */\n      sub\n        /* \"#utility.yul\":4002:4034   */\n      slt\n        /* \"#utility.yul\":3999:4118   */\n      iszero\n      tag_177\n      jumpi\n        /* \"#utility.yul\":4037:4116   */\n      tag_178\n      tag_87\n      jump\t// in\n    tag_178:\n        /* \"#utility.yul\":3999:4118   */\n    tag_177:\n        /* \"#utility.yul\":4157:4158   */\n      0x00\n        /* \"#utility.yul\":4182:4235   */\n      tag_179\n        /* \"#utility.yul\":4227:4234   */\n      dup5\n        /* \"#utility.yul\":4218:4224   */\n      dup3\n        /* \"#utility.yul\":4207:4216   */\n      dup6\n        /* \"#utility.yul\":4203:4225   */\n      add\n        /* \"#utility.yul\":4182:4235   */\n      tag_101\n      jump\t// in\n    tag_179:\n        /* \"#utility.yul\":4172:4235   */\n      swap2\n      pop\n        /* \"#utility.yul\":4128:4245   */\n      pop\n        /* \"#utility.yul\":3923:4252   */\n      swap3\n      swap2\n      pop\n      pop\n      jump\t// out\n        /* \"#utility.yul\":4258:4357   */\n    tag_103:\n        /* \"#utility.yul\":4310:4316   */\n      0x00\n        /* \"#utility.yul\":4344:4349   */\n      dup2\n        /* \"#utility.yul\":4338:4350   */\n      mload\n        /* \"#utility.yul\":4328:4350   */\n      swap1\n      pop\n        /* \"#utility.yul\":4258:4357   */\n      swap2\n      swap1\n      pop\n      jump\t// out\n        /* \"#utility.yul\":4363:4532   */\n    tag_104:\n        /* \"#utility.yul\":4447:4458   */\n      0x00\n        /* \"#utility.yul\":4481:4487   */\n      dup3\n        /* \"#utility.yul\":4476:4479   */\n      dup3\n        /* \"#utility.yul\":4469:4488   */\n      mstore\n        /* \"#utility.yul\":4521:4525   */\n      0x20\n        /* \"#utility.yul\":4516:4519   */\n      dup3\n        /* \"#utility.yul\":4512:4526   */\n      add\n        /* \"#utility.yul\":4497:4526   */\n      swap1\n      pop\n        /* \"#utility.yul\":4363:4532   */\n      swap3\n      swap2\n      pop\n      pop\n      jump\t// out\n        /* \"#utility.yul\":4538:4677   */\n    tag_105:\n        /* \"#utility.yul\":4627:4633   */\n      dup3\n        /* \"#utility.yul\":4622:4625   */\n      dup2\n        /* \"#utility.yul\":4617:4620   */\n      dup4\n        /* \"#utility.yul\":4611:4634   */\n      mcopy\n        /* \"#utility.yul\":4668:4669   */\n      0x00\n        /* \"#utility.yul\":4659:4665   */\n      dup4\n        /* \"#utility.yul\":4654:4657   */\n      dup4\n        /* \"#utility.yul\":4650:4666   */\n      add\n        /* \"#utility.yul\":4643:4670   */\n      mstore\n        /* \"#utility.yul\":4538:4677   */\n      pop\n      pop\n      pop\n      jump\t// out\n        /* \"#utility.yul\":4683:5060   */\n    tag_106:\n        /* \"#utility.yul\":4771:4774   */\n      0x00\n        /* \"#utility.yul\":4799:4838   */\n      tag_184\n        /* \"#utility.yul\":4832:4837   */\n      dup3\n        /* \"#utility.yul\":4799:4838   */\n      tag_103\n      jump\t// in\n    tag_184:\n        /* \"#utility.yul\":4854:4925   */\n      tag_185\n        /* \"#utility.yul\":4918:4924   */\n      dup2\n        /* \"#utility.yul\":4913:4916   */\n      dup6\n        /* \"#utility.yul\":4854:4925   */\n      tag_104\n      jump\t// in\n    tag_185:\n        /* \"#utility.yul\":4847:4925   */\n      swap4\n      pop\n        /* \"#utility.yul\":4934:4999   */\n      tag_186\n        /* \"#utility.yul\":4992:4998   */\n      dup2\n        /* \"#utility.yul\":4987:4990   */\n      dup6\n        /* \"#utility.yul\":4980:4984   */\n      0x20\n        /* \"#utility.yul\":4973:4978   */\n      dup7\n        /* \"#utility.yul\":4969:4985   */\n      add\n        /* \"#utility.yul\":4934:4999   */\n      tag_105\n      jump\t// in\n    tag_186:\n        /* \"#utility.yul\":5024:5053   */\n      tag_187\n        /* \"#utility.yul\":5046:5052   */\n      dup2\n        /* \"#utility.yul\":5024:5053   */\n      tag_91\n      jump\t// in\n    tag_187:\n        /* \"#utility.yul\":5019:5022   */\n      dup5\n        /* \"#utility.yul\":5015:5054   */\n      add\n        /* \"#utility.yul\":5008:5054   */\n      swap2\n      pop\n        /* \"#utility.yul\":4775:5060   */\n      pop\n        /* \"#utility.yul\":4683:5060   */\n      swap3\n      swap2\n      pop\n      pop\n      jump\t// out\n        /* \"#utility.yul\":5066:5690   */\n    tag_23:\n        /* \"#utility.yul\":5255:5259   */\n      0x00\n        /* \"#utility.yul\":5293:5295   */\n      0x60\n        /* \"#utility.yul\":5282:5291   */\n      dup3\n        /* \"#utility.yul\":5278:5296   */\n      add\n        /* \"#utility.yul\":5270:5296   */\n      swap1\n      pop\n        /* \"#utility.yul\":5306:5377   */\n      tag_189\n        /* \"#utility.yul\":5374:5375   */\n      0x00\n        /* \"#utility.yul\":5363:5372   */\n      dup4\n        /* \"#utility.yul\":5359:5376   */\n      add\n        /* \"#utility.yul\":5350:5356   */\n      dup7\n        /* \"#utility.yul\":5306:5377   */\n      tag_102\n      jump\t// in\n    tag_189:\n        /* \"#utility.yul\":5424:5433   */\n      dup2\n        /* \"#utility.yul\":5418:5422   */\n      dup2\n        /* \"#utility.yul\":5414:5434   */\n      sub\n        /* \"#utility.yul\":5409:5411   */\n      0x20\n        /* \"#utility.yul\":5398:5407   */\n      dup4\n        /* \"#utility.yul\":5394:5412   */\n      add\n        /* \"#utility.yul\":5387:5435   */\n      mstore\n        /* \"#utility.yul\":5452:5530   */\n      tag_190\n        /* \"#utility.yul\":5525:5529   */\n      dup2\n        /* \"#utility.yul\":5516:5522   */\n      dup6\n        /* \"#utility.yul\":5452:5530   */\n      tag_106\n      jump\t// in\n    tag_190:\n        /* \"#utility.yul\":5444:5530   */\n      swap1\n      pop\n        /* \"#utility.yul\":5577:5586   */\n      dup2\n        /* \"#utility.yul\":5571:5575   */\n      dup2\n        /* \"#utility.yul\":5567:5587   */\n      sub\n        /* \"#utility.yul\":5562:5564   */\n      0x40\n        /* \"#utility.yul\":5551:5560   */\n      dup4\n        /* \"#utility.yul\":5547:5565   */\n      add\n        /* \"#utility.yul\":5540:5588   */\n      mstore\n        /* \"#utility.yul\":5605:5683   */\n      tag_191\n        /* \"#utility.yul\":5678:5682   */\n      dup2\n        /* \"#utility.yul\":5669:5675   */\n      dup5\n        /* \"#utility.yul\":5605:5683   */\n      tag_106\n      jump\t// in\n    tag_191:\n        /* \"#utility.yul\":5597:5683   */\n      swap1\n      pop\n        /* \"#utility.yul\":5066:5690   */\n      swap5\n      swap4\n      pop\n      pop\n      pop\n      pop\n      jump\t// out\n        /* \"#utility.yul\":5696:5822   */\n    tag_107:\n        /* \"#utility.yul\":5733:5740   */\n      0x00\n        /* \"#utility.yul\":5773:5815   */\n      0xffffffffffffffffffffffffffffffffffffffff\n        /* \"#utility.yul\":5766:5771   */\n      dup3\n        /* \"#utility.yul\":5762:5816   */\n      and\n        /* \"#utility.yul\":5751:5816   */\n      swap1\n      pop\n        /* \"#utility.yul\":5696:5822   */\n      swap2\n      swap1\n      pop\n      jump\t// out\n        /* \"#utility.yul\":5828:5924   */\n    tag_108:\n        /* \"#utility.yul\":5865:5872   */\n      0x00\n        /* \"#utility.yul\":5894:5918   */\n      tag_194\n        /* \"#utility.yul\":5912:5917   */\n      dup3\n        /* \"#utility.yul\":5894:5918   */\n      tag_107\n      jump\t// in\n    tag_194:\n        /* \"#utility.yul\":5883:5918   */\n      swap1\n      pop\n        /* \"#utility.yul\":5828:5924   */\n      swap2\n      swap1\n      pop\n      jump\t// out\n        /* \"#utility.yul\":5930:6052   */\n    tag_109:\n        /* \"#utility.yul\":6003:6027   */\n      tag_196\n        /* \"#utility.yul\":6021:6026   */\n      dup2\n        /* \"#utility.yul\":6003:6027   */\n      tag_108\n      jump\t// in\n    tag_196:\n        /* \"#utility.yul\":5996:6001   */\n      dup2\n        /* \"#utility.yul\":5993:6028   */\n      eq\n        /* \"#utility.yul\":5983:6046   */\n      tag_197\n      jumpi\n        /* \"#utility.yul\":6042:6043   */\n      0x00\n        /* \"#utility.yul\":6039:6040   */\n      dup1\n        /* \"#utility.yul\":6032:6044   */\n      revert\n        /* \"#utility.yul\":5983:6046   */\n    tag_197:\n        /* \"#utility.yul\":5930:6052   */\n      pop\n      jump\t// out\n        /* \"#utility.yul\":6058:6197   */\n    tag_110:\n        /* \"#utility.yul\":6104:6109   */\n      0x00\n        /* \"#utility.yul\":6142:6148   */\n      dup2\n        /* \"#utility.yul\":6129:6149   */\n      calldataload\n        /* \"#utility.yul\":6120:6149   */\n      swap1\n      pop\n        /* \"#utility.yul\":6158:6191   */\n      tag_199\n        /* \"#utility.yul\":6185:6190   */\n      dup2\n        /* \"#utility.yul\":6158:6191   */\n      tag_109\n      jump\t// in\n    tag_199:\n        /* \"#utility.yul\":6058:6197   */\n      swap3\n      swap2\n      pop\n      pop\n      jump\t// out\n        /* \"#utility.yul\":6203:6532   */\n    tag_26:\n        /* \"#utility.yul\":6262:6268   */\n      0x00\n        /* \"#utility.yul\":6311:6313   */\n      0x20\n        /* \"#utility.yul\":6299:6308   */\n      dup3\n        /* \"#utility.yul\":6290:6297   */\n      dup5\n        /* \"#utility.yul\":6286:6309   */\n      sub\n        /* \"#utility.yul\":6282:6314   */\n      slt\n        /* \"#utility.yul\":6279:6398   */\n      iszero\n      tag_201\n      jumpi\n        /* \"#utility.yul\":6317:6396   */\n      tag_202\n      tag_87\n      jump\t// in\n    tag_202:\n        /* \"#utility.yul\":6279:6398   */\n    tag_201:\n        /* \"#utility.yul\":6437:6438   */\n      0x00\n        /* \"#utility.yul\":6462:6515   */\n      tag_203\n        /* \"#utility.yul\":6507:6514   */\n      dup5\n        /* \"#utility.yul\":6498:6504   */\n      dup3\n        /* \"#utility.yul\":6487:6496   */\n      dup6\n        /* \"#utility.yul\":6483:6505   */\n      add\n        /* \"#utility.yul\":6462:6515   */\n      tag_110\n      jump\t// in\n    tag_203:\n        /* \"#utility.yul\":6452:6515   */\n      swap2\n      pop\n        /* \"#utility.yul\":6408:6525   */\n      pop\n        /* \"#utility.yul\":6203:6532   */\n      swap3\n      swap2\n      pop\n      pop\n      jump\t// out\n        /* \"#utility.yul\":6538:7517   */\n    tag_34:\n        /* \"#utility.yul\":6635:6641   */\n      0x00\n        /* \"#utility.yul\":6643:6649   */\n      dup1\n        /* \"#utility.yul\":6651:6657   */\n      0x00\n        /* \"#utility.yul\":6700:6702   */\n      0x60\n        /* \"#utility.yul\":6688:6697   */\n      dup5\n        /* \"#utility.yul\":6679:6686   */\n      dup7\n        /* \"#utility.yul\":6675:6698   */\n      sub\n        /* \"#utility.yul\":6671:6703   */\n      slt\n        /* \"#utility.yul\":6668:6787   */\n      iszero\n      tag_205\n      jumpi\n        /* \"#utility.yul\":6706:6785   */\n      tag_206\n      tag_87\n      jump\t// in\n    tag_206:\n        /* \"#utility.yul\":6668:6787   */\n    tag_205:\n        /* \"#utility.yul\":6826:6827   */\n      0x00\n        /* \"#utility.yul\":6851:6904   */\n      tag_207\n        /* \"#utility.yul\":6896:6903   */\n      dup7\n        /* \"#utility.yul\":6887:6893   */\n      dup3\n        /* \"#utility.yul\":6876:6885   */\n      dup8\n        /* \"#utility.yul\":6872:6894   */\n      add\n        /* \"#utility.yul\":6851:6904   */\n      tag_101\n      jump\t// in\n    tag_207:\n        /* \"#utility.yul\":6841:6904   */\n      swap4\n      pop\n        /* \"#utility.yul\":6797:6914   */\n      pop\n        /* \"#utility.yul\":6981:6983   */\n      0x20\n        /* \"#utility.yul\":6970:6979   */\n      dup5\n        /* \"#utility.yul\":6966:6984   */\n      add\n        /* \"#utility.yul\":6953:6985   */\n      calldataload\n        /* \"#utility.yul\":7012:7030   */\n      0xffffffffffffffff\n        /* \"#utility.yul\":7004:7010   */\n      dup2\n        /* \"#utility.yul\":7001:7031   */\n      gt\n        /* \"#utility.yul\":6998:7115   */\n      iszero\n      tag_208\n      jumpi\n        /* \"#utility.yul\":7034:7113   */\n      tag_209\n      tag_88\n      jump\t// in\n    tag_209:\n        /* \"#utility.yul\":6998:7115   */\n    tag_208:\n        /* \"#utility.yul\":7139:7202   */\n      tag_210\n        /* \"#utility.yul\":7194:7201   */\n      dup7\n        /* \"#utility.yul\":7185:7191   */\n      dup3\n        /* \"#utility.yul\":7174:7183   */\n      dup8\n        /* \"#utility.yul\":7170:7192   */\n      add\n        /* \"#utility.yul\":7139:7202   */\n      tag_98\n      jump\t// in\n    tag_210:\n        /* \"#utility.yul\":7129:7202   */\n      swap3\n      pop\n        /* \"#utility.yul\":6924:7212   */\n      pop\n        /* \"#utility.yul\":7279:7281   */\n      0x40\n        /* \"#utility.yul\":7268:7277   */\n      dup5\n        /* \"#utility.yul\":7264:7282   */\n      add\n        /* \"#utility.yul\":7251:7283   */\n      calldataload\n        /* \"#utility.yul\":7310:7328   */\n      0xffffffffffffffff\n        /* \"#utility.yul\":7302:7308   */\n      dup2\n        /* \"#utility.yul\":7299:7329   */\n      gt\n        /* \"#utility.yul\":7296:7413   */\n      iszero\n      tag_211\n      jumpi\n        /* \"#utility.yul\":7332:7411   */\n      tag_212\n      tag_88\n      jump\t// in\n    tag_212:\n        /* \"#utility.yul\":7296:7413   */\n    tag_211:\n        /* \"#utility.yul\":7437:7500   */\n      tag_213\n        /* \"#utility.yul\":7492:7499   */\n      dup7\n        /* \"#utility.yul\":7483:7489   */\n      dup3\n        /* \"#utility.yul\":7472:7481   */\n      dup8\n        /* \"#utility.yul\":7468:7490   */\n      add\n        /* \"#utility.yul\":7437:7500   */\n      tag_98\n      jump\t// in\n    tag_213:\n        /* \"#utility.yul\":7427:7500   */\n      swap2\n      pop\n        /* \"#utility.yul\":7222:7510   */\n      pop\n        /* \"#utility.yul\":6538:7517   */\n      swap3\n      pop\n      swap3\n      pop\n      swap3\n      jump\t// out\n        /* \"#utility.yul\":7523:7703   */\n    tag_111:\n        /* \"#utility.yul\":7571:7648   */\n      0x4e487b7100000000000000000000000000000000000000000000000000000000\n        /* \"#utility.yul\":7568:7569   */\n      0x00\n        /* \"#utility.yul\":7561:7649   */\n      mstore\n        /* \"#utility.yul\":7668:7672   */\n      0x22\n        /* \"#utility.yul\":7665:7666   */\n      0x04\n        /* \"#utility.yul\":7658:7673   */\n      mstore\n        /* \"#utility.yul\":7692:7696   */\n      0x24\n        /* \"#utility.yul\":7689:7690   */\n      0x00\n        /* \"#utility.yul\":7682:7697   */\n      revert\n        /* \"#utility.yul\":7709:8029   */\n    tag_52:\n        /* \"#utility.yul\":7753:7759   */\n      0x00\n        /* \"#utility.yul\":7790:7791   */\n      0x02\n        /* \"#utility.yul\":7784:7788   */\n      dup3\n        /* \"#utility.yul\":7780:7792   */\n      div\n        /* \"#utility.yul\":7770:7792   */\n      swap1\n      pop\n        /* \"#utility.yul\":7837:7838   */\n      0x01\n        /* \"#utility.yul\":7831:7835   */\n      dup3\n        /* \"#utility.yul\":7827:7839   */\n      and\n        /* \"#utility.yul\":7858:7876   */\n      dup1\n        /* \"#utility.yul\":7848:7929   */\n      tag_216\n      jumpi\n        /* \"#utility.yul\":7914:7918   */\n      0x7f\n        /* \"#utility.yul\":7906:7912   */\n      dup3\n        /* \"#utility.yul\":7902:7919   */\n      and\n        /* \"#utility.yul\":7892:7919   */\n      swap2\n      pop\n        /* \"#utility.yul\":7848:7929   */\n    tag_216:\n        /* \"#utility.yul\":7976:7978   */\n      0x20\n        /* \"#utility.yul\":7968:7974   */\n      dup3\n        /* \"#utility.yul\":7965:7979   */\n      lt\n        /* \"#utility.yul\":7945:7963   */\n      dup2\n        /* \"#utility.yul\":7942:7980   */\n      sub\n        /* \"#utility.yul\":7939:8023   */\n      tag_217\n      jumpi\n        /* \"#utility.yul\":7995:8013   */\n      tag_218\n      tag_111\n      jump\t// in\n    tag_218:\n        /* \"#utility.yul\":7939:8023   */\n    tag_217:\n        /* \"#utility.yul\":7760:8029   */\n      pop\n        /* \"#utility.yul\":7709:8029   */\n      swap2\n      swap1\n      pop\n      jump\t// out\n        /* \"#utility.yul\":8035:8183   */\n    tag_112:\n        /* \"#utility.yul\":8137:8148   */\n      0x00\n        /* \"#utility.yul\":8174:8177   */\n      dup2\n        /* \"#utility.yul\":8159:8177   */\n      swap1\n      pop\n        /* \"#utility.yul\":8035:8183   */\n      swap3\n      swap2\n      pop\n      pop\n      jump\t// out\n        /* \"#utility.yul\":8189:8579   */\n    tag_113:\n        /* \"#utility.yul\":8295:8298   */\n      0x00\n        /* \"#utility.yul\":8323:8362   */\n      tag_221\n        /* \"#utility.yul\":8356:8361   */\n      dup3\n        /* \"#utility.yul\":8323:8362   */\n      tag_103\n      jump\t// in\n    tag_221:\n        /* \"#utility.yul\":8378:8467   */\n      tag_222\n        /* \"#utility.yul\":8460:8466   */\n      dup2\n        /* \"#utility.yul\":8455:8458   */\n      dup6\n        /* \"#utility.yul\":8378:8467   */\n      tag_112\n      jump\t// in\n    tag_222:\n        /* \"#utility.yul\":8371:8467   */\n      swap4\n      pop\n        /* \"#utility.yul\":8476:8541   */\n      tag_223\n        /* \"#utility.yul\":8534:8540   */\n      dup2\n        /* \"#utility.yul\":8529:8532   */\n      dup6\n        /* \"#utility.yul\":8522:8526   */\n      0x20\n        /* \"#utility.yul\":8515:8520   */\n      dup7\n        /* \"#utility.yul\":8511:8527   */\n      add\n        /* \"#utility.yul\":8476:8541   */\n      tag_105\n      jump\t// in\n    tag_223:\n        /* \"#utility.yul\":8566:8572   */\n      dup1\n        /* \"#utility.yul\":8561:8564   */\n      dup5\n        /* \"#utility.yul\":8557:8573   */\n      add\n        /* \"#utility.yul\":8550:8573   */\n      swap2\n      pop\n        /* \"#utility.yul\":8299:8579   */\n      pop\n        /* \"#utility.yul\":8189:8579   */\n      swap3\n      swap2\n      pop\n      pop\n      jump\t// out\n        /* \"#utility.yul\":8585:8860   */\n    tag_64:\n        /* \"#utility.yul\":8717:8720   */\n      0x00\n        /* \"#utility.yul\":8739:8834   */\n      tag_225\n        /* \"#utility.yul\":8830:8833   */\n      dup3\n        /* \"#utility.yul\":8821:8827   */\n      dup5\n        /* \"#utility.yul\":8739:8834   */\n      tag_113\n      jump\t// in\n    tag_225:\n        /* \"#utility.yul\":8732:8834   */\n      swap2\n      pop\n        /* \"#utility.yul\":8851:8854   */\n      dup2\n        /* \"#utility.yul\":8844:8854   */\n      swap1\n      pop\n        /* \"#utility.yul\":8585:8860   */\n      swap3\n      swap2\n      pop\n      pop\n      jump\t// out\n        /* \"#utility.yul\":8866:9007   */\n    tag_114:\n        /* \"#utility.yul\":8915:8919   */\n      0x00\n        /* \"#utility.yul\":8938:8941   */\n      dup2\n        /* \"#utility.yul\":8930:8941   */\n      swap1\n      pop\n        /* \"#utility.yul\":8961:8964   */\n      dup2\n        /* \"#utility.yul\":8958:8959   */\n      0x00\n        /* \"#utility.yul\":8951:8965   */\n      mstore\n        /* \"#utility.yul\":8995:8999   */\n      0x20\n        /* \"#utility.yul\":8992:8993   */\n      0x00\n        /* \"#utility.yul\":8982:9000   */\n      keccak256\n        /* \"#utility.yul\":8974:9000   */\n      swap1\n      pop\n        /* \"#utility.yul\":8866:9007   */\n      swap2\n      swap1\n      pop\n      jump\t// out\n        /* \"#utility.yul\":9013:9106   */\n    tag_115:\n        /* \"#utility.yul\":9050:9056   */\n      0x00\n        /* \"#utility.yul\":9097:9099   */\n      0x20\n        /* \"#utility.yul\":9092:9094   */\n      0x1f\n        /* \"#utility.yul\":9085:9090   */\n      dup4\n        /* \"#utility.yul\":9081:9095   */\n      add\n        /* \"#utility.yul\":9077:9100   */\n      div\n        /* \"#utility.yul\":9067:9100   */\n      swap1\n      pop\n        /* \"#utility.yul\":9013:9106   */\n      swap2\n      swap1\n      pop\n      jump\t// out\n        /* \"#utility.yul\":9112:9219   */\n    tag_116:\n        /* \"#utility.yul\":9156:9164   */\n      0x00\n        /* \"#utility.yul\":9206:9211   */\n      dup3\n        /* \"#utility.yul\":9200:9204   */\n      dup3\n        /* \"#utility.yul\":9196:9212   */\n      shl\n        /* \"#utility.yul\":9175:9212   */\n      swap1\n      pop\n        /* \"#utility.yul\":9112:9219   */\n      swap3\n      swap2\n      pop\n      pop\n      jump\t// out\n        /* \"#utility.yul\":9225:9618   */\n    tag_117:\n        /* \"#utility.yul\":9294:9300   */\n      0x00\n        /* \"#utility.yul\":9344:9345   */\n      0x08\n        /* \"#utility.yul\":9332:9342   */\n      dup4\n        /* \"#utility.yul\":9328:9346   */\n      mul\n        /* \"#utility.yul\":9367:9464   */\n      tag_230\n        /* \"#utility.yul\":9397:9463   */\n      0xffffffffffffffffffffffffffffffffffffffffffffffffffffffffffffffff\n        /* \"#utility.yul\":9386:9395   */\n      dup3\n        /* \"#utility.yul\":9367:9464   */\n      tag_116\n      jump\t// in\n    tag_230:\n        /* \"#utility.yul\":9485:9524   */\n      tag_231\n        /* \"#utility.yul\":9515:9523   */\n      dup7\n        /* \"#utility.yul\":9504:9513   */\n      dup4\n        /* \"#utility.yul\":9485:9524   */\n      tag_116\n      jump\t// in\n    tag_231:\n        /* \"#utility.yul\":9473:9524   */\n      swap6\n      pop\n        /* \"#utility.yul\":9557:9561   */\n      dup1\n        /* \"#utility.yul\":9553:9562   */\n      not\n        /* \"#utility.yul\":9546:9551   */\n      dup5\n        /* \"#utility.yul\":9542:9563   */\n      and\n        /* \"#utility.yul\":9533:9563   */\n      swap4\n      pop\n        /* \"#utility.yul\":9606:9610   */\n      dup1\n        /* \"#utility.yul\":9596:9604   */\n      dup7\n        /* \"#utility.yul\":9592:9611   */\n      and\n        /* \"#utility.yul\":9585:9590   */\n      dup5\n        /* \"#utility.yul\":9582:9612   */\n      or\n        /* \"#utility.yul\":9572:9612   */\n      swap3\n      pop\n        /* \"#utility.yul\":9301:9618   */\n      pop\n      pop\n        /* \"#utility.yul\":9225:9618   */\n      swap4\n      swap3\n      pop\n      pop\n      pop\n      jump\t// out\n        /* \"#utility.yul\":9624:9684   */\n    tag_118:\n        /* \"#utility.yul\":9652:9655   */\n      0x00\n        /* \"#utility.yul\":9673:9678   */\n      dup2\n        /* \"#utility.yul\":9666:9678   */\n      swap1\n      pop\n        /* \"#utility.yul\":9624:9684   */\n      swap2\n      swap1\n      pop\n      jump\t// out\n        /* \"#utility.yul\":9690:9832   */\n    tag_119:\n        /* \"#utility.yul\":9740:9749   */\n      0x00\n        /* \"#utility.yul\":9773:9826   */\n      tag_234\n        /* \"#utility.yul\":9791:9825   */\n      tag_235\n        /* \"#utility.yul\":9800:9824   */\n      tag_236\n        /* \"#utility.yul\":9818:9823   */\n      dup5\n        /* \"#utility.yul\":9800:9824   */\n      tag_99\n      jump\t// in\n    tag_236:\n        /* \"#utility.yul\":9791:9825   */\n      tag_118\n      jump\t// in\n    tag_235:\n        /* \"#utility.yul\":9773:9826   */\n      tag_99\n      jump\t// in\n    tag_234:\n        /* \"#utility.yul\":9760:9826   */\n      swap1\n      pop\n        /* \"#utility.yul\":9690:9832   */\n      swap2\n      swap1\n      pop\n      jump\t// out\n        /* \"#utility.yul\":9838:9913   */\n    tag_120:\n        /* \"#utility.yul\":9881:9884   */\n      0x00\n        /* \"#utility.yul\":9902:9907   */\n      dup2\n        /* \"#utility.yul\":9895:9907   */\n      swap1\n      pop\n        /* \"#utility.yul\":9838:9913   */\n      swap2\n      swap1\n      pop\n      jump\t// out\n        /* \"#utility.yul\":9919:10188   */\n    tag_121:\n        /* \"#utility.yul\":10029:10068   */\n      tag_239\n        /* \"#utility.yul\":10060:10067   */\n      dup4\n        /* \"#utility.yul\":10029:10068   */\n      tag_119\n      jump\t// in\n    tag_239:\n        /* \"#utility.yul\":10090:10181   */\n      tag_240\n        /* \"#utility.yul\":10139:10180   */\n      tag_241\n        /* \"#utility.yul\":10163:10179   */\n      dup3\n        /* \"#utility.yul\":10139:10180   */\n      tag_120\n      jump\t// in\n    tag_241:\n        /* \"#utility.yul\":10131:10137   */\n      dup5\n        /* \"#utility.yul\":10124:10128   */\n      dup5\n        /* \"#utility.yul\":10118:10129   */\n      sload\n        /* \"#utility.yul\":10090:10181   */\n      tag_117\n      jump\t// in\n    tag_240:\n        /* \"#utility.yul\":10084:10088   */\n      dup3\n        /* \"#utility.yul\":10077:10182   */\n      sstore\n        /* \"#utility.yul\":9995:10188   */\n      pop\n        /* \"#utility.yul\":9919:10188   */\n      pop\n      pop\n      pop\n      jump\t// out\n        /* \"#utility.yul\":10194:10267   */\n    tag_122:\n        /* \"#utility.yul\":10239:10242   */\n      0x00\n        /* \"#utility.yul\":10194:10267   */\n      swap1\n      jump\t// out\n        /* \"#utility.yul\":10273:10462   */\n    tag_123:\n        /* \"#utility.yul\":10350:10382   */\n      tag_244\n      tag_122\n      jump\t// in\n    tag_244:\n        /* \"#utility.yul\":10391:10456   */\n      tag_245\n        /* \"#utility.yul\":10449:10455   */\n      dup2\n        /* \"#utility.yul\":10441:10447   */\n      dup5\n        /* \"#utility.yul\":10435:10439   */\n      dup5\n        /* \"#utility.yul\":10391:10456   */\n      tag_121\n      jump\t// in\n    tag_245:\n        /* \"#utility.yul\":10326:10462   */\n      pop\n        /* \"#utility.yul\":10273:10462   */\n      pop\n      pop\n      jump\t// out\n        /* \"#utility.yul\":10468:10654   */\n    tag_124:\n        /* \"#utility.yul\":10528:10648   */\n    tag_247:\n        /* \"#utility.yul\":10545:10548   */\n      dup2\n        /* \"#utility.yul\":10538:10543   */\n      dup2\n        /* \"#utility.yul\":10535:10549   */\n      lt\n        /* \"#utility.yul\":10528:10648   */\n      iszero\n      tag_249\n      jumpi\n        /* \"#utility.yul\":10599:10638   */\n      tag_250\n        /* \"#utility.yul\":10636:10637   */\n      0x00\n        /* \"#utility.yul\":10629:10634   */\n      dup3\n        /* \"#utility.yul\":10599:10638   */\n      tag_123\n      jump\t// in\n    tag_250:\n        /* \"#utility.yul\":10572:10573   */\n      0x01\n        /* \"#utility.yul\":10565:10570   */\n      dup2\n        /* \"#utility.yul\":10561:10574   */\n      add\n        /* \"#utility.yul\":10552:10574   */\n      swap1\n      pop\n        /* \"#utility.yul\":10528:10648   */\n      jump(tag_247)\n    tag_249:\n        /* \"#utility.yul\":10468:10654   */\n      pop\n      pop\n      jump\t// out\n        /* \"#utility.yul\":10660:11203   */\n    tag_125:\n        /* \"#utility.yul\":10761:10763   */\n      0x1f\n        /* \"#utility.yul\":10756:10759   */\n      dup3\n        /* \"#utility.yul\":10753:10764   */\n      gt\n        /* \"#utility.yul\":10750:11196   */\n      iszero\n      tag_252\n      jumpi\n        /* \"#utility.yul\":10795:10833   */\n      tag_253\n        /* \"#utility.yul\":10827:10832   */\n      dup2\n        /* \"#utility.yul\":10795:10833   */\n      tag_114\n      jump\t// in\n    tag_253:\n        /* \"#utility.yul\":10879:10908   */\n      tag_254\n        /* \"#utility.yul\":10897:10907   */\n      dup5\n        /* \"#utility.yul\":10879:10908   */\n      tag_115\n      jump\t// in\n    tag_254:\n        /* \"#utility.yul\":10869:10877   */\n      dup2\n        /* \"#utility.yul\":10865:10909   */\n      add\n        /* \"#utility.yul\":11062:11064   */\n      0x20\n        /* \"#utility.yul\":11050:11060   */\n      dup6\n        /* \"#utility.yul\":11047:11065   */\n      lt\n        /* \"#utility.yul\":11044:11093   */\n      iszero\n      tag_255\n      jumpi\n        /* \"#utility.yul\":11083:11091   */\n      dup2\n        /* \"#utility.yul\":11068:11091   */\n      swap1\n      pop\n        /* \"#utility.yul\":11044:11093   */\n    tag_255:\n        /* \"#utility.yul\":11106:11186   */\n      tag_256\n        /* \"#utility.yul\":11162:11184   */\n      tag_257\n        /* \"#utility.yul\":11180:11183   */\n      dup6\n        /* \"#utility.yul\":11162:11184   */\n      tag_115\n      jump\t// in\n    tag_257:\n        /* \"#utility.yul\":11152:11160   */\n      dup4\n        /* \"#utility.yul\":11148:11185   */\n      add\n        /* \"#utility.yul\":11135:11146   */\n      dup3\n        /* \"#utility.yul\":11106:11186   */\n      tag_124\n      jump\t// in\n    tag_256:\n        /* \"#utility.yul\":10765:11196   */\n      pop\n      pop\n        /* \"#utility.yul\":10750:11196   */\n    tag_252:\n        /* \"#utility.yul\":10660:11203   */\n      pop\n      pop\n      pop\n      jump\t// out\n        /* \"#utility.yul\":11209:11326   */\n    tag_126:\n        /* \"#utility.yul\":11263:11271   */\n      0x00\n        /* \"#utility.yul\":11313:11318   */\n      dup3\n        /* \"#utility.yul\":11307:11311   */\n      dup3\n        /* \"#utility.yul\":11303:11319   */\n      shr\n        /* \"#utility.yul\":11282:11319   */\n      swap1\n      pop\n        /* \"#utility.yul\":11209:11326   */\n      swap3\n      swap2\n      pop\n      pop\n      jump\t// out\n        /* \"#utility.yul\":11332:11501   */\n    tag_127:\n        /* \"#utility.yul\":11376:11382   */\n      0x00\n        /* \"#utility.yul\":11409:11460   */\n      tag_260\n        /* \"#utility.yul\":11457:11458   */\n      0x00\n        /* \"#utility.yul\":11453:11459   */\n      not\n        /* \"#utility.yul\":11445:11450   */\n      dup5\n        /* \"#utility.yul\":11442:11443   */\n      0x08\n        /* \"#utility.yul\":11438:11451   */\n      mul\n        /* \"#utility.yul\":11409:11460   */\n      tag_126\n      jump\t// in\n    tag_260:\n        /* \"#utility.yul\":11405:11461   */\n      not\n        /* \"#utility.yul\":11490:11494   */\n      dup1\n        /* \"#utility.yul\":11484:11488   */\n      dup4\n        /* \"#utility.yul\":11480:11495   */\n      and\n        /* \"#utility.yul\":11470:11495   */\n      swap2\n      pop\n        /* \"#utility.yul\":11383:11501   */\n      pop\n        /* \"#utility.yul\":11332:11501   */\n      swap3\n      swap2\n      pop\n      pop\n      jump\t// out\n        /* \"#utility.yul\":11506:11801   */\n    tag_128:\n        /* \"#utility.yul\":11582:11586   */\n      0x00\n        /* \"#utility.yul\":11728:11757   */\n      tag_262\n        /* \"#utility.yul\":11753:11756   */\n      dup4\n        /* \"#utility.yul\":11747:11751   */\n      dup4\n        /* \"#utility.yul\":11728:11757   */\n      tag_127\n      jump\t// in\n    tag_262:\n        /* \"#utility.yul\":11720:11757   */\n      swap2\n      pop\n        /* \"#utility.yul\":11790:11793   */\n      dup3\n        /* \"#utility.yul\":11787:11788   */\n      0x02\n        /* \"#utility.yul\":11783:11794   */\n      mul\n        /* \"#utility.yul\":11777:11781   */\n      dup3\n        /* \"#utility.yul\":11774:11795   */\n      or\n        /* \"#utility.yul\":11766:11795   */\n      swap1\n      pop\n        /* \"#utility.yul\":11506:11801   */\n      swap3\n      swap2\n      pop\n      pop\n      jump\t// out\n        /* \"#utility.yul\":11806:13201   */\n    tag_69:\n        /* \"#utility.yul\":11923:11960   */\n      tag_264\n        /* \"#utility.yul\":11956:11959   */\n      dup3\n        /* \"#utility.yul\":11923:11960   */\n      tag_103\n      jump\t// in\n    tag_264:\n        /* \"#utility.yul\":12025:12043   */\n      0xffffffffffffffff\n        /* \"#utility.yul\":12017:12023   */\n      dup2\n        /* \"#utility.yul\":12014:12044   */\n      gt\n        /* \"#utility.yul\":12011:12067   */\n      iszero\n      tag_265\n      jumpi\n        /* \"#utility.yul\":12047:12065   */\n      tag_266\n      tag_92\n      jump\t// in\n    tag_266:\n        /* \"#utility.yul\":12011:12067   */\n    tag_265:\n        /* \"#utility.yul\":12091:12129   */\n      tag_267\n        /* \"#utility.yul\":12123:12127   */\n      dup3\n        /* \"#utility.yul\":12117:12128   */\n      sload\n        /* \"#utility.yul\":12091:12129   */\n      tag_52\n      jump\t// in\n    tag_267:\n        /* \"#utility.yul\":12176:12243   */\n      tag_268\n        /* \"#utility.yul\":12236:12242   */\n      dup3\n        /* \"#utility.yul\":12228:12234   */\n      dup3\n        /* \"#utility.yul\":12222:12226   */\n      dup6\n        /* \"#utility.yul\":12176:12243   */\n      tag_125\n      jump\t// in\n    tag_268:\n        /* \"#utility.yul\":12270:12271   */\n      0x00\n        /* \"#utility.yul\":12294:12298   */\n      0x20\n        /* \"#utility.yul\":12281:12298   */\n      swap1\n      pop\n        /* \"#utility.yul\":12326:12328   */\n      0x1f\n        /* \"#utility.yul\":12318:12324   */\n      dup4\n        /* \"#utility.yul\":12315:12329   */\n      gt\n        /* \"#utility.yul\":12343:12344   */\n      0x01\n        /* \"#utility.yul\":12338:12956   */\n      dup2\n      eq\n      tag_270\n      jumpi\n        /* \"#utility.yul\":13000:13001   */\n      0x00\n        /* \"#utility.yul\":13017:13023   */\n      dup5\n        /* \"#utility.yul\":13014:13091   */\n      iszero\n      tag_271\n      jumpi\n        /* \"#utility.yul\":13066:13075   */\n      dup3\n        /* \"#utility.yul\":13061:13064   */\n      dup8\n        /* \"#utility.yul\":13057:13076   */\n      add\n        /* \"#utility.yul\":13051:13077   */\n      mload\n        /* \"#utility.yul\":13042:13077   */\n      swap1\n      pop\n        /* \"#utility.yul\":13014:13091   */\n    tag_271:\n        /* \"#utility.yul\":13117:13184   */\n      tag_272\n        /* \"#utility.yul\":13177:13183   */\n      dup6\n        /* \"#utility.yul\":13170:13175   */\n      dup3\n        /* \"#utility.yul\":13117:13184   */\n      tag_128\n      jump\t// in\n    tag_272:\n        /* \"#utility.yul\":13111:13115   */\n      dup7\n        /* \"#utility.yul\":13104:13185   */\n      sstore\n        /* \"#utility.yul\":12973:13195   */\n      pop\n        /* \"#utility.yul\":12308:13195   */\n      jump(tag_269)\n        /* \"#utility.yul\":12338:12956   */\n    tag_270:\n        /* \"#utility.yul\":12390:12394   */\n      0x1f\n        /* \"#utility.yul\":12386:12395   */\n      not\n        /* \"#utility.yul\":12378:12384   */\n      dup5\n        /* \"#utility.yul\":12374:12396   */\n      and\n        /* \"#utility.yul\":12424:12461   */\n      tag_273\n        /* \"#utility.yul\":12456:12460   */\n      dup7\n        /* \"#utility.yul\":12424:12461   */\n      tag_114\n      jump\t// in\n    tag_273:\n        /* \"#utility.yul\":12483:12484   */\n      0x00\n        /* \"#utility.yul\":12497:12705   */\n    tag_274:\n        /* \"#utility.yul\":12511:12518   */\n      dup3\n        /* \"#utility.yul\":12508:12509   */\n      dup2\n        /* \"#utility.yul\":12505:12519   */\n      lt\n        /* \"#utility.yul\":12497:12705   */\n      iszero\n      tag_276\n      jumpi\n        /* \"#utility.yul\":12590:12599   */\n      dup5\n        /* \"#utility.yul\":12585:12588   */\n      dup10\n        /* \"#utility.yul\":12581:12600   */\n      add\n        /* \"#utility.yul\":12575:12601   */\n      mload\n        /* \"#utility.yul\":12567:12573   */\n      dup3\n        /* \"#utility.yul\":12560:12602   */\n      sstore\n        /* \"#utility.yul\":12641:12642   */\n      0x01\n        /* \"#utility.yul\":12633:12639   */\n      dup3\n        /* \"#utility.yul\":12629:12643   */\n      add\n        /* \"#utility.yul\":12619:12643   */\n      swap2\n      pop\n        /* \"#utility.yul\":12688:12690   */\n      0x20\n        /* \"#utility.yul\":12677:12686   */\n      dup6\n        /* \"#utility.yul\":12673:12691   */\n      add\n        /* \"#utility.yul\":12660:12691   */\n      swap5\n      pop\n        /* \"#utility.yul\":12534:12538   */\n      0x20\n        /* \"#utility.yul\":12531:12532   */\n      dup2\n        /* \"#utility.yul\":12527:12539   */\n      add\n        /* \"#utility.yul\":12522:12539   */\n      swap1\n      pop\n        /* \"#utility.yul\":12497:12705   */\n      jump(tag_274)\n    tag_276:\n        /* \"#utility.yul\":12733:12739   */\n      dup7\n        /* \"#utility.yul\":12724:12731   */\n      dup4\n        /* \"#utility.yul\":12721:12740   */\n      lt\n        /* \"#utility.yul\":12718:12897   */\n      iszero\n      tag_277\n      jumpi\n        /* \"#utility.yul\":12791:12800   */\n      dup5\n        /* \"#utility.yul\":12786:12789   */\n      dup10\n        /* \"#utility.yul\":12782:12801   */\n      add\n        /* \"#utility.yul\":12776:12802   */\n      mload\n        /* \"#utility.yul\":12834:12882   */\n      tag_278\n        /* \"#utility.yul\":12876:12880   */\n      0x1f\n        /* \"#utility.yul\":12868:12874   */\n      dup10\n        /* \"#utility.yul\":12864:12881   */\n      and\n        /* \"#utility.yul\":12853:12862   */\n      dup3\n        /* \"#utility.yul\":12834:12882   */\n      tag_127\n      jump\t// in\n    tag_278:\n        /* \"#utility.yul\":12826:12832   */\n      dup4\n        /* \"#utility.yul\":12819:12883   */\n      sstore\n        /* \"#utility.yul\":12741:12897   */\n      pop\n        /* \"#utility.yul\":12718:12897   */\n    tag_277:\n        /* \"#utility.yul\":12943:12944   */\n      0x01\n        /* \"#utility.yul\":12939:12940   */\n      0x02\n        /* \"#utility.yul\":12931:12937   */\n      dup9\n        /* \"#utility.yul\":12927:12941   */\n      mul\n        /* \"#utility.yul\":12923:12945   */\n      add\n        /* \"#utility.yul\":12917:12921   */\n      dup9\n        /* \"#utility.yul\":12910:12946   */\n      sstore\n        /* \"#utility.yul\":12345:12956   */\n      pop\n      pop\n      pop\n        /* \"#utility.yul\":12308:13195   */\n    tag_269:\n      pop\n        /* \"#utility.yul\":11898:13201   */\n      pop\n      pop\n      pop\n        /* \"#utility.yul\":11806:13201   */\n      pop\n      pop\n      jump\t// out\n\n    auxdata: 0xa2646970667358221220930512a0a793565376b1347d9ef029746f0d10429e8c0af2c639eb1c54fb50e064736f6c634300081a0033\n}\n",
				"bytecode": {
					"linkReferences": {},
					"object": "60806040526040518060600160405280600181526020016040518060400160405280600481526020017f4a6f616e0000000000000000000000000000000000000000000000000000000081525081526020016040518060400160405280600e81526020017f6a6f616e40676d61696c2e636f6d0000000000000000000000000000000000008152508152505f80820151815f015560208201518160010190816100a891906103b8565b5060408201518160020190816100be91906103b8565b5050506040518060a00160405280600160ff168152602001600360ff168152602001600460ff168152602001600560ff168152602001600660ff16815250600390600561010c92919061011e565b50348015610118575f80fd5b50610487565b8260058101928215610152579160200282015b82811115610151578251829060ff16905591602001919060010190610131565b5b50905061015f9190610163565b5090565b5b8082111561017a575f815f905550600101610164565b5090565b5f81519050919050565b7f4e487b71000000000000000000000000000000000000000000000000000000005f52604160045260245ffd5b7f4e487b71000000000000000000000000000000000000000000000000000000005f52602260045260245ffd5b5f60028204905060018216806101f957607f821691505b60208210810361020c5761020b6101b5565b5b50919050565b5f819050815f5260205f209050919050565b5f6020601f8301049050919050565b5f82821b905092915050565b5f6008830261026e7fffffffffffffffffffffffffffffffffffffffffffffffffffffffffffffffff82610233565b6102788683610233565b95508019841693508086168417925050509392505050565b5f819050919050565b5f819050919050565b5f6102bc6102b76102b284610290565b610299565b610290565b9050919050565b5f819050919050565b6102d5836102a2565b6102e96102e1826102c3565b84845461023f565b825550505050565b5f90565b6102fd6102f1565b6103088184846102cc565b505050565b5b8181101561032b576103205f826102f5565b60018101905061030e565b5050565b601f8211156103705761034181610212565b61034a84610224565b81016020851015610359578190505b61036d61036585610224565b83018261030d565b50505b505050565b5f82821c905092915050565b5f6103905f1984600802610375565b1980831691505092915050565b5f6103a88383610381565b9150826002028217905092915050565b6103c18261017e565b67ffffffffffffffff8111156103da576103d9610188565b5b6103e482546101e2565b6103ef82828561032f565b5f60209050601f831160018114610420575f841561040e578287015190505b610418858261039d565b86555061047f565b601f19841661042e86610212565b5f5b8281101561045557848901518255600182019150602085019450602081019050610430565b86831015610472578489015161046e601f891682610381565b8355505b6001600288020188555050505b505050505050565b610d3f806104945f395ff3fe608060405234801561000f575f80fd5b5060043610610086575f3560e01c8063a440d9c211610059578063a440d9c214610138578063a5dcab5e14610154578063ec08420314610170578063fecb2c16146101a257610086565b806320716f881461008a5780633a3a4ff1146100ba5780637a088a2e146100ec5780638b3a12bb1461011c575b5f80fd5b6100a4600480360381019061009f9190610793565b6101d2565b6040516100b191906107fc565b60405180910390f35b6100d460048036038101906100cf9190610815565b610215565b6040516100e3939291906108a0565b60405180910390f35b6101066004803603810190610101919061093d565b610356565b60405161011391906107fc565b60405180910390f35b61013660048036038101906101319190610793565b61036b565b005b610152600480360381019061014d9190610968565b6103b1565b005b61016e60048036038101906101699190610968565b610434565b005b61018a6004803603810190610185919061093d565b6104c8565b604051610199939291906108a0565b60405180910390f35b6101bc60048036038101906101b79190610815565b6105fa565b6040516101c991906107fc565b60405180910390f35b600b828051602081018201805184825260208301602085012081835280955050505050508181548110610203575f80fd5b905f5260205f20015f91509150505481565b60098181548110610224575f80fd5b905f5260205f2090600302015f91509050805f01549080600101805461024990610a1d565b80601f016020809104026020016040519081016040528092919081815260200182805461027590610a1d565b80156102c05780601f10610297576101008083540402835291602001916102c0565b820191905f5260205f20905b8154815290600101906020018083116102a357829003601f168201915b5050505050908060020180546102d590610a1d565b80601f016020809104026020016040519081016040528092919081815260200182805461030190610a1d565b801561034c5780601f106103235761010080835404028352916020019161034c565b820191905f5260205f20905b81548152906001019060200180831161032f57829003601f168201915b5050505050905083565b600a602052805f5260405f205f915090505481565b600b8260405161037b9190610a87565b908152602001604051809103902081908060018154018082558091505060019003905f5260205f20015f90919091909150555050565b5f6040518060600160405280858152602001848152602001838152509050600981908060018154018082558091505060019003905f5260205f2090600302015f909190919091505f820151815f015560208201518160010190816104159190610c3a565b50604082015181600201908161042b9190610c3a565b50505050505050565b604051806060016040528084815260200183815260200182815250600c5f3373ffffffffffffffffffffffffffffffffffffffff1673ffffffffffffffffffffffffffffffffffffffff1681526020019081526020015f205f820151815f015560208201518160010190816104a99190610c3a565b5060408201518160020190816104bf9190610c3a565b50905050505050565b600c602052805f5260405f205f91509050805f0154908060010180546104ed90610a1d565b80601f016020809104026020016040519081016040528092919081815260200182805461051990610a1d565b80156105645780601f1061053b57610100808354040283529160200191610564565b820191905f5260205f20905b81548152906001019060200180831161054757829003601f168201915b50505050509080600201805461057990610a1d565b80601f01602080910402602001604051908101604052809291908181526020018280546105a590610a1d565b80156105f05780601f106105c7576101008083540402835291602001916105f0565b820191905f5260205f20905b8154815290600101906020018083116105d357829003601f168201915b5050505050905083565b60038160058110610609575f80fd5b015f915090505481565b5f604051905090565b5f80fd5b5f80fd5b5f80fd5b5f80fd5b5f601f19601f8301169050919050565b7f4e487b71000000000000000000000000000000000000000000000000000000005f52604160045260245ffd5b6106728261062c565b810181811067ffffffffffffffff821117156106915761069061063c565b5b80604052505050565b5f6106a3610613565b90506106af8282610669565b919050565b5f67ffffffffffffffff8211156106ce576106cd61063c565b5b6106d78261062c565b9050602081019050919050565b828183375f83830152505050565b5f6107046106ff846106b4565b61069a565b9050828152602081018484840111156107205761071f610628565b5b61072b8482856106e4565b509392505050565b5f82601f83011261074757610746610624565b5b81356107578482602086016106f2565b91505092915050565b5f819050919050565b61077281610760565b811461077c575f80fd5b50565b5f8135905061078d81610769565b92915050565b5f80604083850312156107a9576107a861061c565b5b5f83013567ffffffffffffffff8111156107c6576107c5610620565b5b6107d285828601610733565b92505060206107e38582860161077f565b9150509250929050565b6107f681610760565b82525050565b5f60208201905061080f5f8301846107ed565b92915050565b5f6020828403121561082a5761082961061c565b5b5f6108378482850161077f565b91505092915050565b5f81519050919050565b5f82825260208201905092915050565b8281835e5f83830152505050565b5f61087282610840565b61087c818561084a565b935061088c81856020860161085a565b6108958161062c565b840191505092915050565b5f6060820190506108b35f8301866107ed565b81810360208301526108c58185610868565b905081810360408301526108d98184610868565b9050949350505050565b5f73ffffffffffffffffffffffffffffffffffffffff82169050919050565b5f61090c826108e3565b9050919050565b61091c81610902565b8114610926575f80fd5b50565b5f8135905061093781610913565b92915050565b5f602082840312156109525761095161061c565b5b5f61095f84828501610929565b91505092915050565b5f805f6060848603121561097f5761097e61061c565b5b5f61098c8682870161077f565b935050602084013567ffffffffffffffff8111156109ad576109ac610620565b5b6109b986828701610733565b925050604084013567ffffffffffffffff8111156109da576109d9610620565b5b6109e686828701610733565b9150509250925092565b7f4e487b71000000000000000000000000000000000000000000000000000000005f52602260045260245ffd5b5f6002820490506001821680610a3457607f821691505b602082108103610a4757610a466109f0565b5b50919050565b5f81905092915050565b5f610a6182610840565b610a6b8185610a4d565b9350610a7b81856020860161085a565b80840191505092915050565b5f610a928284610a57565b915081905092915050565b5f819050815f5260205f209050919050565b5f6020601f8301049050919050565b5f82821b905092915050565b5f60088302610af97fffffffffffffffffffffffffffffffffffffffffffffffffffffffffffffffff82610abe565b610b038683610abe565b95508019841693508086168417925050509392505050565b5f819050919050565b5f610b3e610b39610b3484610760565b610b1b565b610760565b9050919050565b5f819050919050565b610b5783610b24565b610b6b610b6382610b45565b848454610aca565b825550505050565b5f90565b610b7f610b73565b610b8a818484610b4e565b505050565b5b81811015610bad57610ba25f82610b77565b600181019050610b90565b5050565b601f821115610bf257610bc381610a9d565b610bcc84610aaf565b81016020851015610bdb578190505b610bef610be785610aaf565b830182610b8f565b50505b505050565b5f82821c905092915050565b5f610c125f1984600802610bf7565b1980831691505092915050565b5f610c2a8383610c03565b9150826002028217905092915050565b610c4382610840565b67ffffffffffffffff811115610c5c57610c5b61063c565b5b610c668254610a1d565b610c71828285610bb1565b5f60209050601f831160018114610ca2575f8415610c90578287015190505b610c9a8582610c1f565b865550610d01565b601f198416610cb086610a9d565b5f5b82811015610cd757848901518255600182019150602085019450602081019050610cb2565b86831015610cf45784890151610cf0601f891682610c03565b8355505b6001600288020188555050505b50505050505056fea2646970667358221220930512a0a793565376b1347d9ef029746f0d10429e8c0af2c639eb1c54fb50e064736f6c634300081a0033",
					"opcodes": "PUSH1 0x80 PUSH1 0x40 MSTORE PUSH1 0x40 MLOAD DUP1 PUSH1 0x60 ADD PUSH1 0x40 MSTORE DUP1 PUSH1 0x1 DUP2 MSTORE PUSH1 0x20 ADD PUSH1 0x40 MLOAD DUP1 PUSH1 0x40 ADD PUSH1 0x40 MSTORE DUP1 PUSH1 0x4 DUP2 MSTORE PUSH1 0x20 ADD PUSH32 0x4A6F616E00000000000000000000000000000000000000000000000000000000 DUP2 MSTORE POP DUP2 MSTORE PUSH1 0x20 ADD PUSH1 0x40 MLOAD DUP1 PUSH1 0x40 ADD PUSH1 0x40 MSTORE DUP1 PUSH1 0xE DUP2 MSTORE PUSH1 0x20 ADD PUSH32 0x6A6F616E40676D61696C2E636F6D000000000000000000000000000000000000 DUP2 MSTORE POP DUP2 MSTORE POP PUSH0 DUP1 DUP3 ADD MLOAD DUP2 PUSH0 ADD SSTORE PUSH1 0x20 DUP3 ADD MLOAD DUP2 PUSH1 0x1 ADD SWAP1 DUP2 PUSH2 0xA8 SWAP2 SWAP1 PUSH2 0x3B8 JUMP JUMPDEST POP PUSH1 0x40 DUP3 ADD MLOAD DUP2 PUSH1 0x2 ADD SWAP1 DUP2 PUSH2 0xBE SWAP2 SWAP1 PUSH2 0x3B8 JUMP JUMPDEST POP POP POP PUSH1 0x40 MLOAD DUP1 PUSH1 0xA0 ADD PUSH1 0x40 MSTORE DUP1 PUSH1 0x1 PUSH1 0xFF AND DUP2 MSTORE PUSH1 0x20 ADD PUSH1 0x3 PUSH1 0xFF AND DUP2 MSTORE PUSH1 0x20 ADD PUSH1 0x4 PUSH1 0xFF AND DUP2 MSTORE PUSH1 0x20 ADD PUSH1 0x5 PUSH1 0xFF AND DUP2 MSTORE PUSH1 0x20 ADD PUSH1 0x6 PUSH1 0xFF AND DUP2 MSTORE POP PUSH1 0x3 SWAP1 PUSH1 0x5 PUSH2 0x10C SWAP3 SWAP2 SWAP1 PUSH2 0x11E JUMP JUMPDEST POP CALLVALUE DUP1 ISZERO PUSH2 0x118 JUMPI PUSH0 DUP1 REVERT JUMPDEST POP PUSH2 0x487 JUMP JUMPDEST DUP3 PUSH1 0x5 DUP2 ADD SWAP3 DUP3 ISZERO PUSH2 0x152 JUMPI SWAP2 PUSH1 0x20 MUL DUP3 ADD JUMPDEST DUP3 DUP2 GT ISZERO PUSH2 0x151 JUMPI DUP3 MLOAD DUP3 SWAP1 PUSH1 0xFF AND SWAP1 SSTORE SWAP2 PUSH1 0x20 ADD SWAP2 SWAP1 PUSH1 0x1 ADD SWAP1 PUSH2 0x131 JUMP JUMPDEST JUMPDEST POP SWAP1 POP PUSH2 0x15F SWAP2 SWAP1 PUSH2 0x163 JUMP JUMPDEST POP SWAP1 JUMP JUMPDEST JUMPDEST DUP1 DUP3 GT ISZERO PUSH2 0x17A JUMPI PUSH0 DUP2 PUSH0 SWAP1 SSTORE POP PUSH1 0x1 ADD PUSH2 0x164 JUMP JUMPDEST POP SWAP1 JUMP JUMPDEST PUSH0 DUP2 MLOAD SWAP1 POP SWAP2 SWAP1 POP JUMP JUMPDEST PUSH32 0x4E487B7100000000000000000000000000000000000000000000000000000000 PUSH0 MSTORE PUSH1 0x41 PUSH1 0x4 MSTORE PUSH1 0x24 PUSH0 REVERT JUMPDEST PUSH32 0x4E487B7100000000000000000000000000000000000000000000000000000000 PUSH0 MSTORE PUSH1 0x22 PUSH1 0x4 MSTORE PUSH1 0x24 PUSH0 REVERT JUMPDEST PUSH0 PUSH1 0x2 DUP3 DIV SWAP1 POP PUSH1 0x1 DUP3 AND DUP1 PUSH2 0x1F9 JUMPI PUSH1 0x7F DUP3 AND SWAP2 POP JUMPDEST PUSH1 0x20 DUP3 LT DUP2 SUB PUSH2 0x20C JUMPI PUSH2 0x20B PUSH2 0x1B5 JUMP JUMPDEST JUMPDEST POP SWAP2 SWAP1 POP JUMP JUMPDEST PUSH0 DUP2 SWAP1 POP DUP2 PUSH0 MSTORE PUSH1 0x20 PUSH0 KECCAK256 SWAP1 POP SWAP2 SWAP1 POP JUMP JUMPDEST PUSH0 PUSH1 0x20 PUSH1 0x1F DUP4 ADD DIV SWAP1 POP SWAP2 SWAP1 POP JUMP JUMPDEST PUSH0 DUP3 DUP3 SHL SWAP1 POP SWAP3 SWAP2 POP POP JUMP JUMPDEST PUSH0 PUSH1 0x8 DUP4 MUL PUSH2 0x26E PUSH32 0xFFFFFFFFFFFFFFFFFFFFFFFFFFFFFFFFFFFFFFFFFFFFFFFFFFFFFFFFFFFFFFFF DUP3 PUSH2 0x233 JUMP JUMPDEST PUSH2 0x278 DUP7 DUP4 PUSH2 0x233 JUMP JUMPDEST SWAP6 POP DUP1 NOT DUP5 AND SWAP4 POP DUP1 DUP7 AND DUP5 OR SWAP3 POP POP POP SWAP4 SWAP3 POP POP POP JUMP JUMPDEST PUSH0 DUP2 SWAP1 POP SWAP2 SWAP1 POP JUMP JUMPDEST PUSH0 DUP2 SWAP1 POP SWAP2 SWAP1 POP JUMP JUMPDEST PUSH0 PUSH2 0x2BC PUSH2 0x2B7 PUSH2 0x2B2 DUP5 PUSH2 0x290 JUMP JUMPDEST PUSH2 0x299 JUMP JUMPDEST PUSH2 0x290 JUMP JUMPDEST SWAP1 POP SWAP2 SWAP1 POP JUMP JUMPDEST PUSH0 DUP2 SWAP1 POP SWAP2 SWAP1 POP JUMP JUMPDEST PUSH2 0x2D5 DUP4 PUSH2 0x2A2 JUMP JUMPDEST PUSH2 0x2E9 PUSH2 0x2E1 DUP3 PUSH2 0x2C3 JUMP JUMPDEST DUP5 DUP5 SLOAD PUSH2 0x23F JUMP JUMPDEST DUP3 SSTORE POP POP POP POP JUMP JUMPDEST PUSH0 SWAP1 JUMP JUMPDEST PUSH2 0x2FD PUSH2 0x2F1 JUMP JUMPDEST PUSH2 0x308 DUP2 DUP5 DUP5 PUSH2 0x2CC JUMP JUMPDEST POP POP POP JUMP JUMPDEST JUMPDEST DUP2 DUP2 LT ISZERO PUSH2 0x32B JUMPI PUSH2 0x320 PUSH0 DUP3 PUSH2 0x2F5 JUMP JUMPDEST PUSH1 0x1 DUP2 ADD SWAP1 POP PUSH2 0x30E JUMP JUMPDEST POP POP JUMP JUMPDEST PUSH1 0x1F DUP3 GT ISZERO PUSH2 0x370 JUMPI PUSH2 0x341 DUP2 PUSH2 0x212 JUMP JUMPDEST PUSH2 0x34A DUP5 PUSH2 0x224 JUMP JUMPDEST DUP2 ADD PUSH1 0x20 DUP6 LT ISZERO PUSH2 0x359 JUMPI DUP2 SWAP1 POP JUMPDEST PUSH2 0x36D PUSH2 0x365 DUP6 PUSH2 0x224 JUMP JUMPDEST DUP4 ADD DUP3 PUSH2 0x30D JUMP JUMPDEST POP POP JUMPDEST POP POP POP JUMP JUMPDEST PUSH0 DUP3 DUP3 SHR SWAP1 POP SWAP3 SWAP2 POP POP JUMP JUMPDEST PUSH0 PUSH2 0x390 PUSH0 NOT DUP5 PUSH1 0x8 MUL PUSH2 0x375 JUMP JUMPDEST NOT DUP1 DUP4 AND SWAP2 POP POP SWAP3 SWAP2 POP POP JUMP JUMPDEST PUSH0 PUSH2 0x3A8 DUP4 DUP4 PUSH2 0x381 JUMP JUMPDEST SWAP2 POP DUP3 PUSH1 0x2 MUL DUP3 OR SWAP1 POP SWAP3 SWAP2 POP POP JUMP JUMPDEST PUSH2 0x3C1 DUP3 PUSH2 0x17E JUMP JUMPDEST PUSH8 0xFFFFFFFFFFFFFFFF DUP2 GT ISZERO PUSH2 0x3DA JUMPI PUSH2 0x3D9 PUSH2 0x188 JUMP JUMPDEST JUMPDEST PUSH2 0x3E4 DUP3 SLOAD PUSH2 0x1E2 JUMP JUMPDEST PUSH2 0x3EF DUP3 DUP3 DUP6 PUSH2 0x32F JUMP JUMPDEST PUSH0 PUSH1 0x20 SWAP1 POP PUSH1 0x1F DUP4 GT PUSH1 0x1 DUP2 EQ PUSH2 0x420 JUMPI PUSH0 DUP5 ISZERO PUSH2 0x40E JUMPI DUP3 DUP8 ADD MLOAD SWAP1 POP JUMPDEST PUSH2 0x418 DUP6 DUP3 PUSH2 0x39D JUMP JUMPDEST DUP7 SSTORE POP PUSH2 0x47F JUMP JUMPDEST PUSH1 0x1F NOT DUP5 AND PUSH2 0x42E DUP7 PUSH2 0x212 JUMP JUMPDEST PUSH0 JUMPDEST DUP3 DUP2 LT ISZERO PUSH2 0x455 JUMPI DUP5 DUP10 ADD MLOAD DUP3 SSTORE PUSH1 0x1 DUP3 ADD SWAP2 POP PUSH1 0x20 DUP6 ADD SWAP5 POP PUSH1 0x20 DUP2 ADD SWAP1 POP PUSH2 0x430 JUMP JUMPDEST DUP7 DUP4 LT ISZERO PUSH2 0x472 JUMPI DUP5 DUP10 ADD MLOAD PUSH2 0x46E PUSH1 0x1F DUP10 AND DUP3 PUSH2 0x381 JUMP JUMPDEST DUP4 SSTORE POP JUMPDEST PUSH1 0x1 PUSH1 0x2 DUP9 MUL ADD DUP9 SSTORE POP POP POP JUMPDEST POP POP POP POP POP POP JUMP JUMPDEST PUSH2 0xD3F DUP1 PUSH2 0x494 PUSH0 CODECOPY PUSH0 RETURN INVALID PUSH1 0x80 PUSH1 0x40 MSTORE CALLVALUE DUP1 ISZERO PUSH2 0xF JUMPI PUSH0 DUP1 REVERT JUMPDEST POP PUSH1 0x4 CALLDATASIZE LT PUSH2 0x86 JUMPI PUSH0 CALLDATALOAD PUSH1 0xE0 SHR DUP1 PUSH4 0xA440D9C2 GT PUSH2 0x59 JUMPI DUP1 PUSH4 0xA440D9C2 EQ PUSH2 0x138 JUMPI DUP1 PUSH4 0xA5DCAB5E EQ PUSH2 0x154 JUMPI DUP1 PUSH4 0xEC084203 EQ PUSH2 0x170 JUMPI DUP1 PUSH4 0xFECB2C16 EQ PUSH2 0x1A2 JUMPI PUSH2 0x86 JUMP JUMPDEST DUP1 PUSH4 0x20716F88 EQ PUSH2 0x8A JUMPI DUP1 PUSH4 0x3A3A4FF1 EQ PUSH2 0xBA JUMPI DUP1 PUSH4 0x7A088A2E EQ PUSH2 0xEC JUMPI DUP1 PUSH4 0x8B3A12BB EQ PUSH2 0x11C JUMPI JUMPDEST PUSH0 DUP1 REVERT JUMPDEST PUSH2 0xA4 PUSH1 0x4 DUP1 CALLDATASIZE SUB DUP2 ADD SWAP1 PUSH2 0x9F SWAP2 SWAP1 PUSH2 0x793 JUMP JUMPDEST PUSH2 0x1D2 JUMP JUMPDEST PUSH1 0x40 MLOAD PUSH2 0xB1 SWAP2 SWAP1 PUSH2 0x7FC JUMP JUMPDEST PUSH1 0x40 MLOAD DUP1 SWAP2 SUB SWAP1 RETURN JUMPDEST PUSH2 0xD4 PUSH1 0x4 DUP1 CALLDATASIZE SUB DUP2 ADD SWAP1 PUSH2 0xCF SWAP2 SWAP1 PUSH2 0x815 JUMP JUMPDEST PUSH2 0x215 JUMP JUMPDEST PUSH1 0x40 MLOAD PUSH2 0xE3 SWAP4 SWAP3 SWAP2 SWAP1 PUSH2 0x8A0 JUMP JUMPDEST PUSH1 0x40 MLOAD DUP1 SWAP2 SUB SWAP1 RETURN JUMPDEST PUSH2 0x106 PUSH1 0x4 DUP1 CALLDATASIZE SUB DUP2 ADD SWAP1 PUSH2 0x101 SWAP2 SWAP1 PUSH2 0x93D JUMP JUMPDEST PUSH2 0x356 JUMP JUMPDEST PUSH1 0x40 MLOAD PUSH2 0x113 SWAP2 SWAP1 PUSH2 0x7FC JUMP JUMPDEST PUSH1 0x40 MLOAD DUP1 SWAP2 SUB SWAP1 RETURN JUMPDEST PUSH2 0x136 PUSH1 0x4 DUP1 CALLDATASIZE SUB DUP2 ADD SWAP1 PUSH2 0x131 SWAP2 SWAP1 PUSH2 0x793 JUMP JUMPDEST PUSH2 0x36B JUMP JUMPDEST STOP JUMPDEST PUSH2 0x152 PUSH1 0x4 DUP1 CALLDATASIZE SUB DUP2 ADD SWAP1 PUSH2 0x14D SWAP2 SWAP1 PUSH2 0x968 JUMP JUMPDEST PUSH2 0x3B1 JUMP JUMPDEST STOP JUMPDEST PUSH2 0x16E PUSH1 0x4 DUP1 CALLDATASIZE SUB DUP2 ADD SWAP1 PUSH2 0x169 SWAP2 SWAP1 PUSH2 0x968 JUMP JUMPDEST PUSH2 0x434 JUMP JUMPDEST STOP JUMPDEST PUSH2 0x18A PUSH1 0x4 DUP1 CALLDATASIZE SUB DUP2 ADD SWAP1 PUSH2 0x185 SWAP2 SWAP1 PUSH2 0x93D JUMP JUMPDEST PUSH2 0x4C8 JUMP JUMPDEST PUSH1 0x40 MLOAD PUSH2 0x199 SWAP4 SWAP3 SWAP2 SWAP1 PUSH2 0x8A0 JUMP JUMPDEST PUSH1 0x40 MLOAD DUP1 SWAP2 SUB SWAP1 RETURN JUMPDEST PUSH2 0x1BC PUSH1 0x4 DUP1 CALLDATASIZE SUB DUP2 ADD SWAP1 PUSH2 0x1B7 SWAP2 SWAP1 PUSH2 0x815 JUMP JUMPDEST PUSH2 0x5FA JUMP JUMPDEST PUSH1 0x40 MLOAD PUSH2 0x1C9 SWAP2 SWAP1 PUSH2 0x7FC JUMP JUMPDEST PUSH1 0x40 MLOAD DUP1 SWAP2 SUB SWAP1 RETURN JUMPDEST PUSH1 0xB DUP3 DUP1 MLOAD PUSH1 0x20 DUP2 ADD DUP3 ADD DUP1 MLOAD DUP5 DUP3 MSTORE PUSH1 0x20 DUP4 ADD PUSH1 0x20 DUP6 ADD KECCAK256 DUP2 DUP4 MSTORE DUP1 SWAP6 POP POP POP POP POP POP DUP2 DUP2 SLOAD DUP2 LT PUSH2 0x203 JUMPI PUSH0 DUP1 REVERT JUMPDEST SWAP1 PUSH0 MSTORE PUSH1 0x20 PUSH0 KECCAK256 ADD PUSH0 SWAP2 POP SWAP2 POP POP SLOAD DUP2 JUMP JUMPDEST PUSH1 0x9 DUP2 DUP2 SLOAD DUP2 LT PUSH2 0x224 JUMPI PUSH0 DUP1 REVERT JUMPDEST SWAP1 PUSH0 MSTORE PUSH1 0x20 PUSH0 KECCAK256 SWAP1 PUSH1 0x3 MUL ADD PUSH0 SWAP2 POP SWAP1 POP DUP1 PUSH0 ADD SLOAD SWAP1 DUP1 PUSH1 0x1 ADD DUP1 SLOAD PUSH2 0x249 SWAP1 PUSH2 0xA1D JUMP JUMPDEST DUP1 PUSH1 0x1F ADD PUSH1 0x20 DUP1 SWAP2 DIV MUL PUSH1 0x20 ADD PUSH1 0x40 MLOAD SWAP1 DUP2 ADD PUSH1 0x40 MSTORE DUP1 SWAP3 SWAP2 SWAP1 DUP2 DUP2 MSTORE PUSH1 0x20 ADD DUP3 DUP1 SLOAD PUSH2 0x275 SWAP1 PUSH2 0xA1D JUMP JUMPDEST DUP1 ISZERO PUSH2 0x2C0 JUMPI DUP1 PUSH1 0x1F LT PUSH2 0x297 JUMPI PUSH2 0x100 DUP1 DUP4 SLOAD DIV MUL DUP4 MSTORE SWAP2 PUSH1 0x20 ADD SWAP2 PUSH2 0x2C0 JUMP JUMPDEST DUP3 ADD SWAP2 SWAP1 PUSH0 MSTORE PUSH1 0x20 PUSH0 KECCAK256 SWAP1 JUMPDEST DUP2 SLOAD DUP2 MSTORE SWAP1 PUSH1 0x1 ADD SWAP1 PUSH1 0x20 ADD DUP1 DUP4 GT PUSH2 0x2A3 JUMPI DUP3 SWAP1 SUB PUSH1 0x1F AND DUP3 ADD SWAP2 JUMPDEST POP POP POP POP POP SWAP1 DUP1 PUSH1 0x2 ADD DUP1 SLOAD PUSH2 0x2D5 SWAP1 PUSH2 0xA1D JUMP JUMPDEST DUP1 PUSH1 0x1F ADD PUSH1 0x20 DUP1 SWAP2 DIV MUL PUSH1 0x20 ADD PUSH1 0x40 MLOAD SWAP1 DUP2 ADD PUSH1 0x40 MSTORE DUP1 SWAP3 SWAP2 SWAP1 DUP2 DUP2 MSTORE PUSH1 0x20 ADD DUP3 DUP1 SLOAD PUSH2 0x301 SWAP1 PUSH2 0xA1D JUMP JUMPDEST DUP1 ISZERO PUSH2 0x34C JUMPI DUP1 PUSH1 0x1F LT PUSH2 0x323 JUMPI PUSH2 0x100 DUP1 DUP4 SLOAD DIV MUL DUP4 MSTORE SWAP2 PUSH1 0x20 ADD SWAP2 PUSH2 0x34C JUMP JUMPDEST DUP3 ADD SWAP2 SWAP1 PUSH0 MSTORE PUSH1 0x20 PUSH0 KECCAK256 SWAP1 JUMPDEST DUP2 SLOAD DUP2 MSTORE SWAP1 PUSH1 0x1 ADD SWAP1 PUSH1 0x20 ADD DUP1 DUP4 GT PUSH2 0x32F JUMPI DUP3 SWAP1 SUB PUSH1 0x1F AND DUP3 ADD SWAP2 JUMPDEST POP POP POP POP POP SWAP1 POP DUP4 JUMP JUMPDEST PUSH1 0xA PUSH1 0x20 MSTORE DUP1 PUSH0 MSTORE PUSH1 0x40 PUSH0 KECCAK256 PUSH0 SWAP2 POP SWAP1 POP SLOAD DUP2 JUMP JUMPDEST PUSH1 0xB DUP3 PUSH1 0x40 MLOAD PUSH2 0x37B SWAP2 SWAP1 PUSH2 0xA87 JUMP JUMPDEST SWAP1 DUP2 MSTORE PUSH1 0x20 ADD PUSH1 0x40 MLOAD DUP1 SWAP2 SUB SWAP1 KECCAK256 DUP2 SWAP1 DUP1 PUSH1 0x1 DUP2 SLOAD ADD DUP1 DUP3 SSTORE DUP1 SWAP2 POP POP PUSH1 0x1 SWAP1 SUB SWAP1 PUSH0 MSTORE PUSH1 0x20 PUSH0 KECCAK256 ADD PUSH0 SWAP1 SWAP2 SWAP1 SWAP2 SWAP1 SWAP2 POP SSTORE POP POP JUMP JUMPDEST PUSH0 PUSH1 0x40 MLOAD DUP1 PUSH1 0x60 ADD PUSH1 0x40 MSTORE DUP1 DUP6 DUP2 MSTORE PUSH1 0x20 ADD DUP5 DUP2 MSTORE PUSH1 0x20 ADD DUP4 DUP2 MSTORE POP SWAP1 POP PUSH1 0x9 DUP2 SWAP1 DUP1 PUSH1 0x1 DUP2 SLOAD ADD DUP1 DUP3 SSTORE DUP1 SWAP2 POP POP PUSH1 0x1 SWAP1 SUB SWAP1 PUSH0 MSTORE PUSH1 0x20 PUSH0 KECCAK256 SWAP1 PUSH1 0x3 MUL ADD PUSH0 SWAP1 SWAP2 SWAP1 SWAP2 SWAP1 SWAP2 POP PUSH0 DUP3 ADD MLOAD DUP2 PUSH0 ADD SSTORE PUSH1 0x20 DUP3 ADD MLOAD DUP2 PUSH1 0x1 ADD SWAP1 DUP2 PUSH2 0x415 SWAP2 SWAP1 PUSH2 0xC3A JUMP JUMPDEST POP PUSH1 0x40 DUP3 ADD MLOAD DUP2 PUSH1 0x2 ADD SWAP1 DUP2 PUSH2 0x42B SWAP2 SWAP1 PUSH2 0xC3A JUMP JUMPDEST POP POP POP POP POP POP POP JUMP JUMPDEST PUSH1 0x40 MLOAD DUP1 PUSH1 0x60 ADD PUSH1 0x40 MSTORE DUP1 DUP5 DUP2 MSTORE PUSH1 0x20 ADD DUP4 DUP2 MSTORE PUSH1 0x20 ADD DUP3 DUP2 MSTORE POP PUSH1 0xC PUSH0 CALLER PUSH20 0xFFFFFFFFFFFFFFFFFFFFFFFFFFFFFFFFFFFFFFFF AND PUSH20 0xFFFFFFFFFFFFFFFFFFFFFFFFFFFFFFFFFFFFFFFF AND DUP2 MSTORE PUSH1 0x20 ADD SWAP1 DUP2 MSTORE PUSH1 0x20 ADD PUSH0 KECCAK256 PUSH0 DUP3 ADD MLOAD DUP2 PUSH0 ADD SSTORE PUSH1 0x20 DUP3 ADD MLOAD DUP2 PUSH1 0x1 ADD SWAP1 DUP2 PUSH2 0x4A9 SWAP2 SWAP1 PUSH2 0xC3A JUMP JUMPDEST POP PUSH1 0x40 DUP3 ADD MLOAD DUP2 PUSH1 0x2 ADD SWAP1 DUP2 PUSH2 0x4BF SWAP2 SWAP1 PUSH2 0xC3A JUMP JUMPDEST POP SWAP1 POP POP POP POP POP JUMP JUMPDEST PUSH1 0xC PUSH1 0x20 MSTORE DUP1 PUSH0 MSTORE PUSH1 0x40 PUSH0 KECCAK256 PUSH0 SWAP2 POP SWAP1 POP DUP1 PUSH0 ADD SLOAD SWAP1 DUP1 PUSH1 0x1 ADD DUP1 SLOAD PUSH2 0x4ED SWAP1 PUSH2 0xA1D JUMP JUMPDEST DUP1 PUSH1 0x1F ADD PUSH1 0x20 DUP1 SWAP2 DIV MUL PUSH1 0x20 ADD PUSH1 0x40 MLOAD SWAP1 DUP2 ADD PUSH1 0x40 MSTORE DUP1 SWAP3 SWAP2 SWAP1 DUP2 DUP2 MSTORE PUSH1 0x20 ADD DUP3 DUP1 SLOAD PUSH2 0x519 SWAP1 PUSH2 0xA1D JUMP JUMPDEST DUP1 ISZERO PUSH2 0x564 JUMPI DUP1 PUSH1 0x1F LT PUSH2 0x53B JUMPI PUSH2 0x100 DUP1 DUP4 SLOAD DIV MUL DUP4 MSTORE SWAP2 PUSH1 0x20 ADD SWAP2 PUSH2 0x564 JUMP JUMPDEST DUP3 ADD SWAP2 SWAP1 PUSH0 MSTORE PUSH1 0x20 PUSH0 KECCAK256 SWAP1 JUMPDEST DUP2 SLOAD DUP2 MSTORE SWAP1 PUSH1 0x1 ADD SWAP1 PUSH1 0x20 ADD DUP1 DUP4 GT PUSH2 0x547 JUMPI DUP3 SWAP1 SUB PUSH1 0x1F AND DUP3 ADD SWAP2 JUMPDEST POP POP POP POP POP SWAP1 DUP1 PUSH1 0x2 ADD DUP1 SLOAD PUSH2 0x579 SWAP1 PUSH2 0xA1D JUMP JUMPDEST DUP1 PUSH1 0x1F ADD PUSH1 0x20 DUP1 SWAP2 DIV MUL PUSH1 0x20 ADD PUSH1 0x40 MLOAD SWAP1 DUP2 ADD PUSH1 0x40 MSTORE DUP1 SWAP3 SWAP2 SWAP1 DUP2 DUP2 MSTORE PUSH1 0x20 ADD DUP3 DUP1 SLOAD PUSH2 0x5A5 SWAP1 PUSH2 0xA1D JUMP JUMPDEST DUP1 ISZERO PUSH2 0x5F0 JUMPI DUP1 PUSH1 0x1F LT PUSH2 0x5C7 JUMPI PUSH2 0x100 DUP1 DUP4 SLOAD DIV MUL DUP4 MSTORE SWAP2 PUSH1 0x20 ADD SWAP2 PUSH2 0x5F0 JUMP JUMPDEST DUP3 ADD SWAP2 SWAP1 PUSH0 MSTORE PUSH1 0x20 PUSH0 KECCAK256 SWAP1 JUMPDEST DUP2 SLOAD DUP2 MSTORE SWAP1 PUSH1 0x1 ADD SWAP1 PUSH1 0x20 ADD DUP1 DUP4 GT PUSH2 0x5D3 JUMPI DUP3 SWAP1 SUB PUSH1 0x1F AND DUP3 ADD SWAP2 JUMPDEST POP POP POP POP POP SWAP1 POP DUP4 JUMP JUMPDEST PUSH1 0x3 DUP2 PUSH1 0x5 DUP2 LT PUSH2 0x609 JUMPI PUSH0 DUP1 REVERT JUMPDEST ADD PUSH0 SWAP2 POP SWAP1 POP SLOAD DUP2 JUMP JUMPDEST PUSH0 PUSH1 0x40 MLOAD SWAP1 POP SWAP1 JUMP JUMPDEST PUSH0 DUP1 REVERT JUMPDEST PUSH0 DUP1 REVERT JUMPDEST PUSH0 DUP1 REVERT JUMPDEST PUSH0 DUP1 REVERT JUMPDEST PUSH0 PUSH1 0x1F NOT PUSH1 0x1F DUP4 ADD AND SWAP1 POP SWAP2 SWAP1 POP JUMP JUMPDEST PUSH32 0x4E487B7100000000000000000000000000000000000000000000000000000000 PUSH0 MSTORE PUSH1 0x41 PUSH1 0x4 MSTORE PUSH1 0x24 PUSH0 REVERT JUMPDEST PUSH2 0x672 DUP3 PUSH2 0x62C JUMP JUMPDEST DUP2 ADD DUP2 DUP2 LT PUSH8 0xFFFFFFFFFFFFFFFF DUP3 GT OR ISZERO PUSH2 0x691 JUMPI PUSH2 0x690 PUSH2 0x63C JUMP JUMPDEST JUMPDEST DUP1 PUSH1 0x40 MSTORE POP POP POP JUMP JUMPDEST PUSH0 PUSH2 0x6A3 PUSH2 0x613 JUMP JUMPDEST SWAP1 POP PUSH2 0x6AF DUP3 DUP3 PUSH2 0x669 JUMP JUMPDEST SWAP2 SWAP1 POP JUMP JUMPDEST PUSH0 PUSH8 0xFFFFFFFFFFFFFFFF DUP3 GT ISZERO PUSH2 0x6CE JUMPI PUSH2 0x6CD PUSH2 0x63C JUMP JUMPDEST JUMPDEST PUSH2 0x6D7 DUP3 PUSH2 0x62C JUMP JUMPDEST SWAP1 POP PUSH1 0x20 DUP2 ADD SWAP1 POP SWAP2 SWAP1 POP JUMP JUMPDEST DUP3 DUP2 DUP4 CALLDATACOPY PUSH0 DUP4 DUP4 ADD MSTORE POP POP POP JUMP JUMPDEST PUSH0 PUSH2 0x704 PUSH2 0x6FF DUP5 PUSH2 0x6B4 JUMP JUMPDEST PUSH2 0x69A JUMP JUMPDEST SWAP1 POP DUP3 DUP2 MSTORE PUSH1 0x20 DUP2 ADD DUP5 DUP5 DUP5 ADD GT ISZERO PUSH2 0x720 JUMPI PUSH2 0x71F PUSH2 0x628 JUMP JUMPDEST JUMPDEST PUSH2 0x72B DUP5 DUP3 DUP6 PUSH2 0x6E4 JUMP JUMPDEST POP SWAP4 SWAP3 POP POP POP JUMP JUMPDEST PUSH0 DUP3 PUSH1 0x1F DUP4 ADD SLT PUSH2 0x747 JUMPI PUSH2 0x746 PUSH2 0x624 JUMP JUMPDEST JUMPDEST DUP2 CALLDATALOAD PUSH2 0x757 DUP5 DUP3 PUSH1 0x20 DUP7 ADD PUSH2 0x6F2 JUMP JUMPDEST SWAP2 POP POP SWAP3 SWAP2 POP POP JUMP JUMPDEST PUSH0 DUP2 SWAP1 POP SWAP2 SWAP1 POP JUMP JUMPDEST PUSH2 0x772 DUP2 PUSH2 0x760 JUMP JUMPDEST DUP2 EQ PUSH2 0x77C JUMPI PUSH0 DUP1 REVERT JUMPDEST POP JUMP JUMPDEST PUSH0 DUP2 CALLDATALOAD SWAP1 POP PUSH2 0x78D DUP2 PUSH2 0x769 JUMP JUMPDEST SWAP3 SWAP2 POP POP JUMP JUMPDEST PUSH0 DUP1 PUSH1 0x40 DUP4 DUP6 SUB SLT ISZERO PUSH2 0x7A9 JUMPI PUSH2 0x7A8 PUSH2 0x61C JUMP JUMPDEST JUMPDEST PUSH0 DUP4 ADD CALLDATALOAD PUSH8 0xFFFFFFFFFFFFFFFF DUP2 GT ISZERO PUSH2 0x7C6 JUMPI PUSH2 0x7C5 PUSH2 0x620 JUMP JUMPDEST JUMPDEST PUSH2 0x7D2 DUP6 DUP3 DUP7 ADD PUSH2 0x733 JUMP JUMPDEST SWAP3 POP POP PUSH1 0x20 PUSH2 0x7E3 DUP6 DUP3 DUP7 ADD PUSH2 0x77F JUMP JUMPDEST SWAP2 POP POP SWAP3 POP SWAP3 SWAP1 POP JUMP JUMPDEST PUSH2 0x7F6 DUP2 PUSH2 0x760 JUMP JUMPDEST DUP3 MSTORE POP POP JUMP JUMPDEST PUSH0 PUSH1 0x20 DUP3 ADD SWAP1 POP PUSH2 0x80F PUSH0 DUP4 ADD DUP5 PUSH2 0x7ED JUMP JUMPDEST SWAP3 SWAP2 POP POP JUMP JUMPDEST PUSH0 PUSH1 0x20 DUP3 DUP5 SUB SLT ISZERO PUSH2 0x82A JUMPI PUSH2 0x829 PUSH2 0x61C JUMP JUMPDEST JUMPDEST PUSH0 PUSH2 0x837 DUP5 DUP3 DUP6 ADD PUSH2 0x77F JUMP JUMPDEST SWAP2 POP POP SWAP3 SWAP2 POP POP JUMP JUMPDEST PUSH0 DUP2 MLOAD SWAP1 POP SWAP2 SWAP1 POP JUMP JUMPDEST PUSH0 DUP3 DUP3 MSTORE PUSH1 0x20 DUP3 ADD SWAP1 POP SWAP3 SWAP2 POP POP JUMP JUMPDEST DUP3 DUP2 DUP4 MCOPY PUSH0 DUP4 DUP4 ADD MSTORE POP POP POP JUMP JUMPDEST PUSH0 PUSH2 0x872 DUP3 PUSH2 0x840 JUMP JUMPDEST PUSH2 0x87C DUP2 DUP6 PUSH2 0x84A JUMP JUMPDEST SWAP4 POP PUSH2 0x88C DUP2 DUP6 PUSH1 0x20 DUP7 ADD PUSH2 0x85A JUMP JUMPDEST PUSH2 0x895 DUP2 PUSH2 0x62C JUMP JUMPDEST DUP5 ADD SWAP2 POP POP SWAP3 SWAP2 POP POP JUMP JUMPDEST PUSH0 PUSH1 0x60 DUP3 ADD SWAP1 POP PUSH2 0x8B3 PUSH0 DUP4 ADD DUP7 PUSH2 0x7ED JUMP JUMPDEST DUP2 DUP2 SUB PUSH1 0x20 DUP4 ADD MSTORE PUSH2 0x8C5 DUP2 DUP6 PUSH2 0x868 JUMP JUMPDEST SWAP1 POP DUP2 DUP2 SUB PUSH1 0x40 DUP4 ADD MSTORE PUSH2 0x8D9 DUP2 DUP5 PUSH2 0x868 JUMP JUMPDEST SWAP1 POP SWAP5 SWAP4 POP POP POP POP JUMP JUMPDEST PUSH0 PUSH20 0xFFFFFFFFFFFFFFFFFFFFFFFFFFFFFFFFFFFFFFFF DUP3 AND SWAP1 POP SWAP2 SWAP1 POP JUMP JUMPDEST PUSH0 PUSH2 0x90C DUP3 PUSH2 0x8E3 JUMP JUMPDEST SWAP1 POP SWAP2 SWAP1 POP JUMP JUMPDEST PUSH2 0x91C DUP2 PUSH2 0x902 JUMP JUMPDEST DUP2 EQ PUSH2 0x926 JUMPI PUSH0 DUP1 REVERT JUMPDEST POP JUMP JUMPDEST PUSH0 DUP2 CALLDATALOAD SWAP1 POP PUSH2 0x937 DUP2 PUSH2 0x913 JUMP JUMPDEST SWAP3 SWAP2 POP POP JUMP JUMPDEST PUSH0 PUSH1 0x20 DUP3 DUP5 SUB SLT ISZERO PUSH2 0x952 JUMPI PUSH2 0x951 PUSH2 0x61C JUMP JUMPDEST JUMPDEST PUSH0 PUSH2 0x95F DUP5 DUP3 DUP6 ADD PUSH2 0x929 JUMP JUMPDEST SWAP2 POP POP SWAP3 SWAP2 POP POP JUMP JUMPDEST PUSH0 DUP1 PUSH0 PUSH1 0x60 DUP5 DUP7 SUB SLT ISZERO PUSH2 0x97F JUMPI PUSH2 0x97E PUSH2 0x61C JUMP JUMPDEST JUMPDEST PUSH0 PUSH2 0x98C DUP7 DUP3 DUP8 ADD PUSH2 0x77F JUMP JUMPDEST SWAP4 POP POP PUSH1 0x20 DUP5 ADD CALLDATALOAD PUSH8 0xFFFFFFFFFFFFFFFF DUP2 GT ISZERO PUSH2 0x9AD JUMPI PUSH2 0x9AC PUSH2 0x620 JUMP JUMPDEST JUMPDEST PUSH2 0x9B9 DUP7 DUP3 DUP8 ADD PUSH2 0x733 JUMP JUMPDEST SWAP3 POP POP PUSH1 0x40 DUP5 ADD CALLDATALOAD PUSH8 0xFFFFFFFFFFFFFFFF DUP2 GT ISZERO PUSH2 0x9DA JUMPI PUSH2 0x9D9 PUSH2 0x620 JUMP JUMPDEST JUMPDEST PUSH2 0x9E6 DUP7 DUP3 DUP8 ADD PUSH2 0x733 JUMP JUMPDEST SWAP2 POP POP SWAP3 POP SWAP3 POP SWAP3 JUMP JUMPDEST PUSH32 0x4E487B7100000000000000000000000000000000000000000000000000000000 PUSH0 MSTORE PUSH1 0x22 PUSH1 0x4 MSTORE PUSH1 0x24 PUSH0 REVERT JUMPDEST PUSH0 PUSH1 0x2 DUP3 DIV SWAP1 POP PUSH1 0x1 DUP3 AND DUP1 PUSH2 0xA34 JUMPI PUSH1 0x7F DUP3 AND SWAP2 POP JUMPDEST PUSH1 0x20 DUP3 LT DUP2 SUB PUSH2 0xA47 JUMPI PUSH2 0xA46 PUSH2 0x9F0 JUMP JUMPDEST JUMPDEST POP SWAP2 SWAP1 POP JUMP JUMPDEST PUSH0 DUP2 SWAP1 POP SWAP3 SWAP2 POP POP JUMP JUMPDEST PUSH0 PUSH2 0xA61 DUP3 PUSH2 0x840 JUMP JUMPDEST PUSH2 0xA6B DUP2 DUP6 PUSH2 0xA4D JUMP JUMPDEST SWAP4 POP PUSH2 0xA7B DUP2 DUP6 PUSH1 0x20 DUP7 ADD PUSH2 0x85A JUMP JUMPDEST DUP1 DUP5 ADD SWAP2 POP POP SWAP3 SWAP2 POP POP JUMP JUMPDEST PUSH0 PUSH2 0xA92 DUP3 DUP5 PUSH2 0xA57 JUMP JUMPDEST SWAP2 POP DUP2 SWAP1 POP SWAP3 SWAP2 POP POP JUMP JUMPDEST PUSH0 DUP2 SWAP1 POP DUP2 PUSH0 MSTORE PUSH1 0x20 PUSH0 KECCAK256 SWAP1 POP SWAP2 SWAP1 POP JUMP JUMPDEST PUSH0 PUSH1 0x20 PUSH1 0x1F DUP4 ADD DIV SWAP1 POP SWAP2 SWAP1 POP JUMP JUMPDEST PUSH0 DUP3 DUP3 SHL SWAP1 POP SWAP3 SWAP2 POP POP JUMP JUMPDEST PUSH0 PUSH1 0x8 DUP4 MUL PUSH2 0xAF9 PUSH32 0xFFFFFFFFFFFFFFFFFFFFFFFFFFFFFFFFFFFFFFFFFFFFFFFFFFFFFFFFFFFFFFFF DUP3 PUSH2 0xABE JUMP JUMPDEST PUSH2 0xB03 DUP7 DUP4 PUSH2 0xABE JUMP JUMPDEST SWAP6 POP DUP1 NOT DUP5 AND SWAP4 POP DUP1 DUP7 AND DUP5 OR SWAP3 POP POP POP SWAP4 SWAP3 POP POP POP JUMP JUMPDEST PUSH0 DUP2 SWAP1 POP SWAP2 SWAP1 POP JUMP JUMPDEST PUSH0 PUSH2 0xB3E PUSH2 0xB39 PUSH2 0xB34 DUP5 PUSH2 0x760 JUMP JUMPDEST PUSH2 0xB1B JUMP JUMPDEST PUSH2 0x760 JUMP JUMPDEST SWAP1 POP SWAP2 SWAP1 POP JUMP JUMPDEST PUSH0 DUP2 SWAP1 POP SWAP2 SWAP1 POP JUMP JUMPDEST PUSH2 0xB57 DUP4 PUSH2 0xB24 JUMP JUMPDEST PUSH2 0xB6B PUSH2 0xB63 DUP3 PUSH2 0xB45 JUMP JUMPDEST DUP5 DUP5 SLOAD PUSH2 0xACA JUMP JUMPDEST DUP3 SSTORE POP POP POP POP JUMP JUMPDEST PUSH0 SWAP1 JUMP JUMPDEST PUSH2 0xB7F PUSH2 0xB73 JUMP JUMPDEST PUSH2 0xB8A DUP2 DUP5 DUP5 PUSH2 0xB4E JUMP JUMPDEST POP POP POP JUMP JUMPDEST JUMPDEST DUP2 DUP2 LT ISZERO PUSH2 0xBAD JUMPI PUSH2 0xBA2 PUSH0 DUP3 PUSH2 0xB77 JUMP JUMPDEST PUSH1 0x1 DUP2 ADD SWAP1 POP PUSH2 0xB90 JUMP JUMPDEST POP POP JUMP JUMPDEST PUSH1 0x1F DUP3 GT ISZERO PUSH2 0xBF2 JUMPI PUSH2 0xBC3 DUP2 PUSH2 0xA9D JUMP JUMPDEST PUSH2 0xBCC DUP5 PUSH2 0xAAF JUMP JUMPDEST DUP2 ADD PUSH1 0x20 DUP6 LT ISZERO PUSH2 0xBDB JUMPI DUP2 SWAP1 POP JUMPDEST PUSH2 0xBEF PUSH2 0xBE7 DUP6 PUSH2 0xAAF JUMP JUMPDEST DUP4 ADD DUP3 PUSH2 0xB8F JUMP JUMPDEST POP POP JUMPDEST POP POP POP JUMP JUMPDEST PUSH0 DUP3 DUP3 SHR SWAP1 POP SWAP3 SWAP2 POP POP JUMP JUMPDEST PUSH0 PUSH2 0xC12 PUSH0 NOT DUP5 PUSH1 0x8 MUL PUSH2 0xBF7 JUMP JUMPDEST NOT DUP1 DUP4 AND SWAP2 POP POP SWAP3 SWAP2 POP POP JUMP JUMPDEST PUSH0 PUSH2 0xC2A DUP4 DUP4 PUSH2 0xC03 JUMP JUMPDEST SWAP2 POP DUP3 PUSH1 0x2 MUL DUP3 OR SWAP1 POP SWAP3 SWAP2 POP POP JUMP JUMPDEST PUSH2 0xC43 DUP3 PUSH2 0x840 JUMP JUMPDEST PUSH8 0xFFFFFFFFFFFFFFFF DUP2 GT ISZERO PUSH2 0xC5C JUMPI PUSH2 0xC5B PUSH2 0x63C JUMP JUMPDEST JUMPDEST PUSH2 0xC66 DUP3 SLOAD PUSH2 0xA1D JUMP JUMPDEST PUSH2 0xC71 DUP3 DUP3 DUP6 PUSH2 0xBB1 JUMP JUMPDEST PUSH0 PUSH1 0x20 SWAP1 POP PUSH1 0x1F DUP4 GT PUSH1 0x1 DUP2 EQ PUSH2 0xCA2 JUMPI PUSH0 DUP5 ISZERO PUSH2 0xC90 JUMPI DUP3 DUP8 ADD MLOAD SWAP1 POP JUMPDEST PUSH2 0xC9A DUP6 DUP3 PUSH2 0xC1F JUMP JUMPDEST DUP7 SSTORE POP PUSH2 0xD01 JUMP JUMPDEST PUSH1 0x1F NOT DUP5 AND PUSH2 0xCB0 DUP7 PUSH2 0xA9D JUMP JUMPDEST PUSH0 JUMPDEST DUP3 DUP2 LT ISZERO PUSH2 0xCD7 JUMPI DUP5 DUP10 ADD MLOAD DUP3 SSTORE PUSH1 0x1 DUP3 ADD SWAP2 POP PUSH1 0x20 DUP6 ADD SWAP5 POP PUSH1 0x20 DUP2 ADD SWAP1 POP PUSH2 0xCB2 JUMP JUMPDEST DUP7 DUP4 LT ISZERO PUSH2 0xCF4 JUMPI DUP5 DUP10 ADD MLOAD PUSH2 0xCF0 PUSH1 0x1F DUP10 AND DUP3 PUSH2 0xC03 JUMP JUMPDEST DUP4 SSTORE POP JUMPDEST PUSH1 0x1 PUSH1 0x2 DUP9 MUL ADD DUP9 SSTORE POP POP POP JUMPDEST POP POP POP POP POP POP JUMP INVALID LOG2 PUSH5 0x6970667358 0x22 SLT KECCAK256 SWAP4 SDIV SLT LOG0 0xA7 SWAP4 JUMP MSTORE8 PUSH23 0xB1347D9EF029746F0D10429E8C0AF2C639EB1C54FB50E0 PUSH5 0x736F6C6343 STOP ADDMOD BYTE STOP CALLER "
				},
				"gasEstimates": {
					"creation": {
						"codeDepositCost": "678200",
						"executionCost": "infinite",
						"totalCost": "infinite"
					},
					"external": {
						"addClient(uint256,string,string)": "infinite",
						"address_dataStructures(address)": "infinite",
						"address_uint(address)": "2847",
						"arrayModifications(uint256,string,string)": "infinite",
						"dynamic_list_Custumer(uint256)": "infinite",
						"fixed_list_uints(uint256)": "infinite",
						"insertInMappings(string,uint256)": "infinite",
						"string_listUnits(string,uint256)": "infinite"
					}
				},
				"methodIdentifiers": {
					"addClient(uint256,string,string)": "a5dcab5e",
					"address_dataStructures(address)": "ec084203",
					"address_uint(address)": "7a088a2e",
					"arrayModifications(uint256,string,string)": "a440d9c2",
					"dynamic_list_Custumer(uint256)": "3a3a4ff1",
					"fixed_list_uints(uint256)": "fecb2c16",
					"insertInMappings(string,uint256)": "8b3a12bb",
					"string_listUnits(string,uint256)": "20716f88"
				}
			},
			"storageLayout": {
				"storage": [
					{
						"astId": 16,
						"contract": "contracts/estructuras_datos.sol:dataStructures",
						"label": "custumer1",
						"offset": 0,
						"slot": "0",
						"type": "t_struct(Custumer)8_storage"
					},
					{
						"astId": 26,
						"contract": "contracts/estructuras_datos.sol:dataStructures",
						"label": "fixed_list_uints",
						"offset": 0,
						"slot": "3",
						"type": "t_array(t_uint256)5_storage"
					},
					{
						"astId": 29,
						"contract": "contracts/estructuras_datos.sol:dataStructures",
						"label": "dynamic_list_uints",
						"offset": 0,
						"slot": "8",
						"type": "t_array(t_uint256)dyn_storage"
					},
					{
						"astId": 33,
						"contract": "contracts/estructuras_datos.sol:dataStructures",
						"label": "dynamic_list_Custumer",
						"offset": 0,
						"slot": "9",
						"type": "t_array(t_struct(Custumer)8_storage)dyn_storage"
					},
					{
						"astId": 37,
						"contract": "contracts/estructuras_datos.sol:dataStructures",
						"label": "address_uint",
						"offset": 0,
						"slot": "10",
						"type": "t_mapping(t_address,t_uint256)"
					},
					{
						"astId": 42,
						"contract": "contracts/estructuras_datos.sol:dataStructures",
						"label": "string_listUnits",
						"offset": 0,
						"slot": "11",
						"type": "t_mapping(t_string_memory_ptr,t_array(t_uint256)dyn_storage)"
					},
					{
						"astId": 47,
						"contract": "contracts/estructuras_datos.sol:dataStructures",
						"label": "address_dataStructures",
						"offset": 0,
						"slot": "12",
						"type": "t_mapping(t_address,t_struct(Custumer)8_storage)"
					}
				],
				"types": {
					"t_address": {
						"encoding": "inplace",
						"label": "address",
						"numberOfBytes": "20"
					},
					"t_array(t_struct(Custumer)8_storage)dyn_storage": {
						"base": "t_struct(Custumer)8_storage",
						"encoding": "dynamic_array",
						"label": "struct dataStructures.Custumer[]",
						"numberOfBytes": "32"
					},
					"t_array(t_uint256)5_storage": {
						"base": "t_uint256",
						"encoding": "inplace",
						"label": "uint256[5]",
						"numberOfBytes": "160"
					},
					"t_array(t_uint256)dyn_storage": {
						"base": "t_uint256",
						"encoding": "dynamic_array",
						"label": "uint256[]",
						"numberOfBytes": "32"
					},
					"t_mapping(t_address,t_struct(Custumer)8_storage)": {
						"encoding": "mapping",
						"key": "t_address",
						"label": "mapping(address => struct dataStructures.Custumer)",
						"numberOfBytes": "32",
						"value": "t_struct(Custumer)8_storage"
					},
					"t_mapping(t_address,t_uint256)": {
						"encoding": "mapping",
						"key": "t_address",
						"label": "mapping(address => uint256)",
						"numberOfBytes": "32",
						"value": "t_uint256"
					},
					"t_mapping(t_string_memory_ptr,t_array(t_uint256)dyn_storage)": {
						"encoding": "mapping",
						"key": "t_string_memory_ptr",
						"label": "mapping(string => uint256[])",
						"numberOfBytes": "32",
						"value": "t_array(t_uint256)dyn_storage"
					},
					"t_string_memory_ptr": {
						"encoding": "bytes",
						"label": "string",
						"numberOfBytes": "32"
					},
					"t_string_storage": {
						"encoding": "bytes",
						"label": "string",
						"numberOfBytes": "32"
					},
					"t_struct(Custumer)8_storage": {
						"encoding": "inplace",
						"label": "struct dataStructures.Custumer",
						"members": [
							{
								"astId": 3,
								"contract": "contracts/estructuras_datos.sol:dataStructures",
								"label": "id",
								"offset": 0,
								"slot": "0",
								"type": "t_uint256"
							},
							{
								"astId": 5,
								"contract": "contracts/estructuras_datos.sol:dataStructures",
								"label": "name",
								"offset": 0,
								"slot": "1",
								"type": "t_string_storage"
							},
							{
								"astId": 7,
								"contract": "contracts/estructuras_datos.sol:dataStructures",
								"label": "email",
								"offset": 0,
								"slot": "2",
								"type": "t_string_storage"
							}
						],
						"numberOfBytes": "96"
					},
					"t_uint256": {
						"encoding": "inplace",
						"label": "uint256",
						"numberOfBytes": "32"
					}
				}
			},
			"userdoc": {
				"kind": "user",
				"methods": {},
				"version": 1
			}
		}
	}
}